:100000000C94C4000C94EC000C94EC000C94EC00E8
:100010000C941B030C94EC000C94EC000C94EC007E
:100020000C94EC000C947F030C944B030C9456033B
:100030000C94EC000C94FC030C9431040C94EC0034
:100040000C94F7020C94EC000C94EC000C94EC0073
:100050000C94EC00500E520E540E580E580E560EC4
:100060005C0E5A0EFF0000000000050400000405AD
:10007000090000FF01010000010505000005050A57
:100080000000FF02020000020506000006050B004A
:1000900000FF03030000030507000007050C000034
:1000A000FF00000000040511020004040D0000FF21
:1000B00001010000050511040005040E00000605FD
:1000C000110100FF02020000070511080080250051
:1000D00000004B00000096000000E1000000C2019B
:1000E0000001000100010001000100B004080752F6
:1000F0000300005203B0040807E8030000E803D03F
:10010000079209D60600006C07E40C100EC409E43F
:100110000CB80B100E0410C409A60EAC0D740E68BA
:1001200010B80B0A0F890C740ECC10B80B0A0F898B
:100130000C740EFE10B80B0A0F890C40066C0714E5
:1001400005400678050100A00FD00701000100015D
:1001500000A00F010001000100636865616C692D5A
:10016000636861726765720A76322E30325F3230B0
:1001700032333130313200141719181A0705061FAF
:10018000202122232400210511241FBECFE5D8E021
:10019000DEBFCDBF10E0A0E6B0E0E8E5F7E202C0C8
:1001A00005900D92A838B107D9F723E0A8E8B0E090
:1001B00001C01D92A93FB207E1F710E0C4ECD0E006
:1001C00004C02197FE010E946213C33CD107C9F706
:1001D0000E94B30A0C94AA130C9400000E941A11F6
:1001E00040E062E080E10E94D2100E947B030E9406
:1001F000F0030C947F01CF92DF92EF92FF92482F91
:10020000282F30E0A0E0BDE70E9468136B017C015D
:10021000A4E6B0E0A41BB10924E630E00E94771305
:100220006C0D7D1D8E1D9F1D24E630E040E050E0EA
:100230000E942113B9018DE0FF90EF90DF90CF90E5
:100240000C94DA03882311F0909A089590980895F9
:10025000811104C0939A969A929A0895939808955A
:10026000811102C0969A089596980895811102C04E
:10027000929A089592980895BC018EE00C94DA0346
:10028000BC018EE00C94DA0380FF02C0C09A01C06A
:10029000C09881FF02C0C19A01C0C19882FF02C00C
:1002A000C29A01C0C29883FF02C0C39A01C0C3981A
:1002B00084FF02C0DE9A01C0DE9885FF02C0DF9A8B
:1002C0000895DF98089580E00E94280180E00E9450
:1002D000220180E00E94660380E00E9444018C9A23
:1002E0008B9A889A8F9AB89AB99ABA9ABB9AD69AE0
:1002F000D79A8D9A8E9A8D9A8A9A08950895D5984C
:10030000D498DD98DC98BF9ABE9ABD9A8EEA86B9D9
:10031000369A089584B145B1E0919300E13131F10D
:100320005FB7F894282F30E0342BF0E0DF01AA0FFC
:10033000BB1FA157BD4F11963C932E9380918B000C
:10034000882391F0EE0FFF1FEE0FFF1FEF54FD4FBC
:1003500080819181A281B381820F931FA11DB11D64
:1003600080839183A283B3835FBF0CC0909194007C
:100370008091880047FD02C0982B02C09095982379
:1003800090938800C90108950E94450D9093AE0294
:100390008093AD020E94C80B9093B0028093AF028D
:1003A00080918B00882309F481C00E94450D409103
:1003B000ED025091EE026091EF027091F002480F51
:1003C000591F611D711D4093ED025093EE02609321
:1003D000EF027093F0020E94C80B4091F10250911D
:1003E000F2026091F3027091F402480F591F611DEF
:1003F000711D4093F1025093F2026093F3027093E7
:10040000F4028091F5029091F602019709F04CC038
:100410008091B9029091BA02A091BB02B091BC0246
:10042000B695A795979587958093B9029093BA0250
:10043000A093BB02B093BC028091B1029091B20232
:10044000A091B302B091B402B695A7959795879500
:100450008093B1029093B202A093B302B093B4021E
:100460008091B5029091B602A091B702B091B80206
:10047000B695A795979587958093B5029093B60208
:10048000A093B702B093B8028091BD029091BE02D2
:10049000A091BF02B091C0028093BD029093BE02B2
:1004A000A093BF02B093C0020C94AC070895809152
:1004B000150390911603892BF1F0909190009923E8
:1004C000D1F021E030E000908D0002C0220F331FF8
:1004D0000A94E2F74091F5025091F602842F8F7052
:1004E0003FB7F8944BB35BB3252B2BBB890F8A9591
:1004F000F1F74BBB3FBF089580918A008F5F853134
:1005000008F080E080938A0085E0ECE8F0E0A1E963
:10051000B0E001900D928A95E1F760918A006F5FDB
:10052000653108F060E085E0689FB00111246C59E6
:100530007F4F45E050E08CE890E00E94911380915D
:100540008A0081110CC00E94C4012091F5023091F3
:10055000F60281E0232B09F480E080938B0008955C
:10056000CF93DF930E948A012091890081E0820F5E
:1005700080938900273081F118F4222359F034C088
:10058000283071F1293081F510928900DF91CF91E7
:100590000C947C0280918C0087FD26C03FB7F894B4
:1005A00090918C0028B3492F4170C42F80E0D82F40
:1005B000CC0FDD1FCC0FDD1F92FB882780F9C82BE5
:1005C00092709C2B40E29402C0011124922F9F71E3
:1005D000892B88BB3FBF08C0DF91CF910C94570295
:1005E00080918D00806287B9DF91CF9108951F922D
:1005F0000F920FB60F9211242F933F934F935F9357
:100600006F937F938F939F93AF93BF93EF93FF93DA
:100610000E94B002FF91EF91BF91AF919F918F9196
:100620007F916F915F914F913F912F910F900FBEEE
:100630000F901F9018951F920F920FB60F921124D2
:100640002F933F934F935F936F937F938F939F93DA
:10065000AF93BF93EF93FF930E948E0EFF91EF91A4
:10066000BF91AF919F918F917F916F915F914F91CA
:100670003F912F910F900FBE0F901F90189588E01B
:1006800085BD85B5846085BD14BC8CE783BD89B705
:10069000806889BF08951F920F920FB60F921124A0
:1006A000979A0F900FBE0F901F9018951F920F9260
:1006B0000FB60F9211248F9397988091960082BF66
:1006C0008F910F900FBE0F901F901895811104C04D
:1006D00013BE12BE9798089590E09595879528E7E8
:1006E000280F2093960088589E4F959587958CBF2C
:1006F0008CE483BF089589B7836089BF08951F92F2
:100700000F920FB60F9211242F933F938F939F93C5
:1007100080919D0090919E002091990030919A00C7
:10072000820F931F90939A008093990080919B0071
:1007300090919C002091970030919800820F931F18
:1007400090939800809397002FB7F8948091990028
:1007500090919A0035E0969587953A95E1F79BBD83
:100760008ABD809197009091980035E09695879585
:100770003A95E1F799BD88BD2FBF8091990090917E
:100780009A008F71992790939A0080939900809195
:100790009700909198008F7199279093980080937B
:1007A00097009F918F913F912F910F900FBE0F90C7
:1007B0001F9018959FB7F8948E3039F470939E006F
:1007C00060939D008FB5806808C08D3039F47093B8
:1007D0009C0060939B008FB580628FBD9FBF089582
:1007E00080E094E097BD86BD82E08FBD89E18EBD3B
:1007F00089B7846089BF08951F920F920FB60F9238
:1008000011242F934F935F938F939F93EF93FF93B5
:100810005A991AC02CB18091B5019091B6010196F8
:1008200099274091B7015091B8018417950769F055
:10083000E091B501F091B601EB54FF4F2083909306
:10084000B6018093B50101C08CB1FF91EF919F91EA
:100850008F915F914F912F910F900FBE0F901F902E
:1008600018951F920F920FB60F9211242F933F935A
:100870008F939F93EF93FF932091B5013091B60131
:100880008091B7019091B8012817390711F4559854
:1008900012C0E091B701F091B801EB54FF4F2081F5
:1008A0008091B7019091B801019699279093B80172
:1008B0008093B7012CB9FF91EF919F918F913F9158
:1008C0002F910F900FBE0F901F901895CF92DF922F
:1008D000EF92FF920F931F93CF93DF93EC016A0186
:1008E0007B014115514E6105710509F1E885F985D6
:1008F00081E090E00C8802C0880F991F0A94E2F70B
:10090000808360E079E08DE390E0A70196010E948A
:10091000211389019A0101501109210931093695E4
:10092000279517950795980101151041A8F0E885BE
:10093000F985108260E874E88EE190E0A7019601E5
:100940000E942113DA01C9010197A109B109B695E5
:10095000A795979587959C01EC81FD813083EE8169
:10096000FF8120831D8AEA85FB85408181E090E03C
:100970009C01098802C0220F331F0A94E2F7242B3E
:100980002083EA85FB8540819C010A8802C0220FF2
:10099000331F0A94E2F7242B2083EA85FB8520810C
:1009A0000B8802C0880F991F0A94E2F78095822372
:1009B0008083DF91CF911F910F91FF90EF90DF9097
:1009C000CF9008950F931F93CF93DF93FC01A281E3
:1009D000B3818D011395E80188819981019699274A
:1009E000AD014E5F5E4FEA0128813981821793077E
:1009F000D1F3E80128813981A20FB31F6C93A28142
:100A0000B381B39511969C938E93A285B3852C9157
:100A100081E090E0038802C0880F991F0A94E2F7F2
:100A2000822B8C9381E0858B0084F185E02D808181
:100A30008064808381E090E0DF91CF911F910F91DE
:100A40000895EFE9F0E085EB90E091838083938354
:100A5000828380E490E09583848329E230E03783C9
:100A600026832BE230E0318720872AE230E033878B
:100A70002287958784878CE290E09787868784E039
:100A8000808B83E0818B87E0828B85E0838B81E0A4
:100A9000848B0895CF93DF931F92CDB7DEB7E0919B
:100AA000F503F091F603309711F4E9EFF3E0CE018E
:100AB00001962EEB8E179F0710F02193FBCF0F901E
:100AC000DF91CF910895CF93DF9300D0CDB7DEB7FC
:100AD0002091F5033091F6032115310511F429EF2A
:100AE00033E0CE010196821B930B0F900F90DF91A4
:100AF000CF910895CF93DF931F92CDB7DEB72091AA
:100B0000F5033091F6032115310511F429EF33E097
:100B1000F901BE016F5F7F4FCF01821B930B6E17F0
:100B20007F0728F040814E3B11F43196F5CF0F90AE
:100B3000DF91CF910895009741F0EFE9FFE0319701
:100B4000F1F700C000000197F6CF089584369105B3
:100B500038F064E670E00E940D13CB010C949B0505
:100B6000019728F025E32A95F1F70000F9CF0895C1
:100B70006AE070E00E940D13CB010C94A605E82FEB
:100B8000F0E0EE0FFF1FE359FD4F80819181089542
:100B9000E82FF0E0EE0FFF1FED5DFD4F80819181AA
:100BA00008952FB7F894E82FF0E0EE0FFF1FE157FC
:100BB000FD4F808191812FBF08958091FB020895A0
:100BC0008091D7019091D8010895613110F442309D
:100BD00040F021E030E0FC01338322833183208325
:100BE000089550E0460F511D460F511D440F551FEB
:100BF000440F551FBA01625F7F4F44E050E00C94F0
:100C00009A132FB7F89480E090E0FC01EE0FFF1FDD
:100C1000EE0FFF1FEF54FD4F1082118212821382DC
:100C200001968131910589F784E690E09093F60270
:100C30008093F5021092FA022FBF0895CF93CFB799
:100C4000F8941092D6011092D5011092D101109211
:100C5000D2011092D3011092D4011092CD011092C2
:100C6000CE011092CF011092D0011092C9011092C2
:100C7000CA011092CB011092CC010E94B60E909343
:100C8000C4018093C301CFBFCF910895E9EDF1E096
:100C90001192119282E0E332F807D1F70895CF93D1
:100CA000CFB7F89481E090E09093F6028093F5023C
:100CB0008093FA020E944606CFBFCF910895CF934A
:100CC000DF930E944F06C091D701D091D801809147
:100CD000D7019091D801C817D90729F48AE090E08C
:100CE0000E94DD0EF4CFDF91CF9108958F929F92F5
:100CF000AF92BF92CF92DF92EF92FF920F931F932A
:100D0000CF93DF93CDB7DEB728970FB6F894DEBF49
:100D10000FBECDBF6115710509F44FC05B01F82E00
:100D200040E0682FCE0105960E94E50541E06F2D59
:100D3000CE0101960E94E5052B813C81C901A0E00E
:100D4000B0E0CF80D884E12CF12C9C01AD012C19AE
:100D50003D094E095F09C501A0E0B0E08D809E808D
:100D6000A12CB12CBC01CD01681979098A099B0914
:100D70000E94FD1229813A81890120E030E0A90119
:100D80009801281939094A095B090E944313DA01BD
:100D9000C9018C0D9D1DAE1DBF1DB7FD0AC000977A
:100DA00021E0A207B1055CF08FEF9FEFA0E0B0E07B
:100DB00006C080E090E0DC0102C080E090E0289670
:100DC0000FB6F894DEBF0FBECDBFDF91CF911F915C
:100DD0000F91FF90EF90DF90CF90BF90AF909F90DA
:100DE0008F90089582508C3130F4E82FF0E0E5596F
:100DF000FF4F8081089581E00895CF93833149F4B6
:100E000081E020914D0230914E022331310589F469
:100E100013C0C82F0E94F206813069F4EC2FF0E075
:100E2000EE0FFF1FED5DFD4F2081318121393140F3
:100E300018F480E001C081E0CF910895EF92FF9215
:100E40000F931F93CF93CFE1EE24E394F12C00E0B6
:100E500010E08C2F0E94FD06882311F00E291F2917
:100E6000EE0CFF1CCF5FC532A1F7C801CF911F91D7
:100E70000F91FF90EF9008952FB7F8946091BE0105
:100E80007091BF018091C0019091C1012FBF20E0FE
:100E90003DE740E050E00E942113C90108952FB7BB
:100EA000F8948091BA019091BB01A091BC01B091DE
:100EB000BD012FBFBC01CD019695879577956795AC
:100EC00020E03DE740E050E00E942113C901089571
:100ED00040915102509152028091BE019091BF0108
:100EE000A091C001B091C101840F951FA11DB11D3A
:100EF0008093BE019093BF01A093C001B093C10144
:100F00008091B901815019F08093B901089582E36D
:100F10008093B9012091470230914802DA010E9482
:100F2000681324E630E040E050E00E9421138091F5
:100F3000BA019091BB01A091BC01B091BD01820F9B
:100F4000931FA41FB51F8093BA019093BB01A09378
:100F5000BC01B093BD0108958091F5029091F60215
:100F6000892B49F08091F5029091F60201979093B8
:100F7000F6028093F502089590E0880F991FFC0116
:100F8000ED5DFD4F208131816217730718F4261B38
:100F9000370B04C0AB01421B530B9A01FC01E75213
:100FA000FE4F2730310518F01182108206C02081D3
:100FB00031812F5F3F4F31832083FC01ED5DFD4F79
:100FC000718360830895CF93DF938FB7F894109265
:100FD000BE011092BF011092C0011092C101109287
:100FE000BA011092BB011092BC011092BD0192E3B4
:100FF0009093B9018FBFC3E2D2E06CA17DA18CE1D7
:101000000E94BC078E859F859093C6018093C50181
:101010000E944F060E941E061092C8011092C7013E
:1010200060E070E089E10E94BC0760E070E08BE165
:101030000E94BC0760E070E08DE1DF91CF910C94DD
:10104000BC071092D8011092D7010C94E3070C94BE
:1010500021089091FB0291110FC00E9428010E946B
:10106000210881E08093FB02809360000E945F066C
:101070000E94E3071092F9020895EF92FF920F93F6
:101080001F93CF93DF93C0912302D09124028091CC
:101090002502909126028C179D0718F4C81BD90BC6
:1010A00002C0C0E0D0E0BE0182E10E94BC0735E38F
:1010B000E32E32E0F32E1FE1F701619171917F0180
:1010C000812F0E94BC071F5F1532B1F78091F90292
:1010D000811106C00E941E079093F8028093F702C8
:1010E000E090F702F090F80280E090E000E010E07D
:1010F00041E050E09A01082E02C0220F331F0A94EB
:10110000E2F72E213F21232B49F0FC01EE0FFF1FB8
:10111000ED5DFD4F26AD37AD020F131F01968630F2
:10112000910541F7B80183E10E94BC070115110543
:1011300081F00C171D0720F4CE01801B910B03C01A
:10114000C8018C1B9D0B893B9B4018F4E80113E1FF
:1011500003C012E1E12CF12CBE0184E10E94BC0726
:10116000B70186E10E94BC07612F70E085E10E9413
:10117000BC070E94BC0B882329F000912902109122
:101180002A020BC00E94390D882329F00091270202
:101190001091280202C000E010E09801DE010E94D8
:1011A000681320E137E240E050E00E942113B901CA
:1011B00088E10E94BC07B80187E10E94BC070E9439
:1011C0003C07BC0189E10E94BC070E944F07BC019B
:1011D0008AE1DF91CF911F910F91FF90EF900C94D6
:1011E000BC071F93CF93DF93182FC82FD0E0FE01C9
:1011F000EE0FFF1FEE0FFF1FEF54FD4F6081718157
:101200008281938128EE33E040E050E00E94211378
:10121000CC0FDD1FC359DD4F39832883B901812FDE
:101220000E947606BC01812FDF91CF911F910C9413
:10123000BC074F925F926F927F928F929F92AF9274
:10124000BF92CF92DF92EF92FF920F931F93CF93B3
:10125000DF93CDB7DEB728970FB6F894DEBF0FBE89
:10126000CDBF0E94B60E2091C3013091C401821BF4
:10127000930B8133954708F4AAC04FB7F894209197
:10128000D5013091D601A8EEB3E00E9468136B013E
:101290007C01F694E794D794C7944090D101509084
:1012A000D2016090D3017090D4016091CD01709112
:1012B000CE018091CF019091D0010091C901109190
:1012C000CA012091CB013091CC0109831A832B8371
:1012D0003C834FBF6D837E838F8398870E941E0659
:1012E0002091C7013091C8012F5F3F4F3093C80153
:1012F0002093C7016D817E818F819885A70196011A
:101300000E94211349015A01C301B201A7019601AC
:101310000E942113B90180E00E9476063C01B401CD
:1013200081E00E9476068615970520F45301A81ADD
:10133000B90A02C0A12CB12C80905B0290905C0293
:10134000A814B90420F48091C201811104C0B50130
:101350008CE10E94BC07B501681979098BE10E94F4
:10136000BC0769817A818B819C81A70196010E94CB
:101370002113B90187E00E9476062091C5013091C2
:10138000C6019093C6018093C501821B930BBC01DB
:10139000660F771F8DE10E94BC07B6018EE128968B
:1013A0000FB6F894DEBF0FBECDBFDF91CF911F9176
:1013B0000F91FF90EF90DF90CF90BF90AF909F90F4
:1013C0008F907F906F905F904F900C94BC07289601
:1013D0000FB6F894DEBF0FBECDBFDF91CF911F9146
:1013E0000F91FF90EF90DF90CF90BF90AF909F90C4
:1013F0008F907F906F905F904F900895CF932FB70D
:10140000F8948091F5029091F6022FBF892B09F094
:1014100091C08091FA0281118AC08091FB028823D9
:1014200009F47EC08091D7019091D80101969093E4
:10143000D8018093D7018091B1029091B202A0911E
:10144000B302B091B402B695A79597958795409150
:10145000D1015091D2016091D3017091D401840FD8
:10146000951FA61FB71F8093D1019093D201A0931F
:10147000D301B093D4018091B5029091B602A091AE
:10148000B702B091B802B695A79597958795409108
:10149000CD015091CE016091CF017091D001840FA8
:1014A000951FA61FB71F8093CD019093CE01A093E7
:1014B000CF01B093D0018091CD029091CE02A09146
:1014C000CF02B091D002B695A79597958795409198
:1014D000C9015091CA016091CB017091CC01840F78
:1014E000951FA61FB71F8093C9019093CA01A093AF
:1014F000CB01B093CC018091D5019091D60101969A
:101500009093D6018093D5010E941909C0E08C2FD9
:101510000E94F108CF5FC131D1F70E943D0807C09A
:1015200080916000882319F085E00E94F108CF9136
:101530000C940106CF9108950C94FE090E9463015A
:1015400078940E94EE000E943F030E946E0D0E945C
:10155000F50B0E9427080E944A050E94CE0A0E94AD
:10156000980D0C94AD0D0E949E0A0E94D51280E049
:1015700090E00895DC015C96ED91FC915D97EE0F93
:10158000FF1FEE0FFF1FE353FF4F6591759185918C
:1015900094910895FC0180810C94FB0044E250E09A
:1015A0006AEB73E08DEF92E00E949A138DEF92E068
:1015B0000C94CA0ACF92DF92EF92FF92CF9397FFDB
:1015C00008C090958095709561957F4F8F4F9F4F84
:1015D00007C0611571058105910511F0C0E001C0DA
:1015E000C1E02AE0C22ED12CE12CF12C611571054D
:1015F0008105910541F0CF5FA70196010E94431339
:10160000CA01B901F3CF8C2FCF91FF90EF90DF90FB
:10161000CF900895209121033091220395E0929F6D
:10162000F001939FF00D1124E80FF11DEE0FFF1F45
:10163000EF51FF4F8591949108950F931F93CF938E
:10164000C82F00912503109126030E940A0BC13078
:1016500029F480912B0390912C030DC0C23029F402
:1016600080912D0390912E0306C0C33021F4809108
:101670003F03909140039C01209FC001219F900D4A
:10168000309F900D1124CF911F910F91089580915B
:10169000640390916503892B99F40E94DD058823EA
:1016A00081F00E94E0052091490330914A03821B9A
:1016B000930B9C0181E02330310518F080E0089500
:1016C00081E00895815E0C94C805CF93DF93EC010F
:1016D0008091640390916503892B41F0209731F448
:1016E0000E94E00590934A0380934903D0936503D9
:1016F000C09364030E94460680916303811105C074
:101700008C2FDF91CF910C944401DF91CF910895FC
:10171000EF92FF920F931F93CF9381E00E947E017F
:1017200087E5E82E83E0F82E0BE413E0C0E08C2F71
:101730000E94620BF701819391937F01F8018193DD
:1017400091938F01CF5FC63091F71092650310928D
:1017500064031092630380E090E00E94650B109296
:101760004A03109249038FEF80936603CF911F9134
:101770000F91FF90EF90089580916B03089581E0A1
:101780002091690330916A03232B09F480E00895C6
:101790008091690390916A030895813020E892074F
:1017A00010F080E090E890936A03809369030E94B0
:1017B00040010C944F0680916B038823A9F080E0D0
:1017C00090E00E94CD0B1092680310926703109274
:1017D0006B038AE090E00E94DD0E80E00E943601FB
:1017E0008AE090E00C94DD0E089581E080936B0315
:1017F0000C94DB0B0F931F9360917403709175032E
:10180000809176039091770320917903222371F0E0
:101810000E94BE0E0091740310917503209176030F
:1018200030917703601B710B820B930B1F910F910B
:1018300008950F931F93CF93DF9381E00E941D0BB8
:10184000EC0184E00E941D0B8C0184E10E94C8051C
:101850008C179D07B8F408171907B0F49C01201BDA
:10186000310BCE01801B910B64E670E00E940D13DA
:10187000C9010E940D136436710510F063E670E033
:10188000862F03C083E601C080E0DF91CF911F91D6
:101890000F910895CF92DF92EF92FF920E94190C60
:1018A00090917803981778F580937803C0907B0324
:1018B000D0907C03E0907D03F0907E030E94FA0BB1
:1018C000C61AD70AE80AF90A0E94FA0B60937B034A
:1018D00070937C0380937D0390937E0380917F03BC
:1018E00090918003A0918103B09182038C159D0596
:1018F000AE05BF0540F4C0927F03D0928003E09212
:101900008103F0928203FF90EF90DF90CF900895D3
:101910000E944A0C80917A03811102C0A4E601C0A2
:10192000A9E6B0E080917803A81BB10920917F035C
:101930003091800340918103509182030E9489136A
:1019400008952091FF02309100032130310511F4F8
:1019500081E026C02115310511F480E021C024303A
:10196000310529F48091790381110AC0F6CF223024
:10197000310519F48091790313C02330310581F4C6
:1019800085E00E94C8052091010330910203A9015E
:1019900052508417950708F328173907C8F208959D
:1019A0000C9422010E943C0D81111DC00E94BF0BAE
:1019B000811119C00E94470B882351F18091700357
:1019C00090917103A0917203B091730380599F4F5E
:1019D000AF4FBF4F8093700390937103A093720336
:1019E000B0937303089580916C0390916D03A0915F
:1019F0006E03B0916F0380599F4FAF4FBF4F8093DD
:101A00006C0390936D03A0936E03B0936F03D2CFDA
:101A100008952CE0829FC001112485579C4F0C949F
:101A20007F0D83ED93E00C947F0DCF93DF9300D077
:101A300000D0CDB7DEB782E10E94C8059A838983C2
:101A400084E10E94C80529813A81281B390B3A8319
:101A5000298387E10E94C8059C838B83CE01019670
:101A60000E947F0D0F900F900F900F90DF91CF91FC
:101A700008958091DB03089581E02091D90330918E
:101A8000DA03232B09F480E008958091D903909123
:101A9000DA030895813020E8920710F080E090E8A2
:101AA0009093DA038093D9030E943C010C944F0673
:101AB0008091DB03882389F080E090E00E944A0D4A
:101AC0001092DA031092D9031092D8031092D70320
:101AD00080E00E9430011092DB0308951092DA0337
:101AE0001092D9031092D8031092D70380E090E0AF
:101AF0000E944A0D81E08093DB030C94580DFC0199
:101B0000428153814115510589F0A081B181B7FF10
:101B100003C0B195A195B10928EE33E00E94771377
:101B20009A0140E050E00E942113A901CA010895E2
:101B30000C94EB0FCF93DF9300D0CDB7DEB7898342
:101B40009A830E94450F0E943D0F89819A810F90D0
:101B50000F90DF91CF910C946E0F89E591E00E9478
:101B60009A0D88EB9BE00C94C90E262F30E0A9015A
:101B7000440F551F481759075CF02817390724F4FC
:101B8000660F681B862F0895181619060CF4089521
:101B900080E00895969587958531910518F46AE05F
:101BA0000C94B50D1092DC0380E008950F931F9301
:101BB000CF938C011695079516950795093C11054D
:101BC00020F01092DC0380E00BC06AE0C8010E94A4
:101BD000B50DC82F6AE0C80188970E94B50D8C0F1B
:101BE000CF911F910F91089560ED77E00E940D1342
:101BF0006AE00C94B50D6AE070E00E940D13CB0111
:101C00006D38710518F464E10C94B50D1092DC0385
:101C100080E008956AE070E00E940D13CB01683BFC
:101C2000714038F468E270E00E940D1364E10C9496
:101C3000B50D1092DC0380E008956AE070E00E9428
:101C40000D13CB016135710538F468E270E00E9434
:101C50000D1364E10C94B50D1092DC0380E008953F
:101C60006AE070E00E940D13CB01683B714038F4CC
:101C700068E270E00E940D1364E10C94B50D1092BF
:101C8000DC0380E00895E091DC034E2F50E0FA0180
:101C90003197E830F10590F4E65DFF4F0C94621344
:101CA0000C94CA0D0C94F40D0C94FB0D0C940A0EBC
:101CB0000C94D60D0C941D0E0C94300E80E00895FB
:101CC0000E94BA0E2091DF033091E003821B930B38
:101CD0000E94430E282F30E04091DD035091DE0337
:101CE0002417350731F03093DE032093DD030C9485
:101CF000660308952FB7F8946091E1037091E203B1
:101D00008091E3039091E4032FBF08950E94A10CFA
:101D10000E94BB120E94600E0C949C0A8091E10309
:101D20009091E203A091E303B091E4030196A11D19
:101D3000B11D8093E1039093E203A093E303B0937A
:101D4000E40380916100815019F08093610008954F
:101D500081EE809361000E9468070C94D20C0E946F
:101D60007A0E969587957795679508950E94AF0EA0
:101D7000CB0108950E947A0ECB0108950E94AF0E08
:101D800028EE33E040E050E00E942113CA01B9017F
:101D900008950F931F93CF93DF93EC010E94AF0E32
:101DA0008B010E94AF0E601B710B6C177D07C8F38F
:101DB000DF91CF911F910F9108950F931F93CF93B0
:101DC000DF93EC010E94AF0E8B010E94860E0E94F1
:101DD000AF0E601B710B6C177D07B8F3DF91CF91CD
:101DE0001F910F9108958F929F92AF92BF92CF92C1
:101DF000DF92EF92FF920F931F93CF93DF936B01CC
:101E00007C01EA0197FF0BC08DE28883F094E09497
:101E1000D094C094C11CD11CE11CF11C2196C701B7
:101E2000B6010E94DA0AC80FD11D18828E018AE01D
:101E3000882E912CA12CB12CC701B601A5019401CB
:101E40000E944313605DF80162938F0169017A017A
:101E5000C114D104E104F10479F7CE01DF91CF91EF
:101E60001F910F91FF90EF90DF90CF90BF90AF90B8
:101E70009F908F9008950C94711060E080E00C9416
:101E8000711061E080E00C9471100C946A108A303B
:101E900011F40C94410F0C942311EF92FF920F93C5
:101EA0001F93CF937C01C0E0892B89F0062F660F2A
:101EB000110B8C2F90E0801791074CF4CF5FF70146
:101EC00081917F01882319F00E94470FF2CF8C2F58
:101ED000CF911F910F91FF90EF9008951F93CF9393
:101EE000DF93009771F0182FFC018E2F811B9491C6
:101EF000EF012196992331F0892F0E94470FFE01AF
:101F0000F4CF80E0DF91CF911F9108950F931F933D
:101F1000CF93DF931F92CDB7DEB7082F10E01617CF
:101F20003CF4802F69830E94470F1F5F6981F7CFC0
:101F3000862F67FD80E00F90DF91CF911F910F9169
:101F40000895682F80E20C94860F81E00C94A10F15
:101F50000F931F93CF93DF931F92CDB7DEB78C0102
:101F6000FC0101900020E9F73197E81BF90B862F5F
:101F70008E1B69830E94A10F6981C8010F90DF91B8
:101F8000CF911F910F910C944D0F1F93CF93DF931F
:101F9000CDB7DEB72B970FB6F894DEBF0FBECDBF1F
:101FA000142FAE014F5F5F4F0E94F30E612FCE01E1
:101FB00001960E94A80F2B960FB6F894DEBF0FBEB5
:101FC000CDBFDF91CF911F910895462FBC0180E0D6
:101FD00090E00C94C50FFF920F931F93CF93DF9364
:101FE000CDB7DEB728970FB6F894DEBF0FBECDBFD2
:101FF0008EE0F82EF9821FE11A8301E10B830C8336
:102000000D830E830F831887BE016F5F7F4F80E0C3
:102010000E94A610F9821A830B830C831D831E83F2
:102020001F831887BE016F5F7F4F81E00E94A6105B
:10203000F9821A831B831C831D831E831F831887C9
:10204000BE016F5F7F4F82E00E94A61028960FB6F8
:10205000F894DEBF0FBECDBFDF91CF911F910F91DE
:10206000FF900895AC9881E090E00E94B805AC9A8A
:1020700081E090E00E94B805AC9884E690E00C9472
:10208000B80580FF02C0A89A01C0A89881FF02C0CD
:10209000A99A01C0A99882FF02C0AA9A01C0AA9871
:1020A00083FF02C0AB9A01C0AB980C943210CF935F
:1020B000C82F662311F0AD9A01C0AD988C2F829580
:1020C0008F700E9441108C2FCF910C94411060E0D2
:1020D0000C94571081E00E94671080ED97E00C94FB
:1020E000B805CF93DF93CDB7DEB728970FB6F89436
:1020F000DEBF0FBECDBF98E0E3E6F0E0DE01119653
:1021000001900D929A95E1F79091E603691710F00E
:102110006FEF690FFE013196E60FF11DE60FF11D1D
:102120009081890F806828960FB6F894DEBF0FBEA5
:10213000CDBFDF91CF910C9467108091E803982F69
:1021400094609093E8038C600C946710EF92FF9278
:102150000F931F93CF93DF9300D0CDB7DEB7877077
:1021600028E0829FC0011124806469837A830E94E1
:1021700067106981E62E7A81F72E8701085F1F4F6D
:1021800061E0F70181917F010E945710E016F1068E
:10219000B9F70F900F90DF91CF911F910F91FF90A2
:1021A000EF900895623028F08091E9038860809371
:1021B000E9036093E6031092E503442339F06130AC
:1021C00029F48091E90384608093E903A09AA19A9D
:1021D000A29AA39A80E593EC0E94B805AD98AC98BA
:1021E00083E00E94411084E991E10E94B80583E0F8
:1021F0000E94411084E991E10E94B80583E00E94A9
:10220000411086E990E00E94B80582E00E944110EA
:102210008091E90380620E94671084E08093E80364
:102220000E949D100E946A1082E08093E70386E07E
:102230000C946710A59AA49A1092E90340E061E01B
:1022400080E10C94D21061E00E94571081E0089563
:1022500008958DEF92E00E94BA0AAB01BC018FE9AC
:1022600090E00C946604CF93C82F682F8FE990E01C
:102270000E94E2048091EC03C827C093EC03CF9145
:10228000089580916200813059F4809117039091F4
:102290001803892B29F00E94291182E080936200A3
:1022A00008958BE30C943311CF93DF93EC01899164
:1022B000882319F00E943311FACFDF91CF9108954E
:1022C000CF93DF93CDB7DEB72F970FB6F894DEBF6D
:1022D0000FBECDBFAE014F5F5F4F0E94F30ECE0128
:1022E00001960E9454112F960FB6F894DEBF0FBED0
:1022F000CDBFDF91CF910895CF93DF93EC01109282
:10230000EC0384E20E943311BE0180E090E00E9461
:1023100060110E9451116091FC0270E06F5F7F4F6D
:10232000072E000C880B990B0E9460110E9451111E
:102330006091ED037091EE038091EF039091F003B3
:1023400028EE33E040E050E00E942113CA01B901B9
:102350000E9460118EE20E9433116091ED03709132
:10236000EE038091EF039091F00324E630E040E02B
:1023700050E00E942113CA01B9012AE030E040E098
:1023800050E00E9421130E946011DF91CF910C94C4
:1023900051118DE00E9433118AE00C943311609149
:1023A000EC0370E080E090E00E9460110C94C91191
:1023B0001F93CF93DF9381E090E00E947C11C7E7E9
:1023C000D1E01C2F125FFE0184910E94C805BC0160
:1023D00080E090E00E9460110E94511121961C1330
:1023E000F2CFC0E08C2F0E94090DBC0180E090E08C
:1023F0000E9460110E945111CF5FC63099F70E9470
:10240000110DBC0180E090E00E9460110E9451110A
:102410000E94150DBC0180E090E00E9460110E94B6
:1024200051110E94190C682F70E080E090E00E942A
:1024300060110E9451110E94880C0E9460110E943C
:102440005111DF91CF911F910C94CF11CF93DF9356
:10245000D82F82E090E00E947C11C0E08C2FDD2319
:1024600019F00E94BF0502C00E94C805BC0180E0AF
:1024700090E00E9460110E945111CF5FC53271F748
:10248000609164037091650380E090E00E946011A8
:102490000E94511160E070E0CB010E9460110E9427
:1024A0005111DF91CF910C94CF1183E090E00E9405
:1024B0007C110E947A05BC0180E090E00E946011CE
:1024C0000E9451110E946305BC0180E090E00E94CF
:1024D00060110E9451110C94CF11CF93DF93C091E2
:1024E0001703D09118030E94D811C230D1056CF0A7
:1024F00081E0C430D1050CF480E00E9426122297BE
:1025000021F0DF91CF910C945512DF91CF91089576
:102510000F931F9380916200813051F10E94AF0EA2
:1025200020916200223051F46093F1037093F20322
:102530008093F3039093F403109262000091F103EF
:102540001091F2032091F3033091F403DC01CB01ED
:10255000801B910BA20BB30B8093ED039093EE03C2
:10256000A093EF03B093F0031F910F910C946D12A1
:102570001F910F9108950E94DD05811105C01092F1
:10258000EB031092EA030FC00E94E0052091EA03DA
:102590003091EB032817390731F09093EB038093C8
:1025A000EA030E9488120C9428110C94D7120E94FE
:1025B000411181E00E9429080E94880B60E080E0C0
:1025C0000E943B0FC0E0D0E08C2F875F0E94D105B6
:1025D00067E00E94E50F0E94A50FC130D10521F4EC
:1025E00061E080E00E943B0F2196C430D10561F785
:1025F00084E690E00E94DD0EE1CFDB018F939F9394
:102600000E947E13BF91AF91A29F800D911DA39F49
:10261000900DB29F900D11240895AA1BBB1B51E190
:1026200007C0AA1FBB1FA617B70710F0A61BB70B42
:10263000881F991F5A95A9F780959095BC01CD01E7
:102640000895A1E21A2EAA1BBB1BFD010DC0AA1FF3
:10265000BB1FEE1FFF1FA217B307E407F50720F00B
:10266000A21BB30BE40BF50B661F771F881F991F86
:102670001A9469F760957095809590959B01AC01CF
:10268000BD01CF010895052E97FB1EF400940E9412
:102690005A1357FD07D00E94211307FC03D04EF4B4
:1026A0000C945A1350954095309521953F4F4F4FBC
:1026B0005F4F089590958095709561957F4F8F4FEE
:1026C0009F4F0895EE0FFF1F0590F491E02D0994A0
:1026D000A29FB001B39FC001A39F700D811D112463
:1026E000911DB29F700D811D1124911D08950E94AE
:1026F0006813B7FF0895821B930B08950E94681317
:10270000A59F900DB49F900DA49F800D911D112445
:102710000895B7FF0C947E130E947E13821B930BC7
:102720000895FB01DC0102C005900D92415050401C
:10273000D8F70895DC01CB01FC01E199FECF06C07A
:10274000FFBBEEBBE09A31960DB20D924150504066
:08275000B8F70895F894FFCFDB
:1027580001E10100004000140054000000010401E0
:102768000401010101010101000001010101010150
:082778000002010308010A0040
:00000001FF
