:100000000C9492020C94BA020C94BA020C94BA02A8
:100010000C94D8040C94BA020C94BA020C94BA0250
:100020000C94BA020C943C050C9408050C9413052E
:100030000C94BA020C94B9050C94EE050C94BA0217
:100040000C94B4040C94BA020C94BA020C94BA0244
:100050000C94BA0231153315351539153915371584
:100060003D153B15FF0000000A00050400000004D8
:10007000090000FF0101000A040505000004040A4C
:100080000000FF02020000020506000002040B004F
:1000900000FF03030000060507000006040C000033
:1000A000FF0000000A010511020001040D0000FF1D
:1000B0000101000A050511040005040E0000FF02FD
:1000C0000200000305110100FF03030000070511F2
:1000D0000800460003008813701701003200102743
:1000E00032008813204EC4091027000000000300CE
:1000F00000000000010080250000004B0000009679
:10010000000000E1000000C2010001000100010048
:1001100001000100B0040807520300005203B004BC
:100120000807E8030000E803D0079209D60600009C
:100130006C07E40C100EC409E40CB80B100E04108C
:10014000C409A60EAC0D740E6810B80B0A0F890C0A
:10015000740ECC10B80B0A0F890C740EFE10B80B7D
:100160000A0F890C40066C0714054006780501004B
:10017000A00FD007010001000100A00F0100010045
:1001800001006904FF7F4900FD02010000006400D6
:100190006104FF7F0200C402010000000400560455
:1001A00001004400010364005802AC264B04FF7FA9
:1001B0004403030364005802AC264504FF7F4D004E
:1001C00005030100000001003D04FF7F400007031C
:1001D000FD7F0100F4013504FF7F40000903FF7F2C
:1001E000010010271D04FF7F42000F03FF7F0A005C
:1001F000204E2D04FF7F40000B03FD7F0100F40122
:100200002504FF7F40000D03FF7F010088131504C4
:10021000FF7F42001103FF7F0A00C4090A04FF7F29
:10022000410013036400581B3075FF03FF7F4D002E
:100230001503010000000100F903FF7F0200B60270
:10024000010000000400F10302000100B2020100FD
:1002500000000400E80302000200AA0201000000FE
:100260000100E103FF7F0200A20201000000010083
:10027000D803FF7F02009A02010000000100D203B0
:10028000FF7F0000000000000000000000000000F0
:10029000000000000000000000009E021F03B703E2
:1002A0006C03A6021D0379037003AE021B03CD038A
:1002B000C703F6001903BA021703BE03B703B1035D
:1002C000A8039F03C802FF02BE039803900388039C
:1002D0008003636865616C692D636861726765722C
:1002E0000A76322E30325F323032333130313200E2
:1002F0005245564552534520504F4C41524954594E
:1003000000010101020A1E010318478E01190C03A6
:10031000010101E803019D04E803009B046400005F
:10032000990464000096046400009404E8030191B9
:1003300004E803018F040100008D04E803019B041D
:1003400001000086046400008904010000870401A4
:10035000000087040100000000010000840414175D
:1003600019181A0705061F2021222324726576001A
:10037000616476616E6365640073696D706C6500BD
:10038000542D70726F67720054656D7065726100F4
:1003900070726F6772616D00616C7761797300656F
:1003A00078742E20416463006578742E2064656241
:1003B000006465627567006E6F726D616C006469E0
:1003C0007361626C65640073657061720074656D61
:1003D0007000726573657400627574746F6E733A41
:1003E000006D656E75733A007C6F75747075743A44
:1003F000007C73706565643A00554152543A00615F
:100400006463206E6F6973653A00696E707574205D
:100410006C6F773A006D61782050643A006D6178B6
:100420002050633A006D61782049643A006D696E2E
:100430002049643A006D61782049633A006D696E25
:100440002049633A00626565703A006469736368C5
:10045000206F66663A007C66616E2054206F6E3AAB
:100460000066616E206F6E3A006261636B6C696753
:1004700068743A006E6F6C696D697400206E6F006D
:10048000796573005500006D00432F6D002500F461
:1004900000416800430057680057005600410008BB
:1004A000090A0B0C0D0E000117050D050305F904D3
:1004B000EF04E504DB04D104C704BE040000736547
:1004C0007474696E677300562D5F70696E3A2020F0
:1004D00000562B5F70696E3A2020005662365F70BE
:1004E000696E3A20005662355F70696E3A20005698
:1004F00062345F70696E3A20005662335F70696ED5
:100500003A20005662325F70696E3A2000566231BE
:100510005F70696E3A20005662305F70696E3A20F3
:100520000000320711241FBECFE5D8E0DEBFCDBFEB
:1005300010E0A0E6B0E0E4ECF9E302C005900D9213
:10054000A838B107D9F724E0A8E8B0E001C01D92AF
:10055000AF30B207E1F712E0C2E9D2E004C0219760
:10056000FE010E945A1CC139D107C9F70E94E20C52
:100570000C94E01C0C9400000E94A01940E062E082
:1005800080E10E9458190E9438050E94AD050C9424
:100590004D03CF92DF92EF92FF92482F282F30E049
:1005A000A0E0BDE70E94601C6B017C01A4E6B0E006
:1005B000A41BB10924E630E00E946F1C6C0D7D1D68
:1005C0008E1D9F1D24E630E040E050E00E94191C83
:1005D000B9018DE0FF90EF90DF90CF900C949705DC
:1005E000882311F0909A089590980895811104C07D
:1005F000939A969A929A089593980895811102C0B9
:10060000969A089596980895811102C0929A089535
:1006100092980895BC018EE00C949705BC018EE081
:100620000C94970580FF02C0C09A01C0C09881FF5A
:1006300002C0C19A01C0C19882FF02C0C29A01C023
:10064000C29883FF02C0C39A01C0C39884FF02C04E
:10065000DE9A01C0DE9885FF02C0DF9A0895DF9818
:10066000089580E00E94F60280E00E94F00280E09F
:100670000E94230580E00E9412038C9A8B9A889A2C
:100680008F9AB89AB99ABA9ABB9AD69AD79A8D9AEB
:100690008E9A8D9A8A9A08950895D598D498DD985F
:1006A000DC98BF9ABE9ABD9A8EEA86B9369A0895AA
:1006B0009C01E0919300E13119F18FB7F894F0E0DB
:1006C000DF01AA0FBB1FA157BD4F11963C932E937C
:1006D0008FBF80918B008823F9F0EE0FFF1FEE0F84
:1006E000FF1FEF54FD4F80819181A281B381820F62
:1006F000931FA11DB11D80839183A283B3830895AD
:10070000909194008091880037FD02C0982B02C020
:10071000909598239093880008950E94BA10909322
:10072000AE028093AD020E943D0F9093B002809381
:10073000AF0280918B00882309F485C00E94BA1013
:100740004091ED025091EE026091EF027091F00243
:10075000480F591F611D711D4093ED025093EE0229
:100760006093EF027093F0020E943D0F4091F102FE
:100770005091F2026091F3027091F402480F591FF8
:10078000611D711D4093F1025093F2026093F302D8
:100790007093F4028091F5029091F602019709F0AE
:1007A00050C08091B9029091BA02A091BB02B09161
:1007B000BC02B695A795979587958093B9029093BB
:1007C000BA02A093BB02B093BC028091B102909197
:1007D000B202A091B302B091B402B695A7959795D5
:1007E00087958093B1029093B202A093B302B09325
:1007F000B4028091B5029091B602A091B702B09177
:10080000B802B695A795979587958093B502909372
:10081000B602A093B702B093B8028091BD02909146
:10082000BE02A091BF02B091C002B695A795979560
:1008300087958093BD029093BE02A093BF02B093B0
:10084000C0020C94DB090895809115039091160362
:10085000892BF1F0909190009923D1F021E030E0C4
:1008600000908D0002C0220F331F0A94E2F74091DE
:10087000F5025091F602842F8F703FB7F8944BB376
:100880005BB3252B2BBB890F8A95F1F74BBB3FBF81
:10089000089580918A008F5F863108F080E0809310
:1008A0008A0085E0ECE8F0E0A1E9B0E001900D926B
:1008B0008A95E1F760918A006F5F663108F060E029
:1008C00085E0689FB00111246C597F4F45E050E0EE
:1008D0008CE890E00E94891C80918A0081110CC0F4
:1008E0000E948D032091F5023091F60281E0232BC6
:1008F00009F480E080938B00089584B125B1909134
:100900008900933020F090E0922B0E945803809150
:10091000890091E0980F909389008D30B9F0803173
:10092000B9F081111DC080918C0087FD19C03FB7BF
:10093000F89428B390918C0040E2949FC001112458
:10094000922F9F71892B88BB3FBF08950C9424047C
:1009500080918D00806287B9109289000C944904BF
:1009600008958091880008951F920F920FB60F92FC
:1009700011242F933F934F935F936F937F938F93A4
:100980009F93AF93BF93EF93FF930E947D04FF91DA
:10099000EF91BF91AF919F918F917F916F915F91F7
:1009A0004F913F912F910F900FBE0F901F90189570
:1009B0001F920F920FB60F9211242F933F934F93D4
:1009C0005F936F937F938F939F93AF93BF93EF93B7
:1009D000FF930E946F15FF91EF91BF91AF919F918F
:1009E0008F917F916F915F914F913F912F910F90D8
:1009F0000FBE0F901F90189588E085BD85B5846067
:100A000085BD14BC8CE783BD89B7806889BF089514
:100A10001F920F920FB60F921124979A0F900FBE4C
:100A20000F901F9018951F920F920FB60F921124DE
:100A30008F9397988091960082BF8F910F900FBEF1
:100A40000F901F901895811104C013BE12BE979885
:100A5000089590E09595879528E7280F20939600B4
:100A600088589E4F959587958CBF8CE483BF0895D9
:100A700089B7836089BF08951F920F920FB60F92B6
:100A800011242F933F938F939F9380919D0090917A
:100A90009E002091990030919A00820F931F9093AD
:100AA0009A008093990080919B0090919C002091E6
:100AB000970030919800820F931F90939800809335
:100AC00097002FB7F8948091990090919A0035E0A3
:100AD000969587953A95E1F79BBD8ABD80919700E1
:100AE0009091980035E0969587953A95E1F799BDF4
:100AF00088BD2FBF8091990090919A008F7199279E
:100B000090939A008093990080919700909198001B
:100B10008F71992790939800809397009F918F9160
:100B20003F912F910F900FBE0F901F9018959FB778
:100B3000F8948E3039F470939E0060939D008FB5C9
:100B4000806808C08D3039F470939C0060939B00DE
:100B50008FB580628FBD9FBF089580E094E097BD00
:100B600086BD82E08FBD89E18EBD89B7846089BF73
:100B700008951F920F920FB60F9211242F934F9347
:100B80005F938F939F93EF93FF935A991AC02CB161
:100B90008091B5019091B601019699274091B701D6
:100BA0005091B8018417950769F0E091B501F09173
:100BB000B601EB54FF4F20839093B6018093B501AB
:100BC00001C08CB1FF91EF919F918F915F914F91F7
:100BD0002F910F900FBE0F901F9018951F920F929C
:100BE0000FB60F9211242F933F938F939F93EF9300
:100BF000FF932091B5013091B6018091B70190919A
:100C0000B8012817390711F4559812C0E091B701BF
:100C1000F091B801EB54FF4F20818091B701909182
:100C2000B801019699279093B8018093B7012CB928
:100C3000FF91EF919F918F913F912F910F900FBE58
:100C40000F901F901895CF92DF92EF92FF920F9323
:100C50001F93CF93DF93EC016A017B014115514E45
:100C60006105710509F1E885F98581E090E00C885E
:100C700002C0880F991F0A94E2F7808360E079E050
:100C80008DE390E0A70196010E94191C89019A0149
:100C900001501109210931093695279517950795B6
:100CA000980101151041A8F0E885F985108260E8E7
:100CB00074E88EE190E0A70196010E94191CDA0108
:100CC000C9010197A109B109B695A795979587958F
:100CD0009C01EC81FD813083EE81FF8120831D8AA0
:100CE000EA85FB85408181E090E09C01098802C093
:100CF000220F331F0A94E2F7242B2083EA85FB8519
:100D000040819C010A8802C0220F331F0A94E2F737
:100D1000242B2083EA85FB8520810B8802C0880F65
:100D2000991F0A94E2F7809582238083DF91CF9107
:100D30001F910F91FF90EF90DF90CF900895CF9388
:100D4000DF93FC0182819381EC01D395DC01AE5FDE
:100D5000BE4F288139818D919C91119728173907B1
:100D6000C1F7A285B3853C9181E090E0AC01018898
:100D700002C0440F551F0A94E2F7242F2095232325
:100D80002C93A285B3853C91AC01028802C0440F2C
:100D9000551F0A94E2F7242F209523232C93A28534
:100DA000B3852C91038802C0880F991F0A94E2F73B
:100DB000809582238C9380819181FC01EE5FFE4FB0
:100DC00020813181329731832083DF91CF91089543
:100DD000FC018589882329F0A085B1858C9186FF47
:100DE000FBCF158A08950F931F93CF93DF93FC01D8
:100DF000A281B3818D011395E801888199810196C3
:100E00009927AD014E5F5E4FEA0128813981821733
:100E10009307D1F3E80128813981A20FB31F6C93A6
:100E2000A281B381B39511969C938E93A285B385CD
:100E30002C9181E090E0038802C0880F991F0A94EA
:100E4000E2F7822B8C9381E0858B0084F185E02D85
:100E500080818064808381E090E0DF91CF911F9159
:100E60000F910895EFE9F0E085EB90E091838083A6
:100E70009383828380E490E09583848329E230E049
:100E8000378326832BE230E0318720872AE230E067
:100E900033872287958784878CE290E097878687BF
:100EA00084E0808B83E0818B87E0828B85E0838B7D
:100EB00081E0848B0895CF93DF931F92CDB7DEB787
:100EC000E0910B04F0910C04309711F4EFE0F4E0A2
:100ED000CE0101962EEB8E179F0710F02193FBCFCA
:100EE0000F90DF91CF910895CF93DF9300D0CDB7CE
:100EF000DEB720910B0430910C042115310511F45B
:100F00002FE034E0CE010196821B930B0F900F90DF
:100F1000DF91CF910895CF93DF931F92CDB7DEB7C6
:100F200020910B0430910C042115310511F42FE0B0
:100F300034E0F901BE016F5F7F4FCF01821B930B3D
:100F40006E177F0728F040814E3B11F43196F5CFA4
:100F50000F90DF91CF910895009741F0EFE9FFE006
:100F60003197F1F700C000000197F6CF089584365D
:100F7000910538F064E670E00E94051CCB010C94EA
:100F8000AC07019728F025E32A95F1F70000F9CF87
:100F900008956AE070E00E94051CCB010C94B7072D
:100FA000E82FF0E0EE0FFF1FE359FD4F80819181A4
:100FB0000895E82FF0E0EE0FFF1FED5DFD4F8081FB
:100FC000918108952FB7F894E82FF0E0EE0FFF1FFE
:100FD000E157FD4F808191812FBF08958091FB02E1
:100FE00008958091D7019091D8010895613110F44E
:100FF000423040F021E030E0FC0133832283318332
:101000002083089550E0460F511D460F511D440F97
:10101000551F440F551FBA01625F7F4F44E050E0F7
:101020000C949B1C2FB7F89480E090E0FC01EE0F2D
:10103000FF1FEE0FFF1FEF54FD4F1082118212822F
:10104000138201968131910589F788E290E09093AF
:10105000F6028093F5021092FA022FBF0895CF9303
:10106000CFB7F8941092D6011092D5011092D10109
:101070001092D2011092D3011092D4011092CD019E
:101080001092CE011092CF011092D0011092C9019E
:101090001092CA011092CB011092CC010E949715B8
:1010A0009093C4018093C301CFBFCF910895E9ED20
:1010B000F1E01192119282E0E332F807D1F708953E
:1010C000CF93CFB7F89481E090E09093F6028093AD
:1010D000F5028093FA020E945708CFBFCF9108957E
:1010E000CF93DF930E946008C091D701D091D801BF
:1010F0008091D7019091D801C817D90729F48AE0C7
:1011000090E00E94BE15F4CFDF91CF910895109228
:10111000FB0280E00C94F602CF93DF9381E00E9403
:10112000E207EC0180E00E94E2078C179D0718F4AB
:10113000C81BD90B02C0C0E0D0E081E0C93ED3405B
:1011400008F480E0DF91CF9108958F929F92AF9243
:10115000BF92CF92DF92EF92FF920F931F93CF93A4
:10116000DF93CDB7DEB728970FB6F894DEBF0FBE7A
:10117000CDBF6115710509F44FC05B01F82E40E049
:10118000682FCE0105960E94F60741E06F2DCE0133
:1011900001960E94F6072B813C81C901A0E0B0E0D6
:1011A000CF80D884E12CF12C9C01AD012C193D0994
:1011B0004E095F09C501A0E0B0E08D809E80A12CA2
:1011C000B12CBC01CD01681979098A099B090E94DB
:1011D000F51B29813A81890120E030E0A9019801BD
:1011E000281939094A095B090E943B1CDA01C90127
:1011F0008C0D9D1DAE1DBF1DB7FD0AC0009721E0DF
:10120000A207B1055CF08FEF9FEFA0E0B0E006C051
:1012100080E090E0DC0102C080E090E028960FB60C
:10122000F894DEBF0FBECDBFDF91CF911F910F911C
:10123000FF90EF90DF90CF90BF90AF909F908F90F6
:10124000089582508C3130F4E82FF0E0E459FF4FDC
:101250008081089581E00895CF93833149F481E03E
:1012600020914D0230914E022331310589F413C093
:10127000C82F0E942109813069F4EC2FF0E0EE0FB5
:10128000FF1FED5DFD4F208131812139314018F480
:1012900080E001C081E0CF910895EF92FF920F931B
:1012A0001F93CF93CFE1EE24E394F12C00E010E004
:1012B0008C2F0E942C09882311F00E291F29EE0C77
:1012C000FF1CCF5FC532A1F7C801CF911F910F91CD
:1012D000FF90EF9008952FB7F8946091BE01709140
:1012E000BF018091C0019091C1012FBF20E03DE777
:1012F00040E050E00E94191CC90108952FB7F894EE
:101300008091BA019091BB01A091BC01B091BD0147
:101310002FBFBC01CD01969587957795679520E005
:101320003DE740E050E00E94191CC901089540913A
:101330005102509152028091BE019091BF01A09143
:10134000C001B091C101840F951FA11DB11D8093F3
:10135000BE019093BF01A093C001B093C1018091E1
:10136000B901815019F08093B901089582E3809307
:10137000B9012091470230914802DA010E94601CB5
:1013800024E630E040E050E00E94191C8091BA0150
:101390009091BB01A091BC01B091BD01820F931F40
:1013A000A41FB51F8093BA019093BB01A093BC0109
:1013B000B093BD0108958091F5029091F602892BBA
:1013C00049F08091F5029091F60201979093F60210
:1013D0008093F502089590E0880F991FFC01ED5D60
:1013E000FD4F208131816217730718F4261B370BDC
:1013F00004C0AB01421B530B9A01FC01E752FE4FA4
:101400002730310518F01182108206C02081318109
:101410002F5F3F4F31832083FC01ED5DFD4F7183D2
:1014200060830895CF93DF938FB7F8941092BE0135
:101430001092BF011092C0011092C1011092BA0126
:101440001092BB011092BC011092BD0192E39093E7
:10145000B9018FBFC3E2D2E06CA17DA18CE10E94F3
:10146000EB098E859F859093C6018093C5010E94EC
:1014700060080E942F081092C8011092C70160E016
:1014800070E089E10E94EB0960E070E08BE10E946E
:10149000EB0960E070E08DE1DF91CF910C94EB09F6
:1014A0001092D8011092D7010C94120A0C94500A91
:1014B0009091FB0291110FC00E94F6020E94500A07
:1014C00081E08093FB02809360000E9470080E947C
:1014D000120A1092F9020895EF92FF920F931F9350
:1014E000CF93DF93C0912302D091240280912502F3
:1014F000909126028C179D0718F4C81BD90B02C0C7
:10150000C0E0D0E0BE0182E10E94EB0935E3E32EAA
:1015100032E0F32E1FE1F701619171917F01812F7C
:101520000E94EB091F5F1532B1F78091F90281111A
:1015300006C00E944D099093F8028093F702E09054
:10154000F702F090F80280E090E000E010E041E067
:1015500050E09A01082E02C0220F331F0A94E2F7CE
:101560002E213F21232B49F0FC01EE0FFF1FED5DE3
:10157000FD4F26AD37AD020F131F01968630910542
:1015800041F7B80183E10E94EB090115110581F0D3
:101590000C171D0720F4CE01801B910B03C0C8015E
:1015A0008C1B9D0B893B9B4018F4E80113E103C0A1
:1015B00012E1E12CF12CBE0184E10E94EB09B7019C
:1015C00086E10E94EB09612F70E085E10E94EB0942
:1015D0000E94310F882329F00091290210912A02DC
:1015E0000BC00E94AE10882329F0009127021091B1
:1015F000280202C000E010E09801DE010E94601C99
:1016000020E137E240E050E00E94191CB90188E176
:101610000E94EB09B80187E10E94EB090E946B0967
:10162000BC0189E10E94EB090E947E09BC018AE1AC
:10163000DF91CF911F910F91FF90EF900C94EB09E8
:101640001F93CF93DF93182FC82FD0E0FE01EE0F2A
:10165000FF1FEE0FFF1FEF54FD4F608171818281EC
:10166000938120E332E040E050E00E94191CCC0F4F
:10167000DD1FC359DD4F39832883B901812F0E94B3
:10168000A508BC01812FDF91CF911F910C94EB092C
:101690004F925F926F927F928F929F92AF92BF9282
:1016A000CF92DF92EF92FF920F931F93CF93DF932E
:1016B000CDB7DEB728970FB6F894DEBF0FBECDBF0B
:1016C0000E9497152091C3013091C401821B930B96
:1016D0008133954708F4AAC04FB7F8942091D501FB
:1016E0003091D601A0E3B2E00E94601C6B017C0146
:1016F000F694E794D794C7944090D1015090D201CA
:101700006090D3017090D4016091CD017091CE01B1
:101710008091CF019091D0010091C9011091CA012F
:101720002091CB013091CC0109831A832B833C8318
:101730004FBF6D837E838F8398870E942F082091EF
:10174000C7013091C8012F5F3F4F3093C8012093EC
:10175000C7016D817E818F819885A70196010E94C6
:10176000191C49015A01C301B201A70196010E9447
:10177000191CB90180E00E94A5083C01B40181E078
:101780000E94A5088615970520F45301A81AB90AE6
:1017900002C0A12CB12C80905B0290905C02A81436
:1017A000B90420F48091C201811104C0B5018CE11B
:1017B0000E94EB09B501681979098BE10E94EB09D8
:1017C00069817A818B819C81A70196010E94191CF5
:1017D000B90187E00E94A5082091C5013091C6019A
:1017E0009093C6018093C501821B930BBC01660FC9
:1017F000771F8DE10E94EB09B6018EE128960FB6A6
:10180000F894DEBF0FBECDBFDF91CF911F910F9136
:10181000FF90EF90DF90CF90BF90AF909F908F9010
:101820007F906F905F904F900C94EB0928960FB6C5
:10183000F894DEBF0FBECDBFDF91CF911F910F9106
:10184000FF90EF90DF90CF90BF90AF909F908F90E0
:101850007F906F905F904F900895CF932FB7F8943B
:101860008091F5029091F6022FBF892B09F091C06B
:101870008091FA0281118AC08091FB02882309F4C9
:101880007EC08091D7019091D80101969093D801A4
:101890008093D7018091B1029091B202A091B302DE
:1018A000B091B402B695A795979587954091D101CF
:1018B0005091D2016091D3017091D401840F951F92
:1018C000A61FB71F8093D1019093D201A093D3019B
:1018D000B093D4018091B5029091B602A091B70265
:1018E000B091B802B695A795979587954091CD018F
:1018F0005091CE016091CF017091D001840F951F5E
:10190000A61FB71F8093CD019093CE01A093CF0166
:10191000B093D0018091CD029091CE02A091CF02E0
:10192000B091D002B695A795979587954091C9013A
:101930005091CA016091CB017091CC01840F951F29
:10194000A61FB71F8093C9019093CA01A093CB0132
:10195000B093CC018091D5019091D60101969093DE
:10196000D6018093D5010E94480BC0E08C2F0E94C5
:10197000200BCF5FC131D1F70E946C0A07C0809164
:101980006000882319F085E00E94200BCF910C9411
:101990001208CF9108950C942D0C0E943103789475
:1019A0000E94BC020E94FC040E94E3100E946A0F85
:1019B0000E94560A0E945B070E94AC0D0E94B91358
:1019C0000C94D2130E94CD0C0E94F31B80E090E097
:1019D0000895EF92FF920F931F93CF938C017B0199
:1019E00041110E94DA1CC5E0C15059F0C8010E94A3
:1019F000B31C8E159F0539F084E690E00E94AA156D
:101A0000F3CF81E001C080E0CF911F910F91FF9053
:101A1000EF900895EF92FF920F931F93CF93DF9370
:101A20008C017C01E60EF71ECFEFDFEF0E151F05D0
:101A3000A9F0C8010E94AB1CC82788E09E0136951A
:101A400027959C2FE90190FF04C091E0C92790EAF7
:101A5000D927815099F70F5F1F4FE8CFCE01DF9153
:101A6000CF911F910F91FF90EF900895EF92FF9209
:101A70000F931F93CF93DF931F92CDB7DEB78C01E7
:101A80007B0149830E940A0D4981BC01C8018E0D6A
:101A90009F1D0F90DF91CF911F910F91FF90EF90BD
:101AA0000C94E90C482F64E270E08AEB93E00C940C
:101AB000360DDC015C96ED91FC915D97EE0FFF1FFA
:101AC000EE0FFF1FEA50FF4F65917591859194913C
:101AD000089544E250E062ED70E00C94891C80911E
:101AE0000703909108032091090330910A032817F6
:101AF000390720F490930A03809309038091090326
:101B000090910A038131974230F080E197E29093FF
:101B10000A038093090380910B0390910C03209199
:101B20000D0330910E032817390720F490930E030C
:101B300080930D0380910D0390910E03893893419A
:101B400030F088E893E190930E0380930D0308959D
:101B5000FC0180810C94C90244E250E06AEB73E01E
:101B60008DEF92E00E949B1C8DEF92E00C94A80DEB
:101B700044E250E06AEB73E08DEF92E00E94B91C02
:101B800081E00E94520D8DEF92E00C94A80D282F59
:101B900081E090E03AE0215038F0AC01349FC00180
:101BA000359F900D1124F7CF0895CF92DF92EF92D9
:101BB000FF92CF9397FF08C090958095709561959F
:101BC0007F4F8F4F9F4F07C06115710581059105AC
:101BD00011F0C0E001C0C1E02AE0C22ED12CE12CFE
:101BE000F12C611571058105910541F0CF5FA701C9
:101BF00096010E943B1CCA01B901F3CF8C2FCF91F3
:101C0000FF90EF90DF90CF900895CF92DF92EF9208
:101C1000FF920F931F93CF93DF937C016B01FA0127
:101C2000DC01CD91DC91CE01B8010E94051C00972A
:101C300031F01C141D0494F4081B190B03C01C1470
:101C40001D046CF4C901801B910BC817D90720F43F
:101C5000F801EC0FFD1F0CC0F9010AC08C01C8018E
:101C60008E0F9F1F8C179D0718F4FE01E01BF10BD0
:101C7000D701ED93FC93DF91CF911F910F91FF90CE
:101C8000EF90DF90CF900895AF92BF92CF92DF9206
:101C9000EF92FF920F931F93CF93DF93EC017B01A1
:101CA0006A0159016881798180E090E00E94D50D38
:101CB000823020F082500E94C70D02C081E090E087
:101CC0008C019501A601B701CE010E94050EDF919E
:101CD000CF911F910F91FF90EF90DF90CF90BF9029
:101CE000AF900895209121033091220395E0929FB7
:101CF000F001939FF00D1124E80FF11DEE0FFF1F6F
:101D0000E65FFE4F8591949108950F931F93CF93B3
:101D1000C82F00912503109126030E94720EC13036
:101D200029F480912B0390912C030DC0C23029F42B
:101D300080912D0390912E0306C0C33021F4809131
:101D40003F03909140039C01209FC001219F900D73
:101D5000309F900D1124CF911F910F910895809184
:101D6000640390916503892B99F40E94EE07882300
:101D700081F00E94F1072091490330914A03821BB0
:101D8000930B9C0181E02330310518F080E0089529
:101D900081E00895815E0C94D907CF93DF93EC0125
:101DA0008091640390916503892B41F0209731F471
:101DB0000E94F10790934A0380934903D0936503EF
:101DC000C09364030E94570880916303811105C08A
:101DD0008C2FDF91CF910C941203DF91CF91089556
:101DE000EF92FF920F931F93CF9381E00E944C03D9
:101DF00087E5E82E83E0F82E0BE413E0C0E08C2F9B
:101E00000E94CA0EF701819391937F01F80181939B
:101E100091938F01CF5FC63091F7109265031092B6
:101E200064031092630380E090E00E94CD0E109254
:101E30004A03109249038FEF80936603CF911F915D
:101E40000F91FF90EF90089580E090E00E94CD0EFA
:101E500081E08093630308950E94240F80E00C9436
:101E60004C0380916B03089581E0209169033091C8
:101E70006A03232B09F480E008958091690390910F
:101E80006A030895813020E8920710F080E090E81E
:101E900090936A03809369030E940E030C94600878
:101EA00080916B038823A9F080E090E00E94420FAC
:101EB000109268031092670310926B038AE090E01F
:101EC0000E94BE1580E00E9404038AE090E00C941A
:101ED000BE15089581E080936B030C94500F0F930F
:101EE0001F936091740370917503809176039091B4
:101EF000770320917903222371F00E949F150091AE
:101F00007403109175032091760330917703601B61
:101F1000710B820B930B1F910F9108950F931F93D9
:101F2000CF93DF9381E00E94850EEC0184E00E9454
:101F3000850E8C0184E10E94D9078C179D07B8F4A7
:101F400008171907B0F49C01201B310BCE01801B30
:101F5000910B64E670E00E94051CC9010E94051CFB
:101F60006436710510F063E670E0862F03C083E6E7
:101F700001C080E0DF91CF911F910F910895CF9222
:101F8000DF92EF92FF920E948E0F90917803981744
:101F900078F580937803C0907B03D0907C03E09029
:101FA0007D03F0907E030E946F0FC61AD70AE80ADD
:101FB000F90A0E946F0F60937B0370937C038093F8
:101FC0007D0390937E0380917F0390918003A09185
:101FD0008103B09182038C159D05AE05BF0540F4C9
:101FE000C0927F03D0928003E0928103F09282033B
:101FF000FF90EF90DF90CF9008950E94BF0F8091E7
:102000007A03811102C0A4E601C0A9E6B0E0809184
:102010007803A81BB10920917F0330918003409180
:102020008103509182030E94811C08952091FF0238
:10203000309100032130310511F481E026C02115D3
:10204000310511F480E021C02430310529F480915C
:10205000790381110AC0F6CF2230310519F480913D
:10206000790313C02330310581F485E00E94D9073C
:102070002091010330910203A90152508417950762
:1020800008F328173907C8F208950C94F0020E944B
:10209000B11081111DC00E94340F811119C00E941E
:1020A000AF0E882351F18091700390917103A0913C
:1020B0007203B091730380599F4FAF4FBF4F80930E
:1020C000700390937103A0937203B0937303089508
:1020D00080916C0390916D03A0916E03B0916F039A
:1020E00080599F4FAF4FBF4F80936C0390936D0308
:1020F000A0936E03B0936F03D2CF08952CE0829F1C
:10210000C001112485579C4F0C94F41083ED93E08B
:102110000C94F410CF93DF9300D000D0CDB7DEB78E
:1021200082E10E94D9079A83898384E10E94D907BA
:1021300029813A81281B390B3A83298387E10E9440
:10214000D9079C838B83CE0101960E94F4100F90D7
:102150000F900F900F90DF91CF9108958091DB0346
:10216000089581E02091D9033091DA03232B09F4FB
:1021700080E008958091D9039091DA030895813029
:1021800020E8920710F080E090E89093DA038093C3
:10219000D9030E940A030C9460088091DB03882312
:1021A00089F080E090E00E94BF101092DA03109254
:1021B000D9031092D8031092D70380E00E94FE0248
:1021C0001092DB0308951092DA031092D903109253
:1021D000D8031092D70380E090E00E94BF1081E006
:1021E0008093DB030C94CD10FC0142815381411597
:1021F000510589F0A081B181B7FF03C0B195A195C8
:10220000B10928EE33E00E946F1C9A0140E050E0D3
:102210000E94191CA901CA010895A091DC03B09184
:10222000DD036091E0037091E10340E090E0FD0187
:102230002EE0929FE00DF11D1124329625913491EC
:102240002115310579F037FF03C077FF09C03058F9
:1022500026233723232B21F0882331F081504F5F31
:102260009F5FE5CF842F0895892F08950F931F93C3
:10227000CF93DF93C82F0E940D119EE0899F8001AC
:102280001124E091DC03F091DD03E00FF11F859153
:1022900094910E94AA16D82F0E945814882319F0EE
:1022A0004091EC0301C04FEF042E000C550B2C2F76
:1022B00030E042175307F1F06FE06D1BE091DC0353
:1022C000F091DD03E00FF11F3596C491CC2329F086
:1022D000862F8C1B0E94E6166C2F8091DC03909158
:1022E000DD03800F911F0496DF91CF911F910F9115
:1022F0000C94DA13DF91CF911F910F9108950E94F2
:102300000D112091DC033091DD039EE0899F200DAB
:10231000311D1124F901369685919491F901349675
:1023200024912150223030F4FC0185919591A591A2
:10233000B491CD0108959093E1038093E0038FEF72
:102340000E940D118093E80308959093DD0380931C
:10235000DC037093DF036093DE0380E00E945B1276
:1023600086E391E19093E5038093E40383EC91E1AC
:102370009093E3038093E2038FEF8093EC038FEF5E
:102380009FE70C949B11DF92EF92FF920F931F93A4
:10239000CF93DF93CDB7DEB762970FB6F894DEBF69
:1023A0000FBECDBF182FD62E0E947F117C01812F2A
:1023B0000E940D112091DC033091DD039EE0899F86
:1023C000200D311D1124B901685F7F4F46E050E0B8
:1023D000CE0107960E94891C86E0FE013796DE0139
:1023E000119601900D928A95E1F709811A814B812E
:1023F0005C812D813E81E2E0DE1203C06FEF7FEF52
:1024000002C061E070E00F3FFFE71F0721F4C70142
:102410000E94440E3AC00E3F8FE7180721F4CB010B
:10242000FA01099532C00C3FFFE71F07B9F4F70125
:1024300080819181680F791F261737071CF07183FF
:10244000608303C0F70131832083F701808191818C
:1024500084179507D4F45183408317C00D3FFFE7DD
:102460001F0781F4298B3A8B4F87588B6D877E87A6
:102470000E94D415082F10E07E856D8558894F8500
:102480003A892989C7010E94050EE091DE03F09187
:10249000DF03309711F0C701099562960FB6F894E3
:1024A000DEBF0FBECDBFDF91CF911F910F91FF9087
:1024B000EF90DF9008951092EA031092E903809361
:1024C000E80381E08093E7038093E6030895809119
:1024D000EA038F5F8093EA0308958091EA038823DB
:1024E00019F081508093EA0308958091E803909158
:1024F000EA03981718F081508093EA038091EA0369
:102500009091E903891710F48093E9032091E9037E
:1025100030E02F5F3F4F482F50E0241735071CF461
:1025200081508093E9030895CF930E947512C09162
:10253000E9032091E903822F90E001964C2F50E0AF
:1025400084179507E4F06C2F621B80E00E947716D9
:102550008091EA03C81711F080E201C08EE30E9467
:1025600083168091E803C81730F4E091E403F091FA
:10257000E5038C2F09950E94EA16CF5FDACF1092FF
:10258000E703CF910895CF930E94DB15C82F0E94D7
:10259000AE19882329F081E08093E7038FE712C00A
:1025A000C23029F0C43041F40E94671202C00E9478
:1025B0006D1281E08093E7038091E70381110E940F
:1025C00094128C2FCF910895CF93DF93C82F81E081
:1025D0008093E703D1E00E94C312811102C01092E0
:1025E000E6039091E603911108C0883031F481E050
:1025F0008093E6038091EA0308C0C111D093E703FA
:10260000813049F79111E7CF8FEFDF91CF91089596
:10261000CF93DF938091EA038093EC031092EB0356
:1026200081E08093E703D2E0C1E00E94DB15682FD0
:10263000823011F0843081F4E091E203F091E30301
:102640008091EA0309958091EA038093EC03D0938B
:10265000EB03C093E70304C0813091F0883081F030
:102660000E9464148111C093E7038091E7038111F4
:102670000E9494128091EB038F5F8093EB03D5CF80
:102680008FEF8093EC0381E08093E6038093E70370
:10269000683009F080E0DF91CF9108958091FF02CA
:1026A000909100030397029718F08EEF9FE702C006
:1026B0008FEF9FE72091170330911803232B09F424
:1026C000029708950E944E130E949B110C946F0D67
:1026D0001F93CF93DF93CDB7DEB7A4970FB6F894CF
:1026E000DEBF0FBECDBF62E673E182E891E00E94DB
:1026F000A51114E20E944E130E949B1180E00E94DB
:10270000E41287FD2BC00E947F11892B41F48DEFCD
:1027100092E00E94690D84E00E947B14EBCFEDEF04
:10272000F2E0DE011196812F01900D928A95E1F77A
:102730000E94081381110AC0FE013196ADEFB2E08C
:10274000812F01900D928A95E1F703C084E00E94E9
:102750007B148DEF92E00E94A80DCCCFA4960FB60B
:10276000F894DEBF0FBECDBFDF91CF911F910C94C7
:10277000B80D0C947118CF93DF9300D0CDB7DEB7AE
:1027800089839A830E9481160E94791689819A8191
:102790000F900F90DF91CF910C94AA1680EF92E0EA
:1027A0000C94BB1382ED92E00E94BB1388EB9BE07C
:1027B0000C94AA15CF92DF92EF92FF920F931F9382
:1027C000CF93C62FFC014591559165917491FB0102
:1027D000433049F48C2FCF911F910F91FF90EF90D0
:1027E000DF90CF90099446FF0DC04F736C2F80810E
:1027F0009181CF911F910F91FF90EF90DF90CF903B
:102800000C94F017413011F1423009F049C0C590E5
:10281000D590E590F490D701ED91FC91EE0FFF1F5C
:10282000EC0DFD1D859194910E94921CC81B8C2F6C
:102830000E94E616F7016081C601CF911F910F91AA
:10284000FF90EF90DF90CF900C94C2164591559178
:1028500065917491FB010190F081E02DEE0FFF1F57
:10286000EE0FFF1FE40FF51F65917591859194910F
:10287000C25024E630E040E050E00E94191C6C2F6A
:10288000C9010E94EA1780E30E94831680E3CF917A
:102890001F910F91FF90EF90DF90CF900C948316D3
:1028A000CF911F910F91FF90EF90DF90CF900895FF
:1028B0008091EC0387FD06C08091EB0386958F5FC6
:1028C0008170089580E008958091EC0387FD0AC02F
:1028D0008091EB032FEF280F2695982F969581E096
:1028E000291301C080E008950E949B159093F10385
:1028F0008093F00308952091050330910603232B64
:1029000009F480E09091ED03981741F08093ED0376
:102910000E94741482E390E00C94BE150895909187
:10292000ED03911102C00C947B140895262F30E022
:10293000A901440F551F481759075CF0281739079C
:1029400024F4660F681B862F0895181619060CF4D8
:10295000089580E00895969587958531910518F43E
:102960006AE00C9496141092ED0380E008950F93A2
:102970001F93CF938C011695079516950795093CE3
:10298000110520F01092ED0380E00BC06AE0C80151
:102990000E949614C82F6AE0C80188970E94961476
:1029A0008C0FCF911F910F91089560ED77E00E94F9
:1029B000051C6AE00C9496146AE070E00E94051C05
:1029C000CB016D38710518F464E10C9496141092E3
:1029D000ED0380E008956AE070E00E94051CCB01E1
:1029E000683B714038F468E270E00E94051C64E1C5
:1029F0000C9496141092ED0380E008956AE070E064
:102A00000E94051CCB016135710538F468E270E065
:102A10000E94051C64E10C9496141092ED0380E072
:102A200008956AE070E00E94051CCB01683B71408C
:102A300038F468E270E00E94051C64E10C9496147E
:102A40001092ED0380E00895E091ED034E2F50E0E9
:102A5000FA013197E830F10590F4E65DFF4F0C94F0
:102A60005A1C0C94AB140C94D5140C94DC140C94D8
:102A7000EB140C94B7140C94FE140C94111580E014
:102A800008950E949B152091F0033091F103821B61
:102A9000930B0E942415282F30E04091EE035091B3
:102AA000EF032417350731F03093EF032093EE0343
:102AB0000C94230508952FB7F8946091F203709158
:102AC000F3038091F4039091F5032FBF08950E94C2
:102AD00016100E946B1B0E9441150C94CB0C809128
:102AE000F2039091F303A091F403B091F5030196E2
:102AF000A11DB11D8093F2039093F303A093F403FF
:102B0000B093F50380916100815019F080936100CA
:102B1000089581EE809361000E9497090C944710FC
:102B20000E945B15969587957795679508950E9405
:102B30009015CB0108950E945B15CB0108950E946A
:102B4000901528EE33E040E050E00E94191CCA01C5
:102B5000B90108950F931F93CF93DF93EC010E9467
:102B600090158B010E949015601B710B6C177D07EF
:102B7000C8F3DF91CF911F910F9108950F931F9389
:102B8000CF93DF93EC010E9490158B010E94671593
:102B90000E949015601B710B6C177D07B8F3DF91D5
:102BA000CF911F910F910895E091F603F0E0EF5F50
:102BB000FC4F849108950F931F93CF93DF93E0917F
:102BC000F603F0E0E35FFC4FC49110E003E087E020
:102BD00090E00E94BE150E94B104D82F8091F903A5
:102BE0009091F8038D1791F091110EC0D093F903D5
:102BF0001092F6031092F703D11102C0D0E029C061
:102C000081E00E948F1425C0915001C09F5F909376
:102C1000F8038091F803843018F00093F8031F5FE5
:102C2000C117A8F68091F603853098F4DD2331F3BF
:102C30009091F7039F5F9093F703E82FF0E0E95F2F
:102C4000FC4FE4919E1728F08F5F8093F60310925B
:102C5000F7038D2FDF91CF911F910F9108958F92E0
:102C60009F92AF92BF92CF92DF92EF92FF920F931B
:102C70001F93CF93DF936B017C01EA0197FF0BC099
:102C80008DE28883F094E094D094C094C11CD11C50
:102C9000E11CF11C2196C701B6010E94D50DC80F99
:102CA000D11D18828E018AE0882E912CA12CB12C86
:102CB000C701B601A50194010E943B1C605DF801AB
:102CC00062938F0169017A01C114D104E104F10416
:102CD00079F7CE01DF91CF911F910F91FF90EF9087
:102CE000DF90CF90BF90AF909F908F9008950C94FD
:102CF000F71860E080E00C94F71861E080E00C9435
:102D0000F7180C94F0188A3011F40C947D160C947A
:102D1000A919EF92FF920F931F93CF937C01C0E00C
:102D2000892B89F0062F660F110B8C2F90E08017EE
:102D300091074CF4CF5FF70181917F01882319F04F
:102D40000E948316F2CF8C2FCF911F910F91FF908D
:102D5000EF9008951F93CF93DF93009771F0182F92
:102D6000FC018E2F811B9491EF012196992331F064
:102D7000892F0E948316FE01F4CF80E0DF91CF916E
:102D80001F910895860F911D860F911DFC0185915D
:102D900094910C94AA160F931F93CF93DF931F92D5
:102DA000CDB7DEB7082F10E016173CF4802F6983EB
:102DB0000E9483161F5F6981F7CF862F67FD80E031
:102DC0000F90DF91CF911F910F910895682F80E2AE
:102DD0000C94CB1680E10C94E6160F931F93CF93BF
:102DE000DF931F92CDB7DEB78C01FC01019000206C
:102DF000E9F73197E81BF90B862F8E1B69830E9438
:102E0000E6166981C8010F90DF91CF911F910F9154
:102E10000C9489161F93CF93DF93CDB7DEB72B9712
:102E20000FB6F894DEBF0FBECDBF142FAE014F5FBB
:102E30005F4F0E942F16612FCE0101960E94ED1662
:102E40002B960FB6F894DEBF0FBECDBFDF91CF91AA
:102E50001F9108954F925F926F927F928F929F92EF
:102E6000AF92BF92CF92DF92EF92FF920F931F9398
:102E7000CF93DF93CDB7DEB72C970FB6F894DEBFB4
:102E80000FBECDBF6C01162F7A01222379F19C0170
:102E9000A8EEB3E00E94601C4A01A12CB12CA50150
:102EA00094010E943B1C49015A01002341F0B09457
:102EB000A09490948094811C911CA11CB11CC5010C
:102EC000B4010E94D50D8F5F90E0212F012E000CE0
:102ED000330B2817390754F04FEF410FC501B401E8
:102EE0000E940A178DE60E94A9194DC0C601B701BC
:102EF0000E94051C80E090E09E012F5F3F4F59012A
:102F0000002331F02DE22983AE014E5F5F4F01C0F7
:102F1000A9010E942F164C0132E0E316F10478F16A
:102F2000812F012E000C990B019794012A193B095E
:102F30002817390724F5C601B7010E94051C27018F
:102F4000612C712CA3019201280F391F411D511DC5
:102F500085E6E816F10418F0A8EEB3E002C0A4E696
:102F6000B0E00E94761CA30192010E943B1CCA01A2
:102F7000B901A4010E942F168EE2F4018083612F13
:102F8000C5010E94ED162C960FB6F894DEBF0FBE59
:102F9000CDBFDF91CF911F910F91FF90EF90DF9008
:102FA000CF90BF90AF909F908F907F906F905F90E9
:102FB0004F900895CF93C82F8DEF860F0E94E6168D
:102FC000CC2319F080E894E002C08CE794E0CF9124
:102FD0000C94AA16462FBC0180E090E00C940A17CE
:102FE000AF92BF92CF92DF92EF92FF920F93CF9367
:102FF000DF9300D0CDB7DEB75C014D3069F40F90A0
:103000000F90DF91CF910F91FF90EF90DF90CF90D5
:10301000BF90AF900C94DA174C3031F488EEA816BC
:1030200083E0B80678F007C0453061F488EEA81652
:103030008DEFB80638F089EF860F0E94E61684E718
:1030400094E036C0C42ED12C85E0489FF0011124B5
:10305000EA5EFC4FE590F490C7014A8369830E94C1
:10306000921C6981681B4A8116167CF54D7F483099
:1030700039F4B7FE05C0B194A194B10801E001C0D4
:1030800000E085E08C9D90018D9D300D1124F901AB
:10309000EB5EFC4F8491F901ED5EFC4F459154913C
:1030A00021E0811101C020E0C5010E942A17C7015B
:1030B0000F900F90DF91CF910F91FF90EF90DF90E5
:1030C000CF90BF90AF900C94AA160F900F90DF9105
:1030D000CF910F91FF90EF90DF90CF90BF90AF9086
:1030E0000895FF920F931F93CF93DF93CDB7DEB771
:1030F00028970FB6F894DEBF0FBECDBF8EE0F82E36
:10310000F9821FE11A8301E10B830C830D830E8387
:103110000F831887BE016F5F7F4F80E00E942C19DC
:10312000F9821A830B830C831D831E831F831887E8
:10313000BE016F5F7F4F81E00E942C19F9821A83D4
:103140001B831C831D831E831F831887BE016F5F33
:103150007F4F82E00E942C1928960FB6F894DEBFAC
:103160000FBECDBFDF91CF911F910F91FF900895BA
:10317000AC9881E090E00E94C907AC9A81E090E0B1
:103180000E94C907AC9884E690E00C94C90780FFC0
:1031900002C0AB9A01C0AB9881FF02C0AA9A01C0DD
:1031A000AA9882FF02C0A99A01C0A99883FF02C011
:1031B000A89A01C0A8980C94B818CF93C82F66237A
:1031C00011F0AD9A01C0AD988C2F82958F700E943E
:1031D000C7188C2FCF910C94C71860E00C94DD18A1
:1031E00081E00E94ED1880ED97E00C94C907CF9321
:1031F000DF93CDB7DEB728970FB6F894DEBF0FBECA
:10320000CDBF98E0E4E6F0E0DE01119601900D926A
:103210009A95E1F79091FB03691710F06FEF690F32
:10322000FE013196E60FF11DE60FF11D9081890F29
:10323000806828960FB6F894DEBF0FBECDBFDF9131
:10324000CF910C94ED188091FD03982F946090938A
:10325000FD038C600C94ED18EF92FF920F931F9377
:10326000CF93DF9300D0CDB7DEB7877028E0829F81
:10327000C0011124806469837A830E94ED186981FA
:10328000E62E7A81F72E8701085F1F4F61E0F70174
:1032900081917F010E94DD18E016F106B9F70F90C9
:1032A0000F90DF91CF911F910F91FF90EF900895B4
:1032B000623028F08091FE0388608093FE03609363
:1032C000FB031092FA03442339F0613029F4809112
:1032D000FE0384608093FE03A39AA29AA19AA09A07
:1032E00080E593EC0E94C907AD98AC9883E00E94FA
:1032F000C71884E991E10E94C90783E00E94C718BA
:1033000084E991E10E94C90783E00E94C71886E919
:1033100090E00E94C90782E00E94C7188091FE03D6
:1033200080620E94ED1884E08093FD030E942319BF
:103330000E94F01882E08093FC0386E00C94ED1864
:10334000A59AA49A1092FE0340E061E080E10C94FB
:10335000581961E00E94DD1881E00895CF938091B3
:103360006200882389F00E948C08C82F882349F0C6
:103370008091FF03811102C00E94CE1388E00E9459
:103380007B14C093FF038C2FCF91089508958DEF88
:1033900092E00E94590DAB01BC018FE990E00C94C2
:1033A00023068FE990E00E94E8068FE990E00C94F4
:1033B0009F06CF93C82F682F8FE990E00E94F306F5
:1033C00080910204C827C0930204CF910895809190
:1033D0006300813059F48091170390911803892B71
:1033E00029F00E94C71982E08093630008958091BC
:1033F0006300813029F00E94D11981E0809363003D
:1034000008958BE30C94D919CF93DF93EC01899144
:10341000882319F00E94D919FACFDF91CF9108952E
:10342000CF93DF93CDB7DEB72F970FB6F894DEBFFB
:103430000FBECDBFAE014F5F5F4F0E942F16CE0172
:1034400001960E94041A2F960FB6F894DEBF0FBEA5
:10345000CDBFDF91CF910895CF93DF93EC01109210
:10346000020484E20E94D919BE0180E090E00E942B
:10347000101A0E94011A6091FC0270E06F5F7F4F8A
:10348000072E000C880B990B0E94101A0E94011A3B
:1034900060910304709104048091050490910604E6
:1034A00028EE33E040E050E00E94191CCA01B90147
:1034B0000E94101A8EE20E94D91960910304709143
:1034C0000404809105049091060424E630E040E075
:1034D00050E00E94191CCA01B9012AE030E040E026
:1034E00050E00E94191C0E94101ADF91CF910C9499
:1034F000011A8DE00E94D9198AE00C94D9196091C3
:10350000020470E080E090E00E94101A0C94791A96
:103510001F93CF93DF9381E090E00E942C1ACEE5B9
:10352000D3E01C2F125FFE0184910E94D907BC01D9
:1035300080E090E00E94101A0E94011A21961C134C
:10354000F2CFC0E08C2F0E947E10BC0180E090E0A2
:103550000E94101A0E94011ACF5FC63099F70E948C
:103560008610BC0180E090E00E94101A0E94011AAF
:103570000E948A10BC0180E090E00E94101A0E9414
:10358000011A0E948E0F682F70E080E090E00E9488
:10359000101A0E94011A0E94FD0F0E94101A0E9428
:1035A000011ADF91CF911F910C947F1ACF93DF9373
:1035B000D82F82E090E00E942C1AC0E08C2FDD23EF
:1035C00019F00E94D00702C00E94D907BC0180E018
:1035D00090E00E94101A0E94011ACF5FC53271F765
:1035E000609164037091650380E090E00E94101A7E
:1035F0000E94011A60E070E0CB010E94101A0E9444
:10360000011ADF91CF910C947F1A83E090E00E9421
:103610002C1A0E948B07BC0180E090E00E94101AD7
:103620000E94011A0E947407BC0180E090E00E9491
:10363000101A0E94011A0C947F1ACF93DF93C09145
:103640001703D09118030E94881AC230D1056CF07C
:1036500081E0C430D1050CF480E00E94D61A229794
:1036600021F0DF91CF910C94051BDF91CF9108954C
:103670000F931F9380916300813051F10E94901548
:1036800020916300223051F4609307047093080482
:103690008093090490930A04109263000091070438
:1036A000109108042091090430910A04DC01CB0137
:1036B000801B910BA20BB30B809303049093040423
:1036C000A0930504B09306041F910F910C941D1B49
:1036D0001F910F9108950E94EE07811105C010926D
:1036E0000104109200040FC00E94F1072091000411
:1036F000309101042817390731F090930104809329
:1037000000040E94381B0C94C6191F93CF93DF93BB
:10371000182F682F88EA94E00E94C216C12FD0E0CB
:10372000FE01E156FB4F84911930C8F40E94E20774
:1037300065E00E94EA17112391F0219780916403BC
:103740009091650302C096958795CA95E2F780FF30
:1037500006C08AE2DF91CF911F910C948316DF910E
:10376000CF911F9108950E94E71981E00E94580AA5
:103770000E94F00E8BE00E945B1285E89BE1909323
:10378000E5038093E403C0E001E010E0C093EA03A6
:1037900081E00E94E412C82F8823C1F3873088F4A7
:1037A0008FEF8C0F980102C0220F331F8A95E2F72A
:1037B0008091640390916503822793270E94CD0E28
:1037C000E5CF893019F70E942C0F0E9487080E94CC
:1037D000F7190E9468130E94E71981E00E94580AB5
:1037E0000E94F00ED3CF0C94B31BDB018F939F93F9
:1037F0000E94761CBF91AF91A29F800D911DA39F47
:10380000900DB29F900D11240895AA1BBB1B51E18E
:1038100007C0AA1FBB1FA617B70710F0A61BB70B40
:10382000881F991F5A95A9F780959095BC01CD01E5
:103830000895A1E21A2EAA1BBB1BFD010DC0AA1FF1
:10384000BB1FEE1FFF1FA217B307E407F50720F009
:10385000A21BB30BE40BF50B661F771F881F991F84
:103860001A9469F760957095809590959B01AC01CD
:10387000BD01CF010895052E97FB1EF400940E9410
:10388000521C57FD07D00E94191C07FC03D04EF4B0
:103890000C94521C50954095309521953F4F4F4FB9
:1038A0005F4F089590958095709561957F4F8F4FEC
:1038B0009F4F0895EE0FFF1F0590F491E02D09949E
:1038C000A29FB001B39FC001A39F700D811D112461
:1038D000911DB29F700D811D1124911D08950E94AC
:1038E000601CB7FF0895821B930B08950E94601C13
:1038F000A59F900DB49F900DA49F800D911D112444
:103900000895B7FF0C94761C0E94761C821B930BC3
:103910000895FB01DC0102C005900D92415050401A
:10392000D8F70895FC0105900020E9F7809590955F
:103930008E0F9F1F0895DC01CB01FC01E199FECFA2
:1039400006C0FFBBEEBBE09A31960DB20D9241501E
:103950005040B8F70895E199FECF9FBB8EBBE09A27
:1039600099278DB30895A8E1B0E042E050E00C94AF
:103970009D1CDC01A40FB51F4150504048F0CB0105
:10398000840F951F2E910E94CA1C41505040D0F7C1
:103990000895262FE199FECF9FBB8EBBE09A019739
:1039A0000DB2021631F02DBB0FB6F894E29AE19AEF
:1039B0000FBE08950196272F0E94CA1C0C94C91CA3
:0439C000F894FFCFA9
:1039C40001E1010100004000140054000000010462
:1039D40001040101010101010100000101010101D2
:0839E400010002010308010AC1
:00000001FF
