:100000000C9427060C944F060C944F060C944F0644
:100010000C947E090C944F060C944F060C944F06DA
:100020000C944F060C94E2090C94AE090C94B90997
:100030000C944F060C946A0A0C949F0A0C944F0679
:100040000C945A090C944F060C944F060C944F06CE
:100050000C944F0663146F147414771479148B1472
:10006000881477146314E133E333E533E933E93378
:10007000E733ED33EB33000000003A65C52E000096
:1000800000003A65C52EF80132007C2BE80380049D
:100090003200001F2C0100000000000000000000E2
:1000A0000000000000000000000080A6CA30FC161E
:1000B000E808000000000000000043BFA80E000098
:1000C000000071D8681000000000AFD9681000006F
:1000D00000004067D007000000000FD66810000045
:1000E0000000C8D86810000000008AD86810F80125
:1000F00032007B2BE8039A0132007A0B2C010006B8
:100100000800FF01010A01060900FF0302000206C0
:100110000A00FF00000A06060E00FF0302000506A3
:100120000D00FF02030004060C00FF03020003069B
:100130000B00FF04060007060700FF03020046004D
:10014000030088137017010032000C173200D0072B
:10015000401FE8031027000000000300000000001B
:10016000010080250000004B00000096000000E127
:10017000000000C2010001000100010001000100B7
:10018000B0040807520300005203B0040807E80354
:100190000000E803D0079209D60600006C07E40CC3
:1001A000100EC409E40CB80B100E0410C409A60EFE
:1001B000AC0D740E6810B80B0A0F890C740ECC10BD
:1001C000B80B0A0F890C740EFE10B80B0A0F890CBD
:1001D00040066C071405400678050100A00FD00703
:1001E000010001000100A00F010001000100040056
:1001F000000102020202020304051F0B150B100B83
:100200000B0B060B010BFC0AF70AF20AED0A1A0B9C
:10021000E90A1F1A5B1A841B141C1F1C2A1C1C1DB4
:10022000181D4C1DF71D031E081EA11E9E1EA81E94
:10023000CF1ED61EF91E4F211F212521ED231F1C85
:10024000EF233B098B2732090D29260915291A09A5
:10025000BB270B09A3270000000007B908020044D0
:10026000003702FD7F00001027B40801004900811B
:1002700002000000000000D108040049000704014A
:10028000000000010000000000000000000000006D
:100290000000000001AD08020041002902FD7F00BE
:1002A000007869A508020041002B02FD7F0000785C
:1002B00069D10804004900070401000000010000A2
:1002C000000000000000000000000000000609021D
:1002D0000041003502FD7F000030750109820041B8
:1002E000006702FD7F00008813FC0882004100695E
:1002F00002FD7F00008813F708820041006B02FDB9
:100300007F00008813F208820041006D02FD7F002B
:10031000008813ED08820041006F02FD7F00008815
:1003200013E808820041007102FD7F00008813E29B
:1003300008010041004F02000000000000DC08013D
:100340000041004D02000000000000D108040049F7
:100350000007040100000001000000000000000090
:100360000000000000000006090A0B0C0D0E061F1D
:100370002021222324CA08FF7F49000904FD7F00B1
:1003800000FFFFC708FF7F0300EF27000000000009
:1003900000BF08FF7F40000B04FD7F0000FFFF004F
:1003A000000000000000000000000000003C0BF511
:1003B0002C320BE925240BBF2B00000000200AFF84
:1003C0007F02003705010000000B001D0A0F00032B
:1003D000001031FE7FC52B0000190A0E8041003449
:1003E00003FD7F00008813190A1000410034033216
:1003F00000000078690C0A018041003403FD7FB0E1
:1004000004D0070C0A200041003403FF7F0100786C
:1004100069150A048041004803FD7F00008813111C
:100420000A0F8041003603FD7F00008813110A1077
:100430000041003603320000007869070A1F0045BA
:10044000002C03FF7F6400E8FD030A3F00400030FA
:1004500003FF7F01000C17FC091E8040003803FFDA
:100460007F01000C17F8091F0040003203FF7F01D5
:1004700000D007F1091F8040003A03FF7F0100D040
:1004800007E7090C8048004A0301000300C800DEAA
:100490000901004D004803010000000100D90900D6
:1004A0000248004A03FC7FECFF0000CD0900024B2C
:1004B000004C03010001001E00C4091F004D003E56
:1004C00003010000000100BC0900044A064E030AB3
:1004D000000A008403B0090001440340036400588B
:1004E00002AC26AA093F004C003C03FF7F0000E855
:1004F00003A0091F004700460301000100FA009411
:10050000090300490050030100000005008A091F8B
:10051000804B0044030100010063007F091F804DF0
:100520000042030100000001000000000000000084
:1005300000000000000000FA012A03B80BA90BA17B
:100540000B970B8B0B830B740B690B5A0B4D0B002A
:100550000900030407080900030708090001020352
:1005600004080900010203040506080909E30AFF5B
:100570007F4D000E03010000000100DB0AFF7F40F9
:10058000001003FD7F0100F401D30AFF7F40001239
:1005900003FF7F01000C17BB0AFF7F42001803FF17
:1005A0007F0A00401FCB0AFF7F40001403FD7F013C
:1005B00000F401C30AFF7F40001603FF7F0100D053
:1005C00007B30AFF7F42001A03FF7F0A00E803A86F
:1005D0000AFF7F41001C036400581B30759D0AFF11
:1005E0007F4D001E03010000000100970AFF7F02FB
:1005F0000069060100000004008F0A020001006586
:1006000006010000000400860A020002005D0601E7
:1006100000000001007F0AFF7F0200550601000074
:10062000000100760AFF7F02004D06010000000174
:1006300000700AFF7F0000000000000000000000C2
:10064000000000000000000000000000005106282B
:1006500003550A290A59062603360A2D0A6106247B
:10066000036B0A650A620122036D0620035C0A55CA
:100670000A4F0A460A3D0A20202D2D2020006368DB
:1006800065616C692D636861726765720A76322EE6
:1006900030325F32303233313031320063616C6975
:1006A000622E206572726F7200706C6561736520D6
:1006B00063616C69627261746500656570726F6D0B
:1006C0002072657365740A6572726F723A200072E7
:1006D0006573657474696E6720656570726F6D000F
:1006E0002020202020202020202020207965730039
:1006F000656570726F6D2072657365743A0052455E
:10070000564552534520504F4C415249545900656B
:1007100072726F723A00636F6D706C6574653A0047
:100720005431000000400000000050320040000042
:10073000000000402230FFFFFF7F04000040B63180
:100740008001000000000040B130000200000800FD
:100750000040BD300002000008000040D13000021F
:10076000000000000040D930FFFFFF7F0400004080
:100770000E2E0000006000000000122E000000603D
:1007800000000000162E00000020040000401A2E79
:1007900000000020040000407330FFFFFF7F0400D2
:1007A00000405530FFFFFF7F00000040AD30FFFFED
:1007B000FF7F000000003630FFFFFF7F04000000D5
:1007C0009130FFFFFF7F000000000000FFFFFF7F70
:1007D00000000000250064542F64743D200064561E
:1007E0003D202020006D6178563D00206C696D69C8
:1007F000743D0056696E7075743D0077697265735B
:1008000020523D00626174742E20523D004C696D8F
:100810006974733A20004E2F4100546578743D008E
:100820004E2F410025200043684342426C446946F4
:1008300043537453424359434300010101020A1ECA
:10084000010318478E01190C03010101E803014A55
:100850000CE80300480C640000460C640000430CE4
:10086000640000410CE803013E0CE803013C0C016C
:1008700000003A0CE80301480C010000330C64004E
:1008800000360C010000340C010000340C010000A3
:100890000000010000310C141719181A0705061F73
:1008A0002021222324566D696E75733A0056706CB0
:1008B00075733A006164633A0074656D703A00497B
:1008C00065787065633A00493A0076616C75653AFF
:1008D0000063616C69622E20702E3A00566F757449
:1008E0003A0056312D363A005662363A0056623595
:1008F0003A005662343A005662333A005662323A4F
:10090000005662313A0056696E3A00657870657239
:10091000742044414E474552210074656D70206536
:10092000787465726E0049206469736368617267E8
:100930006500492063686172676500766F6C746159
:1009400067650062616C616E636520706F7274210F
:1009500000626174746572792100646973636F6EFB
:100960006E65637400636F6E6E6563740064542F0C
:100970006474002D64560056206C696D69740061C2
:1009800064617074206469733A00442F4320726577
:1009900073743A00442F43206379636C65733A00A3
:1009A00063617020434F66663A0074696D653A0072
:1009B0007C657874726E2054434F3A007C64542FE7
:1009C00064743A00657874726E20543A007C6967EA
:1009D0006E7220667273743A007C64563A00656EDB
:1009E00061622064563A0062616C2E206572723A30
:1009F000006D696E49643A0049643A006D696E4958
:100A0000633A0049633A004361703A0056636F3AB3
:100A10000056643A0056733A0056633A00563A005C
:100A2000626174746572793A007265760061647609
:100A3000616E6365640073696D706C6500657874E0
:100A40002E20416463006578742E20646562006422
:100A500065627567006E6F726D616C0064697361C9
:100A6000626C65640073657061720074656D70001E
:100A7000726573657400627574746F6E733A006D9D
:100A8000656E75733A007C6F75747075743A007C8E
:100A900073706565643A00554152543A006164636D
:100AA000206E6F6973653A00696E707574206C6FA3
:100AB000773A006D61782050643A006D617820507B
:100AC000633A006D61782049643A006D696E20498F
:100AD000643A006D61782049633A006D696E20497F
:100AE000633A00626565703A004C4544004E695AAD
:100AF0006E004C343335004C343330004C69706F29
:100B0000004C696C6F004C696665005062202000E3
:100B10004E694D48004E69436400556E6B6E004E41
:100B20006F6E650072657365742064656661756CCF
:100B3000740063616C6962726174650073657474DA
:100B4000696E6773006F7074696F6E7300656469B6
:100B500074206261747465727900636170616369A5
:100B6000747920636865636B00443E4320666F724E
:100B70006D61740073746F726167652B62616C6183
:100B80006E630073746F72616765006661737420D1
:100B90006368617267650064697363686172676541
:100BA0000062616C616E6365006368617267652BEA
:100BB00062616C616E6365006368617267650065A0
:100BC00078742E74656D702E6375746F666600742C
:100BD000696D65206C696D6974006361706163693A
:100BE0007479206375746F666600696E7075742021
:100BF0005620746F206C6F77004857206661696CCF
:100C00007572650062616C616E6365722064697300
:100C1000632E006261747465727920646973632E57
:100C2000006E6F6C696D697400206E6F007965737A
:100C3000005500006D00432F6D002500F400416851
:100C4000004300576800570056004100E30B112491
:100C50001FBECFE5D8E0DEBFCDBF10E0A0E6B0E01C
:100C6000E2EEF7E702C005900D92A838B107D9F778
:100C700024E0A8E8B0E001C01D92A638B207E1F771
:100C800016E0C7E2D6E004C02197FE010E94693B4E
:100C9000C632D107C9F70E94E9120C94EF3B0C94BD
:100CA000000086B380958170B19902C092E001C0C6
:100CB00090E0892BB29902C094E001C090E0892BAA
:100CC000B39902C098E001C090E0892B0895882371
:100CD00039F0A69AA79AD59A889A8A9A8F9A0895EF
:100CE000A698A798D59888988A988F9808950E9472
:100CF000FC3840E062E080E10E94B4380E94DE09E6
:100D00000E94530A0E94010888E799E60C942D0777
:100D1000811106C0939A0E944E0780E00C94F4075C
:100D20009398089580FF02C0AE9A01C0AE9881FFEB
:100D300002C0AF9A01C0AF9882FF02C0DD9A01C025
:100D4000DD9883FF02C0909A01C0909884FF02C092
:100D5000929A01C0929885FF02C0979A0895979839
:100D6000089580E00E94920680E00E94880680E05C
:100D70000E94C90987B18F7387B98B9A8D9AD79AC8
:100D8000BC9A8C9A8D9A8E9A08952FB7F894809178
:100D9000890090918A00A0918B00B0918C002FBFA8
:100DA000892F9A2FAB2FBB27A7FDBA9508952FB790
:100DB000F8941092900010928F008617970768F4AD
:100DC00080E090E4A0E0B0E08093890090938A00F6
:100DD000A0938B00B0938C0008C0109289001092F1
:100DE0008A0010928B0010928C0080918900909163
:100DF0008A00A0918B00B0918C00BA2FA92F982F58
:100E000088278093890090938A00A0938B00B093E9
:100E10008C0081E0809388002FBF0895CF93DF93EB
:100E2000EC01C13080E6D80758F4C13080E4D8071F
:100E300048F48EE00E945F0A9598BE018DE009C0DB
:100E4000C0E0D0E68DE00E945F0A949ABE01705423
:100E50008EE0DF91CF910C943D0A893729E6920705
:100E600010F088E799E6BC0180E00E94750E813C95
:100E70002FEF920710F080EC9FEF2FB7F89490932C
:100E80008E0080938D002FBF08959C019FB7F8942A
:100E90003093900020938F009FBF0895CF93DF93EE
:100EA000C82F8111DF9ADFB7F8948DE00E945F0AA6
:100EB00094988EE00E945F0A959810928800DFBF98
:100EC000C11104C0969ADF91CF910895969880E061
:100ED0000E948A0CEC0186E00E948A0CBE01DF9120
:100EE000CF910C94D7060F931F938091880088238D
:100EF00009F477C080E00E94930C20918D0030911E
:100F00008E008217930748F080E00E944E071092EF
:100F1000880081E08093A50364C082E00E94930C66
:100F200040918F005091900060E070E00091890046
:100F300010918A0020918B0030918C00481B590B36
:100F400061097109E2E0440F551F661F771FEA959A
:100F5000D1F7400F511F621F731F409389005093B8
:100F60008A0060938B0070938C008091890090912F
:100F70008A00A0918B00B0918C00B7FF08C010923E
:100F8000890010928A0010928B0010928C00809140
:100F9000890090918A00A0918B00B0918C000197FC
:100FA000A046B10560F080E090E0A0E6B0E080935C
:100FB000890090938A00A0938B00B0938C0080915D
:100FC000890090918A00A0918B00B0918C00892FAC
:100FD0009A2FAB2FBB27A7FDBA951F910F910C94A9
:100FE0000E071F910F910895882329F080E00E9439
:100FF0004E07DF980895DF9A0895BC018EE00C94A7
:101000003D0ADE98D698BD9ABE9ABF9A8EEA86B9F6
:10101000369A089580911E0390911F03892BE9F061
:10102000909197009923C9F021E030E0009095005D
:1010300002C0220F331F0A94E2F74091FB02509145
:10104000FC02842F8F704FB7F8943BB3232B2BBB3C
:10105000890F8A95F1F73BBB4FBF0895CF938091DD
:1010600091008F5F803108F080E080939100409183
:101070009400509195006091960070919700409374
:1010800098005093990060939A0070939B00E1E060
:10109000E80FE03109F4E0E024E0E29FF0011124E0
:1010A000E250FF4F459155916591749140939400A2
:1010B00050939500609396007093970020913E03A3
:1010C00030913F03232B39F490919400973019F419
:1010D00096E090939400811173C00E945C249093D9
:1010E000B4028093B3020E947A1D9093B60280935B
:1010F000B50280919300882309F458C00E945C24B3
:101100004091F3025091F4026091F5027091F60261
:10111000CEE09C01C29FC001C39F900D1124480FD7
:10112000591F611D711D4093F3025093F4026093A7
:10113000F5027093F6020E947A1D4091F7025091D9
:10114000F8026091F9027091FA029C01C29FC001FD
:10115000C39F900D1124480F591F611D711D4093AD
:10116000F7025093F8026093F9027093FA028091AB
:10117000FB029091FC020197B9F48091BF0290911B
:10118000C002A091C102B091C20222E0B695A7951B
:10119000979587952A95D1F78093BF029093C002C7
:1011A000A093C102B093C2020E94C50F2091FB021E
:1011B0003091FC0281E0232B09F480E080939300BE
:1011C000CF910895EF92FF920F931F9384B125B1B1
:1011D00090919200923050F190E0922BE0919A0021
:1011E0002FB7F89430919300F0E0DF01AA0FBB1FF6
:1011F000AB56BD4F11969C938E93311102C02FBFF9
:1012000015C0EE0FFF1FEE0FFF1FE954FD4F408189
:101210005181628173817A018B01E80EF91E011DF3
:10122000111DE082F18202831383E9CF8091920045
:1012300091E0980F909392008B3039F118F481303F
:1012400089F033C08C3059F18F3079F58091950059
:10125000806287B9109292001F910F91FF90EF90DA
:101260000C942E088091940087FD1FC03FB7F8941E
:1012700028B39091940000E29002C0011124922FB3
:101280009F71892B88BB3FBF10C080919A0082302C
:1012900061F41F910F91FF90EF900C9473071F91D1
:1012A0000F91FF90EF900C940A081F910F91FF90FF
:1012B000EF9008951F920F920FB60F9211242F9363
:1012C0003F934F935F936F937F938F939F93AF93CE
:1012D000BF93EF93FF930E94E208FF91EF91BF91BC
:1012E000AF919F918F917F916F915F914F913F91BE
:1012F0002F910F900FBE0F901F9018951F920F9275
:101300000FB60F9211242F933F934F935F936F93D8
:101310007F938F939F93AF93BF93EF93FF930E941D
:101320001F34FF91EF91BF91AF919F918F917F916A
:101330006F915F914F913F912F910F900FBE0F9042
:101340001F90189588E085BD85B5846085BD14BC67
:101350008CE783BD89B7806889BF08951F920F927B
:101360000FB60F921124C49A0F900FBE0F901F90CA
:1013700018951F920F920FB60F9211248F93C49855
:1013800080919C0082BF8F910F900FBE0F901F9095
:101390001895811104C013BE12BEC498089590E040
:1013A0009595879528E7280F20939C0088589E4F95
:1013B000959587958CBF8CE483BF089589B783602A
:1013C00089BF08951F920F920FB60F9211242F9389
:1013D0003F938F939F938091A3009091A4002091BD
:1013E0009F003091A000820F931F9093A0008093E4
:1013F0009F008091A1009091A20020919D003091CA
:101400009E00820F931F90939E0080939D002FB7A4
:10141000F89480919F009091A00035E09695879573
:101420003A95E1F79BBD8ABD80919D0090919E0009
:1014300035E0969587953A95E1F799BD88BD2FBF20
:1014400080919F009091A0008F7199279093A000A8
:1014500080939F0080919D0090919E008F719927AD
:1014600090939E0080939D009F918F913F912F912B
:101470000F900FBE0F901F9018959FB7F8948E3065
:1014800039F47093A4006093A3008FB5806808C0FE
:101490008D3039F47093A2006093A1008FB5806203
:1014A0008FBD9FBF089580E092E097BD86BD82E02A
:1014B0008FBD89E18EBD89B7846089BF08958E3064
:1014C00019F48FB58F7704C08D3019F48FB58F7DE7
:1014D0008FBD08951F920F920FB60F9211242F9374
:1014E0004F935F938F939F93EF93FF935A991AC0F3
:1014F0002CB18091BB019091BC010196992740913C
:10150000BD015091BE018417950769F0E091BB01C0
:10151000F091BC01E554FF4F20839093BC01809370
:10152000BB0101C08CB1FF91EF919F918F915F91B1
:101530004F912F910F900FBE0F901F9018951F92F3
:101540000F920FB60F9211242F933F938F939F9377
:10155000EF93FF932091BB013091BC018091BD01BD
:101560009091BE012817390711F4559812C0E091E7
:10157000BD01F091BE01E554FF4F20818091BD0176
:101580009091BE01019699279093BE018093BD0171
:101590002CB9FF91EF919F918F913F912F910F90D7
:1015A0000FBE0F901F901895CF92DF92EF92FF928F
:1015B0000F931F93CF93DF93EC016A017B014115D9
:1015C000514E6105710509F1E885F98581E090E0EA
:1015D0000C8802C0880F991F0A94E2F7808360E0AC
:1015E00079E08DE390E0A70196010E94283B8901F4
:1015F0009A0101501109210931093695279517954E
:101600000795980101151041A8F0E885F985108229
:1016100060E874E88EE190E0A70196010E94283B03
:10162000DA01C9010197A109B109B695A795979566
:1016300087959C01EC81FD813083EE81FF812083C1
:101640001D8AEA85FB85408181E090E09C01098844
:1016500002C0220F331F0A94E2F7242B2083EA856D
:10166000FB8540819C010A8802C0220F331F0A9427
:10167000E2F7242B2083EA85FB8520810B8802C0BA
:10168000880F991F0A94E2F7809582238083DF9167
:10169000CF911F910F91FF90EF90DF90CF90089521
:1016A000CF93DF93FC0182819381EC01D395DC0120
:1016B000AE5FBE4F288139818D919C91119728177B
:1016C0003907C1F7A285B3853C9181E090E0AC0178
:1016D000018802C0440F551F0A94E2F7242F209579
:1016E00023232C93A285B3853C91AC01028802C0D0
:1016F000440F551F0A94E2F7242F209523232C939F
:10170000A285B3852C91038802C0880F991F0A9483
:10171000E2F7809582238C9380819181FC01EE5FBA
:10172000FE4F20813181329731832083DF91CF9129
:101730000895FC018589882329F0A085B1858C91C5
:1017400086FFFBCF158A08950F931F93CF93DF93E6
:10175000FC01A281B3818D011395E80188819981F3
:1017600001969927AD014E5F5E4FEA0128813981CC
:1017700082179307D1F3E80128813981A20FB31FA3
:101780006C93A281B381B39511969C938E93A2859D
:10179000B3852C9181E090E0038802C0880F991FE7
:1017A0000A94E2F7822B8C9381E0858B0084F1858B
:1017B000E02D80818064808381E090E0DF91CF9193
:1017C0001F910F910895E5EAF0E08BEB90E0918393
:1017D00080839383828380E490E09583848329E2ED
:1017E00030E0378326832BE230E0318720872AE2FE
:1017F00030E033872287958784878CE290E0978753
:10180000868784E0808B83E0818B87E0828B85E014
:10181000838B81E0848B0895CF93DF931F92CDB7A4
:10182000DEB7E0918204F0918304309711F4E6E88A
:10183000F4E0CE0101962EEB8E179F0710F0219356
:10184000FBCF0F90DF91CF910895CF93DF9300D01E
:10185000CDB7DEB720918204309183042115310584
:1018600011F426E834E0CE010196821B930B0F9011
:101870000F90DF91CF910895CF93DF931F92CDB753
:10188000DEB720918204309183042115310511F4D3
:1018900026E834E0F901BE016F5F7F4FCF01821B64
:1018A000930B6E177F0728F040814E3B11F4319661
:1018B000F5CF0F90DF91CF910895009741F0EFE9B8
:1018C000FFE03197F1F700C000000197F6CF0895CF
:1018D0008436910538F064E670E00E94143BCB0139
:1018E0000C945D0C019728F025E32A95F1F7000090
:1018F000F9CF08956AE070E00E94143BCB010C948C
:10190000680CE82FF0E0EE0FFF1FED58FD4F8081CF
:1019100091810895E82FF0E0EE0FFF1FE75DFD4F86
:101920008081918108952FB7F894E82FF0E0EE0FB1
:10193000FF1FEB56FD4F808191812FBF089580914D
:10194000010308958091DD019091DE010895809159
:10195000CB019091CC0108958091CD019091CE0161
:1019600008958093C8010895E82FF0E0EE0FFF1F5F
:10197000E152FE4F80819181089581E08093FF02C2
:101980000895613110F4423040F021E030E0FC0174
:101990003383228331832083089550E0460F511D05
:1019A000460F511D440F551F440F551FBA01625F6A
:1019B0007F4F44E050E00C94AA3B9A01813190F4AF
:1019C000623080F470E0680F711D680F711D660F42
:1019D000771F660F771F625F7F4F44E050E0C901B9
:1019E0000C94C83B0895EF92FF921F93CF93DF931F
:1019F00000D000D0CDB7DEB786E7E82E80E0F82E25
:101A000010E0F70185919591A591B49189839A830E
:101A1000AB83BC83AE014F5F5F4F60E0812F0E94BC
:101A2000DD0CF701349685919591A591B491898348
:101A30009A83AB83BC83AE014F5F5F4F61E0812F20
:101A40000E94DD0C1F5F88E0E80EF11C1131C9F621
:101A500081E00E945D130F900F900F900F90DF9127
:101A6000CF911F91FF90EF9008958091FD0290918A
:101A7000FE020C946C1581E02091530230915402C7
:101A80002331310509F080E0089580915102909151
:101A90005202089580914D0290914E0208958091D6
:101AA0005702909158020895809107029091080280
:101AB000039750F080910D0290910E02039720F051
:101AC00083E090E00C94951A80E008952FB7F89485
:101AD00080E090E0FC01EE0FFF1FEE0FFF1FE954C6
:101AE000FD4F10821182128213820196813191057D
:101AF00089F78AE390E09093FC028093FB021092B6
:101B000000032FBF0895CF93CFB7F8941092DC0154
:101B10001092DB011092D7011092D8011092D901D6
:101B20001092DA011092D3011092D4011092D501D3
:101B30001092D6011092CF011092D0011092D101D3
:101B40001092D2010E9447349093CA018093C90138
:101B5000CFBFCF910895EFEDF1E01192119282E0A5
:101B6000E932F807D1F70895CF93CFB7F89481E021
:101B700090E09093FC028093FB02809300030E940C
:101B8000AB0DCFBFCF910895CF93DF930E94B40DDB
:101B9000C091DD01D091DE018091DD019091DE01E7
:101BA000C817D90729F48AE090E00E947234F4CF74
:101BB000DF91CF9108951092010380E00C94880684
:101BC000CF93DF9381E00E94930CEC0180E00E94B0
:101BD000930C8C179D0718F4C81BD90B02C0C0E0EA
:101BE000D0E081E0C93ED34008F480E0DF91CF919E
:101BF00008958F929F92AF92BF92CF92DF92EF9211
:101C0000FF920F931F93CF93DF93CDB7DEB7289743
:101C10000FB6F894DEBF0FBECDBF6115710509F494
:101C20004FC05B01F82E40E0682FCE0105960E9460
:101C3000C10C41E06F2DCE0101960E94C10C2B8199
:101C40003C81C901A0E0B0E0CF80D884E12CF12C28
:101C50009C01AD012C193D094E095F09C501A0E0A9
:101C6000B0E08D809E80A12CB12CBC01CD01681903
:101C700079098A099B090E94F83A29813A818901E8
:101C800020E030E0A9019801281939094A095B09C7
:101C90000E944A3BDA01C9018C0D9D1DAE1DBF1D7E
:101CA000B7FD0AC0009721E0A207B1055CF08FEFF5
:101CB0009FEFA0E0B0E006C080E090E0DC0102C051
:101CC00080E090E028960FB6F894DEBF0FBECDBF3F
:101CD000DF91CF911F910F91FF90EF90DF90CF9008
:101CE000BF90AF909F908F9008958F929F92AF92E8
:101CF000BF92CF92DF92EF92FF920F931F93CF93F9
:101D0000DF93CDB7DEB728970FB6F894DEBF0FBECE
:101D1000CDBF6115710509F44FC05B01F82E40E09D
:101D2000682FCE0105960E94C10C41E06F2DCE01B7
:101D300001960E94C10C29813A81C901A0E0B0E05E
:101D4000CD80DE80E12CF12C9C01AD012C193D09E8
:101D50004E095F09C501A0E0B0E08F809884A12CF6
:101D6000B12CBC01CD01681979098A099B090E942F
:101D7000F83A2B813C81890120E030E0A9019801EB
:101D8000281939094A095B090E944A3BDA01C9014D
:101D90008C0D9D1DAE1DBF1DB7FD0AC0009721E033
:101DA000A207B1055CF08FEF9FEFA0E0B0E006C0A6
:101DB00080E090E0DC0102C080E090E028960FB661
:101DC000F894DEBF0FBECDBFDF91CF911F910F9171
:101DD000FF90EF90DF90CF90BF90AF909F908F904B
:101DE000089582508C3130F4E82FF0E0E459FF4F31
:101DF0008081089581E00895CF93833149F481E093
:101E000020915302309154022331310589F413C0DB
:101E1000C82F0E94F10E813069F4EC2FF0E0EE0F34
:101E2000FF1FE75DFD4F208131812139314018F4DA
:101E300080E001C081E0CF910895EF92FF920F936F
:101E40001F93CF93CFE1EE24E394F12C00E010E058
:101E50008C2F0E94FC0E882311F00E291F29EE0CF6
:101E6000FF1CCF5FC532A1F7C801CF911F910F9121
:101E7000FF90EF9008951F93CF93DF931F92CDB7FC
:101E8000DEB7182F69830E94F10EE12FF0E0EE0F0C
:101E9000FF1FE75DFD4F482F6981808191810F9081
:101EA000DF91CF911F910C943D372FB7F89460913B
:101EB000C4017091C5018091C6019091C7012FBFE7
:101EC00020E03DE740E050E00E94283BC901089532
:101ED0002FB7F8948091C0019091C101A091C201E7
:101EE000B091C3012FBFBC01CD0196958795779521
:101EF000679520E03DE740E050E00E94283BC901A3
:101F0000089540915702509158028091C4019091D8
:101F1000C501A091C601B091C701840F951FA11DF5
:101F2000B11D8093C4019093C501A093C601B093E5
:101F3000C7018091BF01815019F08093BF010895BE
:101F400082E38093BF0120914D0230914E02DA016D
:101F50000E946F3B24E630E040E050E00E94283BC6
:101F60008091C0019091C101A091C201B091C301C3
:101F7000820F931FA41FB51F8093C0019093C101CE
:101F8000A093C201B093C30108958091FB02909188
:101F9000FC02892B49F08091FB029091FC02019791
:101FA0009093FC028093FB02089590E0880F991FA4
:101FB000FC01E75DFD4F208131816217730718F442
:101FC000261B370B04C0AB01421B530B9A01FC01CB
:101FD000E152FE4F2730310518F01182108206C001
:101FE000208131812F5F3F4F31832083FC01E75DEA
:101FF000FD4F718360830895CF93DF938FB7F8947B
:102000001092C4011092C5011092C6011092C7012E
:102010001092C0011092C1011092C2011092C3012E
:1020200092E39093BF018FBFC9E2D2E06CA17DA182
:102030008CE10E94D50F8E859F859093CC01809373
:10204000CB010E94B40D0E94830D1092CE0110921C
:10205000CD0160E070E089E10E94D50F60E070E0A2
:102060008BE10E94D50F60E070E08DE1DF91CF91B0
:102070000C94D50F1092DE011092DD010C94FC0F30
:102080000C943A109091010391110FC00E948806A0
:102090000E943A1081E080930103809360000E94C7
:1020A000C40D0E94FC0F1092FF020895EF92FF9260
:1020B0000F931F93CF93DF93C0912902D0912A02EF
:1020C00080912B0290912C028C179D0718F4C81B4D
:1020D000D90B02C0C0E0D0E0BE0182E10E94D50F62
:1020E0003BE3E32E32E0F32E1FE1F70161917191A2
:1020F0007F01812F0E94D50F1F5F1532B1F78091AC
:10210000FF02811106C00E941D0F9093FE02809372
:10211000FD02E090FD02F090FE0280E090E000E021
:1021200010E041E050E09A01082E02C0220F331F58
:102130000A94E2F72E213F21232B49F0FC01EE0FF8
:10214000FF1FE75DFD4F26AD37AD020F131F019650
:102150008630910541F7B80183E10E94D50F011542
:10216000110581F00C171D0720F4CE01801B910B87
:1021700003C0C8018C1B9D0B893B9B4018F4E801F0
:1021800013E103C012E1E12CF12CBE0184E10E94B5
:10219000D50FB70186E10E94D50F612F70E085E170
:1021A0000E94D50F0E946E1D882329F000912F02F6
:1021B000109130020BC00E945024882329F0009116
:1021C0002D0210912E0202C000E010E09801DE0105
:1021D0000E946F3B20E137E240E050E00E94283B44
:1021E000B90188E10E94D50FB80187E10E94D50F9F
:1021F0000E94550FBC0189E10E94D50F0E94680F13
:10220000BC018AE1DF91CF911F910F91FF90EF9078
:102210000C94D50F1F93CF93DF93182FC82FD0E0C6
:10222000FE01EE0FFF1FEE0FFF1FE954FD4F60810F
:102230007181828193812CE233E040E050E00E9482
:10224000283BCC0FDD1FCD58DD4F39832883B901E2
:10225000812F0E94F90DBC01812FDF91CF911F9139
:102260000C94D50F4F925F926F927F928F929F92B4
:10227000AF92BF92CF92DF92EF92FF920F931F9394
:10228000CF93DF93CDB7DEB728970FB6F894DEBFB4
:102290000FBECDBF0E9447342091C9013091CA01C1
:1022A000821B930B8133954708F4AAC04FB7F8946B
:1022B0002091DB013091DC01ACE2B3E00E946F3B86
:1022C0006B017C01F694E794D794C7944090D701B2
:1022D0005090D8016090D9017090DA016091D301DB
:1022E0007091D4018091D5019091D6010091CF01D8
:1022F0001091D0012091D1013091D20109831A832C
:102300002B833C834FBF6D837E838F8398870E948E
:10231000830D2091CD013091CE012F5F3F4F30933F
:10232000CE012093CD016D817E818F819885A7019B
:1023300096010E94283B49015A01C301B201A7013D
:1023400096010E94283BB90180E00E94F90D3C01F2
:10235000B40181E00E94F90D8615970520F4530120
:10236000A81AB90A02C0A12CB12C809061029090E9
:102370006202A814B90420F48091C801811104C03C
:10238000B5018CE10E94D50FB501681979098BE17F
:102390000E94D50F69817A818B819C81A70196016A
:1023A0000E94283BB90187E00E94F90D2091CB01E2
:1023B0003091CC019093CC018093CB01821B930B85
:1023C000BC01660F771F8DE10E94D50FB6018EE12B
:1023D00028960FB6F894DEBF0FBECDBFDF91CF9128
:1023E0001F910F91FF90EF90DF90CF90BF90AF9033
:1023F0009F908F907F906F905F904F900C94D50F2F
:1024000028960FB6F894DEBF0FBECDBFDF91CF91F7
:102410001F910F91FF90EF90DF90CF90BF90AF9002
:102420009F908F907F906F905F904F900895CF9383
:102430002FB7F8948091FB029091FC022FBF892B5B
:1024400009F091C08091000381118AC0809101033D
:10245000882309F47EC08091DD019091DE01019610
:102460009093DE018093DD018091B7029091B802D4
:10247000A091B902B091BA02B695A79597958795A4
:102480004091D7015091D8016091D9017091DA0142
:10249000840F951FA61FB71F8093D7019093D80173
:1024A000A093D901B093DA018091BB029091BC0254
:1024B000A091BD02B091BE02B695A795979587955C
:1024C0004091D3015091D4016091D5017091D60112
:1024D000840F951FA61FB71F8093D3019093D4013B
:1024E000A093D501B093D6018091D3029091D402EC
:1024F000A091D502B091D602B695A79597958795EC
:102500004091CF015091D0016091D1017091D201E1
:10251000840F951FA61FB71F8093CF019093D00102
:10252000A093D101B093D2018091DB019091DC01A5
:1025300001969093DC018093DB010E943211C0E090
:102540008C2F0E940A11CF5FC131D1F70E94561023
:1025500007C080916000882319F085E00E940A116D
:10256000CF910C94660DCF9108950C9417120E9490
:10257000B10678940E9477060E94A2090E94EC247A
:102580000E94F21D0E9440100E940C0C0E94F51443
:102590000E94DA2E0C94B82F80E00E94B41780E0DD
:1025A0000C94961481E00E94421082E10E94FC0E7D
:1025B000882351F00E94540D882331F00E94350D7C
:1025C0000E94CC120C94DB0D0E949234882369F394
:1025D000F9CF0E94B7120E94F2130E94D2120E94F9
:1025E0004F2D80E090E00895EF92FF920F931F939C
:1025F000CF938C017B0141110E94E93BC5E0C150A2
:1026000059F0C8010E94C23B8E159F0539F084E63F
:1026100090E00E945E34F3CF81E001C080E0CF9172
:102620001F910F91FF90EF900895EF92FF920F93FB
:102630001F93CF93DF938C017C01E60EF71ECFEF43
:10264000DFEF0E151F05A9F0C8010E94BA3BC8278D
:1026500088E09E01369527959C2FE90190FF04C0E4
:1026600091E0C92790EAD927815099F70F5F1F4F52
:10267000E8CFCE01DF91CF911F910F91FF90EF90A6
:102680000895EF92FF920F931F93CF93DF931F92C2
:10269000CDB7DEB78C017B0149830E9415134981B8
:1026A000BC01C8018E0D9F1D0F90DF91CF911F912E
:1026B0000F91FF90EF900C94F412482F68E870E0AF
:1026C0008EE090E00C944113482F60E273E088E9BB
:1026D00090E00C944113482F64E270E08AEB93E0A1
:1026E0000C9441130F931F93CF93DF93D82F182F80
:1026F0001170412F63E678E680E090E00E94F412CA
:10270000C82F412F6CE679E682E090E00E94F41237
:102710008111C1E0412F61E070E184E090E00E940E
:10272000F4128111C1E0412F66E070E086E090E094
:102730000E94F4128111C1E0D1FB002700F9402F63
:102740006AE070E088E090E00E94F4128111C260BB
:10275000D2FB112710F9412F63E070E08AE090E08E
:102760000E94F4128111C460D3FBDD27D0F94D2FF4
:102770006CE070E08CE090E00E94F4128111C8607F
:1027800001110E94F30C80E00E945D138111C26070
:1027900011110E948D1880E00E9464138111C460A1
:1027A000D1110E940E1580E00E946B138111C86048
:1027B0008C2FDF91CF911F910F910895CF93C82F48
:1027C0000E946E2FC0FDC260C1FDC460C2FDC86022
:1027D0000E94882F8C2F0E947213682F8C2FCF910C
:1027E0000C948C2F80E00E947213882321F00E94A9
:1027F000DE1380E0089581E0089580E00E94721366
:1028000081600C94DE13CF930E94D02E84E292E07C
:1028100090937D0380937C03C1E0C0937B0310926F
:1028200074030E948816823011F4C09374030E94CE
:10283000D71C91E0813009F090E0892FCF91089565
:1028400061E081E00E94451C80E392E090937D036B
:1028500080937C03089561E081E00E94451C8CE335
:1028600092E090937D0380937C03089560E082E082
:102870000E94451C8EE192E090937D0380937C033F
:1028800008950E94C51D88EE93E00E94A61D82E374
:1028900090E00E9472340E94D81D61E081E00E94A5
:1028A000451C88E192E090937D0380937C0308951A
:1028B0001092740390E08930910598F5FC01E65D73
:1028C000FF4F0C94693B0E948816811102C00C9442
:1028D0002B140E948816853029F40C94411481E051
:1028E000809374030C94201482E192E016C00C943F
:1028F00036140E942014809130039091310365E0DA
:1029000070E00E94143B7093760360937503089502
:1029100081E08093740386E392E090937D0380933B
:102920007C0308950E94DF1F0C94FC0FCF93C82FE7
:102930000E9492148C2F0E945814C73029F0C8307E
:1029400059F463E081E005C060915003660F615067
:1029500080E0CF910C94F018CF910C94D71CCF93BA
:10296000C82F0E94D726882371F1C09305038C2FAE
:102970000E945814109203031092020383E0809384
:1029800004030E94433981E00E9442100E94031414
:10299000882391F081E0809304030E9404200E9428
:1029A000D02E10927B0385E00E942B33809105038B
:1029B0000E9496140E9445200E94DB0D0E945F3900
:1029C000CF910C94D92ECF910895DC015C96ED91B6
:1029D000FC915D97EE0FFF1FEE0FFF1FEE59FE4FAC
:1029E0006591759185919491089544E250E06AEB68
:1029F00073E086E093E00C94AA3B44E250E06AEB7B
:102A000073E086E093E00E94C83B81E00C946B1376
:102A100044E250E06EE371E00C94983B86E093E072
:102A20000E9408150C94FD148091100390911103DD
:102A300020911203309113032817390720F4909343
:102A400013038093120380911203909113038D302E
:102A5000974130F08CE097E1909313038093120339
:102A60008091140390911503209116033091170360
:102A70002817390720F49093170380931603809149
:102A8000160390911703813D974030F080ED97E059
:102A9000909317038093160308950895FC010994F9
:102AA000FC01859194910C944E15282F81E090E0C3
:102AB0003AE0215038F0AC01349FC001359F900DB1
:102AC0001124F7CF0895009719F024F48FEF08959B
:102AD00080E0089581E008959C0190E180E020FD70
:102AE0008F5F369527959150D1F70895CF92DF9259
:102AF000EF92FF92CF9397FF08C0909580957095C5
:102B000061957F4F8F4F9F4F07C0611571058105FC
:102B1000910511F0C0E001C0C1E02AE0C22ED12C25
:102B2000E12CF12C611571058105910541F0CF5F14
:102B3000A70196010E944A3BCA01B901F3CF8C2F2D
:102B4000CF91FF90EF90DF90CF900895BC0180E08F
:102B500090E00C947615CF92DF92EF92FF920F9354
:102B60001F93CF93DF937C016B01FA01DC01CD91C0
:102B7000DC91CE01B8010E94143B009731F01C1487
:102B80001D0494F4081B190B03C01C141D046CF4E1
:102B9000C901801B910BC817D90720F4F801EC0F6D
:102BA000FD1F0CC0F9010AC08C01C8018E0F9F1FC8
:102BB0008C179D0718F4FE01E01BF10BD701ED9374
:102BC000FC93DF91CF911F910F91FF90EF90DF90D9
:102BD000CF900895AF92BF92CF92DF92EF92FF9283
:102BE0000F931F93CF93DF93EC017B016A0159018F
:102BF0006881798180E090E00E947615823020F033
:102C000082500E94551502C081E090E08C01950130
:102C1000A601B701CE010E94AB15DF91CF911F91A4
:102C20000F91FF90EF90DF90CF90BF90AF900895FD
:102C30002FEF3FEF40E050E00C94EA150E949234F1
:102C40008111FCCF0E9492348823E1F308952091F2
:102C50002A0330912B0395E0929FF001939FF00D92
:102C60001124E80FF11DEE0FFF1FEA58FE4F85916A
:102C7000949108951F93CF93DF93182FC0912E0343
:102C8000D0912F030E9427169C01123061F480918D
:102C90002A0390912B03029731F4C730D10518F025
:102CA000219720EB34E02C9FC0012D9F900D3C9F7D
:102CB000900D1124DF91CF911F9108950F931F93D1
:102CC000CF93C82F00912E0310912F030E94271637
:102CD000C13029F480913403909135030DC0C23086
:102CE00029F4809136039091370306C0C33021F454
:102CF00080914803909149039C01209FC001219F2E
:102D0000900D309F900D1124CF911F910F91089538
:102D1000E0912A03F0912B03E251FE4F8491089534
:102D2000CF93DF9300D000D0CDB7DEB7A0912C03B6
:102D3000B0912D0320914603309147030E946F3BD1
:102D400024E630E040E050E00E94283B293E8DEF31
:102D500038074105510550F429833A834B835C833E
:102D60000E94881629813A81853021F428EE3DEFB2
:102D700040E050E0C9010F900F900F900F90DF914D
:102D8000CF910895EAE2F3E020A131A184819581F9
:102D9000AC01249FC001259F900D349F900D1124FC
:102DA000089582E00E943A16BC0180911803909128
:102DB00019030E9417192091120330911303281749
:102DC000390708F4C901089582E00E943A16BC014F
:102DD00080911A0390911B030E94171920911603EA
:102DE000309117032817390708F4C9010895809115
:102DF0002A0390912B030A97029750F081E00E94DA
:102E00002716BC0188E799E60E94143BCB01089580
:102E100081E090E0089580912C0390912D038436F9
:102E2000910530F484E690E090932D0380932C0379
:102E300080912C0390912D03893E9D4F30F088EEB8
:102E40009DEF90932D0380932C0380913C039091F0
:102E50003D03893E934030F088EE93E090933D032C
:102E600080933C030E94F71620912E0330912F038C
:102E70008217930720F490932F0380932E03809161
:102E80002E0390912F03892B31F481E090E09093F1
:102E90002F0380932E030E94D1162091300330918E
:102EA00031038217930720F490933103809330030A
:102EB0008091300390913103209138033091390390
:102EC0008217930720F490933903809338030E946C
:102ED000E41620913203309133038217930720F4D4
:102EE0009093330380933203209132033091330364
:102EF00080913A0390913B032817390720F43093CF
:102F00003B0320933A038091100390911103409169
:102F10003003509131034817590720F4909331033F
:102F20008093300340913803509139034817590773
:102F300020F4909339038093380380911403909187
:102F400015032817390720F4909333038093320335
:102F500020913A0330913B032817390720F49093CE
:102F60003B0380933A03089528E2829FC001112415
:102F7000BC0168567F4F48E250E08AE293E00E942D
:102F8000AA3B0C940B1728E2829FC0011124BC01BC
:102F900068567F4F48E250E08AE293E00E94C83BC7
:102FA00081E00C9464130E940B17EAE2F3E086813F
:102FB00097816AE070E00E94143B778766870895E6
:102FC0000E940B17EAE2F3E0808591856AE070E0E9
:102FD0000E94143B718B608B08950E940B178091A7
:102FE0002C0390912D039093310380933003209113
:102FF0002A0330912B032330310541F496958795B0
:103000009695879590933103809330030E94D31750
:1030100080912C0390912D0390933303809332037E
:103020000C94E01781E00E9427169093350380935B
:10303000340382E00E94271690933703809336036F
:1030400080912A0390912B03892B61F580ED97E005
:1030500090932D0380932C0383E090E090932F03B3
:1030600080932E0388EE93E090933D0380933C037E
:1030700010923F0310923E0380E797E19093410343
:103080008093400310924303109242038EE190E03C
:10309000909345038093440388E790E0909347031F
:1030A000809346030E948816811128C081E090E039
:1030B000909349038093480380912A0390912B03B6
:1030C000029719F48BEF9FEF02C081EF9FEF90936F
:1030D0004B0380934A0383E090E090934D038093E9
:1030E0004C0384E690E090934F0380934E0385E079
:1030F00090E090935103809350030DC088E090E0DE
:1031000090934B0380934A0383E00E942716909389
:103110004903809348030C94ED17CF9310922B032F
:1031200010922A030E941218C0E08C2F0E94C3172D
:10313000CF5FC431D1F781E0CF910C946413CF936A
:10314000C82F0E94B41780912A0390912B03892BDA
:1031500021F00E944E310E94C13580912A03909146
:103160002B038A30910571F08B30910569F0892B22
:10317000C1F48C2F90E001960E9461358AE3CF91D3
:103180000C943A3589E00AC065E080913003909153
:1031900031030E94C4370E94C13584E0CF910C9462
:1031A000103167E080912C0390912D030E94C1376C
:1031B0008FE20E943A3580912E0390912F03CF9198
:1031C0000C94613580914403909145030E94C31E85
:1031D0008AE292E090937D0380937C030C94D71C49
:1031E000CF93C62F91E090937B03809352038091FD
:1031F00052038C1302C010927B0380FD02C083E057
:1032000001C080E00E949614813079F490917B0394
:10321000992359F0809152038F5F809352030E944B
:1032200092140E94E218813011F3CF910895AB01FE
:103230009C01A8EEB3E00E946F3B9A0140E050E091
:103240000E94283BA8EEB3E00E94853B24E630E0D4
:1032500040E050E00E94283B2115310581E04807FD
:10326000510520F02FEF3FEF40E050E0C9010895F5
:103270008091710390917203892B99F40E949F0CA5
:10328000882381F00E94A20C2091530330915403B3
:10329000821B930B9C0181E02330310518F080E004
:1032A000089581E00895815E0C948A0CCF92DF929C
:1032B000EF92FF921F93CF93DF93C0E0D0E0EE2414
:1032C000EA94FE2C1FEFCC24C394D12C2091FD0254
:1032D0003091FE02A6018C2F0C2E02C0440F551F08
:1032E0000A94E2F724233523232B39F00E94531943
:1032F0008E159F0510F41C2F7C012196C630D10538
:1033000029F7812FDF91CF911F91FF90EF90DF90F0
:10331000CF900895CF93DF93209171033091720382
:10332000232B21F4DF91CF910C94531990915703E3
:10333000C82FD0E0992391F00E945319CC0FDD1FC4
:10334000FE01E85AFC4FCC59DC4F20813181488185
:103350005981241B350B820F931F06C0CC0FDD1F34
:10336000C85ADC4F88819981DF91CF910895CF921F
:10337000DF92EF92FF920F931F93CF93DF9300E0C2
:1033800010E0C0E0D0E0EE24EA94FE2CCC24C394FC
:10339000D12C8091FD029091FE029601002E02C078
:1033A000220F331F0A94E2F782239323892B59F0CB
:1033B000802F0E948A19C817D90708F4EC018E15CE
:1033C0009F0508F47C010F5F1F4F0630110509F7B8
:1033D000CE19DF0981E020914A0330914B032C176D
:1033E0003D0708F080E0DF91CF911F910F91FF9092
:1033F000EF90DF90CF900895CF93DF93EC01809111
:10340000710390917203892B41F0209731F40E944F
:10341000A20C9093540380935303D0937203C093F0
:1034200071030E94AB0D80917003811105C08C2F38
:10343000DF91CF910C949206DF91CF910895EF9296
:10344000FF920F931F93CF9381E00E94670684E65B
:10345000E82E83E0F82E08E513E0C0E08C2F0E94F0
:103460005319F701819391937F01F801819391930F
:103470008F01CF5FC63091F71092720310927103E3
:103480001092700380E090E00E94FC1910925403A7
:10349000109253038FEF80937303CF911F910F917D
:1034A000FF90EF90089580E090E00E94FC1981E089
:1034B0008093700308950E94531A80E00C9467066D
:1034C000CF92DF92EF92FF921F93CF93DF93809181
:1034D000730387FD20C00E948A196C0110E0EE245E
:1034E000E394F12CC0E0D0E02091FD023091FE0287
:1034F0002E213F21232B41F0812F0E948A19C816CB
:10350000D90610F4CE29DF29EE0CFF1C1F5F163000
:1035100059F7CE0102C080E090E0DF91CF911F917A
:10352000FF90EF90DF90CF900895EF92FF920F936E
:103530001F93CF93DF938C01C0E0D0E0EE24E3949F
:10354000F12C2091FD023091FE02A7010C2E02C049
:10355000440F551F0A94E2F724233523232B31F41B
:103560002196C630D10569F781E008C08C2F815EB5
:103570000E94B40C8017910798F780E0DF91CF91FB
:103580001F910F91FF90EF9008956F927F928F920D
:103590009F92AF92BF92CF92DF92EF92FF921F93D2
:1035A000CF93DF9386E090E00E94951A882309F478
:1035B00079C00E94540D882309F474C0809173036C
:1035C00087FF04C00E945619809373038091730390
:1035D0000E9453196C01A0903603B090370388E520
:1035E000682E83E0782E94E6E92E93E0F92EC0E071
:1035F000D0E011E088248394912C8091FD02909179
:10360000FE0294010C2E02C0220F331F0A94E2F72F
:1036100082239323892B81F08C2F0E9453198A15C2
:103620009B05A8F0C816D90608F410E0F3019183B1
:103630008083F701918380832196F2E06F0E711CE5
:1036400042E0E40EF11CC630D105B9F601C011E02C
:10365000109257030E945A34909356038093550357
:10366000112379F0DF91CF911F91FF90EF90DF90C0
:10367000CF90BF90AF909F908F907F906F900C9461
:10368000531A0E94601ADF91CF911F91FF90EF9023
:10369000DF90CF90BF90AF909F908F907F906F9072
:1036A0000C94FC19DF91CF911F91FF90EF90DF9068
:1036B000CF90BF90AF909F908F907F906F90089524
:1036C0000F931F93CF9380915703811110C081E016
:1036D0008093570304E613E0C0E08C2F0E94531937
:1036E000F801819391938F01CF5FC630B1F7CF91ED
:1036F0001F910F9108950E945A34209155033091E3
:103700005603821B930B089580917103909172036D
:10371000892B19F40E94C51A0AC00E94601B0E94DE
:103720007B1B409720F080E090E00E94FC190E94F3
:103730003819811106C080917003882311F081E04F
:10374000089582E00895EF92FF920F931F93CF9315
:10375000DF938C01C0E0D0E0EE24E394F12C2091C3
:10376000FD023091FE02A7010C2E02C0440F551F2E
:103770000A94E2F724233523232B31F42196C63013
:10378000D10569F780E007C08C2F0E948A19801745
:103790009107A0F381E0DF91CF911F910F91FF90EE
:1037A000EF900895EF92FF920F931F93CF93DF93C3
:1037B0008C01C0E0D0E0EE24E394F12C2091FD02D6
:1037C0003091FE02A7010C2E02C0440F551F0A942F
:1037D000E2F724233523232B31F42196C630D1057B
:1037E00069F780E007C08C2F0E948A190817190713
:1037F000A0F381E0DF91CF911F910F91FF90EF90A7
:103800000895CF93DF93EC010E94350D882339F0A2
:10381000682F70E0CE010E94143BCB0102C080E013
:1038200090E0DF91CF9108950E94BF2481E00E9433
:10383000BB2180917503909176030C948A240C949B
:10384000D6240E94540D882321F00E9461240C94F8
:10385000702208950E94211C0E94450D2091790339
:1038600030917A032817390740F487E799E090935D
:1038700003038093020380E0089580917703909181
:1038800078030E948A2482E00895CF93DF931F92E9
:10389000CDB7DEB769830E945E1690937A0380935A
:1038A00079036981662369F0809130039091310337
:1038B0009093780380937703809138039091390334
:1038C0000CC08091320390913303909378038093DE
:1038D000770380913A0390913B0390937603809312
:1038E00075030F90DF91CF91089580917C039091A3
:1038F0007D030C94501580917C0390917D0302967A
:103900000C9450150E947B1C0E9445200C94383565
:10391000CF93DF930E945A34EC010E945A348C1BDF
:103920009D0B853B910510F00E94DB0D0E949234A7
:10393000882399F3DF91CF910C9421330E94821C4C
:103940000E941B2F86E00E942B330C94881C0E943F
:10395000821C0E94DB0D0E941F2F87E00E942B33E8
:103960000C94881CE0917C03F0917D033496859142
:103970009491FC010994CF93DF931F92CDB7DEB7EA
:10398000811103C00E94A71C0DC0813049F48091B1
:103990007B03811107C089830E949E1C898103C01B
:1039A00081E001C080E00F90DF91CF9108950F93E7
:1039B0001F93CF93DF93109223040E94751CD2E0D3
:1039C00000E010E0C1E00E949234809323040E9442
:1039D000442FCC2379F00E948920D82F0E94BB1C51
:1039E000C82F882339F00E94A20C0817190771F418
:1039F000C11107C080917B03882311F0D11110C041
:103A0000C0E0809123048130F1F60AC00E94A20C2C
:103A10008C010E94B21CD82F0E94BB1CC82FE8CF7B
:103A20000E947B1C8D2FDF91CF911F910F910895E4
:103A30000E94D81D0C945B1A0E94C51D0E941F1A7B
:103A400081E02091420330914303232B09F480E06D
:103A500080937E0380E00C94BB210F931F93CF9340
:103A60000091790310917A03C8010E94011C0E9401
:103A7000D21BC82F0E943819811109C0C11107C07B
:103A80000E94450DC1E00817190708F4C0E08C2F0B
:103A9000CF911F910F9108950F931F93CF930E9481
:103AA0002D1DC82F0E947F1D8C0180917E038823CD
:103AB00029F0B8018C2F0E941F2201C08C2F811188
:103AC00008C0B8018C2F0E9480230E94A61D82E0AE
:103AD00001C081E0CF911F910F91089580918303E0
:103AE000089581E02091810330918203232B09F412
:103AF00080E00895809181039091820308958091E0
:103B00007F039091800308950E944A0D009711F45D
:103B100081E090E0BC0188EE93E00E9417192091AB
:103B20001603309117032817390708F4C9010895BF
:103B3000813020E4920710F080E090E490938203BB
:103B4000809381030E94FD070C94B40DCF93DF9303
:103B5000EC010E94841DBC01C817D90708F4BE01FE
:103B600080917F03909180038617970759F0709397
:103B7000800360937F0380E10E94750EDF91CF91F7
:103B80000C94981DDF91CF9108958091830381114A
:103B90000EC080E090E00E94981D10928003109269
:103BA0007F0381E00E94F40781E0809383030895FE
:103BB000809183038823A9F080E090E00E94981D03
:103BC0001092800310927F03109283038AE090E0AA
:103BD0000E94723480E00E94F4078AE090E00C9426
:103BE0007234089581E0809383030C94D81D87E09C
:103BF0008093630482E0809362040E94243383E014
:103C00008093840308958FEF809363040C94213391
:103C1000EF92FF920F931F93CF93DF9382E10E9465
:103C2000FC0E20912A0330912B032A5031092230B7
:103C3000310520F091E0C82FC92701C0C0E00E94E3
:103C4000350D082F80917403882369F080912E032D
:103C500011E0801301C010E0D1E00111D0E081300B
:103C600021F4DD2311F0D0E010E00E943B0D882309
:103C7000B9F083E10E948A0C7C0182E10E948A0CE7
:103C8000E816F90628F49C012E193F09790102C0B3
:103C9000E81AF90A35EFE31631E0F30608F0C1E05F
:103CA000111102C087E001C083E080936304DD232B
:103CB00029F080916304825080936304CC2329F01F
:103CC00080916304815080936304111104C0D11169
:103CD00002C0CC2331F082E00E942B33D11106C008
:103CE00003C00E94213304C0112311F0011102C04E
:103CF000D0E001C0D1E00E948834811102C010924E
:103D00008403D11106C0C11104C00E9488348830D8
:103D100041F080918403823011F082E008C081E09C
:103D200006C0809184038F5F80938403F2CFDF917C
:103D3000CF911F910F91FF90EF90089510928903FA
:103D400008950E945A3490938803809387030895BE
:103D50000E945A342091870330918803821B930B71
:103D600020918503309186032817390728F081E0D8
:103D70008093890382E008951092890381E0089579
:103D80008091890308952CE3AC01249FC001259FF5
:103D9000900D1124909386038093850308950E94CB
:103DA0001F1A0E94BF2481E00C94BB210E94D624DC
:103DB0000C945B1A0F931F93CF930091790310918A
:103DC0007A03C8010E94011C0E94A31BC82F0E94F5
:103DD0003819811109C0C11107C00E94450DC1E009
:103DE0008017910708F4C0E08C2FCF911F910F919D
:103DF00008950F931F93CF930E94DA1EC82F0E943D
:103E000061248C01BC018C2F0E941F22811108C0EB
:103E1000B8018C2F0E9480230E948A2482E001C076
:103E200081E0CF911F910F9108950F931F9360919F
:103E30009603709197038091980390919903209134
:103E40009B03222371F00E944F340091960310913E
:103E500097032091980330919903601B710B820B9B
:103E6000930B1F910F9108956091920370919303AA
:103E7000809194039091950328EE33E040E050E068
:103E80000E94283BCA01B901089560918E03709188
:103E90008F03809190039091910328EE33E040E0EE
:103EA00050E00E94283BCA01B90108950F931F9367
:103EB000CF93DF9381E00E945E16EC0184E00E94C4
:103EC0005E168C0184E10E948A0C8C179D07B8F461
:103ED00008171907B0F49C01201B310BCE01801B81
:103EE000910B64E670E00E94143BC9010E94143BF0
:103EF0006436710510F063E670E0862F03C083E638
:103F000001C080E0DF91CF911F910F910895CF9272
:103F1000DF92EF92FF920E94561F90919A0398179A
:103F200078F580939A03C0909D03D0909E03E09013
:103F30009F03F090A0030E94151FC61AD70AE80A33
:103F4000F90A0E94151F60939D0370939E0380934E
:103F50009F039093A0038091A1039091A203A0914D
:103F6000A303B091A4038C159D05AE05BF0540F4D5
:103F7000C092A103D092A203E092A303F092A40303
:103F8000FF90EF90DF90CF9008950E94871F80915F
:103F90009C03811102C0A4E601C0A9E6B0E08091B3
:103FA0009A03A81BB1092091A1033091A20340916B
:103FB000A3035091A4030E94903B089508950E948A
:103FC000561F80939A0310929D0310929E031092A5
:103FD0009F031092A0031092A1031092A2031092CB
:103FE000A3031092A40310929203109293031092D1
:103FF00094031092950310928E0310928F031092E7
:104000009003109291030895CF93DF9360E971E0DC
:1040100080E00E94750E90938D0380938C0381E065
:104020000E945E16EC01C854D44FC93729E6D20766
:1040300010F0C8E7D9E6CE010E942D07BE0180E04E
:104040000E94750E813C2FEF920710F080EC9FEFDD
:1040500090938B0380938A030E943B0D80939C0373
:104060000E944F3460939603709397038093980354
:10407000909399030E94DF1F1092A50381E0809323
:104080009B03DF91CF910C94BD0C0E94151F609390
:1040900096037093970380939803909399031092DB
:1040A0009B0308950E94532481111DC00E94711D1D
:1040B000811119C00E943819882351F1809192030F
:1040C00090919303A0919403B091950380599F4FD1
:1040D000AF4FBF4F8093920390939303A0939403A9
:1040E000B0939503089580918E0390918F03A091D2
:1040F0009003B091910380599F4FAF4FBF4F809372
:104100008E0390938F03A0939003B0939103D2CF2B
:104110000895CF93DF9380919B03811102C082E0C9
:104120008BC080E00E94930C20918A0330918B0316
:104130008217930758F420918C0330918D038217D6
:10414000930738F40E946E1D882319F083E19CE0E8
:104150000CC08091A5038130C9F3C0919C030E94DB
:104160003B0DC81741F084E09CE0909303038093DB
:10417000020380E061C0C0917703D0917803C851F9
:10418000DC4F0E944F0DC817D90718F489EF9BE048
:10419000ECCF86E00E948A0C20911C0330911D0315
:1041A0008217930718F48AEE9BE0DFCF89E10E9423
:1041B0008A0CEC010E949016883E2DEF920731F098
:1041C000C817D90718F08AED9BE01BC0C0913C03CB
:1041D000D0913D03C83E83E0D807C8F460918E03B8
:1041E00070918F03809190039091910320E63AEEB5
:1041F00040E050E00E94283B2C173D0740F08FEC38
:104200009BE0909303038093020381E015C08091AB
:104210003E0390913F03892B09F481CF87E00E94F0
:104220008A0C20914003309141032817390708F088
:1042300076CF8FEB9BE099CFDF91CF9108950E94CD
:10424000D61E0E94181D0C945B1ACF93DF931F9209
:10425000CDB7DEB78091A603882329F0813031F4F1
:104260000E944C1D0CC00E94F91E09C00E94841BB4
:10427000823089F089830E941F2189810CC081309E
:1042800051F490917403992331F082E08093A60356
:104290000E941F1A82E00F90DF91CF910895CF9373
:1042A000DF930E941F1A61E083E00E94451CC091C9
:1042B0007903D0917A030E94350D811106C00E94C6
:1042C000450DC817D90740F40CC0CE010E94011C4F
:1042D0000E94D21B882329F00E94CF1E1092A603B1
:1042E0000BC060E083E00E94451C0E941C1D81E021
:1042F00080937E038093A603DF91CF9108958091F0
:10430000A703813029F48091750390917603089575
:1043100080E090E008952CE0829FC00111248D542C
:104320009C4F0C94FD248BEF93E00C94FD24CF93D1
:10433000DF9300D000D0CDB7DEB782E10E948A0CB7
:104340009A83898384E10E948A0C29813A81281BFF
:10435000390B3A83298387E10E948A0C9C838B83E3
:10436000CE0101960E94FD240F900F900F900F90A8
:10437000DF91CF910895AF92BF92CF92DF92EF92EB
:10438000FF920F931F93CF93DF93182F81E08093B9
:10439000A7030E94450D209175033091760340914B
:1043A000790350917A03012FBC0183EF93E00E94BF
:1043B00016258091790390917A030E94011C6C016B
:1043C0008BEAE82E83E0F82EC0E0D0E0AA24A39484
:1043D000B12C2091FD023091FE02A5018C2F0C2EF4
:1043E00002C0440F551F0A94E2F724233523232BE0
:1043F00061F00E948A192091750330917603012F94
:10440000A601BC01C7010E94162521968CE0E80E8A
:10441000F11CC630D105E9F6109201041092AA03EE
:10442000109200041092FF03DF91CF911F910F9122
:10443000FF90EF90DF90CF90BF90AF9008950F93D3
:104440001F93CF93C82F8B0180917403882361F150
:10445000CC2349F080910104811105C00E94531AB8
:1044600081E08093010480910104882311F085305C
:10447000D9F42091750330917603203A310510F478
:1044800020EA30E02017310710F4109270030E94E8
:10449000841B8093A7038130F1F40E94B71988230D
:1044A00019F08FEF809373030E947F21801791078B
:1044B00080F0CC2371F080910104853051F490910B
:1044C000AA0381E0890F8093AA0381E09A3020F447
:1044D00002C01092AA0380E0CF911F910F9108951E
:1044E000CF92DF92EF92FF920F931F93CF93DF93C0
:1044F0007C010E94450DA701BC0183EF93E00E945F
:10450000D3250BEA13E0C0E0D0E0CC24C394D12C37
:104510002091FD023091FE02C6010C2E02C0880FD0
:10452000991F0A94E2F728233923232B41F08C2F7B
:104530000E948A19A701BC01C8010E94D3252196B7
:10454000045F1F4FC630D10519F7DF91CF911F913E
:104550000F91FF90EF90DF90CF900895AF92BF92B0
:10456000CF92DF92EF92FF920F931F93CF93DF933F
:104570006091790370917A0383EF93E00E943B2569
:104580007C018091790390917A030E94011C6C0157
:104590000BEA13E0C0E0D0E0AA24A394B12C8091F0
:1045A000FD029091FE0295010C2E02C0220F331FD6
:1045B0000A94E2F728233923232B61F0B601C801BE
:1045C0000E943B25E816F90628F0B601C8010E94B2
:1045D0003B257C012196045F1F4FC630D105F9F6BB
:1045E000C701DF91CF911F910F91FF90EF90DF9066
:1045F000CF90BF90AF9008950F931F93CF93DF9309
:10460000EB0120917703309178038C01281739074B
:1046100008F489010E947F219C018017910708F40A
:104620009801C217D307E1F0409101044530D1F45D
:104630002C173D07B8F082179307A0F480917503FB
:10464000909176038C179D0758F04091A8035091E4
:10465000A90380915303909154034817590711F40B
:10466000CE0109C080915303909154039093A90304
:104670008093A803C901DF91CF911F910F910895F5
:10468000CF92DF92EF92FF920F931F93CF93DF931E
:104690007C010E94450D9093F4038093F303F09204
:1046A000F603E092F5030BEA13E0C0E0D0E0CC247F
:1046B000C394D12C2091FD023091FE02A6018C2FD3
:1046C0000C2E02C0440F551F0A94E2F72423352311
:1046D000232B39F00E948A19F80191838083F38299
:1046E000E2822196045F1F4FC630D10519F7DF9192
:1046F000CF911F910F91FF90EF90DF90CF90089591
:104700001F93CF93DF93182FEB010E94540D81115B
:1047100008C01123B1F18091FF0390910004892B0F
:1047200081F10E94381981112CC0CE010E947022A3
:10473000CE010E9440230E94AE228C179D0748F1B3
:10474000909300048093FF03BE018091FF0390913A
:1047500000040E94FC22909300048093FF03909138
:104760000104923059F1F8F4992311F1913089F54F
:10477000112339F083E08093010410920004109219
:10478000FF038091FF0390910004DF91CF911F916F
:1047900008959C012C0F3D1F3695279530930004FA
:1047A0002093FF03D1CF933061F0943081F011C09A
:1047B000112339F30E94531A81E00CC010920104B6
:1047C000E0CF109200041092FF0384E003C0112395
:1047D000C1F285E080930104D4CF0C94141CCF93D4
:1047E000DF930E94211C0E94450DEC0182E00E9493
:1047F0005E168C179D0730F48091770390917803B3
:104800000E948A248091790390917A038C179D07E6
:1048100018F487E799E03CC00E94AC0C029710F4B2
:1048200082E03BC080913E0390913F03892B69F069
:104830008DE10E948A0C20914E0330914F0328177E
:1048400039071CF48DE699E023C00E94AC0C20913E
:104850004C0330914D03220F331FC1E082179307A1
:1048600008F4C0E08C2F0E94B10CCC23C9F28091D7
:10487000480390914903892B99F28BE10E948A0C9D
:10488000EC010E94C216C817D90754F683E799E0D5
:10489000909303038093020381E0DF91CF91089509
:1048A00080910604089581E020910404309105046C
:1048B000232B09F480E0089580910404909105046D
:1048C0000895809102049091030408950E944A0D76
:1048D000009711F481E090E0BC0180911803909161
:1048E00019030E94171920911203309113032817FE
:1048F000390708F4C9010895893E2DEF920710F099
:1049000088EE9DEF90930504809304040E94450770
:104910000C94B40DCF93DF93EC010E946624BC018C
:10492000C817D90708F4BE018091020490910304CE
:104930006817790750F49C01261B370B2D38310579
:1049400068F0BC016C58710909C09B01281B390B28
:104950002D38310518F0BC0164577F4F8617970733
:1049600059F070930304609302048FE00E94750E67
:10497000DF91CF910C947C24DF91CF9108958091A9
:104980000604811112C010920504109204041092C2
:1049900003041092020480E090E00E947C2481E0F5
:1049A0000E944E0781E080930604089580910604DA
:1049B000882389F080E090E00E947C241092050416
:1049C00010920404109203041092020480E00E94EA
:1049D0004E071092060408951092050410920404E4
:1049E000109203041092020480E090E00E947C2464
:1049F00081E0809306040C94D624FC01428153810B
:104A00004115510589F0A081B181B7FF03C0B1956F
:104A1000A195B10928EE33E00E947E3B9A0140E067
:104A200050E00E94283BA901CA0108950F93FC01A0
:104A3000CB01002341F04617570708F4CA01641759
:104A4000750748F407C06417750708F4CA014617CC
:104A5000570708F4BA019783868391838083138272
:104A600012821582148233872287681B790B718723
:104A700060870F910895FC0186819781A285B38597
:104A80000084F185E02D3097D9F0AB0160E070E053
:104A90009A01AB01281B390B410951090E94853B42
:104AA0009F01FF0F440B550B0E944A3B2115310516
:104AB00081E04807510524F457FD05C0C901089558
:104AC0008FEF9FEF089580E090E00895DF92EF92DE
:104AD000FF920F931F93CF93DF93FC0122813381C9
:104AE0002417350720F4DA01A21BB30B03C0D90148
:104AF000A41BB50B84819581969587958A179B0792
:104B000028F5808191812417350738F4EA01C21B0A
:104B1000D30B7B01E81AF90A06C07C01E61AF70AF2
:104B2000E901C41BD50B8F01C7010E946315D82E64
:104B3000F801808591850E946315D81207C0F8019D
:104B4000D583C483F186E086D387C287DF91CF9176
:104B50001F910F91FF90EF90DF9008950F931F9397
:104B6000CF93DF93EC018B019A01A885B9850E9450
:104B70007E3B2A853B8540E050E00E944A3BC801CD
:104B8000A0E0B0E082179307A407B5071CF41F82CA
:104B90001E8204C0021B130B1F830E83DF91CF9173
:104BA0001F910F910895EF92FF920F931F93CF9350
:104BB000DF93EC018B017A010E946625A701B80101
:104BC000CE01DF91CF911F910F91FF90EF900C9448
:104BD000AE2510923F0310923E030E94433982E4B7
:104BE00092E00E94462B0E945F39109204030895C0
:104BF0001F93CF93DF93182F61E579E085E699E065
:104C00000E94EF2ED0E082E10E94FC0EC82F882384
:104C1000B1F00E94350D91E0811101C090E01917AB
:104C200099F0D1110CC063E479E0112319F085E605
:104C300099E002C08AE599E00E94EF2ED1E00E943F
:104C40009234813001F7C0E08C2FDF91CF911F911A
:104C50000895AF92BF92DF92EF92FF920F931F934E
:104C6000CF93DF93D82EEB015A01BA010E94750E43
:104C70008C01BE018D2D0E94750E7C01B5016C0F5B
:104C80007D1F769567958D2D0E94750E9C01E11410
:104C9000F104D1F08FEFE816F806C1F00115110507
:104CA000B9F00F3F8FEF1807A9F0E016F106A0F456
:104CB000C9010A97E816F90688F4265F3F4F2017C6
:104CC000310770F480E00DC081E00BC082E009C0C4
:104CD00083E007C084E005C085E003C086E001C032
:104CE00087E0DF91CF911F910F91FF90EF90DF90C0
:104CF000BF90AF90089540911203509113036091BB
:104D00001003709111038FE00E942926882311F06F
:104D1000865F089540911203509113036091100330
:104D20007091110382E00C94292640911603509152
:104D30001703609114037091150380E10E942926E6
:104D4000882311F0865F0895409116035091170350
:104D5000609114037091150383E00C942926CF937E
:104D60000E94F213C82F8823F9F048E759E668EE4D
:104D700073E080E00E942926882321F0682F8BE3CE
:104D800099E00FC00E947B26882321F0682F82E3E0
:104D900099E007C00E949526882331F0682F86E2AB
:104DA00099E00E94A92FC0E08C2FCF9108950C9418
:104DB000AF268F929F92AF92BF92CF92DF92EF92E7
:104DC000FF920F931F93CF93DF9300D000D01F92D9
:104DD000CDB7DEB77B016A0160E070E02D830E94F1
:104DE000C4292D81211109C08091260390912703A8
:104DF000892B19F48BEF9FE702C08FEF9FE70E948A
:104E0000BA2981E00E94222B082F87FD72C00E94E0
:104E1000AB29A82E81FF68C0002E000C110BF701F2
:104E2000E00FF11FB4908B2D0E94FC0E882349F3F4
:104E30000E94C40D10920103109260000E94792B11
:104E4000882309F44BC0F601E00FF11F049184E0C0
:104E50000E942B338B2D0E948A0C4C010E946939D1
:104E6000802F0E94810C9A8389839C828B82AE0161
:104E70004F5F5F4F60910704802F0E94DD0CA7FEFB
:104E80002AC081E0809301030E94C40D0E94693909
:104E900080E00E94810C9A83898381E00E94810CCA
:104EA00029813A81281B390B3A83298383E10E94A7
:104EB0008A0C9C838B83AE014F5F5F4F6091070428
:104EC00080E00E94DD0CAE014F5F5F4F60910704F0
:104ED00081E00E94DD0C81E00E945D1381E08093FF
:104EE0000103809360008DCF82FF8BCF0E94792BCE
:104EF00088CF0F900F900F900F900F90DF91CF9170
:104F00001F910F91FF90EF90DF90CF90BF90AF90E7
:104F10009F908F90089581E090E090930804809393
:104F200007040E94421081E00E94F825882349F07E
:104F300020E047E653E06EE673E08DEC92E00E94DD
:104F4000D9260C94DB0D81E090E0909308048093C7
:104F5000070480E00E9442101092620020E043E9C2
:104F600052E0BA0185E992E00E94D92681E080935F
:104F700062000C94DB0D10920804109207040E944A
:104F80005F3981E090E090933F0380933E0380E09F
:104F90000E94421021E04AE552E0BA018BE592E01E
:104FA0000E94D9260E94DB0D0C944339CF93DF93E6
:104FB00000D000D0CDB7DEB7482F60910E04CE01EF
:104FC00001960E94C10C67E08B819C810E94C437CE
:104FD0000F900F900F900F90DF91CF9108950E9446
:104FE0004F0D67E00E94C43780910D040E94810C30
:104FF00066E00C94373720910D04223011F40C94A4
:105000007C240C94981DEF92FF920F931F93CF93E3
:10501000DF93CDB7DEB728970FB6F894DEBF0FBE8B
:10502000CDBF10E086EDE82E87E2F82E82E00E94E8
:10503000872AF0921A04E092190410931F0480E06A
:105040000E94222B182F87FD93C081E00E944210FE
:1050500080E00E94F825882309F487C0412F6091E1
:105060000E04CE0105960E94C10C412F60910D04E3
:10507000CE0101960E94C10C65EC78E285E793E0D1
:105080000E94C4298F81988590930C0480930B040F
:1050900000E08D819E8190930A048093090481E051
:1050A0000E94222B87FD4CC081113CC080910D04D1
:1050B000823039F40E94BF2488E799E60E942D07C8
:1050C00002C00E94C51D8091090490910A040E94AB
:1050D000FB270E94792B8823B9F00E94C40D809190
:1050E0000B0490910C0498878F83209109043091D0
:1050F0000A043E832D839C838B8380910D040E9440
:10510000810C9A83898301E080E090E00E94FB2774
:1051100080910D04823019F40E94D624BACF0E94E7
:10512000D81DB7CF823009F0B4CF0E94792B8111FE
:10513000B0CF8F81988590930C0480930B04A9CFF6
:10514000002399F0AE014B5F5F4F612F80910E04F9
:105150000E94DD0CAE014F5F5F4F612F80910D0407
:105160000E94DD0C81E00E945D130E94DB0D5ECF8A
:1051700028960FB6F894DEBF0FBECDBFDF91CF915A
:105180001F910F91FF90EF90089560910D04409151
:10519000090450910A0420910B0430910C046230F0
:1051A00079F4493E5D4F30F048EE5DEF50930A04CC
:1051B000409309042D303741A8F02CE037E10EC0B0
:1051C0004130504430F040E050E450930A044093A2
:1051D0000904213D374030F020ED37E030930C04D6
:1051E00020930B048950944031F4809109049091EC
:1051F0000A040E94FB2782E10E94FC0E81110CC070
:1052000061E579E085E699E00E94EF2E80910D043A
:10521000833011F40C94D81D08958FE080930E0410
:1052200082E080930D040C94032880E180930E04A7
:1052300083E080930D040C940328A0910F04B09197
:105240001004609113047091140440E090E0FD019B
:105250002EE0929FE00DF11D11243296259134919C
:105260002115310579F037FF03C077FF09C03058A9
:1052700026233723232B21F0882331F081504F5FE1
:105280009F5FE5CF842F0895892F08950F931F9373
:10529000CF93DF93C82F0E941D299EE0899F800134
:1052A0001124E0910F04F0911004E00FF11F85919B
:1052B00094910E948135D82F0E940533882319F0DC
:1052C0004091630401C04FEF042E000C550B2C2FAE
:1052D00030E042175307F1F06FE06D1BE0910F04CF
:1052E000F0911004E00FF11F3596C491CC2329F002
:1052F000862F8C1B0E94BD356C2F80910F049091DE
:105300001004800F911F0496DF91CF911F910F9190
:105310000C948732DF91CF911F910F9108950E94D5
:105320001D2920910F04309110049EE0899F200DCB
:10533000311D1124F901369685919491F901349625
:1053400024912150223030F4FC0185919591A59152
:10535000B491CD0108950E941D29E0910F04F091B0
:1053600010049EE0899FE00DF11D11243296859175
:105370009491089590931404809313048FEF0E94E6
:105380001D2980931D0408959093100480930F04A9
:10539000709312046093110480E00E94872A86E4CF
:1053A00099E290931A048093190482EE99E2909303
:1053B0001804809317048FEF809363048FEF9FE7A7
:1053C0000C94BA29DF92EF92FF920F931F93CF9321
:1053D000DF93CDB7DEB762970FB6F894DEBF0FBE8E
:1053E000CDBF182FD62E0E948F297C01812F0E94BD
:1053F0001D2920910F04309110049EE0899F200DFB
:10540000311D1124B901685F7F4F46E050E0CE01A5
:1054100007960E94983B86E0FE013796DE011196C2
:1054200001900D928A95E1F709811A814B815C8187
:105430002D813E81E2E0DE1203C06FEF7FEF02C0FC
:1054400061E070E00F3FFFE71F0721F4C7010E94F2
:10545000EA153AC00E3F8FE7180721F4CB01FA0195
:10546000099532C00C3FFFE71F07B9F4F7018081AF
:105470009181680F791F261737071CF071836083AD
:1054800003C0F70131832083F70180819181841764
:105490009507D4F45183408317C00D3FFFE71F07E2
:1054A00081F4298B3A8B4F87588B6D877E870E94BA
:1054B0008B34082F10E07E856D8558894F853A8999
:1054C0002989C7010E94AB15E0911104F0911204E3
:1054D000309711F0C701099562960FB6F894DEBFB8
:1054E0000FBECDBFDF91CF911F910F91FF90EF9035
:1054F000DF900895E0911504F091160494E0899FDF
:10550000E00DF11D1124859194910C948135109238
:105510001F0410921E0480931D0481E080931C04DC
:1055200080931B040895409115045091160480E067
:10553000FA0194E0899FE00DF11D11242591349129
:10554000232B11F08F5FF4CF089580911F048F5F9C
:1055500080931F04089580911F04882319F08150BF
:1055600080931F04089580911D0490911F04981743
:1055700018F0815080931F0480911F0490911E04A5
:10558000891710F480931E0420911E0430E02F5FD1
:105590003F4F482F50E0241735071CF4815080936B
:1055A0001E040895CF930E94B32AC0911E04209137
:1055B0001E04822F90E001964C2F50E0841795072F
:1055C000E4F06C2F621B80E00E942E3580911F0456
:1055D000C81711F080E201C08EE30E943A35809135
:1055E0001D04C81730F4E0911904F0911A048C2FAF
:1055F00009950E94C435CF5FDACF10921C04CF9179
:105600000895CF930E949234C82F0E940A398823AC
:1056100029F081E080931C048FE712C0C23029F08A
:10562000C43041F40E94A52A02C00E94AB2A81E046
:1056300080931C0480911C0481110E94D22A8C2F1B
:10564000CF910895CF93DF93C82F81E080931C04FE
:10565000D1E00E94012B811102C010921B04909195
:105660001B04911108C0883031F481E080931B0441
:1056700080911F0408C0C111D0931C04813049F7E8
:105680009111E7CF8FEFDF91CF910895EF92FF92C5
:105690000F931F93CF938C01C0E08AE7E82E8AE234
:1056A000F82E10931604009315040E94932A0E946A
:1056B000872AF0921A04E0921904C0931F0480E034
:1056C0000E94222BC82F87FD0EC020911504309117
:1056D0001604C90144E0C402800D911D11240296F4
:1056E0000E945015DECFCF911F910F91FF90EF9048
:1056F0000895CF93DF9380911F04809363041092E9
:10570000620481E080931C04D2E0C1E00E949234E4
:10571000682F823011F0843081F4E0911704F09109
:10572000180480911F04099580911F0480936304DD
:10573000D0936204C0931C0404C0813091F088307F
:1057400081F00E9411338111C0931C0480911C04CC
:1057500081110E94D22A809162048F5F809362043B
:10576000D5CF8FEF8093630481E080931B048093F7
:105770001C04683009F080E0DF91CF9108950C940B
:10578000FD138DEA93E00C94462B0F931F93CF9358
:10579000DF93EC010E94F71601E010E09C0141E06C
:1057A00050E0BE018EE293E00E94AB15DF91CF91F5
:1057B0001F910F910895CF93DF9380912A039091C9
:1057C0002B03892B51F10E948816C1E0D0E002C062
:1057D000CC0FDD1F8A95E2F780913E0390913F0345
:1057E000892B11F4D05C07C00E948816882311F021
:1057F000DF5B01C0DB5B0E948816811106C08091CF
:10580000480390914903892B59F480912603909184
:105810002703892B39F0D05805C0C0E0D0E402C07E
:10582000DE5FF3CFCE01DF91CF91089523E08A327E
:10583000920719F40E94121813C023E08C329207C9
:1058400019F40E94ED170CC023E08033920719F47D
:105850000E94D31705C08253934011F40E94E017B1
:105860000E940B170E94DB2B0C94BA291F93CF9335
:10587000DF93CDB7DEB7A8970FB6F894DEBF0FBEA3
:10588000CDBF66E17CE28DEB93E00E94C42918E273
:105890000E94DB2B0E94BA2980E00E94222B87FD08
:1058A0001DC0EAE2F3E0DE011196812F01900D9216
:1058B0008A95E1F70E94792B81110AC0FE01319689
:1058C000AAE2B3E0812F01900D928A95E1F7E0CF33
:1058D00084E00E942B330E940B17DACFA8960FB6F4
:1058E000F894DEBF0FBECDBFDF91CF911F91089519
:1058F000E0912104F0912204E80FF11D64918BE303
:1059000095E00C9499351F93CF93DF93182F0E9445
:10591000B417C8E7DCE20E94881620912A03309170
:105920002B03232B59F0833061F0823069F08823F8
:1059300071F0853079F021E535E00EC02CE635E0D8
:105940000BC02CE535E008C023E635E005C027E5AF
:1059500035E002C02FE435E0309322042093210487
:1059600090E081E0890FF901E90FF11DE491982F92
:10597000E930B9F70E94872AD0931A04C09319041A
:105980008091200480931F0480E00E94222B90913C
:105990001F049093200487FD12C0E0912104F09130
:1059A0002204E90FF11D8491893031F40E94362CD4
:1059B000812F0E94C317AFCF0E94AF14ACCFDF91ED
:1059C000CF911F9108958091200390912103892BFD
:1059D00019F48DEF9FE708958FEF9FE708950E94D8
:1059E000E32C0E94BA290C9414151F93CF93DF93D4
:1059F000CDB7DEB7A4970FB6F894DEBF0FBECDBF0C
:105A00006FEE7CE28DE695E00E94C42914E20E94CC
:105A1000E32C0E94BA2980E00E94222B87FD2BC034
:105A20000E948F29892B41F486E093E00E9408159B
:105A300084E00E942B33EBCFE6E0F3E0DE01119629
:105A4000812F01900D928A95E1F70E94792B8111A7
:105A50000AC0FE013196A6E0B3E0812F01900D92BD
:105A60008A95E1F703C084E00E942B3386E093E03F
:105A70000E944D15CCCFA4960FB6F894DEBF0FBE92
:105A8000CDBFDF91CF911F910C94FD14811104C003
:105A900085E49BE00C94813581500C949F18C0E004
:105AA00006E41DE285E10E94872A10931A04009300
:105AB0001904C0931F0480E00E94222BC0E087FDE0
:105AC000F1CFC82F811103C00E94C12BEBCF8FEF04
:105AD0008C0F0E94832CE6CF613011F40C948A194C
