:100000000C94B5060C94DD060C94DD060C94DD060C
:100010000C94FB080C94DD060C94DD060C94DD06B4
:100020000C94DD060C945F090C942B090C94360992
:100030000C94DD060C94DC090C94110A0C94DD067A
:100040000C94D7080C94DD060C94DD060C94DD06A8
:100050000C94DD06D513E113E613E913EB13FD133E
:10006000FA13E913D513E933EB33ED33F133F133FD
:10007000EF33F533F3330000000080C64E5A000022
:1000800000007C6B0831000133000028D00780019C
:1000900033004023E80300000000C0AE4E5AFC537A
:1000A00050143FA0540B0000000000BBC436801861
:1000B0006009DC377017000000000000000000003D
:1000C000000044C4FA0E0000000000C4FB0E000053
:1000D000000068C4FD0E00000000AAC5160F000055
:1000E000000040C6190F0000000040C72D0FB000EF
:1000F00032006E0BE8034F01320066072C01FF004F
:1001000000000A00050400000004090000FF0101CE
:10011000000A040505000004040A0000FF020200B2
:1001200000020506000002040B0000FF03030000AC
:10013000060507000006040C0000FF0000000A018D
:100140000511020001040D0000FF0101000A050570
:1001500011040005040E0000FF0202000003051157
:100160000100FF030300000705110800460003001B
:100170008813701701003200102732008813204EB8
:10018000C409102700000000030000000000010067
:1001900080250000004B00000096000000E10000F8
:1001A00000C2010001000100010001000100B004D3
:1001B0000807520300005203B0040807E8030000D8
:1001C000E803D0079209D60600006C07E40C100E75
:1001D000C409E40CB80B100E0410C409A60EAC0D33
:1001E000740E6810B80B0A0F890C740ECC10B80B83
:1001F0000A0F890C740EFE10B80B0A0F890C40060A
:100200006C071405400678050100A00FD007010017
:1002100001000100A00F0100010001000400000125
:1002200002020202020304052A0C200C1B0C160C0D
:10023000110C0C0C070C020CFD0BF80B250CF40B2D
:10024000BC19F819211BB11BBC1BC71BB91CB51C61
:10025000E91CAC1DB81DBD1D561E531E5D1E841E1F
:100260008B1EAE1E3A210A211021D823BC1BDA2393
:10027000FE097627F5090529E9090D29DD09A627D3
:10028000D109C127C2098E270000000005700902AC
:100290000044002D02FD7F000010276B090100497A
:1002A00000770200000000000088090400490001F6
:1002B0000401000000010000000000000000000038
:1002C0000000000000077009020044003102FD7FB9
:1002D000000010276B09010049007B0200000000AC
:1002E0000000880904004900010401000000010029
:1002F00000000000000000000000000000000001FD
:100300006409020041002302FD7F000078695C0956
:10031000020041002502FD7F000078698809040081
:10032000490001040100000001000000000000007D
:100330000000000000000000BD09020041002F0283
:10034000FD7F00003075B809820041006102FD7F29
:1003500000008813B309820041006302FD7F0000A2
:100360008813AE09820041006502FD7F00008813FA
:10037000A909820041006702FD7F00008813A409DB
:10038000820041006902FD7F000088139F098200FE
:1003900041006B02FD7F00008813990901004100B4
:1003A00049020000000000009309010041004702DB
:1003B0000000000000008809040049000104010059
:1003C000000001000000000000000000000000002C
:1003D000000006090A0B0C0D0E061F202122232403
:1003E0008109FF7F49000304FD7F0000FFFF7E09B4
:1003F000FF7F0300EB270000000000007609FF7F6D
:1004000040000504FD7F0000FFFF00000000000029
:100410000000000000000000470CF52C3D0CD42526
:100420002F0CB72B00000000E30AFF7F0200A2059B
:10043000010000000B00E00A0F0003001831FE7FEE
:10044000BD2B0000DC0A0E8041002E03FD7F000062
:100450008813DC0A100041002E0332000000786986
:10046000CF0A018041002E03FD7FB004D007CF0AE0
:10047000200041002E03FF7F01007869D80A048024
:1004800041004203FD7F00008813D40A0F80410021
:100490003003FD7F00008813D40A100041003003B0
:1004A000320000007869CA0A1F0045002603FF7F5A
:1004B0006400E8FDC60A3F0040002A03FF7F0100F8
:1004C0001027BF0A1E8040003203FF7F0100102763
:1004D000BB0A1F0040002C03FF7F01008813B40AF1
:1004E0001F8040003403FF7F01008813AA0A0C809C
:1004F0004800440301000300C800A10A01004D00A8
:1005000042030100000001009C0A0002480044036D
:10051000FC7FECFF0000900A00024B004603010044
:1005200001001E00870A1F004D0038030100000073
:1005300001007F0A00044A0648030A000A008403F7
:10054000730A000144033A0364005802AC266D0AA2
:100550003F004C003603FF7F0000E803630A1F00E2
:100560004700400301000100FA00570A0300490058
:100570004A030100000005004D0A1F804B003E03A6
:10058000010001006300420A1F804D003C0301008E
:10059000000001000000000000000000000000005A
:1005A000000028022403C30CB40CAC0CA20C960C63
:1005B0008E0C7F0C740C650C580C000900030407AA
:1005C00008090003070809000102030408090001E3
:1005D0000203040506080909E90BFF7F490000032F
:1005E000010000006400E10BFF7F02001A07010018
:1005F00000000400D60B010044000403640058020C
:10060000AC26CB0BFF7F4403060364005802AC26E4
:10061000C50BFF7F4D000803010000000100BD0B6A
:10062000FF7F40000A03FD7F0100F401B50BFF7F4F
:1006300040000C03FF7F010010279D0BFF7F42004D
:100640001203FF7F0A00204EAD0BFF7F40000E0318
:10065000FD7F0100F401A50BFF7F40001003FF7F29
:1006600001008813950BFF7F42001403FF7F0A00EF
:10067000C4098A0BFF7F410016036400581B3075C4
:100680007F0BFF7F4D001803010000000100790B74
:10069000FF7F02000C07010000000400710B020044
:1006A00001000807010000000400680B02000200BE
:1006B0000007010000000100610BFF7F0200F80647
:1006C000010000000100580BFF7F0200F00601004E
:1006D00000000100520BFF7F00000000000000003E
:1006E000000000000000000000000000000000000A
:1006F000F4062203370BEC0AFC062003F90AF00A81
:1007000004071E034D0B470B90011C0310071A032F
:100710003E0B370B310B280B1F0B1E0702033E0B42
:10072000180B100B080B000B20202D2D2020006330
:100730006865616C692D636861726765720A7632FB
:100740002E30325F32303233313031320063616CFF
:1007500069622E206572726F7200706C65617365DC
:100760002063616C69627261746500656570726FA7
:100770006D2072657365740A6572726F723A20003B
:10078000726573657474696E6720656570726F6DEC
:100790000020202020202020202020202079657388
:1007A00000656570726F6D2072657365743A0052F2
:1007B00045564552534520504F4C415249545900DB
:1007C0006572726F723A00636F6D706C6574653A32
:1007D000005C310000004000000000583200400082
:1007E00000000000402230FFFFFF7F04000040BEF9
:1007F000318001000000000040B930000200000814
:10080000000040C5300002000008000040D9300060
:1008100002000000000040E130FFFFFF7F04000005
:10082000400E2E0000006000000000122E000000AC
:100830006000000000162E00000020040000401A96
:100840002E00000020040000407330FFFFFF7F04F3
:100850000000405530FFFFFF7F00000040AD30FF3B
:10086000FFFF7F000000003630FFFFFF7F04000025
:10087000009130FFFFFF7F000000000000FFFFFF3E
:100880007F00000000250064542F64743D20006444
:10089000563D202020006D6178563D0054696E74ED
:1008A0003D00206C696D69743D0056696E70757409
:1008B0003D00776972657320523D00626174742E49
:1008C00020523D004C696D6974733A20004E2F41EF
:1008D00000546578743D004E2F4100252000436888
:1008E0004342426C44694643537453424359434321
:1008F00000010101020A1E010318478E01190C03B1
:10090000010101E80301650DE80300630D640000C7
:10091000610D6400005E0D6400005C0DE803015988
:100920000DE80301570D010000550DE80301630DAB
:100930000100004E0D640000510D0100004F0D013B
:1009400000004F0D01000000000100004C0D1417C5
:1009500019181A0705061F2021222324566D696ED7
:1009600075733A0056706C75733A006164633A00AF
:1009700074656D703A004965787065633A00493A6C
:100980000076616C75653A0063616C69622E207057
:100990002E3A00566F75743A0056312D363A00568D
:1009A00062363A005662353A005662343A00566270
:1009B000333A005662323A005662313A0056696E56
:1009C0003A006578706572742044414E4745522163
:1009D0000074656D7020696E7465726E0074656D6B
:1009E000702065787465726E00492064697363686D
:1009F0006172676500492063686172676500766FA0
:100A00006C746167650062616C616E636520706F14
:100A10007274210062617474657279210064697373
:100A2000636F6E6E65637400636F6E6E65637400F2
:100A300064542F6474002D64560056206C696D69EF
:100A400074006164617074206469733A00442F43D8
:100A500020726573743A00442F43206379636C6598
:100A6000733A0063617020434F66663A0074696DA3
:100A7000653A007C657874726E2054434F3A007C6E
:100A800064542F64743A00657874726E20543A008E
:100A90007C69676E7220667273743A007C64563AA1
:100AA00000656E61622064563A0062616C2E2065BA
:100AB00072723A006D696E49643A0049643A006D99
:100AC000696E49633A0049633A004361703A0056DF
:100AD000636F3A0056643A0056733A0056633A0020
:100AE000563A00626174746572793A0072657600F4
:100AF000616476616E6365640073696D706C650036
:100B0000542D70726F67720054656D70657261006C
:100B100070726F6772616D00616C776179730065E7
:100B200078742E20416463006578742E20646562B9
:100B3000006465627567006E6F726D616C00646958
:100B40007361626C65640073657061720074656DD9
:100B50007000726573657400627574746F6E733AB9
:100B6000006D656E75733A007C6F75747075743ABC
:100B7000007C73706565643A00554152543A0061D7
:100B80006463206E6F6973653A00696E70757420D6
:100B90006C6F773A006D61782050643A006D61782F
:100BA0002050633A006D61782049643A006D696EA7
:100BB0002049643A006D61782049633A006D696E9E
:100BC0002049633A00626565703A0064697363683E
:100BD000206F66663A007C66616E2054206F6E3A24
:100BE0000066616E206F6E3A006261636B6C6967CC
:100BF00068743A004C4544004E695A6E004C3433D8
:100C000035004C343330004C69706F004C696C6FA8
:100C1000004C6966650050622020004E694D480016
:100C20004E69436400556E6B6E004E6F6E650072C8
:100C3000657365742064656661756C740063616CCE
:100C40006962726174650073657474696E677300BC
:100C50006F7074696F6E730065646974206261748B
:100C60007465727900636170616369747920636887
:100C700065636B00443E4320666F726D6174007360
:100C8000746F726167652B62616C616E630073746F
:100C90006F72616765006661737420636861726773
:100CA00065006469736368617267650062616C61A5
:100CB0006E6365006368617267652B62616C616E6B
:100CC000636500636861726765006578742E74659A
:100CD0006D702E6375746F66660074696D65206C47
:100CE000696D69740063617061636974792063750B
:100CF000746F666600696E707574205620746F207C
:100D00006C6F77004857206661696C757265006288
:100D1000616C616E63657220646973632E00696E35
:100D2000742E74656D702E6375746F6666006261F3
:100D3000747465727920646973632E006E6F6C69D8
:100D40006D697400206E6F00796573005500006D49
:100D500000432F6D002500F40041680043005768F0
:100D60000057005600410000550B11241FBECFE56F
:100D7000D8E0DEBFCDBF10E0A0E6B0E0E6EDF7E7DB
:100D800002C005900D92A838B107D9F724E0A8E871
:100D9000B0E001C01D92A038B207E1F716E0C5EB44
:100DA000D6E004C02197FE010E94633BC43BD107FB
:100DB000C9F70E945B120C94E93B0C9400000E945E
:100DC000043940E062E080E10E94BC380E945B0987
:100DD0000E94D0090C947007CF92DF92EF92FF929D
:100DE000482F282F30E0A0E0BDE70E94693B6B014F
:100DF0007C01A4E6B0E0A41BB10924E630E00E9427
:100E0000783B6C0D7D1D8E1D9F1D24E630E040E07B
:100E100050E00E94223BB9018DE0FF90EF90DF90FF
:100E2000CF900C94BA09882311F0909A0895909865
:100E30000895811104C0939A969A929A089593986E
:100E40000895811102C0969A089596980895811187
:100E500002C0929A089592980895BC018EE00C9475
:100E6000BA09BC018EE00C94BA0980FF02C0C09A96
:100E700001C0C09881FF02C0C19A01C0C19882FF21
:100E800002C0C29A01C0C29883FF02C0C39A01C0C7
:100E9000C39884FF02C0DE9A01C0DE9885FF02C0BD
:100EA000DF9A0895DF98089580E00E94190780E096
:100EB0000E94130780E00E94460980E00E943507E7
:100EC0008C9A8B9A889A8F9AB89AB99ABA9ABB9A3E
:100ED000D69AD79A8D9A8E9A8D9A8A9A089508955D
:100EE000D598D498DD98DC98BF9ABE9ABD9A8EEAC0
:100EF00086B9369A08959C01E0919300E13119F189
:100F00008FB7F894F0E0DF01AA0FBB1FA157BD4FC8
:100F100011963C932E938FBF80918B008823F9F01C
:100F2000EE0FFF1FEE0FFF1FEF54FD4F80819181E9
:100F3000A281B381820F931FA11DB11D8083918374
:100F4000A283B3830895909194008091880037FD27
:100F500002C0982B02C09095982390938800089522
:100F60000E9447249093AE028093AD020E94171D09
:100F70009093B0028093AF0280918B00882309F494
:100F800085C00E9447244091ED025091EE0260918D
:100F9000EF027091F002480F591F611D711D4093BF
:100FA000ED025093EE026093EF027093F0020E9404
:100FB000171D4091F1025091F2026091F30270917D
:100FC000F402480F591F611D711D4093F1025093A7
:100FD000F2026093F3027093F4028091F502909113
:100FE000F602019709F050C08091B9029091BA02BF
:100FF000A091BB02B091BC02B695A7959795879535
:101000008093B9029093BA02A093BB02B093BC0242
:101010008091B1029091B202A091B302B091B4025A
:10102000B695A795979587958093B1029093B20254
:10103000A093B302B093B4028091B5029091B6022E
:10104000A091B702B091B802B695A79597958795EC
:101050008093B5029093B602A093B702B093B80202
:101060008091BD029091BE02A091BF02B091C002DA
:10107000B695A795979587958093BD029093BE02EC
:10108000A093BF02B093C0020C94370F08958091D3
:10109000180390911903892BF1F0909190009923F6
:1010A000D1F021E030E000908D0002C0220F331F0C
:1010B0000A94E2F74091F5025091F602842F8F7066
:1010C0003FB7F8944BB35BB3252B2BBB890F8A95A5
:1010D000F1F74BBB3FBF089580918A008F5F863147
:1010E00008F080E080938A0085E0ECE8F0E0A1E978
:1010F000B0E001900D928A95E1F760918A006F5FF0
:10110000663108F060E085E0689FB001112462500C
:101110007F4F45E050E08CE890E00E94923B809148
:101120008A0081110CC00E94B0072091F502309115
:10113000F60281E0232B09F480E080938B00089570
:1011400084B125B190918900933020F090E0922BEA
:101150000E947B078091890091E0980F909389000D
:101160008D30B9F08031B9F081111DC080918C00B3
:1011700087FD19C03FB7F89428B390918C0040E2E6
:10118000949FC0011124922F9F71892B88BB3FBF70
:1011900008950C94470880918D00806287B9109261
:1011A00089000C946C0808958091880008951F921E
:1011B0000F920FB60F9211242F933F934F935F938B
:1011C0006F937F938F939F93AF93BF93EF93FF930F
:1011D0000E94A008FF91EF91BF91AF919F918F91D5
:1011E0007F916F915F914F913F912F910F900FBE23
:1011F0000F901F9018951F920F920FB60F92112407
:101200002F933F934F935F936F937F938F939F930E
:10121000AF93BF93EF93FF930E942734FF91EF9119
:10122000BF91AF919F918F917F916F915F914F91FE
:101230003F912F910F900FBE0F901F90189588E04F
:1012400085BD85B5846085BD14BC8CE783BD89B739
:10125000806889BF08951F920F920FB60F921124D4
:10126000979A0F900FBE0F901F9018951F920F9294
:101270000FB60F9211248F9397988091960082BF9A
:101280008F910F900FBE0F901F901895811104C081
:1012900013BE12BE9798089590E09595879528E71C
:1012A000280F2093960088589E4F959587958CBF60
:1012B0008CE483BF089589B7836089BF08951F9226
:1012C0000F920FB60F9211242F933F938F939F93FA
:1012D00080919D0090919E002091990030919A00FC
:1012E000820F931F90939A008093990080919B00A6
:1012F00090919C002091970030919800820F931F4D
:1013000090939800809397002FB7F894809199005C
:1013100090919A0035E0969587953A95E1F79BBDB7
:101320008ABD809197009091980035E096958795B9
:101330003A95E1F799BD88BD2FBF809199009091B2
:101340009A008F71992790939A00809399008091C9
:101350009700909198008F719927909398008093AF
:1013600097009F918F913F912F910F900FBE0F90FB
:101370001F9018959FB7F8948E3039F470939E00A3
:1013800060939D008FB5806808C08D3039F47093EC
:101390009C0060939B008FB580628FBD9FBF0895B6
:1013A00080E094E097BD86BD82E08FBD89E18EBD6F
:1013B00089B7846089BF08951F920F920FB60F926C
:1013C00011242F934F935F938F939F93EF93FF93EA
:1013D0005A991AC02CB18091B5019091B60101962D
:1013E00099274091B7015091B8018417950769F08A
:1013F000E091B501F091B601EB54FF4F208390933B
:10140000B6018093B50101C08CB1FF91EF919F911E
:101410008F915F914F912F910F900FBE0F901F9062
:1014200018951F920F920FB60F9211242F933F938E
:101430008F939F93EF93FF932091B5013091B60165
:101440008091B7019091B8012817390711F4559888
:1014500012C0E091B701F091B801EB54FF4F208129
:101460008091B7019091B801019699279093B801A6
:101470008093B7012CB9FF91EF919F918F913F918C
:101480002F910F900FBE0F901F901895CF92DF9263
:10149000EF92FF920F931F93CF93DF93EC016A01BA
:1014A0007B014115514E6105710509F1E885F9850A
:1014B00081E090E00C8802C0880F991F0A94E2F73F
:1014C000808360E079E08DE390E0A70196010E94BF
:1014D000223B89019A0101501109210931093695F0
:1014E000279517950795980101151041A8F0E885F3
:1014F000F985108260E874E88EE190E0A70196011A
:101500000E94223BDA01C9010197A109B109B695F0
:10151000A795979587959C01EC81FD813083EE819D
:10152000FF8120831D8AEA85FB85408181E090E070
:101530009C01098802C0220F331F0A94E2F7242B72
:101540002083EA85FB8540819C010A8802C0220F26
:10155000331F0A94E2F7242B2083EA85FB85208140
:101560000B8802C0880F991F0A94E2F780958223A6
:101570008083DF91CF911F910F91FF90EF90DF90CB
:10158000CF900895CF93DF93FC0182819381EC018A
:10159000D395DC01AE5FBE4F288139818D919C913E
:1015A000119728173907C1F7A285B3853C9181E0CF
:1015B00090E0AC01018802C0440F551F0A94E2F785
:1015C000242F209523232C93A285B3853C91AC0135
:1015D000028802C0440F551F0A94E2F7242F209579
:1015E00023232C93A285B3852C91038802C0880FF6
:1015F000991F0A94E2F7809582238C9380819181D0
:10160000FC01EE5FFE4F20813181329731832083D0
:10161000DF91CF910895FC018589882329F0A08569
:10162000B1858C9186FFFBCF158A08950F931F9388
:10163000CF93DF93FC01A281B3818D011395E80163
:101640008881998101969927AD014E5F5E4FEA012D
:101650002881398182179307D1F3E80128813981E4
:10166000A20FB31F6C93A281B381B39511969C9383
:101670008E93A285B3852C9181E090E0038802C00F
:10168000880F991F0A94E2F7822B8C9381E0858B57
:101690000084F185E02D80818064808381E090E08A
:1016A000DF91CF911F910F910895EFE9F0E085EB65
:1016B00090E0918380839383828380E490E095839C
:1016C000848329E230E0378326832BE230E03187C0
:1016D00020872AE230E033872287958784878CE24F
:1016E00090E09787868784E0808B83E0818B87E01A
:1016F000828B85E0838B81E0848B0895CF93DF9389
:101700001F92CDB7DEB7E0917C04F0917D04309755
:1017100011F4E0E8F4E0CE0101962EEB8E179F075E
:1017200010F02193FBCF0F90DF91CF910895CF93CD
:10173000DF9300D0CDB7DEB720917C0430917D04DB
:101740002115310511F420E834E0CE010196821B09
:10175000930B0F900F90DF91CF910895CF93DF936C
:101760001F92CDB7DEB720917C0430917D04211506
:10177000310511F420E834E0F901BE016F5F7F4FBD
:10178000CF01821B930B6E177F0728F040814E3BE1
:1017900011F43196F5CF0F90DF91CF910895009716
:1017A00041F0EFE9FFE03197F1F700C00000019749
:1017B000F6CF08958436910538F064E670E00E9413
:1017C0000E3BCB010C94CF0B019728F025E32A9513
:1017D000F1F70000F9CF08956AE070E00E940E3B37
:1017E000CB010C94DA0BE82FF0E0EE0FFF1FE3596A
:1017F000FD4F808191810895E82FF0E0EE0FFF1FEB
:10180000ED5DFD4F8081918108952FB7F894E82F09
:10181000F0E0EE0FFF1FE157FD4F808191812FBF58
:1018200008958091FB0208958091D7019091D8018D
:1018300008958091C5019091C60108958091C701D6
:101840009091C80108958093C2010895E82FF0E0B7
:10185000EE0FFF1FE752FE4F80819181089581E0D6
:101860008093F9020895613110F4423040F021E094
:1018700030E0FC013383228331832083089550E0DC
:10188000460F511D460F511D440F551F440F551F44
:10189000BA01625F7F4F44E050E00C94A43B9A0190
:1018A000813190F4623080F470E0680F711D680F30
:1018B000711D660F771F660F771F625F7F4F44E0D1
:1018C00050E0C9010C94C23B0895EF92FF921F9320
:1018D000CF93DF9300D000D0CDB7DEB786E7E82EF8
:1018E00080E0F82E10E0F70185919591A591B491D3
:1018F00089839A83AB83BC83AE014F5F5F4F60E007
:10190000812F0E944F0CF701349685919591A591F6
:10191000B49189839A83AB83BC83AE014F5F5F4FE1
:1019200061E0812F0E944F0C1F5F88E0E80EF11CE0
:101930001131C9F681E00E94CF120F900F900F90E5
:101940000F90DF91CF911F91FF90EF9008958091BC
:10195000F7029091F8020C94091581E020914D0254
:1019600030914E022331310509F080E008958091D5
:101970004B0290914C020895809147029091480249
:101980000895809151029091520208958091010230
:1019900090910202039750F0809107029091080203
:1019A000039720F083E090E00C94321A80E00895D1
:1019B0002FB7F89480E090E0FC01EE0FFF1FEE0FD0
:1019C000FF1FEF54FD4F1082118212821382019685
:1019D0008131910589F788E290E09093F602809337
:1019E000F5021092FA022FBF0895CF93CFB7F89463
:1019F0001092D6011092D5011092D1011092D2010D
:101A00001092D3011092D4011092CD011092CE0108
:101A10001092CF011092D0011092C9011092CA0108
:101A20001092CB011092CC010E944F349093C401CC
:101A30008093C301CFBFCF910895E9EDF1E01192FA
:101A4000119282E0E332F807D1F70895CF93CFB730
:101A5000F89481E090E09093F6028093F5028093F1
:101A6000FA020E941D0DCFBFCF910895CF93DF934F
:101A70000E94260DC091D701D091D8018091D70145
:101A80009091D801C817D90729F48AE090E00E9404
:101A90007A34F4CFDF91CF9108951092FB0280E069
:101AA0000C941907CF93DF9381E00E94050CEC01A1
:101AB00080E00E94050C8C179D0718F4C81BD90BF9
:101AC00002C0C0E0D0E081E0C93ED34008F480E02D
:101AD000DF91CF9108958F929F92AF92BF92CF9254
:101AE000DF92EF92FF920F931F93CF93DF93CDB7C7
:101AF000DEB728970FB6F894DEBF0FBECDBF6115D5
:101B0000710509F44FC05B01F82E40E0682FCE014B
:101B100005960E94330C41E06F2DCE0101960E9484
:101B2000330C2B813C81C901A0E0B0E0CF80D88488
:101B3000E12CF12C9C01AD012C193D094E095F09E6
:101B4000C501A0E0B0E08D809E80A12CB12CBC012D
:101B5000CD01681979098A099B090E94F23A298105
:101B60003A81890120E030E0A9019801281939095A
:101B70004A095B090E94443BDA01C9018C0D9D1D95
:101B8000AE1DBF1DB7FD0AC0009721E0A207B10539
:101B90005CF08FEF9FEFA0E0B0E006C080E090E047
:101BA000DC0102C080E090E028960FB6F894DEBF1A
:101BB0000FBECDBFDF91CF911F910F91FF90EF909E
:101BC000DF90CF90BF90AF909F908F9008958F92AD
:101BD0009F92AF92BF92CF92DF92EF92FF920F93BC
:101BE0001F93CF93DF93CDB7DEB728970FB6F89446
:101BF000DEBF0FBECDBF6115710509F44FC05B019B
:101C0000F82E40E0682FCE0105960E94330C41E08B
:101C10006F2DCE0101960E94330C29813A81C901B2
:101C2000A0E0B0E0CD80DE80E12CF12C9C01AD0184
:101C30002C193D094E095F09C501A0E0B0E08F8075
:101C40009884A12CB12CBC01CD01681979098A09AD
:101C50009B090E94F23A2B813C81890120E030E00F
:101C6000A9019801281939094A095B090E94443BD6
:101C7000DA01C9018C0D9D1DAE1DBF1DB7FD0AC047
:101C8000009721E0A207B1055CF08FEF9FEFA0E085
:101C9000B0E006C080E090E0DC0102C080E090E0AF
:101CA00028960FB6F894DEBF0FBECDBFDF91CF915F
:101CB0001F910F91FF90EF90DF90CF90BF90AF906A
:101CC0009F908F90089582508C3130F4E82FF0E08F
:101CD000E459FF4F8081089581E00895CF938331C7
:101CE00049F481E020914D0230914E0223313105BB
:101CF00089F413C0C82F0E94630E813069F4EC2F61
:101D0000F0E0EE0FFF1FED5DFD4F208131812139A5
:101D1000314018F480E001C081E0CF910895EF9246
:101D2000FF920F931F93CF93CFE1EE24E394F12C16
:101D300000E010E08C2F0E946E0E882311F00E2917
:101D40001F29EE0CFF1CCF5FC532A1F7C801CF9150
:101D50001F910F91FF90EF9008951F93CF93DF9302
:101D60001F92CDB7DEB7182F69830E94630EE12F53
:101D7000F0E0EE0FFF1FED5DFD4F482F6981808180
:101D800091810F90DF91CF911F910C9445372FB720
:101D9000F8946091BE017091BF018091C001909153
:101DA000C1012FBF20E03DE740E050E00E94223B10
:101DB000C90108952FB7F8948091BA019091BB01A1
:101DC000A091BC01B091BD012FBFBC01CD01969582
:101DD00087957795679520E03DE740E050E00E94C9
:101DE000223BC901089540915102509152028091C5
:101DF000BE019091BF01A091C001B091C101840FBB
:101E0000951FA11DB11D8093BE019093BF01A093AA
:101E1000C001B093C1018091B901815019F0809344
:101E2000B901089582E38093B9012091470230916E
:101E30004802DA010E94693B24E630E040E050E0CD
:101E40000E94223B8091BA019091BB01A091BC01FC
:101E5000B091BD01820F931FA41FB51F8093BA01DB
:101E60009093BB01A093BC01B093BD0108958091F4
:101E7000F5029091F602892B49F08091F50290913C
:101E8000F60201979093F6028093F502089590E090
:101E9000880F991FFC01ED5DFD4F20813181621794
:101EA000730718F4261B370B04C0AB01421B530BFE
:101EB0009A01FC01E752FE4F2730310518F01182DC
:101EC000108206C0208131812F5F3F4F31832083F4
:101ED000FC01ED5DFD4F718360830895CF93DF9327
:101EE0008FB7F8941092BE011092BF011092C001FA
:101EF0001092C1011092BA011092BB011092BC0164
:101F00001092BD0192E39093B9018FBFC3E2D2E07A
:101F10006CA17DA18CE10E94470F8E859F859093D7
:101F2000C6018093C5010E94260D0E94F50C1092F7
:101F3000C8011092C70160E070E089E10E94470F7C
:101F400060E070E08BE10E94470F60E070E08DE19F
:101F5000DF91CF910C94470F1092D8011092D701C6
:101F60000C946E0F0C94AC0F9091FB0291110FC06A
:101F70000E9419070E94AC0F81E08093FB028093BE
:101F800060000E94360D0E946E0F1092F9020895B3
:101F9000EF92FF920F931F93CF93DF93C091230291
:101FA000D091240280912502909126028C179D07E2
:101FB00018F4C81BD90B02C0C0E0D0E0BE0182E11A
:101FC0000E94470F35E3E32E32E0F32E1FE1F701C5
:101FD000619171917F01812F0E94470F1F5F153220
:101FE000B1F78091F902811106C00E948F0E909383
:101FF000F8028093F702E090F702F090F80280E098
:1020000090E000E010E041E050E09A01082E02C0AC
:10201000220F331F0A94E2F72E213F21232B49F090
:10202000FC01EE0FFF1FED5DFD4F26AD37AD020F3A
:10203000131F01968630910541F7B80183E10E9494
:10204000470F0115110581F00C171D0720F4CE0173
:10205000801B910B03C0C8018C1B9D0B893B9B40CF
:1020600018F4E80113E103C012E1E12CF12CBE01E8
:1020700084E10E94470FB70186E10E94470F612F5C
:1020800070E085E10E94470F0E940B1D882329F014
:102090000091290210912A020BC00E943B24882340
:1020A00029F0009127021091280202C000E010E000
:1020B0009801DE010E94693B20E137E240E050E0F8
:1020C0000E94223BB90188E10E94470FB80187E1D5
:1020D0000E94470F0E94C70EBC0189E10E94470F72
:1020E0000E94DA0EBC018AE1DF91CF911F910F911E
:1020F000FF90EF900C94470F1F93CF93DF93182F0F
:10210000C82FD0E0FE01EE0FFF1FEE0FFF1FEF54B0
:10211000FD4F608171818281938120E332E040E054
:1021200050E00E94223BCC0FDD1FC359DD4F3983A5
:102130002883B901812F0E946B0DBC01812FDF9193
:10214000CF911F910C94470F4F925F926F927F92A5
:102150008F929F92AF92BF92CF92DF92EF92FF92B7
:102160000F931F93CF93DF93CDB7DEB728970FB6AA
:10217000F894DEBF0FBECDBF0E944F342091C30143
:102180003091C401821B930B8133954708F4AAC098
:102190004FB7F8942091D5013091D601A0E3B2E079
:1021A0000E94693B6B017C01F694E794D794C79435
:1021B0004090D1015090D2016090D3017090D40131
:1021C0006091CD017091CE018091CF019091D001AD
:1021D0000091C9011091CA012091CB013091CC012D
:1021E00009831A832B833C834FBF6D837E838F8348
:1021F00098870E94F50C2091C7013091C8012F5F8C
:102200003F4F3093C8012093C7016D817E818F813C
:102210009885A70196010E94223B49015A01C301FA
:10222000B201A70196010E94223BB90180E00E9401
:102230006B0D3C01B40181E00E946B0D8615970582
:1022400020F45301A81AB90A02C0A12CB12C809025
:102250005B0290905C02A814B90420F48091C20142
:10226000811104C0B5018CE10E94470FB5016819C6
:1022700079098BE10E94470F69817A818B819C816A
:10228000A70196010E94223BB90187E00E946B0DD5
:102290002091C5013091C6019093C6018093C5017C
:1022A000821B930BBC01660F771F8DE10E94470FC5
:1022B000B6018EE128960FB6F894DEBF0FBECDBFF3
:1022C000DF91CF911F910F91FF90EF90DF90CF9012
:1022D000BF90AF909F908F907F906F905F904F9046
:1022E0000C94470F28960FB6F894DEBF0FBECDBFF3
:1022F000DF91CF911F910F91FF90EF90DF90CF90E2
:10230000BF90AF909F908F907F906F905F904F9015
:102310000895CF932FB7F8948091F5029091F6022B
:102320002FBF892B09F091C08091FA0281118AC0D8
:102330008091FB02882309F47EC08091D70190919F
:10234000D80101969093D8018093D7018091B10272
:102350009091B202A091B302B091B402B695A79544
:10236000979587954091D1015091D2016091D30109
:102370007091D401840F951FA61FB71F8093D101C0
:102380009093D201A093D301B093D4018091B50270
:102390009091B602A091B702B091B802B695A795F8
:1023A000979587954091CD015091CE016091CF01D5
:1023B0007091D001840F951FA61FB71F8093CD0188
:1023C0009093CE01A093CF01B093D0018091CD0224
:1023D0009091CE02A091CF02B091D002B695A79570
:1023E000979587954091C9015091CA016091CB01A1
:1023F0007091CC01840F951FA61FB71F8093C90150
:102400009093CA01A093CB01B093CC018091D501E8
:102410009091D60101969093D6018093D5010E94A8
:10242000A410C0E08C2F0E947C10CF5FC131D1F787
:102430000E94C80F07C080916000882319F085E0D2
:102440000E947C10CF910C94D80CCF9108950C94DD
:1024500089110E94540778940E94DF060E941F0988
:102460000E94D7240E94A71D0E94B20F0E947E0BDB
:102470000E94AA140E94DA2E0C94B82F80E00E94C9
:10248000511780E00C94081481E00E94B40F82E19F
:102490000E946E0E882351F00E94C60C882331F0F2
:1024A0000E94A70C0E943E120C944D0D0E949A347B
:1024B000882369F3F9CF0E9429120E9464130E94B5
:1024C00044120E944F2D80E090E00895EF92FF9219
:1024D0000F931F93CF938C017B0141110E94E33B2B
:1024E000C5E0C15059F0C8010E94BC3B8E159F0544
:1024F00039F084E690E00E946634F3CF81E001C0B9
:1025000080E0CF911F910F91FF90EF900895EF928F
:10251000FF920F931F93CF93DF938C017C01E60E04
:10252000F71ECFEFDFEF0E151F05A9F0C8010E94BF
:10253000B43BC82788E09E01369527959C2FE9017A
:1025400090FF04C091E0C92790EAD927815099F7FC
:102550000F5F1F4FE8CFCE01DF91CF911F910F91F9
:10256000FF90EF900895EF92FF920F931F93CF93F8
:10257000DF931F92CDB7DEB78C017B0149830E94A8
:1025800087124981BC01C8018E0D9F1D0F90DF91FC
:10259000CF911F910F91FF90EF900C946612482FEE
:1025A00068E870E08EE090E00C94B312482F60E28F
:1025B00073E088E990E00C94B312482F64E270E075
:1025C0008AEB93E00C94B3120F931F93CF93DF9396
:1025D000D82F182F1170412F63E678E680E090E045
:1025E0000E946612C82F412F6CE679E682E090E0E7
:1025F0000E9466128111C1E0412F62E070E184E027
:1026000090E00E9466128111C1E0412F66E070E007
:1026100086E090E00E9466128111C1E0D1FB0027A4
:1026200000F9402F6AE070E088E090E00E946612B6
:102630008111C260D2FB112710F9412F63E070E0D5
:102640008AE090E00E9466128111C460D3FBDD270E
:10265000D0F94D2F6CE070E08CE090E00E946612A3
:102660008111C86001110E94650C80E00E94CF12A8
:102670008111C26011110E942A1880E00E94D612B6
:102680008111C460D1110E94C51480E00E94DD1246
:102690008111C8608C2FDF91CF911F910F91089508
:1026A000CF93C82F0E946E2FC0FDC260C1FDC460D1
:1026B000C2FDC8600E94882F8C2F0E94E412682FF0
:1026C0008C2FCF910C948C2F80E00E94E4128823F1
:1026D00021F00E94501380E0089581E0089580E089
:1026E0000E94E41281600C945013CF930E94D02E6C
:1026F00082E592E09093770380937603C1E0C093E4
:10270000750310926E030E942516823011F4C09357
:102710006E030E94741C91E0813009F090E0892FD3
:10272000CF91089561E081E00E94E21B8EE592E086
:102730009093770380937603089561E081E00E948F
:10274000E21B8AE692E090937703809376030895E4
:1027500060E082E00E94E21B8CE492E090937703B9
:102760008093760308950E947A1D88EE93E00E947C
:102770005B1D82E390E00E947A340E948D1D61E02F
:1027800081E00E94E21B86E492E0909377038093BD
:102790007603089510926E0390E08930910598F5C4
:1027A000FC01E65DFF4F0C94633B0E9425168111EE
:1027B00002C00C949D130E942516853029F40C94B8
:1027C000B31381E080936E030C94921380E492E043
:1027D00016C00C94A8130E94921380912A03909122
:1027E0002B0365E070E00E940E3B709370036093D2
:1027F0006F03089581E080936E0384E692E09093E6
:1028000077038093760308950E94C41F0C946E0F83
:10281000CF93C82F0E9404148C2F0E94CA13C73074
:1028200029F0C83059F463E081E005C060914A03A3
:10283000660F615080E0CF910C948D18CF910C946D
:10284000741CCF93C82F0E94C226882371F1C093B5
:10285000FF028C2F0E94CA131092FD021092FC02FC
:1028600083E08093FE020E944B3981E00E94B40F06
:102870000E947513882391F081E08093FE020E94EC
:10288000E91F0E94D02E1092750385E00E94333319
:102890008091FF020E9408140E9422200E944D0D88
:1028A0000E945B39CF910C94D92ECF910895DC0111
:1028B0005C96ED91FC915D97EE0FFF1FEE0FFF1FF1
:1028C000E057FE4F6591759185919491089544E28A
:1028D00050E06CE671E00C94923B80910A03909179
:1028E0000B0320910C0330910D032817390720F4B6
:1028F00090930D0380930C0380910C0390910D0332
:102900008131974230F080E197E290930D038093FC
:102910000C0380910E0390910F03209110033091CE
:1029200011032817390720F49093110380931003A3
:1029300080911003909111038938934130F088E819
:1029400093E190931103809310030895FC0180811B
:102950000C94EC0644E250E06AEB73E080E093E014
:102960000E94A43B80E093E00C94A61444E250E063
:102970006AEB73E080E093E00E94C23B81E00E943A
:10298000DD1280E093E00C94A61480E093E00E94B6
:1029900067140C94B614FC010994FC018591949180
:1029A0000C94CB14EF92FF920F931F93CF93DF936E
:1029B000EC017B018A0185E00E94FC0B8E159F05CE
:1029C00018F4188281E007C00817190718F481E08D
:1029D000888301C080E0DF91CF911F910F91FF901C
:1029E000EF900895282F81E090E03AE0215038F0F0
:1029F000AC01349FC001359F900D1124F7CF08958D
:102A0000009719F024F48FEF089580E0089581E095
:102A100008959C0190E180E020FD8F5F3695279519
:102A20009150D1F70895CF92DF92EF92FF92CF931A
:102A300097FF08C090958095709561957F4F8F4F57
:102A40009F4F07C0611571058105910511F0C0E028
:102A500001C0C1E02AE0C22ED12CE12CF12C61157D
:102A600071058105910541F0CF5FA70196010E9494
:102A7000443BCA01B901F3CF8C2FCF91FF90EF9067
:102A8000DF90CF900895BC0180E090E00C94131586
:102A9000CF92DF92EF92FF920F931F93CF93DF932A
:102AA0007C016B01FA01DC01CD91DC91CE01B80112
:102AB0000E940E3B009731F01C141D0494F4081B77
:102AC000190B03C01C141D046CF4C901801B910B6D
:102AD000C817D90720F4F801EC0FFD1F0CC0F9014D
:102AE0000AC08C01C8018E0F9F1F8C179D0718F418
:102AF000FE01E01BF10BD701ED93FC93DF91CF9129
:102B00001F910F91FF90EF90DF90CF900895AF92BB
:102B1000BF92CF92DF92EF92FF920F931F93CF93CA
:102B2000DF93EC017B016A0159016881798180E0C2
:102B300090E00E941315823020F082500E94F2141F
:102B400002C081E090E08C019501A601B701CE01A1
:102B50000E944815DF91CF911F910F91FF90EF9048
:102B6000DF90CF90BF90AF9008952FEF3FEF40E000
:102B700050E00C9487150E949A348111FCCF0E947A
:102B80009A348823E1F3089520912403309125039A
:102B900095E0929FF001939FF00D1124E80FF11D35
:102BA000EE0FFF1FEC55FE4F8591949108951F93F2
:102BB000CF93DF93182FC0912803D09129030E944F
:102BC000C4159C01123061F4809124039091250377
:102BD000029731F4C730D10518F0219720EB34E08B
:102BE0002C9FC0012D9F900D3C9F900D1124DF91D3
:102BF000CF911F9108950F931F93CF93C82F0091EA
:102C00002803109129030E94C415C13029F4809132
:102C10002E0390912F030DC0C23029F48091300310
:102C20009091310306C0C33021F48091420390910A
:102C300043039C01209FC001219F900D309F900D68
:102C40001124CF911F910F910895E0912403F091E9
:102C50002503E45EFD4F84910895CF93DF9300D068
:102C600000D0CDB7DEB7A0912603B0912703209105
:102C70004003309141030E94693B24E630E040E08C
:102C800050E00E94223B293E8DEF38074105510557
:102C900050F429833A834B835C830E942516298153
:102CA0003A81853021F428EE3DEF40E050E0C90143
:102CB0000F900F900F900F90DF91CF910895E4E265
:102CC000F3E020A131A184819581AC01249FC00152
:102CD000259F900D349F900D1124089582E00E944D
:102CE000D715BC0180911203909113030E94B41870
:102CF00020910C0330910D032817390708F4C901FE
:102D0000089582E00E94D715BC0180911403909130
:102D100015030E94B4182091100330911103281755
:102D2000390708F4C901089580912403909125037F
:102D30000A97029750F081E00E94C415BC0188E711
:102D400099E60E940E3BCB01089581E090E0089542
:102D500080912603909127038436910530F484E610
:102D600090E090932703809326038091260390910F
:102D70002703893E9D4F30F088EE9DEF9093270307
:102D8000809326038091360390913703893E9340C8
:102D900030F088EE93E090933703809336030E94DF
:102DA000941620912803309129038217930720F469
:102DB00090932903809328038091280390912903FD
:102DC000892B31F481E090E09093290380932803CC
:102DD0000E946E1620912A0330912B0382179307CD
:102DE00020F490932B0380932A0380912A039091DF
:102DF0002B0320913203309133038217930720F481
:102E000090933303809332030E94811620912C0308
:102E100030912D038217930720F490932D03809314
:102E20002C0320912C0330912D0380913403909139
:102E300035032817390720F43093350320933403E2
:102E400080910A0390910B0340912A0350912B0328
:102E50004817590720F490932B0380932A0340913D
:102E60003203509133034817590720F490933303EA
:102E70008093320380910E0390910F032817390736
:102E800020F490932D0380932C03209134033091F0
:102E900035032817390720F49093350380933403C2
:102EA000089528E2829FC0011124BC0168567F4F1B
:102EB00048E250E084E293E00E94A43B0C94A81600
:102EC00028E2829FC0011124BC0168567F4F48E26E
:102ED00050E084E293E00E94C23B81E00C94D61261
:102EE0000E94A816E4E2F3E0868197816AE070E030
:102EF0000E940E3B7787668708950E94A816E4E239
:102F0000F3E0808591856AE070E00E940E3B718B52
:102F1000608B08950E94A816809126039091270344
:102F200090932B0380932A0320912403309125034F
:102F30002330310541F49695879596958795909322
:102F40002B0380932A030E9470178091260390918F
:102F5000270390932D0380932C030C947D1781E01D
:102F60000E94C41590932F0380932E0382E00E9449
:102F7000C415909331038093300380912403909182
:102F80002503892B61F580ED97E0909327038093CB
:102F9000260383E090E0909329038093280388EE32
:102FA00093E0909337038093360310923903109285
:102FB000380380E797E190933B0380933A031092A4
:102FC0003D0310923C038EE190E090933F03809389
:102FD0003E0388E790E090934103809340030E9472
:102FE0002516811128C081E090E0909343038093DF
:102FF00042038091240390912503029719F48BEFEB
:103000009FEF02C081EF9FEF9093450380934403AD
:1030100083E090E0909347038093460384E690E03A
:10302000909349038093480385E090E090934B038D
:1030300080934A030DC088E090E09093450380930D
:10304000440383E00E94C41590934303809342039A
:103050000C948A17CF9310922503109224030E9498
:10306000AF17C0E08C2F0E946017CF5FC431D1F73B
:1030700081E0CF910C94D612CF93C82F0E945117A4
:103080008091240390912503892B21F00E945631D1
:103090000E94C93580912403909125038A309105BF
:1030A00071F08B30910569F0892BC1F48C2F90E081
:1030B00001960E9469358AE3CF910C94423589E0EC
:1030C0000AC065E080912A0390912B030E94CC37BF
:1030D0000E94C93584E0CF910C94183167E080914B
:1030E0002603909127030E94C9378FE20E94423540
:1030F0008091280390912903CF910C946935809198
:103100003E0390913F030E94781E88E592E09093E1
:103110007703809376030C94741CCF93C62F91E0B1
:103120009093750380934C0380914C038C1302C0E1
:103130001092750380FD02C083E001C080E00E9410
:103140000814813079F490917503992359F0809196
:103150004C038F5F80934C030E9404140E947F18DD
:10316000813011F3CF910895AB019C01A8EEB3E03B
:103170000E94693B9A0140E050E00E94223BA8EE89
:10318000B3E00E947F3B24E630E040E050E00E9444
:10319000223B2115310581E04807510520F02FEF32
:1031A0003FEF40E050E0C901089580916B0390919A
:1031B0006C03892B99F40E94110C882381F00E94E2
:1031C000140C20914D0330914E03821B930B9C01F4
:1031D00081E02330310518F080E0089581E0089502
:1031E000815E0C94FC0BCF92DF92EF92FF921F93C3
:1031F000CF93DF93C0E0D0E0EE24EA94FE2C1FEFE3
:10320000CC24C394D12C2091F7023091F802A6016E
:103210008C2F0C2E02C0440F551F0A94E2F7242372
:103220003523232B39F00E94F0188E159F0510F4DA
:103230001C2F7C012196C630D10529F7812FDF9103
:10324000CF911F91FF90EF90DF90CF900895CF9393
:10325000DF9320916B0330916C03232B21F4DF91DA
:10326000CF910C94F01890915103C82FD0E099237E
:1032700091F00E94F018CC0FDD1FFE01EE5AFC4FBA
:10328000C25ADC4F2081318148815981241B350B82
:10329000820F931F06C0CC0FDD1FCE5ADC4F8881F2
:1032A0009981DF91CF910895CF92DF92EF92FF92B3
:1032B0000F931F93CF93DF9300E010E0C0E0D0E0C6
:1032C000EE24EA94FE2CCC24C394D12C8091F702F6
:1032D0009091F8029601002E02C0220F331F0A942B
:1032E000E2F782239323892B59F0802F0E9427191C
:1032F000C817D90708F4EC018E159F0508F47C0166
:103300000F5F1F4F0630110509F7CE19DF0981E065
:1033100020914403309145032C173D0708F080E0CD
:10332000DF91CF911F910F91FF90EF90DF90CF90A1
:103330000895CF93DF93EC0180916B0390916C0320
:10334000892B41F0209731F40E94140C90934E0386
:1033500080934D03D0936C03C0936B030E941D0DAB
:1033600080916A03811105C08C2FDF91CF910C945D
:103370003507DF91CF910895EF92FF920F931F933E
:10338000CF9381E00E946F078EE5E82E83E0F82E50
:1033900002E513E0C0E08C2F0E94F018F701819342
:1033A00091937F01F801819391938F01CF5FC63094
:1033B00091F710926C0310926B0310926A0380E0F5
:1033C00090E00E94991910924E0310924D038FEFD6
:1033D00080936D03CF911F910F91FF90EF9008950F
:1033E00080E090E00E94991981E080936A0308953B
:1033F0000E94F01980E00C946F07CF92DF92EF9259
:10340000FF921F93CF93DF9380916D0387FD20C0C0
:103410000E9427196C0110E0EE24E394F12CC0E027
:10342000D0E02091F7023091F8022E213F21232B8A
:1034300041F0812F0E942719C816D90610F4CE2911
:10344000DF29EE0CFF1C1F5F163059F7CE0102C0BA
:1034500080E090E0DF91CF911F91FF90EF90DF909F
:10346000CF900895EF92FF920F931F93CF93DF9326
:103470008C01C0E0D0E0EE24E394F12C2091F7021F
:103480003091F802A7010C2E02C0440F551F0A9478
:10349000E2F724233523232B31F42196C630D105BE
:1034A00069F781E008C08C2F815E0E94260C80178E
:1034B000910798F780E0DF91CF911F910F91FF90D6
:1034C000EF9008956F927F928F929F92AF92BF92EA
:1034D000CF92DF92EF92FF921F93CF93DF9386E01C
:1034E00090E00E94321A882309F479C00E94C60C29
:1034F000882309F474C080916D0387FF04C00E9483
:10350000F31880936D0380916D030E94F0186C0195
:10351000A0903003B090310382E5682E83E0782ECE
:103520009EE5E92E93E0F92EC0E0D0E011E088247A
:103530008394912C8091F7029091F80294010C2EC3
:1035400002C0220F331F0A94E2F782239323892BB0
:1035500081F08C2F0E94F0188A159B05A8F0C816E0
:10356000D90608F410E0F30191838083F701918379
:1035700080832196F2E06F0E711C42E0E40EF11C94
:10358000C630D105B9F601C011E0109251030E9476
:1035900062349093500380934F03112379F0DF91AD
:1035A000CF911F91FF90EF90DF90CF90BF90AF90A1
:1035B0009F908F907F906F900C94F0190E94FD194E
:1035C000DF91CF911F91FF90EF90DF90CF90BF9050
:1035D000AF909F908F907F906F900C949919DF918E
:1035E000CF911F91FF90EF90DF90CF90BF90AF9061
:1035F0009F908F907F906F9008950F931F93CF931C
:1036000080915103811110C081E0809351030EE538
:1036100013E0C0E08C2F0E94F018F8018193919381
:103620008F01CF5FC630B1F7CF911F910F910895F1
:103630000E94623420914F0330915003821B930B00
:10364000089580916B0390916C03892B19F40E946B
:10365000621A0AC00E94FD1A0E94181B409720F0AF
:1036600080E090E00E9499190E94D518811106C04F
:1036700080916A03882311F081E0089582E0089523
:10368000EF92FF920F931F93CF93DF938C01C0E0D3
:10369000D0E0EE24E394F12C2091F7023091F8026F
:1036A000A7010C2E02C0440F551F0A94E2F72423F1
:1036B0003523232B31F42196C630D10569F780E0FC
:1036C00007C08C2F0E94271980179107A0F381E073
:1036D000DF91CF911F910F91FF90EF900895EF929E
:1036E000FF920F931F93CF93DF938C01C0E0D0E044
:1036F000EE24E394F12C2091F7023091F802A70117
:103700000C2E02C0440F551F0A94E2F724233523E0
:10371000232B31F42196C630D10569F780E007C02C
:103720008C2F0E94271908171907A0F381E0DF9159
:10373000CF911F910F91FF90EF900895CF93DF935A
:10374000EC010E94A70C882339F0682F70E0CE01AD
:103750000E940E3BCB0102C080E090E0DF91CF9150
:1037600008950E94AA2481E00E94A62180916F03FF
:10377000909170030C9475240C94C1240E94C60C83
:10378000882321F00E944C240C945B2208950E940F
:10379000BE1B0E94B70C209173033091740328174D
:1037A000390740F48AE39AE09093FD028093FC028B
:1037B00080E0089580917103909172030E947524B6
:1037C00082E00895CF93DF931F92CDB7DEB7698370
:1037D0000E94FB15909374038093730369816623A1
:1037E00069F080912A0390912B0390937203809348
:1037F000710380913203909133030CC080912C03AC
:1038000090912D0390937203809371038091340300
:10381000909135039093700380936F030F90DF9125
:10382000CF91089580917603909177030C94CD14F5
:10383000809176039091770302960C94CD140E94A8
:10384000181C0E9422200C944035CF93DF930E94D5
:103850006234EC010E9462348C1B9D0B853B910508
:1038600010F00E944D0D0E949A34882399F3DF9145
:10387000CF910C9429330E941F1C0E941B2F86E0BD
:103880000E9433330C94251C0E941F1C0E944D0D76
:103890000E941F2F87E00E9433330C94251CE09177
:1038A0007603F0917703349685919491FC01099405
:1038B000CF93DF931F92CDB7DEB7811103C00E9473
:1038C000441C0DC0813049F480917503811107C0FB
:1038D00089830E943B1C898103C081E001C080E094
:1038E0000F90DF91CF9108950F931F93CF93DF93A4
:1038F00010921D040E94121CD2E000E010E0C1E012
:103900000E949A3480931D040E94442FCC2379F0A6
:103910000E946620D82F0E94581CC82F882339F097
:103920000E94140C0817190771F4C11107C0809187
:103930007503882311F0D11110C0C0E080911D04DF
:103940008130F1F60AC00E94140C8C010E944F1CB9
:10395000D82F0E94581CC82FE8CF0E94181C8D2F0A
:10396000DF91CF911F910F9108950E948D1D0C94AE
:10397000F8190E947A1D0E94BC1981E020913C0335
:1039800030913D03232B09F480E08093780380E09D
:103990000C94A6210F931F93CF9300917303109162
:1039A0007403C8010E949E1B0E946F1BC82F0E94B7
:1039B000D518811109C0C11107C00E94B70CC1E020
:1039C0000817190708F4C0E08C2FCF911F910F91B1
:1039D00008950F931F93CF930E94CA1CC82F0E9473
:1039E0001C1D8C0180917803882329F0B8018C2F4D
:1039F0000E940A2201C08C2F811108C0B8018C2FAF
:103A00000E946B230E945B1D82E001C081E0CF9188
:103A10001F910F91089580917D03089581E0209179
:103A20007B0330917C03232B09F480E0089580917F
:103A30007B0390917C0308958091790390917A03A0
:103A40000895CF93DF931F92CDB7DEB74091060361
:103A500050910703BA017250CE0101960E94D21410
:103A60008981811114C00E94BC0C009711F481E07F
:103A700090E0BC0184EC99E00E94B41820911003FE
:103A8000309111032817390720F4C90102C080E0E2
:103A900090E00F90DF91CF910895813020E8920758
:103AA00010F080E090E890937C0380937B030E9469
:103AB00031070C94260DCF93DF93EC010E94211D5A
:103AC000BC01C817D90708F4BE0180917903909111
:103AD0007A038617970759F070937A0360937903F6
:103AE00080E10E94E70DDF91CF910C944D1DDF9195
:103AF000CF91089580917D0381110EC080E090E008
:103B00000E944D1D10927A031092790381E00E9469
:103B1000270781E080937D03089580917D038823AA
:103B2000A9F080E090E00E944D1D10927A0310925F
:103B3000790310927D038AE090E00E947A3480E05D
:103B40000E9427078AE090E00C947A34089581E07F
:103B500080937D030C948D1D87E080935D0482E04B
:103B600080935C040E942C3383E080937E0308954D
:103B70008FEF80935D040C942933EF92FF920F93A3
:103B80001F93CF93DF9382E10E946E0E2091240356
:103B9000309125032A5031092230310520F091E07F
:103BA000C82FC92701C0C0E00E94A70C082F809130
:103BB0006E03882369F08091280311E0801301C00F
:103BC00010E0D1E00111D0E0813021F4DD2311F0CB
:103BD000D0E010E00E94AD0C8823B9F083E10E9490
:103BE000FC0B7C0182E10E94FC0BE816F90628F42C
:103BF0009C012E193F09790102C0E81AF90A35EF34
:103C0000E31631E0F30608F0C1E0111102C087E0CD
:103C100001C083E080935D04DD2329F080915D0481
:103C2000825080935D04CC2329F080915D04815003
:103C300080935D04111104C0D11102C0CC2331F076
:103C400082E00E943333D11106C003C00E942933A1
:103C500004C0112311F0011102C0D0E001C0D1E075
:103C60000E949034811102C010927E03D11106C0CF
:103C7000C11104C00E949034883041F080917E03CD
:103C8000823011F082E008C081E006C080917E039E
:103C90008F5F80937E03F2CFDF91CF911F910F91C1
:103CA000FF90EF9008951092830308950E9462346C
:103CB000909382038093810308950E94623420913F
:103CC000810330918203821B930B20917F033091FB
:103CD00080032817390728F081E08093830382E06E
:103CE00008951092830381E00895809183030895DD
:103CF0002CE3AC01249FC001259F900D11249093CB
:103D0000800380937F0308950E94BC190E94AA2417
:103D100081E00C94A6210E94C1240C94F8190F9301
:103D20001F93CF930091730310917403C8010E94F5
:103D30009E1B0E94401BC82F0E94D518811109C0EC
:103D4000C11107C00E94B70CC1E08017910708F4A9
:103D5000C0E08C2FCF911F910F9108950F931F9367
:103D6000CF930E948F1EC82F0E944C248C01BC014F
:103D70008C2F0E940A22811108C0B8018C2F0E944A
:103D80006B230E94752482E001C081E0CF911F91D6
:103D90000F9108950F931F93609190037091910379
:103DA000809192039091930320919503222371F0C7
:103DB0000E94573400919003109191032091920337
:103DC00030919303601B710B820B930B1F910F912A
:103DD000089560918C0370918D0380918E03909172
:103DE0008F0328EE33E040E050E00E94223BCA01FE
:103DF000B9010895609188037091890380918A03C5
:103E000090918B0328EE33E040E050E00E94223B8B
:103E1000CA01B90108950F931F93CF93DF9381E0F7
:103E20000E94FB15EC0184E00E94FB158C0184E1EB
:103E30000E94FC0B8C179D07B8F408171907B0F403
:103E40009C01201B310BCE01801B910B64E670E0BE
:103E50000E940E3BC9010E940E3B6436710510F0B2
:103E600063E670E0862F03C083E601C080E0DF9147
:103E7000CF911F910F910895CF92DF92EF92FF9211
:103E80000E940B1F90919403981778F580939403E8
:103E9000C0909703D0909803E0909903F0909A0314
:103EA0000E94CA1EC61AD70AE80AF90A0E94CA1E48
:103EB00060939703709398038093990390939A0368
:103EC00080919B0390919C03A0919D03B0919E03D0
:103ED0008C159D05AE05BF0540F4C0929B03D092A2
:103EE0009C03E0929D03F0929E03FF90EF90DF9081
:103EF000CF9008950E943C1F80919603811102C0CB
:103F0000A4E601C0A9E6B0E080919403A81BB10922
:103F100020919B0330919C0340919D0350919E03FF
:103F20000E948A3B089520910203309103032130BF
:103F3000310511F481E026C02115310511F480E02E
:103F400021C02430310529F48091950381110AC0E4
:103F5000F6CF2230310519F48091950313C0233038
:103F6000310581F485E00E94FC0B2091040330911F
:103F70000503A90152508417950708F3281739073C
:103F8000C8F208950C9413070E940B1F80939403AA
:103F900010929703109298031092990310929A032B
:103FA00010929B0310929C0310929D0310929E030B
:103FB00010928C0310928D0310928E0310928F0337
:103FC000109288031092890310928A0310928B0337
:103FD000089560E971E080E00E94E70D9093870307
:103FE0008093860381E00E94FB15BC016854744FE6
:103FF000693729E6720710F068E779E680E00E94E9
:10400000E70D813C2FEF920710F080EC9FEF90932B
:104010008503809384030E94AD0C809396030E94D5
:10402000573460939003709391038093920390931D
:1040300093030E94C41F10929F0381E08093950315
:104040000C942F0C0E94CA1E6093900370939103EE
:1040500080939203909393031092950308950E9486
:104060003E2481111DC00E940E1D811119C00E94A5
:10407000D518882351F180918C0390918D03A091E4
:104080008E03B0918F0380599F4FAF4FBF4F8093E6
:104090008C0390938D03A0938E03B0938F030895A8
:1040A0008091880390918903A0918A03B0918B033A
:1040B00080599F4FAF4FBF4F8093880390938903E0
:1040C000A0938A03B0938B03D2CF0895CF93DF934D
:1040D00080919503811102C082E099C085E00E9421
:1040E000FC0B20910603309107033E5F2817390728
:1040F00018F48EE19DE024C080E00E94050C209120
:104100008403309185038217930758F42091860326
:10411000309187038217930738F40E940B1D882380
:1041200019F08EE29DE00CC080919F038130C9F3AD
:10413000C09196030E94AD0CC81741F08FE09DE03E
:104140009093FD028093FC0280E061C0C0917103F6
:10415000D0917203C851DC4F0E94C10CC817D90717
:1041600018F484E09DE0ECCF86E00E94FC0B2091E7
:104170001603309117038217930718F485EF9CE01C
:10418000DFCF89E10E94FC0BEC010E942D16883ED6
:104190002DEF920731F0C817D90718F085EE9CE093
:1041A0001BC0C0913603D0913703C83E83E0D807C7
:1041B000C8F4609188037091890380918A0390917B
:1041C0008B0320E63AEE40E050E00E94223B2C17A1
:1041D0003D0740F08AED9CE09093FD028093FC0245
:1041E00081E015C08091380390913903892B09F43F
:1041F00073CF87E00E94FC0B20913A0330913B0380
:104200002817390708F068CF8AEC9CE099CFDF9136
:10421000CF9108950E948B1E0E94B51C0C94F81932
:10422000CF93DF931F92CDB7DEB78091A003882391
:1042300029F0813031F40E94E91C0CC00E94AE1EAE
:1042400009C00E94211B823089F089830E940A21C3
:1042500089810CC0813051F490916E03992331F023
:1042600082E08093A0030E94BC1982E00F90DF914E
:10427000CF910895CF93DF930E94BC1961E083E052
:104280000E94E21BC0917303D09174030E94A70C9B
:10429000811106C00E94B70CC817D90740F40CC0A2
:1042A000CE010E949E1B0E946F1B882329F00E9452
:1042B000841E1092A0030BC060E083E00E94E21B0A
:1042C0000E94B91C81E0809378038093A003DF9162
:1042D000CF9108958091A103813029F480916F03DB
:1042E00090917003089580E090E008952CE0829F03
:1042F000C001112483559C4F0C94E82485EF93E072
:104300000C94E824CF93DF9300D000D0CDB7DEB774
:1043100082E10E94FC0B9A83898384E10E94FC0B5A
:1043200029813A81281B390B3A83298387E10E942E
:10433000FC0B9C838B83CE0101960E94E8240F9096
:104340000F900F900F90DF91CF910895AF92BF9291
:10435000CF92DF92EF92FF920F931F93CF93DF9351
:10436000182F81E08093A1030E94B70C20916F0366
:10437000309170034091730350917403012FBC017D
:104380008DEE93E00E940125809173039091740358
:104390000E949E1B6C0185EAE82E83E0F82EC0E0A7
:1043A000D0E0AA24A394B12C2091F7023091F80216
:1043B000A5018C2F0C2E02C0440F551F0A94E2F762
:1043C00024233523232B61F00E94271920916F03AA
:1043D00030917003012FA601BC01C7010E94012585
:1043E00021968CE0E80EF11CC630D105E9F610925A
:1043F000FB031092A4031092FA031092F903DF91C9
:10440000CF911F910F91FF90EF90DF90CF90BF90D1
:10441000AF9008950F931F93CF93C82F8B01809176
:104420006E03882361F1CC2349F08091FB03811155
:1044300005C00E94F01981E08093FB038091FB038B
:10444000882311F08530D9F420916F0330917003E7
:10445000203A310510F420EA30E02017310710F43B
:1044600010926A030E94211B8093A1038130F1F412
:104470000E945419882319F08FEF80936D030E94D6
:104480006A218017910780F0CC2371F08091FB03A3
:10449000853051F49091A40381E0890F8093A403A7
:1044A00081E09A3020F402C01092A40380E0CF9102
:1044B0001F910F910895CF92DF92EF92FF920F9389
:1044C0001F93CF93DF937C010E94B70CA701BC011F
:1044D0008DEE93E00E94BE2505EA13E0C0E0D0E037
:1044E000CC24C394D12C2091F7023091F802C6015C
:1044F0000C2E02C0880F991F0A94E2F72823392353
:10450000232B41F08C2F0E942719A701BC01C80161
:104510000E94BE252196045F1F4FC630D10519F7B2
:10452000DF91CF911F910F91FF90EF90DF90CF908F
:104530000895AF92BF92CF92DF92EF92FF920F93C6
:104540001F93CF93DF9360917303709174038DEE8B
:1045500093E00E9426257C0180917303909174035F
:104560000E949E1B6C0105EA13E0C0E0D0E0AA2483
:10457000A394B12C8091F7029091F80295010C2E32
:1045800002C0220F331F0A94E2F728233923232B7A
:1045900061F0B601C8010E942625E816F90628F048
:1045A000B601C8010E9426257C012196045F1F4F99
:1045B000C630D105F9F6C701DF91CF911F910F9158
:1045C000FF90EF90DF90CF90BF90AF9008950F9342
:1045D0001F93CF93DF93EB0120917103309172030E
:1045E0008C012817390708F489010E946A219C016F
:1045F0008017910708F49801C217D307E1F04091A2
:10460000FB034530D1F42C173D07B8F08217930710
:10461000A0F480916F03909170038C179D0758F060
:104620004091A2035091A30380914D0390914E03BA
:104630004817590711F4CE0109C080914D0390919C
:104640004E039093A3038093A203C901DF91CF91FE
:104650001F910F910895CF92DF92EF92FF920F93E7
:104660001F93CF93DF937C010E94B70C9093EE03CE
:104670008093ED03F092F003E092EF0305EA13E07C
:10468000C0E0D0E0CC24C394D12C2091F70230912B
:10469000F802A6018C2F0C2E02C0440F551F0A945D
:1046A000E2F724233523232B39F00E942719F80140
:1046B00091838083F382E2822196045F1F4FC6308C
:1046C000D10519F7DF91CF911F910F91FF90EF90D6
:1046D000DF90CF9008951F93CF93DF93182FEB01B6
:1046E0000E94C60C811108C01123B1F18091F90319
:1046F0009091FA03892B81F10E94D51881112CC069
:10470000CE010E945B22CE010E942B230E9499229F
:104710008C179D0748F19093FA038093F903BE012B
:104720008091F9039091FA030E94E7229093FA0393
:104730008093F9039091FB03923059F1F8F4992397
:1047400011F1913089F5112339F083E08093FB0357
:104750001092FA031092F9038091F9039091FA03F1
:10476000DF91CF911F9108959C012C0F3D1F36952D
:1047700027953093FA032093F903D1CF933061F05A
:10478000943081F011C0112339F30E94F01981E0B7
:104790000CC01092FB03E0CF1092FA031092F903C1
:1047A00084E003C01123C1F285E08093FB03D4CFE2
:1047B0000C94B11BCF93DF930E94BE1B0E94B70CD9
:1047C000EC0182E00E94FB158C179D0730F480916C
:1047D0007103909172030E947524809173039091EC
:1047E00074038C179D0718F48AE39AE03CC00E947A
:1047F0001E0C029710F482E03BC080913803909128
:104800003903892B69F08DE10E94FC0B209148034C
:1048100030914903281739071CF480E39AE023C03C
:104820000E941E0C2091460330914703220F331F34
:10483000C1E08217930708F4C0E08C2F0E94230C7C
:10484000CC23C9F28091420390914303892B99F2C2
:104850008BE10E94FC0BEC010E945F16C817D90780
:1048600054F686E39AE09093FD028093FC0281E087
:10487000DF91CF91089580910004089581E0209107
:10488000FE033091FF03232B09F480E0089580910B
:10489000FE039091FF0308958091FC039091FD0326
:1048A00008950E94BC0C009711F481E090E0BC01D7
:1048B00080911203909113030E94B41820910C036D
:1048C00030910D032817390708F4C9010895813084
:1048D00020E8920710F080E090E89093FF03809327
:1048E000FE030E942D070C94260DCF93DF93EC015D
:1048F0000E945124BC01C817D90708F4BE01809159
:10490000FC039091FD036817790750F49C01261B66
:10491000370B2D38310568F0BC016C58710909C09E
:104920009B01281B390B2D38310518F0BC01645749
:104930007F4F8617970759F07093FD036093FC0330
:104940008FE00E94E70DDF91CF910C946724DF91F7
:10495000CF91089580910004811112C01092FF033D
:104960001092FE031092FD031092FC0380E090E091
:104970000E94672481E00E94210781E08093000467
:10498000089580910004882389F080E090E00E94DF
:1049900067241092FF031092FE031092FD03109201
:1049A000FC0380E00E9421071092000408951092F9
:1049B000FF031092FE031092FD031092FC0380E0AF
:1049C00090E00E94672481E0809300040C94C1244D
:1049D000FC01428153814115510589F0A081B181CB
:1049E000B7FF03C0B195A195B10928EE33E00E944D
:1049F000783B9A0140E050E00E94223BA901CA01A5
:104A000008950F93FC01CB01002341F0461757078F
:104A100008F4CA016417750748F407C064177507DE
:104A200008F4CA014617570708F4BA01978386832A
:104A300091838083138212821582148233872287A6
:104A4000681B790B718760870F910895FC0186813F
:104A50009781A285B3850084F185E02D3097D9F048
:104A6000AB0160E070E09A01AB01281B390B4109F2
:104A700051090E947F3B9F01FF0F440B550B0E9481
:104A8000443B2115310581E04807510524F457FDC9
:104A900005C0C90108958FEF9FEF089580E090E071
:104AA0000895DF92EF92FF920F931F93CF93DF93BE
:104AB000FC01228133812417350720F4DA01A21B7F
:104AC000B30B03C0D901A41BB50B848195819695C6
:104AD00087958A179B0728F58081918124173507D0
:104AE00038F4EA01C21BD30B7B01E81AF90A06C0AD
:104AF0007C01E61AF70AE901C41BD50B8F01C70137
:104B00000E940015D82EF801808591850E9400151D
:104B1000D81207C0F801D583C483F186E086D38715
:104B2000C287DF91CF911F910F91FF90EF90DF909F
:104B300008950F931F93CF93DF93EC018B019A019C
:104B4000A885B9850E94783B2A853B8540E050E0E6
:104B50000E94443BC801A0E0B0E082179307A4077D
:104B6000B5071CF41F821E8204C0021B130B1F8397
:104B70000E83DF91CF911F910F910895EF92FF92D5
:104B80000F931F93CF93DF93EC018B017A010E9467
:104B90005125A701B801CE01DF91CF911F910F914F
:104BA000FF90EF900C9499251092390310923803DE
:104BB0000E944B3980E792E00E943E2B0E945B39B5
:104BC0001092FE0208951F93CF93DF93182F64E194
:104BD0007AE088E29AE00E94EF2ED0E082E10E9423
:104BE0006E0EC82F8823B1F00E94A70C91E08111AE
:104BF00001C090E0191799F0D1110CC066E07AE07D
:104C0000112319F088E29AE002C08DE19AE00E9437
:104C1000EF2ED1E00E949A34813001F7C0E08C2F52
:104C2000DF91CF911F910895AF92BF92DF92EF92E3
:104C3000FF920F931F93CF93DF93D82EEB015A016E
:104C4000BA010E94E70D8C01BE018D2D0E94E70D77
:104C50007C01B5016C0F7D1F769567958D2D0E94A7
:104C6000E70D9C01E114F104D1F08FEFE816F8068E
:104C7000C1F001151105B9F00F3F8FEF1807A9F02A
:104C8000E016F106A0F4C9010A97E816F90688F4BF
:104C9000265F3F4F2017310770F480E00DC081E0A0
:104CA0000BC082E009C083E007C084E005C085E056
:104CB00003C086E001C087E0DF91CF911F910F9183
:104CC000FF90EF90DF90BF90AF90089540910C035C
:104CD00050910D0360910A0370910B038FE00E94C5
:104CE0001426882311F0865F089540910C0350919B
:104CF0000D0360910A0370910B0382E00C9414265B
:104D0000409110035091110360910E0370910F03B5
:104D100080E10E941426882311F0865F0895409157
:104D200010035091110360910E0370910F0383E003
:104D30000C941426CF930E946413C82F8823F9F093
:104D400048E759E668EE73E080E00E941426882365
:104D500021F0682F8EEF99E00FC00E94662688230D
:104D600021F0682F85EF99E007C00E9480268823F4
:104D700031F0682F89EE99E00E94A92FC0E08C2FB6
:104D8000CF9108950C949A268F929F92AF92BF92E2
:104D9000CF92DF92EF92FF920F931F93CF93DF9307
:104DA00000D000D01F92CDB7DEB77B016A0160E072
:104DB00070E02D830E94BC292D81211109C08091B2
:104DC000200390912103892B19F48BEF9FE702C0F8
:104DD0008FEF9FE70E94B22981E00E941A2B082FD3
:104DE00087FD72C00E94A329A82E81FF68C0002EF3
:104DF000000C110BF701E00FF11FB4908B2D0E94F6
:104E00006E0E882349F30E94360D1092FB02109219
:104E100060000E94712B882309F44BC0F601E00F5B
:104E2000F11F049184E00E9433338B2D0E94FC0B10
:104E30004C010E946539802F0E94F30B9A8389836D
:104E40009C828B82AE014F5F5F4F60910104802F87
:104E50000E944F0CA7FE2AC081E08093FB020E94B3
:104E6000360D0E94653980E00E94F30B9A83898396
:104E700081E00E94F30B29813A81281B390B3A8388
:104E8000298383E10E94FC0B9C838B83AE014F5FDF
:104E90005F4F6091010480E00E944F0CAE014F5FB4
:104EA0005F4F6091010481E00E944F0C81E00E94FD
:104EB000CF1281E08093FB02809360008DCF82FF50
:104EC0008BCF0E94712B88CF0F900F900F900F9077
:104ED0000F90DF91CF911F910F91FF90EF90DF9096
:104EE000CF90BF90AF909F908F90089581E090E019
:104EF00090930204809301040E94B40F81E00E9409
:104F0000E325882349F020E042ED53E069ED73E0AA
:104F100088E393E00E94C4260C944D0D81E090E05C
:104F2000909302048093010480E00E94B40F1092D9
:104F3000620020E04EEF52E0BA0180E093E00E9470
:104F4000C42681E0809362000C944D0D10920204FF
:104F5000109201040E945B3981E090E09093390344
:104F60008093380380E00E94B40F21E045EC52E0CA
:104F7000BA0186EC92E00E94C4260E944D0D0C946A
:104F80004B39109202041092010480E00E94B40F89
:104F900021E04CE852E0BA018DE892E00E94C4267C
:104FA0000C944D0DCF93DF9300D000D0CDB7DEB77A
:104FB000482F60910804CE0101960E94330C67E0EF
:104FC0008B819C810E94CC370F900F900F900F9097
:104FD000DF91CF9108950E94C10C67E00E94CC3709
:104FE000809107040E94F30B66E00C943F372091F8
:104FF0000704223011F40C9467240C944D1DEF9299
:10500000FF920F931F93CF93DF93CDB7DEB728970F
:105010000FB6F894DEBF0FBECDBF10E082EDE82ED4
:1050200087E2F82E82E00E947F2AF0921404E09238
:1050300013041093190480E00E941A2B182F87FD87
:105040008FC081E00E94B40F80E00E94E325882396
:1050500009F483C0412F60910804CE0105960E9497
:10506000330C412F60910704CE0101960E94330C4E
:105070006DEB78E280EE93E00E94BC298F819885E9
:10508000909306048093050400E08D819E819093A7
:1050900004048093030481E00E941A2B87FD48C01A
:1050A000811138C080910704823019F40E94AA242B
:1050B00002C00E947A1D80910304909104040E9412
:1050C000F7270E94712B8823B9F00E94360D80913A
:1050D00005049091060498878F83209103043091F2
:1050E00004043E832D839C838B83809107040E945C
:1050F000F30B9A83898301E080E090E00E94F72718
:1051000080910704823019F40E94C124BECF0E940E
:105110008D1DBBCF823009F0B8CF0E94712B811159
:10512000B4CF8F8198859093060480930504ADCF0A
:10513000002399F0AE014B5F5F4F612F809108040F
:105140000E944F0CAE014F5F5F4F612F80910704AB
:105150000E944F0C81E00E94CF120E944D0D62CF41
:1051600028960FB6F894DEBF0FBECDBFDF91CF916A
:105170001F910F91FF90EF90089560910704409167
:105180000304509104042091050430910604623018
:1051900079F44130504830F040E050E85093040436
:1051A0004093030421313742A8F020E137E20EC0DA
:1051B0004130504830F040E050E8509304044093B0
:1051C00003042938334130F028E833E130930604F2
:1051D000209305048350944031F48091030490910E
:1051E00004040E94F72782E10E946E0E81110CC018
:1051F00064E17AE088E29AE00E94EF2E8091070451
:10520000833011F40C948D1D08958FE08093080471
:1052100082E0809307040C94FF2780E180930804C8
:1052200083E0809307040C94FF27A0910904B091B8
:105230000A0460910D0470910E0440E090E0FD01BD
:105240002EE0929FE00DF11D1124329625913491AC
:105250002115310579F037FF03C077FF09C03058B9
:1052600026233723232B21F0882331F081504F5FF1
:105270009F5FE5CF842F0895892F08950F931F9383
:10528000CF93DF93C82F0E9415299EE0899F80014C
:105290001124E0910904F0910A04E00FF11F8591B7
:1052A00094910E948935D82F0E940D33882319F0DC
:1052B00040915D0401C04FEF042E000C550B2C2FC4
:1052C00030E042175307F1F06FE06D1BE0910904E5
:1052D000F0910A04E00FF11F3596C491CC2329F018
:1052E000862F8C1B0E94C5356C2F809109049091EC
:1052F0000A04800F911F0496DF91CF911F910F91A7
:105300000C948F32DF91CF911F910F9108950E94DD
:1053100015292091090430910A049EE0899F200DEF
:10532000311D1124F901369685919491F901349635
:1053300024912150223030F4FC0185919591A59162
:10534000B491CD0108950E941529E0910904F091CE
:105350000A049EE0899FE00DF11D1124329685918B
:105360009491089590930E0480930D048FEF0E9402
:10537000152980931704089590930A0480930904D3
:1053800070930C0460930B0480E00E947F2A8EE3EC
:1053900099E290931404809313048AED99E2909318
:1053A0001204809311048FEF80935D048FEF9FE7C9
:1053B0000C94B229DF92EF92FF920F931F93CF9339
:1053C000DF93CDB7DEB762970FB6F894DEBF0FBE9E
:1053D000CDBF182FD62E0E9487297C01812F0E94D5
:1053E00015292091090430910A049EE0899F200D1F
:1053F000311D1124B901685F7F4F46E050E0CE01B6
:1054000007960E94923B86E0FE013796DE011196D8
:1054100001900D928A95E1F709811A814B815C8197
:105420002D813E81E2E0DE1203C06FEF7FEF02C00C
:1054300061E070E00F3FFFE71F0721F4C7010E9402
:1054400087153AC00E3F8FE7180721F4CB01FA0108
:10545000099532C00C3FFFE71F07B9F4F7018081BF
:105460009181680F791F261737071CF071836083BD
:1054700003C0F70131832083F70180819181841774
:105480009507D4F45183408317C00D3FFFE71F07F2
:1054900081F4298B3A8B4F87588B6D877E870E94CA
:1054A0009334082F10E07E856D8558894F853A89A1
:1054B0002989C7010E944815E0910B04F0910C0462
:1054C000309711F0C701099562960FB6F894DEBFC8
:1054D0000FBECDBFDF91CF911F910F91FF90EF9045
:1054E000DF900895E0910F04F091100494E0899FFB
:1054F000E00DF11D1124859194910C948935109241
:105500001904109218048093170481E08093160404
:1055100080931504089540910F045091100480E089
:10552000FA0194E0899FE00DF11D11242591349139
:10553000232B11F08F5FF4CF0895809119048F5FB2
:1055400080931904089580911904882319F08150DB
:105550008093190408958091170490911904981765
:1055600018F08150809319048091190490911804C7
:10557000891710F4809318042091180430E02F5FED
:105580003F4F482F50E0241735071CF4815080937B
:1055900018040895CF930E94AB2AC091180420915B
:1055A0001804822F90E001964C2F50E08417950745
:1055B000E4F06C2F621B80E00E9436358091190464
:1055C000C81711F080E201C08EE30E94423580913D
:1055D0001704C81730F4E0911304F09114048C2FD1
:1055E00009950E94CC35CF5FDACF10921604CF9187
:1055F0000895CF930E949A34C82F0E9412398823AD
:1056000029F081E0809316048FE712C0C23029F0A0
:10561000C43041F40E949D2A02C00E94A32A81E066
:10562000809316048091160481110E94CA2A8C2F3F
:10563000CF910895CF93DF93C82F81E08093160414
:10564000D1E00E94F92A811102C0109215049091B4
:105650001504911108C0883031F481E0809315045D
:105660008091190408C0C111D0931604813049F704
:105670009111E7CF8FEFDF91CF910895EF92FF92D5
:105680000F931F93CF938C01C0E082E7E82E8AE24C
:10569000F82E1093100400930F040E948B2A0E948E
:1056A0007F2AF0921404E0921304C093190480E05E
:1056B0000E941A2BC82F87FD0EC020910F04309135
:1056C0001004C90144E0C402800D911D112402960A
:1056D0000E94CD14DECFCF911F910F91FF90EF90DC
:1056E0000895CF93DF938091190480935D04109205
:1056F0005C0481E080931604D2E0C1E00E949A34F9
:10570000682F823011F0843081F4E0911104F0911F
:1057100012048091190409958091190480935D0405
:10572000D0935C04C093160404C0813091F088309B
:1057300081F00E9419338111C093160480911604E0
:1057400081110E94CA2A80915C048F5F80935C045F
:10575000D5CF8FEF80935D0481E080931504809313
:105760001604683009F080E0DF91CF9108950C9421
:105770006F1388E194E00C943E2B0F931F93CF930B
:10578000DF93EC010E94941601E010E09C0141E0DF
:1057900050E0BE0188E293E00E944815DF91CF916E
:1057A0001F910F910895CF93DF93809124039091DF
:1057B0002503892B51F10E942516C1E0D0E002C0DB
:1057C000CC0FDD1F8A95E2F7809138039091390361
:1057D000892B11F4D05C07C00E942516882311F094
:1057E000DF5B01C0DB5B0E942516811106C0809142
:1057F000420390914303892B59F4809120039091A7
:105800002103892B39F0D05805C0C0E0D0E402C094
:10581000DE5FF3CFCE01DF91CF91089523E0843294
:10582000920719F40E94AF1713C023E08632920743
:1058300019F40E948A170CC023E08A32920719F4E7
:105840000E94701705C08C52934011F40E947D177E
:105850000E94A8160E94D32B0C94B2291F93CF93B9
:10586000DF93CDB7DEB7A8970FB6F894DEBF0FBEB3
:10587000CDBF6EE07CE288E294E00E94BC2918E291
:105880000E94D32B0E94B22980E00E941A2B87FD30
:105890001DC0E4E2F3E0DE011196812F01900D922C
:1058A0008A95E1F70E94712B81110AC0FE013196A1
:1058B000A4E2B3E0812F01900D928A95E1F7E0CF49
:1058C00084E00E9433330E94A816DACFA8960FB660
:1058D000F894DEBF0FBECDBFDF91CF911F91089529
:1058E000E0911B04F0911C04E80FF11D649186EA1D
:1058F00095E00C94A1351F93CF93DF93182F0E944E
:105900005117C0E7DCE20E94251620912403309154
:105910002503232B59F0833061F0823069F088230E
:1059200071F0853079F02CEB35E00EC027ED35E0D5
:105930000BC027EC35E008C02EEC35E005C022ECAA
:1059400035E002C02AEB35E030931C0420931B04A1
:1059500090E081E0890FF901E90FF11DE491982FA2
:10596000E930B9F70E947F2AD0931404C09313043E
:1059700080911A048093190480E00E941A2B909160
:10598000190490931A0487FD12C0E0911B04F09152
:105990001C04E90FF11D8491893031F40E942E2CF2
:1059A000812F0E946017AFCF0E942114ACCFDF91EE
:1059B000CF911F9108958091020390910303039763
:1059C000029718F08EEF9FE702C08FEF9FE72091BC
:1059D0001A0330911B03232B09F4029708950E94A8
:1059E000DB2C0E94B2290C946D141F93CF93DF938C
:1059F000CDB7DEB7A4970FB6F894DEBF0FBECDBF0C
:105A00006FEE7CE288ED95E00E94BC2914E20E94D2
:105A1000DB2C0E94B22980E00E941A2B87FD2BC04C
:105A20000E948729892B41F480E093E00E9467144B
:105A300084E00E943333EBCFE0E0F3E0DE01119627
:105A4000812F01900D928A95E1F70E94712B8111AF
:105A50000AC0FE013196A0E0B3E0812F01900D92C3
:105A60008A95E1F703C084E00E94333380E093E03D
:105A70000E94A614CCCFA4960FB6F894DEBF0FBE3A
:105A8000CDBFDF91CF911F910C94B614811104C04A
:105A900080E59CE00C94893581500C943C18C0E062
:105AA00006E41DE285E10E947F2A1093140400930E
:105AB0001304C093190480E00E941A2BC0E087FDF4
:105AC000F1CFC82F811103C00E94B92BEBCF8FEF0C
:105AD0008C0F0E947B2CE6CF613011F40C942719B7
