:100000000C94E2060C940A070C940A070C940A0755
:100010000C9437090C940A070C940A070C940A07ED
:100020000C940A070C949B090C9467090C947209B0
:100030000C940A070C94180A0C944D0A0C940A07A5
:100040000C9413090C940A070C940A070C940A07E1
:100050000C940A0711141D142214251427143914A2
:100060003614251411142D342F34313435343534ED
:100070003334393437340000000080C64E5A000053
:1000800000007C6B0831000133000028D00780019C
:1000900033004023E80300000000C0AE4E5AFC537A
:1000A00050143FA0540B0000000000BBC436801861
:1000B0006009DC377017000000000000000000003D
:1000C000000044C4FA0E0000000000C4FB0E000053
:1000D000000068C4FD0E00000000AAC5160F000055
:1000E000000040C6190F0000000040C72D0F00009F
:1000F000000040C6190F0000000040C72D0FB000DF
:1001000032006001E8034F0132009E022C01FF0023
:1001100000000A00050400000004090000FF0101BE
:10012000000A040505000004040A0000FF020200A2
:1001300000020506000002040B0000FF030300009C
:10014000060507000006040C0000FF0000000A017D
:100150000513020001040D0000FF0101000A05055E
:1001600013040005040E0000FF0202000003051343
:10017000010003040F0000FF03030000070513083C
:1001800000070410000046000300881370170100E8
:100190003200581B32008813983A88131027000049
:1001A0000000030000000000010080250000004B5B
:1001B00000000096000000E1000000C20100010004
:1001C0000100010001000100B00408075203000013
:1001D0005203B0040807E8030000E803D0079209BF
:1001E000D60600006C07E40C100EC409E40CB80B32
:1001F000100E0410C409A60EAC0D740E6810B80BD6
:100200000A0F890C740ECC10B80B0A0F890C740EEF
:10021000FE10B80B0A0F890C40066C071405400647
:1002200078050100A00FD007010001000100A00F18
:1002300001000100010004000001020202020203A9
:100240000405840C7A0C750C700C6B0C660C610C3C
:100250005C0C570C520C7F0C4E0CF819341A5D1BB9
:10026000ED1BF81B031CF51CF11C251DE81DF41DDE
:10027000F91D921E8F1E991EC01EC71EEA1E7621F2
:1002800046214C211424F81B1624580AB2274F0A81
:100290004129430A4929370AE2272B0AFD271C0A6C
:1002A000CA270000000005C009020044003702FD13
:1002B0007F00001027BB09010049008902000000EF
:1002C000000000D8090400490043040100000001B7
:1002D0000000000000000000000000000000000717
:1002E000C009020044003B02FD7F00001027BB094B
:1002F000010049008D02000000000000D809040040
:10030000490043040100000001000000000000005B
:1003100000000000000000000001B40902004100DC
:100320002D02FD7F0000CC8DAC09020041002F02A0
:10033000FD7F0000CC8DD809040049004304010072
:1003400000000100000000000000000000000000AC
:100350000000170A020041003902FD7F00003075DD
:10036000120A820041006F02FD7F000088130D0A0F
:10037000820041007102FD7F00008813080A82009C
:1003800041007302FD7F00008813030A82004100D0
:100390007502FD7F00008813FE098200410077028C
:1003A000FD7F00008813F909820041007902FD7F7A
:1003B00000008813F409820041007B02FD7F0000E9
:1003C0008813EF09820041007D02FD7F0000881341
:1003D000E909010041005702000000000000E309A4
:1003E000010041005502000000000000D80904008F
:1003F000490043040100000001000000000000006B
:10040000000000000000000006090A0B0C0D0E0F92
:1004100010062122232425262728D109FF7F490001
:100420004504FD7F0000FFFFCE09FF7F0300272862
:10043000000000000000C609FF7F40004704FD7F68
:100440000000FFFF000000000000000000000000AE
:100450000000A10C312D970C1026890CF32B000005
:1004600000003D0BFF7F0200DC05010000000B00D7
:100470003A0B0F0003005C31FE7FF92B0000360BB6
:100480000E8041005003FD7F00008813360B1000E2
:100490004100500332000000CC8D290B0180410047
:1004A0005003FD7FB004D007290B2000410050030A
:1004B000FF7F0100CC8D320B048041006403FD7F7F
:1004C000000088132E0B0F8041005203FD7F0000B7
:1004D00088132E0B10004100520332000000CC8D17
:1004E000240B1F0045004803FF7F6400E8FD200B3C
:1004F0003F0040004C03FF7F0100581B190B1E807A
:1005000040005403FF7F0100581B150B1F004000E3
:100510004E03FF7F010088130E0B1F80400056031F
:10052000FF7F01008813040B0C8048006603010064
:100530000300C800FB0A01004D0064030100000035
:100540000100F60A000248006603FC7FECFF000091
:10055000EA0A00024B006803010001001E00E10AE4
:100560001F004D005A03010000000100D90A0004D9
:100570004A066A030A000A008403CD0A0001440304
:100580005C0364005802AC26C70A3F004C005803C5
:10059000FF7F0000E803BD0A1F004700620301005F
:1005A0000100FA00B10A030049006C0301000000D9
:1005B0000500A70A1F804B006003010001006300D3
:1005C0009C0A1F804D005E03010000000100000036
:1005D000000000000000000000000000420246038E
:1005E0001D0D0E0D060DFC0CF00CE80CD90CCE0CFC
:1005F000BF0CB20C00090003040708090003070838
:1006000009000102030408090001020304050608A9
:100610000909430CFF7F4900220301000000640028
:100620003B0CFF7F02005407010000000400300C67
:1006300001004400260364005802AC26250CFF7F0D
:100640004403280364005802AC261F0CFF7F4D00B2
:100650002A03010000000100170CFF7F40002C035B
:10066000FD7F0100F4010F0CFF7F40002E03FF7F90
:100670000100581BF70BFF7F42003403FF7F0A0085
:10068000983A070CFF7F40003003FD7F0100F40122
:10069000FF0BFF7F40003203FF7F01008813EF0B49
:1006A000FF7F42003603FF7F0A008813E40BFF7FC1
:1006B000410038036400581B3075D90BFF7F4D0093
:1006C0003A03010000000100D30BFF7F0200460740
:1006D000010000000400CB0B0200010042070100F2
:1006E00000000400C20B020002003A0701000000F3
:1006F0000100BB0BFF7F0200320701000000010078
:10070000B20BFF7F02002A07010000000100AC0BC2
:10071000FF7F00000000000000000000000000005B
:10072000000000000000000000002E074403910BB1
:10073000460B36074203530B4A0B3E074003A70BF9
:10074000A10BAA013E034A073C03980B910B8B0BAC
:10075000820B790B58072403980B720B6A0B620B00
:100760005A0B20202D2D202000636865616C692DB7
:10077000636861726765720A76322E30325F32309A
:100780003233313031320063616C69622E20657220
:10079000726F7200706C656173652063616C696271
:1007A0007261746500656570726F6D207265736546
:1007B000740A6572726F723A2000726573657474A0
:1007C000696E6720656570726F6D002020202020A3
:1007D0002020202020202079657300656570726FCD
:1007E0006D2072657365743A005245564552534503
:1007F00020504F4C4152495459006572726F723A01
:1008000000636F6D706C6574653A00A03100000084
:1008100040000000009C32004000000000004066E4
:1008200030FFFFFF7F040000400232800100000023
:10083000000040FD300002000008000040093100C7
:10084000020000080000401D31000200000000000E
:10085000402531FFFFFF7F040000404A2E000000CA
:1008600060000000004E2E000000600000000052FA
:100870002E0000006000000000562E000000200442
:100880000000405A2E00000020040000405E2E00B0
:1008900000002004000040B730FFFFFF7F0400008D
:1008A000409930FFFFFF7F00000040F130FFFFFF65
:1008B0007F000000007A30FFFFFF7F04000000D5BA
:1008C00030FFFFFF7F000000000000FFFFFF7F0000
:1008D000000000250064542F64743D200064563DE0
:1008E000202020006D6178563D0054696E743D00F3
:1008F000206C696D69743D0056696E7075743D00B9
:10090000776972657320523D00626174742E2052C3
:100910003D004C696D6974733A20004E2F410054BC
:100920006578743D004E2F41002520004368434206
:10093000426C446946435374534243594343000154
:100940000101020A1E010318478E01190C0301015F
:1009500001E80301BF0DE80300BD0D640000BB0DFD
:10096000640000B80D640000B60DE80301B30DE8A3
:100970000301B10D010000AF0DE80301BD0D010041
:1009800000A80D640000AB0D010000A90D010000DE
:10099000A90D0100000000010000A60D16191B1A88
:1009A0001C0705062122232425262728566D696E5B
:1009B00075733A0056706C75733A006164633A005F
:1009C00074656D703A004965787065633A00493A1C
:1009D0000076616C75653A0063616C69622E207007
:1009E0002E3A00566F75743A0056312D383A00563B
:1009F00062383A005662373A005662363A0056621A
:100A0000353A005662343A005662333A0056623242
:100A10003A005662313A0056696E3A006578706560
:100A200072742044414E474552210074656D702018
:100A3000696E7465726E0074656D7020657874659A
:100A4000726E00492064697363686172676500496A
:100A50002063686172676500766F6C74616765001A
:100A600062616C616E636520706F727421006261F7
:100A700074746572792100646973636F6E6E656367
:100A80007400636F6E6E6563740064542F64740049
:100A90002D64560056206C696D6974006164617044
:100AA00074206469733A00442F4320726573743A6A
:100AB00000442F43206379636C65733A006361706F
:100AC00020434F66663A0074696D653A007C65782C
:100AD00074726E2054434F3A007C64542F64743A0D
:100AE00000657874726E20543A007C69676E7220DB
:100AF000667273743A007C64563A00656E616220D7
:100B000064563A0062616C2E206572723A006D691B
:100B10006E49643A0049643A006D696E49633A006F
:100B200049633A004361703A0056636F3A00566475
:100B30003A0056733A0056633A00563A00626174BE
:100B4000746572793A0072657600616476616E63ED
:100B500065640073696D706C6500542D70726F6709
:100B6000720054656D706572610070726F677261BA
:100B70006D00616C77617973006578742E20416433
:100B800063006578742E2064656200646562756731
:100B9000006E6F726D616C0064697361626C656494
:100BA0000073657061720074656D700072657365C5
:100BB0007400627574746F6E733A006D656E757350
:100BC0003A007C6F75747075743A007C737065655B
:100BD000643A00554152543A00616463206E6F6973
:100BE00073653A00696E707574206C6F773A006DAA
:100BF00061782050643A006D61782050633A006D4E
:100C000061782049643A006D696E2049643A006D4C
:100C100061782049633A006D696E2049633A006249
:100C20006565703A006469736368206F66663A00B0
:100C30007C66616E2054206F6E3A0066616E206F94
:100C40006E3A006261636B6C696768743A004C4588
:100C500044004E695A6E004C343335004C34333006
:100C6000004C69706F004C696C6F004C69666500E0
:100C700050622020004E694D48004E694364005583
:100C80006E6B6E004E6F6E650072657365742064E6
:100C9000656661756C740063616C6962726174652C
:100CA0000073657474696E6773006F7074696F6E3A
:100CB000730065646974206261747465727900639D
:100CC0006170616369747920636865636B00443E99
:100CD0004320666F726D61740073746F7261676533
:100CE0002B62616C616E630073746F726167650083
:100CF0006661737420636861726765006469736319
:100D000068617267650062616C616E63650063684B
:100D1000617267652B62616C616E63650063686117
:100D2000726765006578742E74656D702E637574D6
:100D30006F66660074696D65206C696D6974006327
:100D400061706163697479206375746F66660069A8
:100D50006E707574205620746F206C6F7700485742
:100D6000206661696C7572650062616C616E6365B5
:100D70007220646973632E00696E742E74656D70E1
:100D80002E6375746F666600626174746572792093
:100D9000646973632E006E6F6C696D697400206EF8
:100DA0006F00796573005500006D00432F6D0025BD
:100DB00000F40041680043005768005700560041A6
:100DC0000000910B11241FBECFE5D8E0DEBFCDBFE0
:100DD00010E0A0E6B0E0EEE5F8E702C005900D9265
:100DE000AA38B107D9F724E0AAE8B0E001C01D9203
:100DF000A23CB207E1F716E0C2EED6E004C02197AC
:100E0000FE010E94A73BC13ED107C9F70E9497127D
:100E10000C942D3C0C9400000E94483940E062E0A4
:100E200080E10E9400390E9497090E940C0A0C94EC
:100E3000AC07CF92DF92EF92FF92482F282F30E03D
:100E4000A0E0BDE70E94AD3B6B017C01A4E6B0E0F1
:100E5000A41BB10924E630E00E94BC3B6C0D7D1D53
:100E60008E1D9F1D24E630E040E050E00E94663B6E
:100E7000B9018DE0FF90EF90DF90CF900C94F609D0
:100E8000882311F0909A089590980895811105C0D3
:100E9000939AC498969A929A08959398C49A0895AA
:100EA000811102C0969A089596980895811102C002
:100EB000929A089592980895BC018EE00C94F609D8
:100EC000BC018EE00C94F60980FF02C0C09A01C0FC
:100ED000C09881FF02C0C19A01C0C19882FF02C0C0
:100EE000C29A01C0C29883FF02C0C39A01C0C398CE
:100EF00084FF02C0DE9A01C0DE9885FF02C0DF9A3F
:100F000001C0DF9886FF02C0AE9A01C0AE9887FF8D
:100F100002C0AF9A0895AF98089580E00E944607F6
:100F200080E00E94400780E00E94820980E00E94E9
:100F300064078C9A8B9A889A8F9AB89AB99ABA9AB7
:100F4000BB9AD69AD79AA69AA79ABC9A8D9A8E9A45
:100F50008D9A8A9A08950895D598D498DD98DC984A
:100F6000BF9ABE9ABD9A8EEA86B9369A08959C01B8
:100F7000E0919500E33119F18FB7F894F0E0DF01CB
:100F8000AA0FBB1FAB55BD4F11963C932E938FBF3D
:100F900080918D008823F9F0EE0FFF1FEE0FFF1FE9
:100FA000E553FD4F80819181A281B381820F931F10
:100FB000A11DB11D80839183A283B3830895909175
:100FC000960080918A00323D10F4982B02C09095D3
:100FD000982390938A0008950E9483249093C802D6
:100FE0008093C7020E94531D9093CA028093C90246
:100FF00080918D00882309F485C00E94832440914C
:101000000F03509110036091110370911203480F68
:10101000591F611D711D40930F035093100360937E
:101020001103709312030E94531D409113035091BA
:1010300014036091150370911603480F591F611D29
:10104000711D409313035093140360931503709321
:1010500016038091170390911803019709F050C06F
:101060008091D3029091D402A091D502B091D60282
:10107000B695A795979587958093D3029093D402C0
:10108000A093D502B093D6028091CB029091CC026E
:10109000A091CD02B091CE02B695A7959795879570
:1010A0008093CB029093CC02A093CD02B093CE025A
:1010B0008091CF029091D002A091D102B091D20242
:1010C000B695A795979587958093CF029093D00278
:1010D000A093D102B093D2028091D7029091D8020E
:1010E000A091D902B091DA02B695A7959795879508
:1010F0008093D7029093D802A093D902B093DA02DA
:101100000C94730F089580913A0390913B03892BBF
:10111000F1F0909192009923D1F021E030E000901D
:101120008F0002C0220F331F0A94E2F74091170389
:1011300050911803842F8F703FB7F8944BB35BB373
:10114000252B2BBB890F8A95F1F74BBB3FBF089529
:1011500080918C008F5F883108F080E080938C0054
:1011600085E0EEE8F0E0A3E9B0E001900D928A9509
:10117000E1F760918C006F5F683108F060E085E016
:10118000689FB0011124625F7E4F45E050E08EE819
:1011900090E00E94D63B80918C0081110CC00E948F
:1011A000EC07209117033091180381E0232B09F4F9
:1011B00080E080938D00089584B125B190918B00DB
:1011C000933020F090E0922B0E94B70780918B0023
:1011D00091E0980F90938B008D30B9F08031B9F089
:1011E00081111DC080918E0087FD19C03FB7F89412
:1011F00028B390918E0040E2949FC0011124922F59
:101200009F71892B88BB3FBF08950C948308809100
:101210008F00806287B910928B000C94A808089503
:1012200080918A0008951F920F920FB60F92112499
:101230002F933F934F935F936F937F938F939F93DE
:10124000AF93BF93EF93FF930E94DC08FF91EF9160
:10125000BF91AF919F918F917F916F915F914F91CE
:101260003F912F910F900FBE0F901F9018951F92D6
:101270000F920FB60F9211242F933F934F935F93CA
:101280006F937F938F939F93AF93BF93EF93FF934E
:101290000E946B34FF91EF91BF91AF919F918F911D
:1012A0007F916F915F914F913F912F910F900FBE62
:1012B0000F901F90189588E085BD85B5846085BD29
:1012C00014BC8CE783BD89B7806889BF08951F92DD
:1012D0000F920FB60F921124979A0F900FBE0F9096
:1012E0001F9018951F920F920FB60F9211248F9393
:1012F00097988091980082BF8F910F900FBE0F90AA
:101300001F901895811104C013BE12BE97980895BE
:1013100090E09595879528E7280F209398008858A6
:101320009E4F959587958CBF8CE483BF089589B7B0
:10133000836089BF08951F920F920FB60F921124F8
:101340002F933F938F939F9380919F009091A00044
:1013500020919B0030919C00820F931F90939C00E2
:1013600080939B0080919D0090919E002091990018
:1013700030919A00820F931F90939A008093990066
:101380002FB7F89480919B0090919C0035E0969542
:1013900087953A95E1F79BBD8ABD80919900909120
:1013A0009A0035E0969587953A95E1F799BD88BD05
:1013B0002FBF80919B0090919C008F7199279093F3
:1013C0009C0080939B008091990090919A008F716E
:1013D000992790939A00809399009F918F913F91C4
:1013E0002F910F900FBE0F901F9018959FB7F894F4
:1013F0008E3039F47093A00060939F008FB58068A1
:1014000008C08D3039F470939E0060939D008FB5B5
:1014100080628FBD9FBF089580E094E097BD86BD38
:1014200082E08FBD89E18EBD89B7846089BF089550
:101430001F920F920FB60F9211242F934F935F9329
:101440008F939F93EF93FF935A991AC02CB1809179
:10145000B7019091B801019699274091B901509137
:10146000BA018417950769F0E091B701F091B801CE
:10147000E954FF4F20839093B8018093B70101C0D6
:101480008CB1FF91EF919F918F915F914F912F912F
:101490000F900FBE0F901F9018951F920F920FB6CE
:1014A0000F9211242F933F938F939F93EF93FF936A
:1014B0002091B7013091B8018091B9019091BA01A2
:1014C0002817390711F4559812C0E091B901F0912D
:1014D000BA01E954FF4F20818091B9019091BA017E
:1014E000019699279093BA018093B9012CB9FF9185
:1014F000EF919F918F913F912F910F900FBE0F9081
:101500001F901895CF92DF92EF92FF920F931F9347
:10151000CF93DF93EC016A017B014115514E6105C8
:10152000710509F1E885F98581E090E00C8802C039
:10153000880F991F0A94E2F7808360E079E08DE3D9
:1015400090E0A70196010E94663B89019A01015033
:1015500011092109310936952795179507959801A5
:1015600001151041A8F0E885F985108260E874E85B
:101570008EE190E0A70196010E94663BDA01C90165
:101580000197A109B109B695A795979587959C01F3
:10159000EC81FD813083EE81FF8120831D8AEA8505
:1015A000FB85408181E090E09C01098802C0220F08
:1015B000331F0A94E2F7242B2083EA85FB854081C0
:1015C0009C010A8802C0220F331F0A94E2F7242BE1
:1015D0002083EA85FB8520810B8802C0880F991F34
:1015E0000A94E2F7809582238083DF91CF911F9147
:1015F0000F91FF90EF90DF90CF900895CF93DF93FE
:10160000FC0182819381EC01D395DC01AE5FBE4F7A
:10161000288139818D919C91119728173907C1F73D
:10162000A285B3853C9181E090E0AC01018802C0C5
:10163000440F551F0A94E2F7242F209523232C935F
:10164000A285B3853C91AC01028802C0440F551FAE
:101650000A94E2F7242F209523232C93A285B385A7
:101660002C91038802C0880F991F0A94E2F7809595
:1016700082238C9380819181FC01EE5FFE4F20815B
:101680003181329731832083DF91CF910895FC011E
:101690008589882329F0A085B1858C9186FFFBCFB1
:1016A000158A08950F931F93CF93DF93FC01A281B6
:1016B000B3818D011395E80188819981019699275D
:1016C000AD014E5F5E4FEA01288139818217930791
:1016D000D1F3E80128813981A20FB31F6C93A28155
:1016E000B381B39511969C938E93A285B3852C916B
:1016F00081E090E0038802C0880F991F0A94E2F706
:10170000822B8C9381E0858B0084F185E02D808194
:101710008064808381E090E0DF91CF911F910F91F1
:101720000895E1EAF0E087EB90E091838083938372
:10173000828380E490E09583848329E230E03783DC
:1017400026832BE230E0318720872AE230E033879E
:101750002287958784878CE290E09787868784E04C
:10176000808B83E0818B87E0828B85E0838B81E0B7
:10177000848B0895CF93DF931F92CDB7DEB7E091AE
:10178000BE04F091BF04309711F4E2ECF4E0CE0116
:1017900001962EEB8E179F0710F02193FBCF0F9031
:1017A000DF91CF910895CF93DF9300D0CDB7DEB70F
:1017B0002091BE043091BF042115310511F422ECB3
:1017C00034E0CE010196821B930B0F900F90DF91B6
:1017D000CF910895CF93DF931F92CDB7DEB72091BD
:1017E000BE043091BF042115310511F422EC34E020
:1017F000F901BE016F5F7F4FCF01821B930B6E1704
:101800007F0728F040814E3B11F43196F5CF0F90C1
:10181000DF91CF910895009741F0EFE9FFE0319714
:10182000F1F700C000000197F6CF089584369105C6
:1018300038F064E670E00E94523BCB010C940B0C34
:10184000019728F025E32A95F1F70000F9CF0895D4
:101850006AE070E00E94523BCB010C94160CE82F1A
:10186000F0E0EE0FFF1FE158FD4F80819181089558
:10187000E82FF0E0EE0FFF1FE35DFD4F80819181C7
:1018800008952FB7F894E82FF0E0EE0FFF1FEB5507
:10189000FD4F808191812FBF089580911D03089590
:1018A0008091D9019091DA0108958091C7019091BA
:1018B000C80108958091C9019091CA01089580934B
:1018C000C4010895E82FF0E0EE0FFF1FE552FE4F30
:1018D00080819181089581E080931B030895633195
:1018E00010F4423040F021E030E0FC0133832283E9
:1018F00031832083089550E0460F511D460F511D3E
:10190000440F551F440F551FBA01625F7F4F44E0DB
:1019100050E00C94E83B9A01833190F4623080F4FB
:1019200070E0680F711D680F711D660F771F660FDD
:10193000771F625F7F4F44E050E0C9010C94063C82
:101940000895EF92FF921F93CF93DF9300D000D0C2
:10195000CDB7DEB786E7E82E80E0F82E10E0F7017D
:1019600085919591A591B49189839A83AB83BC832A
:10197000AE014F5F5F4F60E0812F0E948B0CF7013B
:10198000349685919591A591B49189839A83AB837F
:10199000BC83AE014F5F5F4F61E0812F0E948B0CD3
:1019A0001F5F88E0E80EF11C1331C9F681E00E9448
:1019B0000B130F900F900F900F90DF91CF911F910D
:1019C000FF90EF9008958091190390911A030C9461
:1019D000451581E020915B0230915C022531310593
:1019E00009F080E008958091590290915A0208957B
:1019F0008091550290915602089580915F029091D6
:101A0000600208958091070290910802039750F0B8
:101A100080910D0290910E02039720F083E090E0F8
:101A20000C946E1A80E008952FB7F89480E090E04F
:101A3000FC01EE0FFF1FEE0FFF1FE553FD4F10825D
:101A400011821282138201968331910589F788E20F
:101A500090E0909318038093170310921C032FBFFC
:101A60000895CF93CFB7F8941092D8011092D70170
:101A70001092D3011092D4011092D5011092D60188
:101A80001092CF011092D0011092D1011092D20188
:101A90001092CB011092CC011092CD011092CE0188
:101AA0000E9493349093C6018093C501CFBFCF911C
:101AB0000895EBEDF1E01192119282E0ED32F8071A
:101AC000D1F70895CF93CFB7F89481E090E0909349
:101AD00018038093170380931C030E94590DCFBFF6
:101AE000CF910895CF93DF930E94620DC091D901E9
:101AF000D091DA018091D9019091DA01C817D90704
:101B000029F48AE090E00E94BE34F4CFDF91CF91B7
:101B1000089510921D0380E00C944607CF93DF9345
:101B200081E00E94410CEC0180E00E94410C8C1786
:101B30009D0718F4C81BD90B02C0C0E0D0E081E0BB
:101B4000C93ED34008F480E0DF91CF9108958F9291
:101B50009F92AF92BF92CF92DF92EF92FF920F933C
:101B60001F93CF93DF93CDB7DEB728970FB6F894C6
:101B7000DEBF0FBECDBF6115710509F44FC05B011B
:101B8000F82E40E0682FCE0105960E946F0C41E0D0
:101B90006F2DCE0101960E946F0C2B813C81C901F3
:101BA000A0E0B0E0CF80D884E12CF12C9C01AD0105
:101BB0002C193D094E095F09C501A0E0B0E08D80F8
:101BC0009E80A12CB12CBC01CD01681979098A092C
:101BD0009B090E94363B29813A81890120E030E04F
:101BE000A9019801281939094A095B090E94883B13
:101BF000DA01C9018C0D9D1DAE1DBF1DB7FD0AC0C8
:101C0000009721E0A207B1055CF08FEF9FEFA0E005
:101C1000B0E006C080E090E0DC0102C080E090E02F
:101C200028960FB6F894DEBF0FBECDBFDF91CF91DF
:101C30001F910F91FF90EF90DF90CF90BF90AF90EA
:101C40009F908F9008958F929F92AF92BF92CF9264
:101C5000DF92EF92FF920F931F93CF93DF93CDB755
:101C6000DEB728970FB6F894DEBF0FBECDBF611563
:101C7000710509F44FC05B01F82E40E0682FCE01DA
:101C800005960E946F0C41E06F2DCE0101960E94D7
:101C90006F0C29813A81C901A0E0B0E0CD80DE80DF
:101CA000E12CF12C9C01AD012C193D094E095F0975
:101CB000C501A0E0B0E08F809884A12CB12CBC01BC
:101CC000CD01681979098A099B090E94363B2B814D
:101CD0003C81890120E030E0A901980128193909E7
:101CE0004A095B090E94883BDA01C9018C0D9D1DE0
:101CF000AE1DBF1DB7FD0AC0009721E0A207B105C8
:101D00005CF08FEF9FEFA0E0B0E006C080E090E0D5
:101D1000DC0102C080E090E028960FB6F894DEBFA8
:101D20000FBECDBFDF91CF911F910F91FF90EF902C
:101D3000DF90CF90BF90AF909F908F90089582508A
:101D40008E3130F4E82FF0E0E459FF4F80810895A0
:101D500081E00895CF93853149F481E020915B02C1
:101D600030915C022531310589F413C0C82F0E94DF
:101D70009F0E813069F4EC2FF0E0EE0FFF1FE35D62
:101D8000FD4F208131812139314018F480E001C0BC
:101D900081E0CF910895EF92FF920F931F93CF931D
:101DA000C1E2EE24E394F12C00E010E08C2F0E94BD
:101DB000AA0E882311F00E291F29EE0CFF1CCF5FFD
:101DC000C932A1F7C801CF911F910F91FF90EF90F9
:101DD00008951F93CF93DF931F92CDB7DEB7182FCF
:101DE00069830E949F0EE12FF0E0EE0FFF1FE35D7D
:101DF000FD4F482F6981808191810F90DF91CF91B4
:101E00001F910C9489372FB7F8946091C00170919D
:101E1000C1018091C2019091C3012FBF20E03DE735
:101E200040E050E00E94663BC90108952FB7F89446
:101E30008091BC019091BD01A091BE01B091BF0104
:101E40002FBFBC01CD01969587957795679520E0CA
:101E50003DE740E050E00E94663BC9010895409193
:101E60005F02509160028091C0019091C101A091E8
:101E7000C201B091C301840F951FA11DB11D8093B4
:101E8000C0019093C101A093C201B093C30180919E
:101E9000BB01815019F08093BB01089582E38093C8
:101EA000BB012091550230915602DA010E94AD3BF0
:101EB00024E630E040E050E00E94663B8091BC01A7
:101EC0009091BD01A091BE01B091BF01820F931FFF
:101ED000A41FB51F8093BC019093BD01A093BE01C8
:101EE000B093BF0108958091170390911803892B37
:101EF00049F080911703909118030197909318036C
:101F000080931703089590E0880F991FFC01E35D0B
:101F1000FD4F208131816217730718F4261B370BA0
:101F200004C0AB01421B530B9A01FC01E552FE4F6A
:101F30002730310518F01182108206C020813181CE
:101F40002F5F3F4F31832083FC01E35DFD4F7183A1
:101F500060830895CF93DF938FB7F8941092C001F8
:101F60001092C1011092C2011092C3011092BC01E3
:101F70001092BD011092BE011092BF0192E39093A6
:101F8000BB018FBFCDE2D2E068A579A58EE10E94AA
:101F9000830F8E859F859093C8018093C7010E940F
:101FA000620D0E94310D1092CA011092C90160E0C9
:101FB00070E08BE10E94830F60E070E08DE10E9491
:101FC000830F60E070E08FE1DF91CF910C94830F7D
:101FD0001092DA011092D9010C94AA0F0C94E80F18
:101FE00090911D0391110FC00E9446070E94E80FB7
:101FF00081E080931D03809360000E94720D0E9417
:10200000AA0F10921B030895EF92FF920F931F9354
:10201000CF93DF93C0912D02D0912E0280912F0299
:10202000909130028C179D0718F4C81BD90B02C081
:10203000C0E0D0E0BE0184E10E94830F3FE3E32EC5
:1020400032E0F32E11E2F701619171917F01812F4E
:102050000E94830F1F5F1932B1F780911B0381111A
:1020600006C00E94CB0E90931A0380931903E09050
:102070001903F0901A0380E090E000E010E041E0E6
:1020800050E09A01082E02C0220F331F0A94E2F793
:102090002E213F21232B49F0FC01EE0FFF1FE159B8
:1020A000FD4F20813181020F131F01968830910569
:1020B00041F7B80185E10E94830F0115110581F0F8
:1020C0000C171D0720F4CE01801B910B03C0C80123
:1020D0008C1B9D0B893B9B4018F4E80115E103C064
:1020E00014E1E12CF12CBE0186E10E94830FB701BF
:1020F00088E10E94830F612F70E087E10E94830FC7
:102100000E94471D882329F0009133021091340268
:102110000BC00E947724882329F00091310210918E
:10212000320202C000E010E09801DE010E94AD3BE7
:1021300020E137E240E050E00E94663BB9018AE1CD
:102140000E94830FB80189E10E94830F0E94030F50
:10215000BC018BE10E94830F0E94160FBC018CE131
:10216000DF91CF911F910F91FF90EF900C94830F0F
:102170001F93CF93DF93182FC82FD0E0FE01EE0FEF
:10218000FF1FEE0FFF1FE553FD4F608171818281BC
:10219000938120E332E040E050E00E94663BCC0FA8
:1021A000DD1FC158DD4F39832883B901812F0E947B
:1021B000A70DBC01812FDF91CF911F910C94830F4C
:1021C0004F925F926F927F928F929F92AF92BF9247
:1021D000CF92DF92EF92FF920F931F93CF93DF93F3
:1021E000CDB7DEB728970FB6F894DEBF0FBECDBFD0
:1021F0000E9493342091C5013091C601821B930B3C
:102200008133954708F4AAC04FB7F8942091D701BD
:102210003091D801A0E3B2E00E94AD3B6B017C019C
:10222000F694E794D794C7944090D3015090D4018A
:102230006090D5017090D6016091CF017091D0016E
:102240008091D1019091D2010091CB011091CC01EC
:102250002091CD013091CE0109831A832B833C83D9
:102260004FBF6D837E838F8398870E94310D2091AD
:10227000C9013091CA012F5F3F4F3093CA012093AB
:10228000C9016D817E818F819885A70196010E9489
:10229000663B49015A01C301B201A70196010E94A0
:1022A000663BB90180E00E94A70D3C01B40181E0CA
:1022B0000E94A70D8615970520F45301A81AB90AA4
:1022C00002C0A12CB12C8090690290906A02A814DF
:1022D000B90420F48091C401811104C0B5018EE1DC
:1022E0000E94830FB501681979098DE10E94830F5F
:1022F00069817A818B819C81A70196010E94663B4E
:10230000B90187E00E94A70D2091C7013091C80153
:102310009093C8018093C701821B930BBC01660F89
:10232000771F8FE10E94830FB60180E228960FB6D7
:10233000F894DEBF0FBECDBFDF91CF911F910F91FB
:10234000FF90EF90DF90CF90BF90AF909F908F90D5
:102350007F906F905F904F900C94830F28960FB6EC
:10236000F894DEBF0FBECDBFDF91CF911F910F91CB
:10237000FF90EF90DF90CF90BF90AF909F908F90A5
:102380007F906F905F904F900895CF932FB7F89400
:1023900080911703909118032FBF892B09F091C0EA
:1023A00080911C0381118AC080911D03882309F448
:1023B0007EC08091D9019091DA0101969093DA0163
:1023C0008093D9018091CB029091CC02A091CD0253
:1023D000B091CE02B695A795979587954091D30178
:1023E0005091D4016091D5017091D601840F951F51
:1023F000A61FB71F8093D3019093D401A093D5015A
:10240000B093D6018091CF029091D002A091D102D9
:10241000B091D202B695A795979587954091CF0137
:102420005091D0016091D1017091D201840F951F1C
:10243000A61FB71F8093CF019093D001A093D10125
:10244000B093D2018091E7029091E802A091E90255
:10245000B091EA02B695A795979587954091CB01E3
:102460005091CC016091CD017091CE01840F951FE8
:10247000A61FB71F8093CB019093CC01A093CD01F1
:10248000B093CE018091D7019091D801019690939D
:10249000D8018093D7010E94E010C0E08C2F0E94E9
:1024A000B810CF5FC331D1F70E94041007C08091EC
:1024B0006000882319F085E00E94B810CF910C9439
:1024C000140DCF9108950C94C5110E948D07789436
:1024D0000E940C070E945B090E9413250E94E31DC5
:1024E0000E94EE0F0E94BA0B0E94E6140E941E2F5B
:1024F0000C94FC2F80E00E948D1780E00C94441413
:1025000081E00E94F00F84E10E94AA0E882351F01E
:102510000E94020D882331F00E94E30C0E947A127F
:102520000C94890D0E94DE34882369F3F9CF0E9450
:1025300065120E94A0130E9480120E948B2D80E0E1
:1025400090E00895EF92FF920F931F93CF938C0129
:102550007B0141110E94273CC5E0C15059F0C801E0
:102560000E94003C8E159F0539F084E690E00E94A1
:10257000AA34F3CF81E001C080E0CF911F910F9189
:10258000FF90EF900895EF92FF920F931F93CF93D8
:10259000DF938C017C01E60EF71ECFEFDFEF0E1507
:1025A0001F05A9F0C8010E94F83BC82788E09E01DA
:1025B000369527959C2FE90190FF04C091E0C9272B
:1025C00090EAD927815099F70F5F1F4FE8CFCE01CE
:1025D000DF91CF911F910F91FF90EF900895EF92AF
:1025E000FF920F931F93CF93DF931F92CDB7DEB768
:1025F0008C017B0149830E94C3124981BC01C8013F
:102600008E0D9F1D0F90DF91CF911F910F91FF9025
:10261000EF900C94A212482F68E970E08EE090E0F1
:102620000C94EF12482F60E273E088EA90E00C947B
:10263000EF12482F64E270E08AEC93E00C94EF1202
:102640000F931F93CF93DF93D82F182F1170412F23
:1026500063E678E680E090E00E94A212C82F412F46
:102660006CE679E682E090E00E94A2128111C1E05E
:10267000412F62E070E184E090E00E94A21281119B
:10268000C1E0412F68E070E086E090E00E94A21275
:102690008111C1E0D1FB002700F9402F6AE070E012
:1026A00088E090E00E94A2128111C260D2FB112743
:1026B00010F9412F63E070E08AE090E00E94A212DE
:1026C0008111C460D3FBDD27D0F94D2F6CE070E0A1
:1026D0008CE090E00E94A2128111C86001110E945A
:1026E000A10C80E00E940B138111C26011110E94A5
:1026F000661880E00E9412138111C460D1110E94FB
:10270000011580E00E9419138111C8608C2FDF91A0
:10271000CF911F910F910895CF93C82F0E94B22F90
:10272000C0FDC260C1FDC460C2FDC8600E94CC2F64
:102730008C2F0E942013682F8C2FCF910C94D02FB8
:1027400080E00E942013882321F00E948C1380E0F7
:10275000089581E0089580E00E94201381600C9428
:102760008C13CF930E94142F8CE692E09093A103D8
:102770008093A003C1E0C0939F03109298030E942E
:102780006116823011F4C09398030E94B01C91E04E
:10279000813009F090E0892FCF91089561E081E0C8
:1027A0000E941E1C88E792E09093A1038093A003EF
:1027B000089561E081E00E941E1C84E892E09093FD
:1027C000A1038093A003089560E082E00E941E1C94
:1027D00086E692E09093A1038093A00308950E945F
:1027E000B61D88EE93E00E94971D82E390E00E9460
:1027F000BE340E94C91D61E081E00E941E1C80E67B
:1028000092E09093A1038093A003089510929803FF
:1028100090E08930910598F5FC01E65DFF4F0C943E
:10282000A73B0E946116811102C00C94D9130E942B
:102830006116853029F40C94EF1381E0809398039E
:102840000C94CE138AE592E016C00C94E4130E9417
:10285000CE1380914C0390914D0365E070E00E948F
:10286000523B70939A0360939903089581E080939B
:1028700098038EE792E09093A1038093A0030895BC
:102880000E9400200C94AA0FCF93C82F0E944014DE
:102890008C2F0E940614C73029F0C83059F463E029
:1028A00081E005C060916C03660F615080E0CF91BC
:1028B0000C94C918CF910C94B01CCF93C82F0E94D0
:1028C000FE26882371F1C09321038C2F0E940614E9
:1028D00010921F0310921E0383E0809320030E9436
:1028E0008F3981E00E94F00F0E94B113882391F08C
:1028F00081E0809320030E9425200E94142F1092D3
:102900009F0385E00E947733809121030E94441445
:102910000E945E200E94890D0E949F39CF910C94E5
:102920001D2FCF910895DC015C96ED91FC915D9790
:10293000EE0FFF1FEE0FFF1FE655FE4F65917591DD
:1029400085919491089544E250E066E871E00C941A
:10295000D63B80912C0390912D0320912E03309132
:102960002F032817390720F490932F0380932E0309
:1029700080912E0390912F0389359B4130F088E59B
:102980009BE190932F0380932E03809130039091CD
:10299000310320913203309133032817390720F493
:1029A00090933303809332038091320390913303E9
:1029B0008938934130F088E893E190933303809312
:1029C00032030895FC0180810C94190744E250E021
:1029D0006AEC73E082E293E00E94E83B82E293E0DB
:1029E0000C94E21444E250E06AEC73E082E293E07B
:1029F0000E94063C81E00E94191382E293E00C944D
:102A0000E21482E293E00E94A3140C94F214FC01FD
:102A10000994FC01859194910C940715EF92FF9213
:102A20000F931F93CF93DF93EC017B018A0185E025
:102A30000E94380C8E159F0518F4188281E007C09B
:102A40000817190718F481E0888301C080E0DF913E
:102A5000CF911F910F91FF90EF900895282F81E063
:102A600090E03AE0215038F0AC01349FC001359F2E
:102A7000900D1124F7CF0895009719F024F48FEFEB
:102A8000089580E0089581E008959C0190E180E040
:102A900020FD8F5F369527959150D1F70895CF92FD
:102AA000DF92EF92FF92CF9397FF08C090958095A9
:102AB000709561957F4F8F4F9F4F07C061157105CE
:102AC0008105910511F0C0E001C0C1E02AE0C22EED
:102AD000D12CE12CF12C611571058105910541F096
:102AE000CF5FA70196010E94883BCA01B901F3CFCD
:102AF0008C2FCF91FF90EF90DF90CF900895BC0185
:102B000080E090E00C944F15CF92DF92EF92FF920D
:102B10000F931F93CF93DF937C016B01FA01DC01CC
:102B2000CD91DC91CE01B8010E94523B009731F06B
:102B30001C141D0494F4081B190B03C01C141D0461
:102B40006CF4C901801B910BC817D90720F4F80158
:102B5000EC0FFD1F0CC0F9010AC08C01C8018E0FDB
:102B60009F1F8C179D0718F4FE01E01BF10BD70186
:102B7000ED93FC93DF91CF911F910F91FF90EF9018
:102B8000DF90CF900895AF92BF92CF92DF92EF92F5
:102B9000FF920F931F93CF93DF93EC017B016A01A8
:102BA00059016881798180E090E00E944F15823060
:102BB00020F082500E942E1502C081E090E08C012E
:102BC0009501A601B701CE010E948415DF91CF9136
:102BD0001F910F91FF90EF90DF90CF90BF90AF903B
:102BE00008952FEF3FEF40E050E00C94C3150E9492
:102BF000DE348111FCCF0E94DE348823E1F3089596
:102C0000209146033091470395E0929FF001939FF6
:102C1000F00D1124E80FF11DEE0FFF1FE254FE4FDF
:102C20008591949108951F93CF93DF93182FC091AE
:102C30004A03D0914B030E9400169C01123061F4AC
:102C40008091460390914703029731F4C730D10534
:102C500018F0219720EB34E02C9FC0012D9F900DA0
:102C60003C9F900D1124DF91CF911F9108950F93F8
:102C70001F93CF93C82F00914A0310914B030E94DA
:102C80000016C13029F480915003909151030DC07A
:102C9000C23029F4809152039091530306C0C3308F
:102CA00021F480916403909165039C01209FC001F1
:102CB000219F900D309F900D1124CF911F910F9166
:102CC0000895E0914603F0914703EA5CFD4F84913B
:102CD0000895CF93DF9300D000D0CDB7DEB7A09199
:102CE0004803B091490320916203309163030E942D
:102CF000AD3B24E630E040E050E00E94663B293ED8
:102D00008DEF38074105510550F429833A834B83F1
:102D10005C830E94611629813A81853021F428EE76
:102D20003DEF40E050E0C9010F900F900F900F90E1
:102D3000DF91CF910895E6E4F3E020A131A18481F1
:102D40009581AC01249FC001259F900D349F900D6B
:102D50001124089582E00E941316BC01809134036F
:102D6000909135030E94F01820912E0330912F038B
:102D70002817390708F4C901089582E00E94131644
:102D8000BC0180913603909137030E94F018209186
:102D90003203309133032817390708F4C901089525
:102DA00080914603909147030A97029750F081E083
:102DB0000E940016BC018CEC9DE80E94523BCB01A6
:102DC000089581E090E0089580914803909149032F
:102DD0008436910530F484E690E090934903809323
:102DE00048038091480390914903893E9D4F30F0FC
:102DF00088EE9DEF90934903809348038091580398
:102E000090915903893E934030F088EE93E090937F
:102E10005903809358030E94D01620914A033091A1
:102E20004B038217930720F490934B0380934A033C
:102E300080914A0390914B03892B31F481E090E01B
:102E400090934B0380934A030E94AA1620914C034F
:102E500030914D038217930720F490934D03809394
:102E60004C0380914C0390914D0320915403309179
:102E700055038217930720F49093550380935403CE
:102E80000E94BD1620914E0330914F038217930785
:102E900020F490934F0380934E0320914E03309182
:102EA0004F0380915603909157032817390720F458
:102EB000309357032093560380912C0390912D0358
:102EC00040914C0350914D034817590720F49093BB
:102ED0004D0380934C034091540350915503481780
:102EE000590720F490935503809354038091300345
:102EF000909131032817390720F490934F03809362
:102F00004E0320915603309157032817390720F4B8
:102F10009093570380935603089528E2829FC0013F
:102F20001124BC0168557F4F48E250E086E493E0ED
:102F30000E94E83B0C94E41628E2829FC001112411
:102F4000BC0168557F4F48E250E086E493E00E9460
:102F5000063C81E00C9412130E94E416E6E4F3E0D0
:102F6000868197816AE070E00E94523B778766878E
:102F700008950E94E416E6E4F3E0808591856AE016
:102F800070E00E94523B718B608B08950E94E416A2
:102F9000809148039091490390934D0380934C0393
:102FA00020914603309147032330310541F4969533
:102FB00087959695879590934D0380934C030E9437
:102FC000AC17809148039091490390934F038093ED
:102FD0004E030C94B91781E00E94001690935103A0
:102FE0008093500382E00E940016909353038093D5
:102FF00052038091460390914703892B61F580ED40
:1030000097E0909349038093480383E090E0909386
:103010004B0380934A0388EE93E090935903809387
:10302000580310925B0310925A0380E797E1909344
:103030005D0380935C0310925F0310925E038EE148
:1030400090E0909361038093600388E790E0909311
:103050006303809362030E946116811128C081E09E
:1030600090E0909365038093640380914603909170
:103070004703029719F48BEF9FEF02C081EF9FEF98
:10308000909367038093660383E090E090936903D5
:103090008093680384E690E090936B0380936A03C7
:1030A00085E090E090936D0380936C030DC088E001
:1030B00090E0909367038093660383E00E9400167C
:1030C00090936503809364030C94C617CF9310927A
:1030D0004703109246030E94EB17C0E08C2F0E941A
:1030E0009C17CF5FC431D1F781E0CF910C941213BC
:1030F000CF93C82F0E948D1780914603909147036C
:10310000892B21F00E949A310E940D36809146034E
:10311000909147038A30910571F08B30910569F0E9
:10312000892BC1F48C2F90E001960E94AD358AE383
:10313000CF910C94863589E00AC065E080914C03FC
:1031400090914D030E9410380E940D3684E0CF917B
:103150000C945C3167E080914803909149030E9490
:103160000D388FE20E94863580914A0390914B037F
:10317000CF910C94AD3580916003909161030E94D2
:10318000B41E82E792E09093A1038093A0030C9475
:10319000B01CCF93C62F91E090939F0380936E0352
:1031A00080916E038C1302C010929F0380FD02C0B9
:1031B00083E001C080E00E944414813079F4909152
:1031C0009F03992359F080916E038F5F80936E0364
:1031D0000E9440140E94BB18813011F3CF910895D2
:1031E000AB019C01A8EEB3E00E94AD3B9A0140E028
:1031F00050E00E94663BA8EEB3E00E94C33B24E689
:1032000030E040E050E00E94663B2115310581E04E
:103210004807510520F02FEF3FEF40E050E0C90193
:1032200008958091950390919603892B99F40E94BB
:103230004D0C882381F00E94500C20916F03309137
:103240007003821B930B9C0181E02330310518F041
:1032500080E0089581E008958F5D0C94380CCF9242
:10326000DF92EF92FF921F93CF93DF93C0E0D0E005
:10327000EE24EA94FE2C1FEFCC24C394D12C209191
:10328000190330911A03A6018C2F0C2E02C0440F93
:10329000551F0A94E2F724233523232B39F00E948B
:1032A0002C198E159F0510F41C2F7C012196C83017
:1032B000D10529F7812FDF91CF911F91FF90EF90DA
:1032C000DF90CF900895CF93DF93209195033091B5
:1032D0009603232B21F4DF91CF910C942C1990911C
:1032E0007303C82FD0E0992391F00E942C19CC0FC2
:1032F000DD1FFE01EC58FC4FCC57DC4F20813181A3
:1033000048815981241B350B820F931F06C0CC0FB7
:10331000DD1FCC58DC4F88819981DF91CF910895D2
:10332000CF92DF92EF92FF920F931F93CF93DF9391
:1033300000E010E0C0E0D0E0EE24EA94FE2CCC24C3
:10334000C394D12C8091190390911A039601002EF9
:1033500002C0220F331F0A94E2F782239323892BA2
:1033600059F0802F0E946319C817D90708F4EC019F
:103370008E159F0508F47C010F5F1F4F0830110563
:1033800009F7CE19DF0981E02091660330916703C8
:103390002C173D0708F080E0DF91CF911F910F912E
:1033A000FF90EF90DF90CF900895CF93DF93EC01E3
:1033B0008091950390919603892B41F0209731F4E9
:1033C0000E94500C9093700380936F03D0939603E8
:1033D000C09395030E94590D80919403811105C0FB
:1033E0008C2FDF91CF910C946407DF91CF910895DA
:1033F000EF92FF920F931F93CF9381E00E94AB0750
:1034000084E8E82E83E0F82E04E713E0C0E08C2F78
:103410000E942C19F701819391937F01F801819308
:1034200091938F01CF5FC83091F71092960310925D
:1034300095031092940380E090E00E94D5191092B9
:10344000700310926F038FEF80939703CF911F91BA
:103450000F91FF90EF90089580E090E00E94D519C1
:1034600081E08093940308950E942C1A80E00C94CC
:10347000AB07CF92DF92EF92FF921F93CF93DF9330
:103480008091970387FD20C00E9463196C0110E0B2
:10349000EE24E394F12CC0E0D0E0209119033091A8
:1034A0001A032E213F21232B41F0812F0E94631903
:1034B000C816D90610F4CE29DF29EE0CFF1C1F5FB9
:1034C000183059F7CE0102C080E090E0DF91CF9133
:1034D0001F91FF90EF90DF90CF900895EF92FF92B1
:1034E0000F931F93CF93DF938C01C0E0D0E0EE24C5
:1034F000E394F12C2091190330911A03A7010C2EAB
:1035000002C0440F551F0A94E2F724233523232BCE
:1035100031F42196C830D10569F781E008C08C2FBD
:103520008F5D0E94620C8017910798F780E0DF9111
:10353000CF911F910F91FF90EF9008956F927F921E
:103540008F929F92AF92BF92CF92DF92EF92FF92B3
:103550001F93CF93DF9386E090E00E946E1A88233A
:1035600009F479C00E94020D882309F474C0809187
:10357000970387FF04C00E942F19809397038091BF
:1035800097030E942C196C01A0905203B090530332
:1035900084E7682E83E0782E94E8E92E93E0F92EF4
:1035A000C0E0D0E011E088248394912C809119032D
:1035B00090911A0394010C2E02C0220F331F0A941B
:1035C000E2F782239323892B81F08C2F0E942C1900
:1035D0008A159B05A8F0C816D90608F410E0F30177
:1035E00091838083F701918380832196F2E06F0EAF
:1035F000711C42E0E40EF11CC830D105B9F601C0DF
:1036000011E0109273030E94A6349093720380938A
:103610007103112379F0DF91CF911F91FF90EF900B
:10362000DF90CF90BF90AF909F908F907F906F90E2
:103630000C942C1A0E94391ADF91CF911F91FF90A0
:10364000EF90DF90CF90BF90AF909F908F907F9042
:103650006F900C94D519DF91CF911F91FF90EF904F
:10366000DF90CF90BF90AF909F908F907F906F90A2
:1036700008950F931F93CF9380917303811110C00E
:1036800081E08093730304E813E0C0E08C2F0E9474
:103690002C19F801819391938F01CF5FC830B1F756
:1036A000CF911F910F9108950E94A634209171032C
:1036B00030917203821B930B089580919503909132
:1036C0009603892B19F40E949E1A0AC00E94391B86
:1036D0000E94541B409720F080E090E00E94D51992
:1036E0000E941119811106C080919403882311F062
:1036F00081E0089582E00895EF92FF920F931F9367
:10370000CF93DF938C01C0E0D0E0EE24E394F12C62
:103710002091190330911A03A7010C2E02C0440F07
:10372000551F0A94E2F724233523232B31F42196E5
:10373000C830D10569F780E007C08C2F0E9463195B
:1037400080179107A0F381E0DF91CF911F910F9136
:10375000FF90EF900895EF92FF920F931F93CF93F6
:10376000DF938C01C0E0D0E0EE24E394F12C2091B3
:10377000190330911A03A7010C2E02C0440F551FE4
:103780000A94E2F724233523232B31F42196C83001
:10379000D10569F780E007C08C2F0E9463190817D4
:1037A0001907A0F381E0DF91CF911F910F91FF9056
:1037B000EF900895CF93DF93EC010E94E30C8823F0
:1037C00039F0682F70E0CE010E94523BCB0102C05D
:1037D00080E090E0DF91CF9108950E94E62481E09F
:1037E0000E94E2218091990390919A030C94B12454
:1037F0000C94FD240E94020D882321F00E9488244D
:103800000C94972208950E94FA1B0E94F30C2091B9
:103810009D0330919E032817390740F484E99AE00C
:1038200090931F0380931E0380E0089580919B0373
:1038300090919C030E94B12482E00895CF93DF937E
:103840001F92CDB7DEB769830E94371690939E030F
:1038500080939D036981662369F080914C03909168
:103860004D0390939C0380939B038091540390910C
:1038700055030CC080914E0390914F0390939C038D
:1038800080939B03809156039091570390939A03E2
:10389000809399030F90DF91CF9108958091A003B9
:1038A0009091A1030C9409158091A0039091A1031C
:1038B00002960C9409150E94541C0E945E200C94E0
:1038C0008435CF93DF930E94A634EC010E94A63486
:1038D0008C1B9D0B853B910510F00E94890D0E9469
:1038E000DE34882399F3DF91CF910C946D330E94DD
:1038F0005B1C0E945F2F86E00E9477330C94611C52
:103900000E945B1C0E94890D0E94632F87E00E9429
:1039100077330C94611CE091A003F091A1033496DD
:1039200085919491FC010994CF93DF931F92CDB7B9
:10393000DEB7811103C00E94801C0DC0813049F4A4
:1039400080919F03811107C089830E94771C898120
:1039500003C081E001C080E00F90DF91CF91089516
:103960000F931F93CF93DF9310925F040E944E1C1E
:10397000D2E000E010E0C1E00E94DE3480935F04FA
:103980000E94882FCC2379F00E94A220D82F0E9479
:10399000941CC82F882339F00E94500C081719076F
:1039A00071F4C11107C080919F03882311F0D111D8
:1039B00010C0C0E080915F048130F1F60AC00E941F
:1039C000500C8C010E948B1CD82F0E94941CC82F75
:1039D000E8CF0E94541C8D2FDF91CF911F910F9142
:1039E00008950E94C91D0C94341A0E94B61D0E94AD
:1039F000F81981E020915E0330915F03232B09F4D5
:103A000080E08093A20380E00C94E2210F931F9347
:103A1000CF9300919D0310919E03C8010E94DA1B71
:103A20000E94AB1BC82F0E941119811109C0C1113E
:103A300007C00E94F30CC1E00817190708F4C0E0A2
:103A40008C2FCF911F910F9108950F931F93CF93B8
:103A50000E94061DC82F0E94581D8C018091A20350
:103A6000882329F0B8018C2F0E94462201C08C2F98
:103A7000811108C0B8018C2F0E94A7230E94971DB6
:103A800082E001C081E0CF911F910F910895809154
:103A9000A703089581E02091A5033091A603232B6D
:103AA00009F480E008958091A5039091A6030895FC
:103AB0008091A3039091A4030895CF93DF931F9265
:103AC000CDB7DEB74091280350912903BA01725057
:103AD000CE0101960E940E158981811114C00E94A9
:103AE000F80C009711F481E090E0BC0188E893E1C4
:103AF0000E94F018209132033091330328173907C0
:103B000020F4C90102C080E090E00F90DF91CF91D6
:103B10000895813020E8920710F080E090E89093BB
:103B2000A6038093A5030E9460070C94620DCF93B7
:103B3000DF93EC010E945D1DBC01C817D90708F492
:103B4000BE018091A3039091A4038617970759F0B3
:103B50007093A4036093A30382E10E94230EDF917C
:103B6000CF910C94891DDF91CF9108958091A70387
:103B700081110EC080E090E00E94891D1092A40384
:103B80001092A30381E00E94560781E08093A7036F
:103B900008958091A7038823A9F080E090E00E9417
:103BA000891D1092A4031092A3031092A7038AE028
:103BB00090E00E94BE3480E00E9456078AE090E0C8
:103BC0000C94BE34089581E08093A7030C94C91D22
:103BD00087E080939F0482E080939E040E9470336C
:103BE00083E08093A80308958FEF80939F040C9443
:103BF0006D33EF92FF920F931F93CF93DF9384E186
:103C00000E94AA0E20914603309147032A503109A1
:103C10002230310520F091E0C82FC92701C0C0E053
:103C20000E94E30C082F80919803882369F080910B
:103C30004A0311E0801301C010E0D1E00111D0E08F
:103C4000813021F4DD2311F0D0E010E00E94E90C76
:103C50008823B9F085E10E94380C7C0184E10E9440
:103C6000380CE816F90628F49C012E193F09790151
:103C700002C0E81AF90A35EFE31631E0F30608F05E
:103C8000C1E0111102C087E001C083E080939F046E
:103C9000DD2329F080919F04825080939F04CC23E0
:103CA00029F080919F04815080939F04111104C0DA
:103CB000D11102C0CC2331F082E00E947733D111C0
:103CC00006C003C00E946D3304C0112311F001111E
:103CD00002C0D0E001C0D1E00E94D434811102C002
:103CE0001092A803D11106C0C11104C00E94D4349F
:103CF000883041F08091A803823011F082E008C042
:103D000081E006C08091A8038F5F8093A803F2CF63
:103D1000DF91CF911F910F91FF90EF900895109236
:103D2000AD0308950E94A6349093AC038093AB0337
:103D300008950E94A6342091AB033091AC03821BFE
:103D4000930B2091A9033091AA032817390728F073
:103D500081E08093AD0382E008951092AD0381E08D
:103D600008958091AD0308952CE3AC01249FC00118
:103D7000259F900D11249093AA038093A903089581
:103D80000E94F8190E94E62481E00C94E2210E942E
:103D9000FD240C94341A0F931F93CF9300919D032D
:103DA00010919E03C8010E94DA1B0E947C1BC82F41
:103DB0000E941119811109C0C11107C00E94F30CA2
:103DC000C1E08017910708F4C0E08C2FCF911F91BC
:103DD0000F9108950F931F93CF930E94CB1EC82F6E
:103DE0000E9488248C01BC018C2F0E9446228111E4
:103DF00008C0B8018C2F0E94A7230E94B12482E042
:103E000001C081E0CF911F910F9108950F931F93EF
:103E10006091BA037091BB038091BC039091BD0384
:103E20002091BF03222371F00E949B340091BA03BA
:103E30001091BB032091BC033091BD03601B710B3B
:103E4000820B930B1F910F9108956091B6037091AF
:103E5000B7038091B8039091B90328EE33E040E0B6
:103E600050E00E94663BCA01B90108956091B20317
:103E70007091B3038091B4039091B50328EE33E0C1
:103E800040E050E00E94663BCA01B90108950F93DB
:103E90001F93CF93DF9381E00E943716EC0184E0FB
:103EA0000E9437168C0186E10E94380C8C179D0702
:103EB000B8F408171907B0F49C01201B310BCE0190
:103EC000801B910B64E670E00E94523BC9010E9486
:103ED000523B6436710510F063E670E0862F03C034
:103EE00083E601C080E0DF91CF911F910F9108958B
:103EF000CF92DF92EF92FF920E94471F9091BE03F4
:103F0000981778F58093BE03C090C103D090C20388
:103F1000E090C303F090C4030E94061FC61AD70A9C
:103F2000E80AF90A0E94061F6093C1037093C20356
:103F30008093C3039093C4038091C5039091C603FB
:103F4000A091C703B091C8038C159D05AE05BF05B0
:103F500040F4C092C503D092C603E092C703F0922A
:103F6000C803FF90EF90DF90CF9008950E94781FD4
:103F70008091C003811102C0A4E601C0A9E6B0E0AF
:103F80008091BE03A81BB1092091C5033091C603DF
:103F90004091C7035091C8030E94CE3B08952091E1
:103FA0002403309125032130310511F481E026C02E
:103FB0002115310511F480E021C02430310529F4A8
:103FC0008091BF0381110AC0F6CF2230310519F468
:103FD0008091BF0313C02330310581F485E00E9436
:103FE000380C2091260330912703A90152508417E1
:103FF000950708F328173907C8F208950C9440076D
:104000000E94471F8093BE031092C1031092C20307
:104010001092C3031092C4031092C5031092C603FA
:104020001092C7031092C8031092B6031092B70300
:104030001092B8031092B9031092B2031092B30316
:104040001092B4031092B503089560E971E080E026
:104050000E94230E9093B1038093B00381E00E94ED
:104060003716BC016854744F6D3C2DE8720710F090
:104070006CEC7DE880E00E94230E813C2FEF9207DC
:1040800010F080EC9FEF9093AF038093AE030E94FB
:10409000E90C8093C0030E949B346093BA03709331
:1040A000BB038093BC039093BD030E940020109239
:1040B000C90381E08093BF030C946B0C0E94061F20
:1040C0006093BA037093BB038093BC039093BD03CA
:1040D0001092BF0308950E947A2481111DC00E948E
:1040E0004A1D811119C00E941119882351F1809134
:1040F000B6039091B703A091B803B091B90380596A
:104100009F4FAF4FBF4F8093B6039093B703A093D9
:10411000B803B093B90308958091B2039091B303AB
:10412000A091B403B091B50380599F4FAF4FBF4FDB
:104130008093B2039093B303A093B403B093B503F9
:10414000D2CF0895CF93DF938091BF03811102C036
:1041500082E099C085E00E94380C209128033091BC
:1041600029033E5F2817390718F488E79DE024C02B
:1041700080E00E94410C2091AE033091AF03821782
:10418000930758F42091B0033091B103821793073D
:1041900038F40E94471D882319F088E89DE00CC080
:1041A0008091C9038130C9F3C091C0030E94E90C1A
:1041B000C81741F089E69DE090931F0380931E038A
:1041C00080E061C0C0919B03D0919C03C851DC4F3B
:1041D0000E94FD0CC817D90718F48EE59DE0ECCFBE
:1041E00086E00E94380C2091380330913903821701
:1041F000930718F48FE49DE0DFCF8BE10E94380C29
:10420000EC010E946916883E2DEF920731F0C81725
:10421000D90718F08FE39DE01BC0C0915803D091DF
:104220005903C83E83E0D807C8F46091B203709187
:10423000B3038091B4039091B50320E63AEE40E0D9
:1042400050E00E94663B2C173D0740F084E39DE060
:1042500090931F0380931E0381E015C080915A0341
:1042600090915B03892B09F473CF87E00E94380C8F
:1042700020915C0330915D032817390708F068CF5F
:1042800084E29DE099CFDF91CF9108950E94C71EEF
:104290000E94F11C0C94341ACF93DF931F92CDB778
:1042A000DEB78091CA03882329F0813031F40E945F
:1042B000251D0CC00E94EA1E09C00E945D1B8230B1
:1042C00089F089830E94462189810CC0813051F494
:1042D00090919803992331F082E08093CA030E9461
:1042E000F81982E00F90DF91CF910895CF93DF937B
:1042F0000E94F81961E083E00E941E1CC0919D039A
:10430000D0919E030E94E30C811106C00E94F30C21
:10431000C817D90740F40CC0CE010E94DA1B0E94D6
:10432000AB1B882329F00E94C01E1092CA030BC049
:1043300060E083E00E941E1C0E94F51C81E08093D7
:10434000A2038093CA03DF91CF9108958091CB039C
:10435000813029F48091990390919A03089580E027
:1043600090E008952CE0829FC001112489529C4F57
:104370000C94242587E394E00C942425CF93DF93B9
:1043800000D000D0CDB7DEB784E10E94380C9A830C
:10439000898386E10E94380C29813A81281B390BD8
:1043A0003A83298389E10E94380C9C838B83CE0158
:1043B00001960E9424250F900F900F900F90DF918F
:1043C000CF910895AF92BF92CF92DF92EF92FF927A
:1043D0000F931F93CF93DF93182F81E08093CB032C
:1043E0000E94F30C2091990330919A0340919D0310
:1043F00050919E03012FBC018FE294E00E943D2565
:1044000080919D0390919E030E94DA1B6C018FECBA
:10441000E82E83E0F82EC0E0D0E0AA24A394B12CCB
:104420002091190330911A03A5018C2F0C2E02C084
:10443000440F551F0A94E2F724233523232B61F000
:104440000E9463192091990330919A03012FA601CC
:10445000BC01C7010E943D2521968CE0E80EF11CAD
:10446000C830D105E9F610923D041092CE031092A7
:104470003C0410923B04DF91CF911F910F91FF906C
:10448000EF90DF90CF90BF90AF9008950F931F9360
:10449000CF93C82F8B0180919803882361F1CC239F
:1044A00049F080913D04811105C00E942C1A81E0E1
:1044B00080933D0480913D04882311F08530D9F428
:1044C0002091990330919A03203A310510F420EAA3
:1044D00030E02017310710F4109294030E945D1B06
:1044E0008093CB038130F1F40E949019882319F056
:1044F0008FEF809397030E94A6218017910780F089
:10450000CC2371F080913D04853051F49091CE031D
:1045100081E0890F8093CE0381E09A3020F402C0BD
:104520001092CE0380E0CF911F910F910895CF920A
:10453000DF92EF92FF920F931F93CF93DF937C0153
:104540000E94F30CA701BC018FE294E00E94FA25BF
:104550000FEC13E0C0E0D0E0CC24C394D12C209128
:10456000190330911A03C6010C2E02C0880F991F3F
:104570000A94E2F728233923232B41F08C2F0E9441
:104580006319A701BC01C8010E94FA252196045FA6
:104590001F4FC830D10519F7DF91CF911F910F91AF
:1045A000FF90EF90DF90CF900895AF92BF92CF929F
:1045B000DF92EF92FF920F931F93CF93DF9360915F
:1045C0009D0370919E038FE294E00E9462257C011E
:1045D00080919D0390919E030E94DA1B6C010FEC69
:1045E00013E0C0E0D0E0AA24A394B12C8091190379
:1045F00090911A0395010C2E02C0220F331F0A94CA
:10460000E2F728233923232B61F0B601C8010E9469
:104610006225E816F90628F0B601C8010E94622555
:104620007C012196045F1F4FC830D105F9F6C70100
:10463000DF91CF911F910F91FF90EF90DF90CF907E
:10464000BF90AF9008950F931F93CF93DF93EB012B
:1046500020919B0330919C038C012817390708F4A3
:1046600089010E94A6219C018017910708F49801F6
:10467000C217D307E1F040913D044530D1F42C1727
:104680003D07B8F082179307A0F4809199039091A9
:104690009A038C179D0758F04091CC035091CD039D
:1046A00080916F03909170034817590711F4CE0160
:1046B00009C080916F03909170039093CD03809314
:1046C000CC03C901DF91CF911F910F910895CF9233
:1046D000DF92EF92FF920F931F93CF93DF937C01B2
:1046E0000E94F30C9093300480932F04F0923204D4
:1046F000E09231040FEC13E0C0E0D0E0CC24C3948E
:10470000D12C2091190330911A03A6018C2F0C2E65
:1047100002C0440F551F0A94E2F724233523232BAC
:1047200039F00E946319F80191838083F382E28259
:104730002196045F1F4FC830D10519F7DF91CF9143
:104740001F910F91FF90EF90DF90CF9008951F93EE
:10475000CF93DF93182FEB010E94020D811108C047
:104760001123B1F180913B0490913C04892B81F19C
:104770000E94111981112CC0CE010E949722CE01F6
:104780000E9467230E94D5228C179D0748F19093C1
:104790003C0480933B04BE0180913B0490913C0417
:1047A0000E94232390933C0480933B0490913D040A
:1047B000923059F1F8F4992311F1913089F51123D0
:1047C00039F083E080933D0410923C0410923B0446
:1047D00080913B0490913C04DF91CF911F9108950B
:1047E0009C012C0F3D1F3695279530933C04209358
:1047F0003B04D1CF933061F0943081F011C011238C
:1048000039F30E942C1A81E00CC010923D04E0CFD5
:1048100010923C0410923B0484E003C01123C1F2C7
:1048200085E080933D04D4CF0C94ED1BCF93DF93B0
:104830000E94FA1B0E94F30CEC0182E00E943716E2
:104840008C179D0730F480919B0390919C030E94EC
:10485000B12480919D0390919E038C179D0718F4BD
:1048600084E99AE03CC00E945A0C029710F482E05E
:104870003BC080915A0390915B03892B69F08FE1D3
:104880000E94380C20916A0330916B032817390776
:104890001CF48AE89AE023C00E945A0C2091680315
:1048A00030916903220F331FC1E08217930708F488
:1048B000C0E08C2F0E945F0CCC23C9F2809164036E
:1048C00090916503892B99F28DE10E94380CEC01DF
:1048D0000E949B16C817D90754F680E99AE0909376
:1048E0001F0380931E0381E0DF91CF910895809193
:1048F0004204089581E02091400430914104232B2B
:1049000009F480E008958091400490914104089555
:1049100080913E0490913F0408950E94F80C009706
:1049200011F481E090E0BC01809134039091350353
:104930000E94F01820912E0330912F032817390779
:1049400008F4C9010895813020E8920710F080E052
:1049500090E890934104809340040E945C070C947B
:10496000620DCF93DF93EC010E948D24BC01C81728
:10497000D90708F4BE0180913E0490913F04681766
:10498000790750F49C01261B370B2D38310568F050
:10499000BC016C58710909C09B01281B390B2D38CB
:1049A000310518F0BC0164577F4F8617970759F0FF
:1049B00070933F0460933E0481E10E94230EDF91D7
:1049C000CF910C94A324DF91CF910895809142045C
:1049D000811112C0109241041092400410923F04C1
:1049E00010923E0480E090E00E94A32481E00E94A7
:1049F000500781E080934204089580914204882307
:104A000089F080E090E00E94A3241092410410926B
:104A1000400410923F0410923E0480E00E94500730
:104A20001092420408951092410410924004109292
:104A30003F0410923E0480E090E00E94A32481E0B5
:104A4000809342040C94FD24FC0142815381411562
:104A5000510589F0A081B181B7FF03C0B195A1953F
:104A6000B10928EE33E00E94BC3B9A0140E050E0DF
:104A70000E94663BA901CA0108950F93FC01CB0176
:104A8000002341F04617570708F4CA016417750759
:104A900048F407C06417750708F4CA01461757079A
:104AA00008F4BA01978386839183808313821282EC
:104AB0001582148233872287681B790B7187608780
:104AC0000F910895FC0186819781A285B3850084AA
:104AD000F185E02D3097D9F0AB0160E070E09A01EC
:104AE000AB01281B390B410951090E94C33B9F01AF
:104AF000FF0F440B550B0E94883B2115310581E0C7
:104B00004807510524F457FD05C0C90108958FEFEA
:104B10009FEF089580E090E00895DF92EF92FF927A
:104B20000F931F93CF93DF93FC01228133812417CE
:104B3000350720F4DA01A21BB30B03C0D901A41B73
:104B4000B50B84819581969587958A179B0728F5E3
:104B5000808191812417350738F4EA01C21BD30BF9
:104B60007B01E81AF90A06C07C01E61AF70AE90196
:104B7000C41BD50B8F01C7010E943C15D82EF8012C
:104B8000808591850E943C15D81207C0F801D58315
:104B9000C483F186E086D387C287DF91CF911F91CE
:104BA0000F91FF90EF90DF9008950F931F93CF9395
:104BB000DF93EC018B019A01A885B9850E94BC3B6B
:104BC0002A853B8540E050E00E94883BC801A0E078
:104BD000B0E082179307A407B5071CF41F821E825A
:104BE00004C0021B130B1F830E83DF91CF911F9113
:104BF0000F910895EF92FF920F931F93CF93DF933E
:104C0000EC018B017A010E948D25A701B801CE012C
:104C1000DF91CF911F910F91FF90EF900C94D525CC
:104C200010925B0310925A030E948F398AE892E037
:104C30000E947A2B0E949F391092200308951F939F
:104C4000CF93DF93182F6EE67AE082E89AE00E9415
:104C5000332FD0E084E10E94AA0EC82F8823B1F040
:104C60000E94E30C91E0811101C090E0191799F0C6
:104C7000D1110CC060E67AE0112319F082E89AE0C5
:104C800002C087E79AE00E94332FD1E00E94DE3411
:104C9000813001F7C0E08C2FDF91CF911F910895F3
:104CA000AF92BF92DF92EF92FF920F931F93CF9339
:104CB000DF93D82EEB015A01BA010E94230E8C011A
:104CC000BE018D2D0E94230E7C01B5016C0F7D1F4E
:104CD000769567958D2D0E94230E9C01E114F104B9
:104CE000D1F08FEFE816F806C1F001151105B9F003
:104CF0000F3F8FEF1807A9F0E016F106A0F4C901E5
:104D00000A97E816F90688F4265F3F4F2017310707
:104D100070F480E00DC081E00BC082E009C083E048
:104D200007C084E005C085E003C086E001C087E0DD
:104D3000DF91CF911F910F91FF90EF90DF90BF9087
:104D4000AF90089540912E0350912F0360912C0352
:104D500070912D0381E10E945026882311F0865F17
:104D6000089540912E0350912F0360912C03709170
:104D70002D0382E00C94502640913203509133036E
:104D8000609130037091310382E10E9450268823A4
:104D900011F0865F08954091320350913303609182
:104DA00030037091310383E00C945026CF930E941E
:104DB000A013C82F8823F9F04CEC5DE868EE73E08F
:104DC00080E00E945026882321F0682F88E59AE031
:104DD0000FC00E94A226882321F0682F8FE49AE05A
:104DE00007C00E94BC26882331F0682F83E49AE034
:104DF0000E94ED2FC0E08C2FCF9108950C94D62601
:104E00008F929F92AF92BF92CF92DF92EF92FF92DA
:104E10000F931F93CF93DF9300D000D01F92CDB795
:104E2000DEB77B016A0160E070E02D830E94F82903
:104E30002D81211109C08091420390914303892B58
:104E400019F48BEF9FE702C08FEF9FE70E94EE29D6
:104E500081E00E94562B082F87FD72C00E94DF2937
:104E6000A82E81FF68C0002E000C110BF701E00F87
:104E7000F11FB4908B2D0E94AA0E882349F30E9443
:104E8000720D10921D03109260000E94AD2B8823BA
:104E900009F44BC0F601E00FF11F049184E00E9479
:104EA00077338B2D0E94380C4C010E94A939802F3A
:104EB0000E942F0C9A8389839C828B82AE014F5F64
:104EC0005F4F60914304802F0E948B0CA7FE2AC085
:104ED00081E080931D030E94720D0E94A93980E039
:104EE0000E942F0C9A83898381E00E942F0C2981D4
:104EF0003A81281B390B3A83298385E10E94380CBB
:104F00009C838B83AE014F5F5F4F6091430480E0D1
:104F10000E948B0CAE014F5F5F4F6091430481E0B4
:104F20000E948B0C81E00E940B1381E080931D0393
:104F3000809360008DCF82FF8BCF0E94AD2B88CFF6
:104F40000F900F900F900F900F90DF91CF911F91C6
:104F50000F91FF90EF90DF90CF90BF90AF909F9018
:104F60008F90089581E090E09093440480934304EF
:104F70000E94F00F81E00E941F26882349F020E064
:104F800048E054E061E174E082E593E00E9400278C
:104F90000C94890D81E090E0909344048093430445
:104FA00080E00E94F00F1092620020E048E153E0A0
:104FB000BA018AE193E00E94002781E080936200B9
:104FC0000C94890D10924404109243040E949F395E
:104FD00081E090E090935B0380935A0380E00E940D
:104FE000F00F21E04FED52E0BA0180EE92E00E9416
:104FF00000270E94890D0C948F391092440410925E
:10500000430480E00E94F00F21E046EA52E0BA013A
:1050100087EA92E00E9400270C94890DCF93DF93DA
:1050200000D000D0CDB7DEB7482F60914A04CE0142
:1050300001960E946F0C67E08B819C810E94103862
:105040000F900F900F900F90DF91CF9108950E94D5
:10505000FD0C67E00E941038809149040E942F0CDB
:1050600066E00C94833720914904223011F40C94AB
:10507000A3240C94891DEF92FF920F931F93CF935B
:10508000DF93CDB7DEB728970FB6F894DEBF0FBE1B
:10509000CDBF10E08EE0E82E88E2F82E82E00E947C
:1050A000BB2AF0925604E092550410935B0480E012
:1050B0000E94562B182F87FD8FC081E00E94F00FB1
:1050C00080E00E941F26882309F483C0412F60914D
:1050D0004A04CE0105960E946F0C412F609149044D
:1050E000CE0101960E946F0C69EF78E28AE194E0AC
:1050F0000E94F8298F8198859093480480934704F3
:1051000000E08D819E81909346048093450481E068
:105110000E94562B87FD48C0811138C080914904F8
:10512000823019F40E94E62402C00E94B61D8091CC
:105130004504909146040E9433280E94AD2B882399
:10514000B9F00E94720D80914704909148049887AD
:105150008F8320914504309146043E832D839C83A8
:105160008B83809149040E942F0C9A83898301E0EC
:1051700080E090E00E94332880914904823019F445
:105180000E94FD24BECF0E94C91DBBCF823009F012
:10519000B8CF0E94AD2B8111B4CF8F8198859093A9
:1051A000480480934704ADCF002399F0AE014B5FD4
:1051B0005F4F612F80914A040E948B0CAE014F5FBC
:1051C0005F4F612F809149040E948B0C81E00E9407
:1051D0000B130E94890D62CF28960FB6F894DEBF9C
:1051E0000FBECDBFDF91CF911F910F91FF90EF9038
:1051F00008956091490440914504509146042091DE
:10520000470430914804623079F44130504830F01E
:1052100040E050E8509346044093450429353B4113
:10522000A8F028E53BE10EC04130504830F040E0A6
:1052300050E850934604409345042938334130F0F8
:1052400028E833E130934804209347048554944080
:1052500031F480914504909146040E94332884E102
:105260000E94AA0E81110CC06EE67AE082E89AE0F4
:105270000E94332F80914904833011F40C94C91D8E
:10528000089581E180934A0482E0809349040C945C
:105290003B2882E180934A0483E0809349040C9484
:1052A0003B28A0914B04B0914C0460914F04709145
:1052B000500440E090E0FD012EE0929FE00DF11DD2
:1052C00011243296259134912115310579F037FF5B
:1052D00003C077FF09C0305826233723232B21F042
:1052E000882331F081504F5F9F5FE5CF842F089571
:1052F000892F08950F931F93CF93DF93C82F0E9498
:1053000051299EE0899F80011124E0914B04F09186
:105310004C04E00FF11F859194910E94CD35D82F58
:105320000E945133882319F040919F0401C04FEF30
:10533000042E000C550B2C2F30E042175307F1F0D0
:105340006FE06D1BE0914B04F0914C04E00FF11FF6
:105350003596C491CC2329F0862F8C1B0E940936E8
:105360006C2F80914B0490914C04800F911F0496F8
:10537000DF91CF911F910F910C94D332DF91CF9198
:105380001F910F9108950E94512920914B04309153
:105390004C049EE0899F200D311D1124F9013696A1
:1053A00085919491F901349624912150223030F462
:1053B000FC0185919591A591B491CD0108950E942C
:1053C0005129E0914B04F0914C049EE0899FE00D3F
:1053D000F11D112432968591949108959093500473
:1053E00080934F048FEF0E945129809359040895B0
:1053F00090934C0480934B0470934E0460934D043F
:1054000080E00E94BB2A8AE799E290935604809339
:10541000550486E19AE290935404809353048FEFED
:1054200080939F048FEF9FE70C94EE29DF92EF9219
:10543000FF920F931F93CF93DF93CDB7DEB76297A1
:105440000FB6F894DEBF0FBECDBF182FD62E0E9428
:10545000C3297C01812F0E94512920914B04309156
:105460004C049EE0899F200D311D1124B901685F15
:105470007F4F46E050E0CE0107960E94D63B86E083
:10548000FE013796DE01119601900D928A95E1F7A3
:1054900009811A814B815C812D813E81E2E0DE121F
:1054A00003C06FEF7FEF02C061E070E00F3FFFE7E6
:1054B0001F0721F4C7010E94C3153AC00E3F8FE7B2
:1054C000180721F4CB01FA01099532C00C3FFFE720
:1054D0001F07B9F4F70180819181680F791F2617A2
:1054E00037071CF07183608303C0F7013183208389
:1054F000F7018081918184179507D4F4518340830B
:1055000017C00D3FFFE71F0781F4298B3A8B4F87A8
:10551000588B6D877E870E94D734082F10E07E85D8
:105520006D8558894F853A892989C7010E9484155C
:10553000E0914D04F0914E04309711F0C7010995A8
:1055400062960FB6F894DEBF0FBECDBFDF91CF914C
:105550001F910F91FF90EF90DF900895E09151041B
:10556000F091520494E0899FE00DF11D1124859182
:1055700094910C94CD3510925B0410925A04809350
:10558000590481E080935804809357040895409112
:1055900051045091520480E0FA0194E0899FE00D9B
:1055A000F11D112425913491232B11F08F5FF4CF3D
:1055B000089580915B048F5F80935B0408958091D0
:1055C0005B04882319F0815080935B0408958091D7
:1055D000590490915B04981718F0815080935B04F4
:1055E00080915B0490915A04891710F480935A04B7
:1055F00020915A0430E02F5F3F4F482F50E024178E
:1056000035071CF4815080935A040895CF930E946B
:10561000E72AC0915A0420915A04822F90E0019603
:105620004C2F50E084179507E4F06C2F621B80E04C
:105630000E947A3580915B04C81711F080E201C0A6
:105640008EE30E94863580915904C81730F4E091AA
:105650005504F09156048C2F09950E941036CF5FA7
:10566000DACF10925804CF910895CF930E94DE3480
:10567000C82F0E945639882329F081E0809358046E
:105680008FE712C0C23029F0C43041F40E94D92AF9
:1056900002C00E94DF2A81E0809358048091580460
:1056A00081110E94062B8C2FCF910895CF93DF9309
:1056B000C82F81E080935804D1E00E94352B8111DE
:1056C00002C01092570490915704911108C088307D
:1056D00031F481E08093570480915B0408C0C111CC
:1056E000D0935804813049F79111E7CF8FEFDF91C4
:1056F000CF910895EF92FF920F931F93CF938C0158
:10570000C0E08EEAE82E8AE2F82E1093520400934D
:1057100051040E94C72A0E94BB2AF0925604E092CC
:105720005504C0935B0480E00E94562BC82F87FD70
:105730000EC02091510430915204C90144E0C402CA
:10574000800D911D112402960E940915DECFCF9184
:105750001F910F91FF90EF900895CF93DF93809169
:105760005B0480939F0410929E0481E08093580410
:10577000D2E0C1E00E94DE34682F823011F0843024
:1057800081F4E0915304F091540480915B040995F5
:1057900080915B0480939F04D0939E04C09358042F
:1057A00004C0813091F0883081F00E945D33811116
:1057B000C09358048091580481110E94062B809157
:1057C0009E048F5F80939E04D5CF8FEF80939F04BC
:1057D00081E08093570480935804683009F080E09A
:1057E000DF91CF9108950C94AB1382E594E00C9473
:1057F0007A2B0F931F93CF93DF93EC010E94D01667
:1058000001E010E09C0141E050E0BE018AE493E039
:105810000E948415DF91CF911F910F910895CF932E
:10582000DF938091460390914703892B51F10E94A9
:105830006116C1E0D0E002C0CC0FDD1F8A95E2F70F
:1058400080915A0390915B03892B11F4D05C07C0BF
:105850000E946116882311F0DF5B01C0DB5B0E94B0
:105860006116811106C08091640390916503892BB4
:1058700059F48091420390914303892B39F0D05819
:1058800005C0C0E0D0E402C0DE5FF3CFCE01DF91FF
:10589000CF91089523E08634920719F40E94EB1704
:1058A00013C023E08834920719F40E94C6170CC075
:1058B00023E08C34920719F40E94AC1705C08E5473
:1058C000934011F40E94B9170E94E4160E940F2C15
:1058D0000C94EE291F93CF93DF93CDB7DEB7A89733
:1058E0000FB6F894DEBF0FBECDBF6AE47CE282E65D
:1058F00094E00E94F82918E20E940F2C0E94EE29E1
:1059000080E00E94562B87FD1DC0E6E4F3E0DE0137
:105910001196812F01900D928A95E1F70E94AD2B8F
:1059200081110AC0FE013196A6E4B3E0812F0190F7
:105930000D928A95E1F7E0CF84E00E9477330E94D0
:10594000E416DACFA8960FB6F894DEBF0FBECDBF2F
:10595000DF91CF911F910895E0915D04F0915E0475
:10596000E80FF11D649180EE95E00C94E5351F93EE
:10597000CF93DF93182F0E948D17CCEADCE20E94B0
:1059800061162091460330914703232B59F0833051
:1059900061F0823069F0882371F0853079F026EF6C
:1059A00035E00EC021E136E00BC021E036E008C052
:1059B00028E036E005C02CEF35E002C024EF35E0EA
:1059C00030935E0420935D0490E081E0890FF9013B
:1059D000E90FF11DE491982FE930B9F70E94BB2A35
:1059E000D0935604C093550480915C0480935B046B
:1059F00080E00E94562B90915B0490935C0487FD9D
:105A000012C0E0915D04F0915E04E90FF11D8491F4
:105A1000893031F40E946A2C812F0E949C17AFCFED
:105A20000E945D14ACCFDF91CF911F9108958091BA
:105A30002403909125030397029718F08EEF9FE7B8
:105A400002C08FEF9FE720913C0330913D03232B51
:105A500009F4029708950E94172D0E94EE290C94D4
:105A6000A9141F93CF93DF93CDB7DEB7A4970FB6DA
:105A7000F894DEBF0FBECDBF6BE27DE282E196E01F
:105A80000E94F82914E20E94172D0E94EE2980E05E
:105A90000E94562B87FD2BC00E94C329892B41F4FD
:105AA00082E293E00E94A31484E00E947733EBCF5C
:105AB000E2E2F3E0DE011196812F01900D928A95CA
:105AC000E1F70E94AD2B81110AC0FE013196A2E2DE
:105AD000B3E0812F01900D928A95E1F703C084E035
