:100000000C944A060C9472060C9472060C947206B8
:100010000C94B4090C9472060C9472060C9472063B
:100020000C9472060C94180A0C94E4090C94EF09D1
:100030000C9472060C94A00A0C94D50A0C947206C7
:100040000C9490090C9472060C9472060C9472062F
:100050000C947206BD14C914CE14D114D314E51433
:10006000E214D114BD1488348A348C349034903422
:100070008E3494349234000000003ED73562000084
:100080000000F567E63007033200482BE803E1077C
:100090003200C32E2C010000000000000000000010
:1000A00000000000000000000000BDBBDF36FC16B1
:1000B000E808000000000000000043BFA80E000098
:1000C000000008D75B1000000000B8DBBA20000079
:1000D000000003DB5F100000000000D6611000008C
:1000E00000001ED764100000000000DA61100C034D
:1000F0003200482BE803DA0232003A112C010006E4
:100100000800FF01010A01060900FF0302000206C0
:100110000A00FF00000A06060E00FF0302000506A3
:100120000D00FF02030004060C00FF03020003069B
:100130000B00FF04060007060700FF03020046004D
:1001400003008813701701003200581B3200E803C7
:10015000401FF40110270000000003000000000011
:10016000010080250000004B00000096000000E127
:10017000000000C2010001000100010001000100B7
:10018000B0040807520300005203B0040807E80354
:100190000000E803D0079209D60600006C07E40CC3
:1001A000100EC409E40CB80B100E0410C409A60EFE
:1001B000AC0D740E6810B80B0A0F890C740ECC10BD
:1001C000B80B0A0F890C740EFE10B80B0A0F890CBD
:1001D00040066C071405400678050100A00FD00703
:1001E000010001000100A00F010001000100040056
:1001F00000010202020202030405640B5A0B550BB4
:10020000500B4B0B460B410B3C0B370B320B5F0B70
:100210002E0B791AB51ADE1B6E1C791C841C761DF8
:10022000721DA61D511E5D1E621EFB1EF81E021FC2
:10023000291F301F531FA92179217F214724791CB1
:100240004924800932287709B4296B09BC295F0940
:10025000622850094A280000000007FE08020044F6
:10026000003702FD7F00001027F9080100490081D6
:100270000200000000000016090400490007040104
:10028000000000010000000000000000000000006D
:1002900000000008090A0001F108020041003902CB
:1002A000FD7F00001027E908020041003B02FD7FAE
:1002B00000001027E108020041003D02FD7F000020
:1002C0001027DA08020041002902FD7F000078694A
:1002D000D208020041002B02FD7F00007869160958
:1002E00004004900070401000000010000000000B4
:1002F000000000000000000000004B090200410067
:100300003502FD7F0000307546098200410067021A
:10031000FD7F000088134109820041006902FD7FD2
:10032000000088133C09820041006B02FD7F000041
:1003300088133709820041006D02FD7F0000881399
:100340003209820041006F02FD7F000088132D09F1
:10035000820041007102FD7F00008813270901001F
:1003600041004F020000000000002109010041008F
:100370004D020000000000001609040049000704B7
:10038000010000000100000000000000000000006B
:100390000000000006090A0B0C0D0E061F2021228A
:1003A00023240F09FF7F49000904FD7F0000FFFFA0
:1003B0000C09FF7F030096280000000000000409DC
:1003C000FF7F40000B04FD7F0000FFFF00000000E6
:1003D00000000000000000000000810B9C2D770B46
:1003E0004326690B662C00000000650AFF7F0200AF
:1003F0006405010000000B00620A0F000300B73122
:10040000FE7F6C2C00005E0A0E8041003403FD7FED
:10041000000088135E0A100041003403320000001F
:100420007869510A018041003403FD7FB004D00790
:10043000510A200041003403FF7F010078695A0A05
:10044000048041004803FD7F00008813560A0F8096
:1004500041003603FD7F00008813560A100041005A
:1004600036033200000078694C0A1F0045002C0357
:10047000FF7F6400E8FD480A3F0040003003FF7F33
:100480000100581B410A1E8040003803FF7F010015
:10049000581B3D0A1F0040003203FF7F0100E803A4
:1004A000360A1F8040003A03FF7F0100E8032C0A50
:1004B0000C8048004A0301000300C800230A010021
:1004C0004D0048030100000001001E0A0002480020
:1004D0004A03FC7FECFF0000120A00024B004C03B1
:1004E000010001001E00090A1F004D003E0301002B
:1004F00000000100010A00044A064E030A000A0037
:100500008403F50900014403400364005802AC264B
:10051000EF093F004C003C03FF7F0000E803E509C2
:100520001F004700460301000100FA00D90903003B
:1005300049005003010000000500CF091F804B0057
:100540004403010001006300C4091F804D00420301
:100550000100000001000000000000000000000099
:1005600000000000FA012A03FD0BEE0BE60BDC0B8A
:10057000D00BC80BB90BAE0B9F0B920B00090003FD
:100580000407080900030708090001020304080919
:1005900000010203040506080909280BFF7F4D002E
:1005A0000E03010000000100200BFF7F400010033C
:1005B000FD7F0100F401180BFF7F40001203FF7F55
:1005C0000100581B000BFF7F42001803FF7F0A0049
:1005D000401F100BFF7F40001403FD7F0100F4015A
:1005E000080BFF7F40001603FF7F0100E803F80AB5
:1005F000FF7F42001A03FF7F0A00F401ED0AFF7F2C
:1006000041001C036400581B3075E20AFF7F4D0057
:100610001E03010000000100DC0AFF7F02009606B5
:10062000010000000400D40A02000100920601004B
:1006300000000400CB0A020002008A06010000004C
:100640000100C40AFF7F02008206010000000100D1
:10065000BB0AFF7F02007A06010000000100B50A14
:10066000FF7F00000000000000000000000000000C
:10067000000000000000000000007E0628039A0A27
:100680006E0A860626037B0A720A8E062403B00AC7
:10069000AA0A620122039A062003A10A9A0A940A6E
:1006A0008B0A820A20202D2D202000636865616C52
:1006B000692D636861726765720A76322E30325F27
:1006C00032303233313031320063616C69622E2056
:1006D0006572726F7200706C656173652063616C26
:1006E00069627261746500656570726F6D20726514
:1006F0007365740A6572726F723A20007265736571
:100700007474696E6720656570726F6D00202020BB
:10071000202020202020202020796573006565702E
:10072000726F6D2072657365743A0052455645527A
:10073000534520504F4C4152495459006572726FD5
:10074000723A00636F6D706C6574653A00FB31003E
:1007500000004000000000F73200400000000000F0
:1007600040C930FFFFFF7F040000405D3280010080
:100770000000000040583100020000080000406402
:100780003100020000080000407831000200000043
:100790000000408031FFFFFF7F04000040B52E00C5
:1007A00000006000000000B92E00000060000000A2
:1007B00000BD2E0000002004000040C12E000000FB
:1007C00020040000401A31FFFFFF7F04000040FCBE
:1007D00030FFFFFF7F000000405431FFFFFF7F002C
:1007E000000000DD30FFFFFF7F040000003831FF14
:1007F000FFFF7F000000000000FFFFFF7F00000000
:1008000000250064542F64743D200064563D202070
:1008100020006D6178563D00206C696D69743D0063
:1008200056696E7075743D00776972657320523D2C
:1008300000626174742E20523D004C696D697473BE
:100840003A20004E2F4100546578743D004E2F41F0
:100850000025200043684342426C44694643537478
:1008600053424359434300010101020A1E01031888
:10087000478E01190C03010101E803018F0CE80305
:10088000008D0C6400008B0C640000880C64000078
:10089000860CE80301830CE80301810C0100007F52
:1008A0000CE803018D0C010000780C6400007B0C47
:1008B000010000790C010000790C0100000000012A
:1008C0000000760C141719181A0705061F2021229C
:1008D0002324566D696E75733A0056706C75733AC1
:1008E0000056623270696E3A0056623170696E3A33
:1008F0000056623070696E3A006164633A00746554
:100900006D703A004965787065633A00493A00763F
:10091000616C75653A0063616C69622E20702E3AD5
:1009200000566F75743A0056312D363A00566236CD
:100930003A005662353A005662343A005662333A0B
:10094000005662323A005662313A0056696E3A00F9
:100950006578706572742044414E47455221007499
:10096000656D702065787465726E004920646973E6
:10097000636861726765004920636861726765003A
:10098000766F6C746167650062616C616E6365208F
:10099000706F7274210062617474657279210064F1
:1009A0006973636F6E6E65637400636F6E6E65630B
:1009B000740064542F6474002D64560056206C69D2
:1009C0006D6974006164617074206469733A0044F5
:1009D0002F4320726573743A00442F432063796378
:1009E0006C65733A0063617020434F66663A007429
:1009F000696D653A007C657874726E2054434F3A95
:100A0000007C64542F64743A00657874726E2054CC
:100A10003A007C69676E7220667273743A007C6477
:100A2000563A00656E61622064563A0062616C2E2F
:100A3000206572723A006D696E49643A0049643A01
:100A4000006D696E49633A0049633A004361703A48
:100A50000056636F3A0056643A0056733A00566384
:100A60003A00563A00626174746572793A007265B0
:100A70007600616476616E6365640073696D706CA5
:100A800065006578742E20416463006578742E20BB
:100A9000646562006465627567006E6F726D616C9B
:100AA0000064697361626C656400736570617200F3
:100AB00074656D7000726573657400627574746F2F
:100AC0006E733A006D656E75733A007C6F75747065
:100AD00075743A007C73706565643A0055415254F0
:100AE0003A00616463206E6F6973653A00696E70E5
:100AF0007574206C6F773A006D61782050643A000D
:100B00006D61782050633A006D61782049643A0045
:100B10006D696E2049643A006D61782049633A003E
:100B20006D696E2049633A00626565703A004C4514
:100B300044004E695A6E004C343335004C34333027
:100B4000004C69706F004C696C6F004C6966650001
:100B500050622020004E694D48004E6943640055A4
:100B60006E6B6E004E6F6E65007265736574206407
:100B7000656661756C740063616C6962726174654D
:100B80000073657474696E6773006F7074696F6E5B
:100B900073006564697420626174746572790063BE
:100BA0006170616369747920636865636B00443EBA
:100BB0004320666F726D61740073746F7261676554
:100BC0002B62616C616E630073746F7261676500A4
:100BD000666173742063686172676500646973633A
:100BE00068617267650062616C616E63650063686D
:100BF000617267652B62616C616E63650063686139
:100C0000726765006578742E74656D702E637574F7
:100C10006F66660074696D65206C696D6974006348
:100C200061706163697479206375746F66660069C9
:100C30006E707574205620746F206C6F7700485763
:100C4000206661696C7572650062616C616E6365D6
:100C50007220646973632E00626174746572792016
:100C6000646973632E006E6F6C696D697400206E29
:100C70006F00796573005500006D00432F6D0025EE
:100C800000F40041680043005768005700560041D7
:100C90000000190C11241FBECFE5D8E0DEBFCDBF88
:100CA00010E0A0E6B0E0E0E3F9E702C005900D92A5
:100CB000A838B107D9F724E0A8E8B0E001C01D9238
:100CC000A638B207E1F716E0CAE4D6E004C02197DF
:100CD000FE010E94103CC934D107C9F70E9443139A
:100CE0000C94963C0C94000086B383FB882780F913
:100CF00091E08927B29902C092E001C090E0892B6F
:100D0000B19902C094E001C090E0892BB09902C073
:100D100098E001C090E0892B0895882339F0A69AC5
:100D2000A79AD59A889A8A9A8F9A0895A698A7988A
:100D3000D59888988A988F9808950E94A33940E0A2
:100D400062E080E10E945B390E94140A0E94890AD5
:100D50000E94280888E799E60C945307811106C081
:100D6000939A0E94740780E00C941B08939808954E
:100D700080FF02C0AE9A01C0AE9881FF02C0AF9A58
:100D800001C0AF9882FF02C0DD9A01C0DD9883FFE9
:100D900002C0909A01C0909884FF02C0929A01C04C
:100DA000929885FF02C0979A08959798089580E0D9
:100DB0000E94B80680E00E94AE0680E00E94FF0913
:100DC00087B18F7387B98B9A8D9AD79ABC9A8C9A70
:100DD0008D9A8E9A08952FB7F894809189009091FA
:100DE0008A00A0918B00B0918C002FBF892F9A2F81
:100DF000AB2FBB27A7FDBA9508952FB7F894109293
:100E0000900010928F008617970768F480E090E4B6
:100E1000A0E0B0E08093890090938A00A0938B00BB
:100E2000B0938C0008C01092890010928A00109232
:100E30008B0010928C008091890090918A00A09183
:100E40008B00B0918C00BA2FA92F982F8827809300
:100E5000890090938A00A0938B00B0938C0081E06E
:100E6000809388002FBF0895CF93DF93EC01C83D96
:100E700083E6D80758F4C13080E4D80748F48EE000
:100E80000E94950A9598BE018DE009C0C7EDD3E692
:100E90008DE00E94950A949ABE0170548EE0DF9115
:100EA000CF910C94730A893729E6920710F088E7EE
:100EB00099E6BC0180E00E94AB0E813C2FEF9207C7
:100EC00010F080EC9FEF2FB7F89490938E008093F2
:100ED0008D002FBF08959C019FB7F8943093900028
:100EE00020938F009FBF0895CF93DF93C82F811168
:100EF000DF9ADFB7F8948DE00E94950A94988EE00F
:100F00000E94950A959810928800DFBFC11104C015
:100F1000969ADF91CF910895969880E00E94C00C38
:100F2000EC0186E00E94C00CBE01DF91CF910C94D1
:100F3000FD060F931F9380918800882309F478C0E1
:100F400080E00E94C90C20918D0030918E008217A4
:100F5000930748F080E00E9474071092880081E0B7
:100F60008093A50365C082E00E94C90C40918F0068
:100F70005091900060E070E00091890010918A002B
:100F800020918B0030918C00481B590B610971092D
:100F9000E2E0440F551F661F771FEA95D1F7400F17
:100FA000511F621F731F4093890050938A00609302
:100FB0008B0070938C008091890090918A00A091A1
:100FC0008B00B0918C00B7FF08C01092890010927E
:100FD0008A0010928B0010928C0080918900909171
:100FE0008A00A0918B00B0918C008130974DA34670
:100FF000B10560F080E097EDA3E6B0E08093890052
:1010000090938A00A0938B00B0938C00809189000C
:1010100090918A00A0918B00B0918C00892F9A2F1B
:10102000AB2FBB27A7FDBA951F910F910C943407E6
:101030001F910F910895882329F080E00E94740782
:10104000DF980895DF9A0895BC018EE00C94730A2E
:10105000DE98D698BD9ABE9ABF9A8EEA86B9369A1D
:10106000089580911E0390911F03892BE9F09091C0
:1010700097009923C9F021E030E00090950002C06C
:10108000220F331F0A94E2F74091FB025091FC02B9
:10109000842F8F704FB7F8943BB3232B2BBB890F52
:1010A0008A95F1F73BBB4FBF0895CF938091910094
:1010B0008F5F803108F080E0809391004091940030
:1010C0005091950060919600709197004093980020
:1010D0005093990060939A0070939B00E1E0E80FB1
:1010E000E03109F4E0E024E0E29FF0011124E25055
:1010F000FF4F4591559165917491409394005093A1
:101100009500609396007093970020913E03309174
:101110003F03232B39F490919400973019F496E013
:1011200090939400811173C00E94B6249093B402EE
:101130008093B3020E94D41D9093B6028093B502AF
:1011400080919300882309F458C00E94B6244091EE
:10115000F3025091F4026091F5027091F602CEE034
:101160009C01C29FC001C39F900D1124480F591FBD
:10117000611D711D4093F3025093F4026093F502D8
:101180007093F6020E94D41D4091F7025091F8022C
:101190006091F9027091FA029C01C29FC001C39F45
:1011A000900D1124480F591F611D711D4093F702C6
:1011B0005093F8026093F9027093FA028091FB0257
:1011C0009091FC020197B9F48091BF029091C00206
:1011D000A091C102B091C20222E0B695A795979561
:1011E00087952A95D1F78093BF029093C002A09370
:1011F000C102B093C2020E94FB0F2091FB0230910A
:10120000FC0281E0232B09F480E080939300CF91CE
:101210000895EF92FF920F931F9384B125B190919F
:101220009200923050F190E0922BE0919A002FB70B
:10123000F89430919300F0E0DF01AA0FBB1FAB568A
:10124000BD4F11969C938E93311102C02FBF15C0D4
:10125000EE0FFF1FEE0FFF1FE954FD4F408151813C
:10126000628173817A018B01E80EF91E011D111D47
:10127000E082F18202831383E9CF8091920091E0B2
:10128000980F909392008B30B1F128F4882399F055
:101290008130D9F040C08C30C1F18F30E1F58091C0
:1012A0009500806287B9109292001F910F91FF9074
:1012B000EF900C9455088091940087FD2CC088B362
:1012C0008F71806C88BBD69A26C08091940087FD70
:1012D00022C04FB7F8942AB32F7B38B39091940073
:1012E00000E29002C0011124932F9F71892B88BBCB
:1012F0002ABB4FBF10C080919A00823061F41F91C9
:101300000F91FF90EF900C9499071F910F91FF9010
:10131000EF900C9431081F910F91FF90EF9008957A
:101320001F920F920FB60F9211242F933F934F935A
:101330005F936F937F938F939F93AF93BF93EF933D
:10134000FF930E940909FF91EF91BF91AF919F9187
:101350008F917F916F915F914F913F912F910F905E
:101360000FBE0F901F9018951F920F920FB60F92FD
:1013700011242F933F934F935F936F937F938F939A
:101380009F93AF93BF93EF93FF930E94C634FF9157
:10139000EF91BF91AF919F918F917F916F915F91ED
:1013A0004F913F912F910F900FBE0F901F90189566
:1013B00088E085BD85B5846085BD14BC8CE783BDA0
:1013C00089B7806889BF08951F920F920FB60F9258
:1013D0001124C49A0F900FBE0F901F9018951F9262
:1013E0000F920FB60F9211248F93C49880919C0096
:1013F00082BF8F910F900FBE0F901F901895811193
:1014000004C013BE12BEC498089590E095958795C8
:1014100028E7280F20939C0088589E4F9595879524
:101420008CBF8CE483BF089589B7836089BF08951A
:101430001F920F920FB60F9211242F933F938F9309
:101440009F938091A3009091A40020919F003091E0
:10145000A000820F931F9093A00080939F00809123
:10146000A1009091A20020919D0030919E00820FDA
:10147000931F90939E0080939D002FB7F8948091C6
:101480009F009091A00035E0969587953A95E1F7F9
:101490009BBD8ABD80919D0090919E0035E0969500
:1014A00087953A95E1F799BD88BD2FBF80919F0040
:1014B0009091A0008F7199279093A00080939F0036
:1014C00080919D0090919E008F71992790939E002E
:1014D00080939D009F918F913F912F910F900FBE10
:1014E0000F901F9018959FB7F8948E3039F4709331
:1014F000A4006093A3008FB5806808C08D3039F4D4
:101500007093A2006093A1008FB580628FBD9FBFD2
:10151000089580E092E097BD86BD82E08FBD89E1AD
:101520008EBD89B7846089BF08958E3019F48FB558
:101530008F7704C08D3019F48FB58F7D8FBD0895DE
:101540001F920F920FB60F9211242F934F935F9318
:101550008F939F93EF93FF935A991AC02CB1809168
:10156000BB019091BC01019699274091BD0150911A
:10157000BE018417950769F0E091BB01F091BC01B1
:10158000E554FF4F20839093BC018093BB0101C0C1
:101590008CB1FF91EF919F918F915F914F912F911E
:1015A0000F900FBE0F901F9018951F920F920FB6BD
:1015B0000F9211242F933F938F939F93EF93FF9359
:1015C0002091BB013091BC018091BD019091BE0181
:1015D0002817390711F4559812C0E091BD01F09118
:1015E000BE01E554FF4F20818091BD019091BE0165
:1015F000019699279093BE018093BD012CB9FF916C
:10160000EF919F918F913F912F910F900FBE0F906F
:101610001F901895CF92DF92EF92FF920F931F9336
:10162000CF93DF93EC016A017B014115514E6105B7
:10163000710509F1E885F98581E090E00C8802C028
:10164000880F991F0A94E2F7808360E079E08DE3C8
:1016500090E0A70196010E94CF3B89019A010150B9
:101660001109210931093695279517950795980194
:1016700001151041A8F0E885F985108260E874E84A
:101680008EE190E0A70196010E94CF3BDA01C901EB
:101690000197A109B109B695A795979587959C01E2
:1016A000EC81FD813083EE81FF8120831D8AEA85F4
:1016B000FB85408181E090E09C01098802C0220FF7
:1016C000331F0A94E2F7242B2083EA85FB854081AF
:1016D0009C010A8802C0220F331F0A94E2F7242BD0
:1016E0002083EA85FB8520810B8802C0880F991F23
:1016F0000A94E2F7809582238083DF91CF911F9136
:101700000F91FF90EF90DF90CF900895CF93DF93EC
:10171000FC0182819381EC01D395DC01AE5FBE4F69
:10172000288139818D919C91119728173907C1F72C
:10173000A285B3853C9181E090E0AC01018802C0B4
:10174000440F551F0A94E2F7242F209523232C934E
:10175000A285B3853C91AC01028802C0440F551F9D
:101760000A94E2F7242F209523232C93A285B38596
:101770002C91038802C0880F991F0A94E2F7809584
:1017800082238C9380819181FC01EE5FFE4F20814A
:101790003181329731832083DF91CF910895FC010D
:1017A0008589882329F0A085B1858C9186FFFBCFA0
:1017B000158A08950F931F93CF93DF93FC01A281A5
:1017C000B3818D011395E80188819981019699274C
:1017D000AD014E5F5E4FEA01288139818217930780
:1017E000D1F3E80128813981A20FB31F6C93A28144
:1017F000B381B39511969C938E93A285B3852C915A
:1018000081E090E0038802C0880F991F0A94E2F7F4
:10181000822B8C9381E0858B0084F185E02D808183
:101820008064808381E090E0DF91CF911F910F91E0
:101830000895E5EAF0E08BEB90E091838083938359
:10184000828380E490E09583848329E230E03783CB
:1018500026832BE230E0318720872AE230E033878D
:101860002287958784878CE290E09787868784E03B
:10187000808B83E0818B87E0828B85E0838B81E0A6
:10188000848B0895CF93DF931F92CDB7DEB7E0919D
:101890008204F0918304309711F4E6E8F4E0CE017D
:1018A00001962EEB8E179F0710F02193FBCF0F9020
:1018B000DF91CF910895CF93DF9300D0CDB7DEB7FE
:1018C00020918204309183042115310511F426E81A
:1018D00034E0CE010196821B930B0F900F90DF91A5
:1018E000CF910895CF93DF931F92CDB7DEB72091AC
:1018F0008204309183042115310511F426E834E087
:10190000F901BE016F5F7F4FCF01821B930B6E17F2
:101910007F0728F040814E3B11F43196F5CF0F90B0
:10192000DF91CF910895009741F0EFE9FFE0319703
:10193000F1F700C000000197F6CF089584369105B5
:1019400038F064E670E00E94BB3BCB010C94930C32
:10195000019728F025E32A95F1F70000F9CF0895C3
:101960006AE070E00E94BB3BCB010C949E0CE82F18
:10197000F0E0EE0FFF1FED58FD4F8081918108953B
:10198000E82FF0E0EE0FFF1FE75DFD4F80819181B2
:1019900008952FB7F894E82FF0E0EE0FFF1FEB56F5
:1019A000FD4F808191812FBF08958091010308959B
:1019B0008091DD019091DE0108958091CB0190919D
:1019C000CC0108958091CD019091CE01089580932E
:1019D000C8010895E82FF0E0EE0FFF1FE152FE4F1F
:1019E00080819181089581E08093FF0208956131A3
:1019F00010F4423040F021E030E0FC0133832283D8
:101A000031832083089550E0460F511D460F511D2C
:101A1000440F551F440F551FBA01625F7F4F44E0CA
:101A200050E00C94513C9A01813190F4623080F482
:101A300070E0680F711D680F711D660F771F660FCC
:101A4000771F625F7F4F44E050E0C9010C946F3C08
:101A50000895EF92FF921F93CF93DF9300D000D0B1
:101A6000CDB7DEB786E7E82E80E0F82E10E0F7016C
:101A700085919591A591B49189839A83AB83BC8319
:101A8000AE014F5F5F4F60E0812F0E94130DF701A1
:101A9000349685919591A591B49189839A83AB836E
:101AA000BC83AE014F5F5F4F61E0812F0E94130D39
:101AB0001F5F88E0E80EF11C1131C9F681E00E9439
:101AC000B7130F900F900F900F90DF91CF911F9150
:101AD000FF90EF9008958091FD029091FE020C948A
:101AE000C61581E020915302309154022331310513
:101AF00009F080E00895809151029091520208957A
:101B000080914D0290914E020895809157029091DC
:101B1000580208958091070290910802039750F0AF
:101B200080910D0290910E02039720F083E090E0E7
:101B30000C94EF1A80E008952FB7F89480E090E0BD
:101B4000FC01EE0FFF1FEE0FFF1FE954FD4F108247
:101B500011821282138201968131910589F78AE3FD
:101B600090E09093FC028093FB02109200032FBF41
:101B70000895CF93CFB7F8941092DC011092DB0157
:101B80001092D7011092D8011092D9011092DA0167
:101B90001092D3011092D4011092D5011092D60167
:101BA0001092CF011092D0011092D1011092D20167
:101BB0000E94EE349093CA018093C901CFBFCF91A8
:101BC0000895EFEDF1E01192119282E0E932F80709
:101BD000D1F70895CF93CFB7F89481E090E0909338
:101BE000FC028093FB02809300030E94E10DCFBFB3
:101BF000CF910895CF93DF930E94EA0DC091DD014C
:101C0000D091DE018091DD019091DE01C817D907E6
:101C100029F48AE090E00E941935F4CFDF91CF914A
:101C200008951092010380E00C94AE06CF93DF93E9
:101C300081E00E94C90CEC0180E00E94C90C8C1765
:101C40009D0718F4C81BD90B02C0C0E0D0E081E0AA
:101C5000C93ED34008F480E0DF91CF9108958F9280
:101C60009F92AF92BF92CF92DF92EF92FF920F932B
:101C70001F93CF93DF93CDB7DEB728970FB6F894B5
:101C8000DEBF0FBECDBF6115710509F44FC05B010A
:101C9000F82E40E0682FCE0105960E94F70C41E037
:101CA0006F2DCE0101960E94F70C2B813C81C9015A
:101CB000A0E0B0E0CF80D884E12CF12C9C01AD01F4
:101CC0002C193D094E095F09C501A0E0B0E08D80E7
:101CD0009E80A12CB12CBC01CD01681979098A091B
:101CE0009B090E949F3B29813A81890120E030E0D5
:101CF000A9019801281939094A095B090E94F13B99
:101D0000DA01C9018C0D9D1DAE1DBF1DB7FD0AC0B6
:101D1000009721E0A207B1055CF08FEF9FEFA0E0F4
:101D2000B0E006C080E090E0DC0102C080E090E01E
:101D300028960FB6F894DEBF0FBECDBFDF91CF91CE
:101D40001F910F91FF90EF90DF90CF90BF90AF90D9
:101D50009F908F9008958F929F92AF92BF92CF9253
:101D6000DF92EF92FF920F931F93CF93DF93CDB744
:101D7000DEB728970FB6F894DEBF0FBECDBF611552
:101D8000710509F44FC05B01F82E40E0682FCE01C9
:101D900005960E94F70C41E06F2DCE0101960E943E
:101DA000F70C29813A81C901A0E0B0E0CD80DE8046
:101DB000E12CF12C9C01AD012C193D094E095F0964
:101DC000C501A0E0B0E08F809884A12CB12CBC01AB
:101DD000CD01681979098A099B090E949F3B2B81D3
:101DE0003C81890120E030E0A901980128193909D6
:101DF0004A095B090E94F13BDA01C9018C0D9D1D66
:101E0000AE1DBF1DB7FD0AC0009721E0A207B105B6
:101E10005CF08FEF9FEFA0E0B0E006C080E090E0C4
:101E2000DC0102C080E090E028960FB6F894DEBF97
:101E30000FBECDBFDF91CF911F910F91FF90EF901B
:101E4000DF90CF90BF90AF909F908F900895825079
:101E50008C3130F4E82FF0E0E459FF4F8081089591
:101E600081E00895CF93833149F481E020915302BA
:101E7000309154022331310589F413C0C82F0E94D8
:101E8000270F813069F4EC2FF0E0EE0FFF1FE75DC4
:101E9000FD4F208131812139314018F480E001C0AB
:101EA00081E0CF910895EF92FF920F931F93CF930C
:101EB000CFE1EE24E394F12C00E010E08C2F0E949F
:101EC000320F882311F00E291F29EE0CFF1CCF5F63
:101ED000C532A1F7C801CF911F910F91FF90EF90EC
:101EE00008951F93CF93DF931F92CDB7DEB7182FBE
:101EF00069830E94270FE12FF0E0EE0FFF1FE75DDF
:101F0000FD4F482F6981808191810F90DF91CF91A2
:101F10001F910C94E4372FB7F8946091C40170912D
:101F2000C5018091C6019091C7012FBF20E03DE718
:101F300040E050E00E94CF3BC90108952FB7F894CC
:101F40008091C0019091C101A091C201B091C301E3
:101F50002FBFBC01CD01969587957795679520E0B9
:101F60003DE740E050E00E94CF3BC9010895409119
:101F70005702509158028091C4019091C501A091DF
:101F8000C601B091C701840F951FA11DB11D80939B
:101F9000C4019093C501A093C601B093C70180917D
:101FA000BF01815019F08093BF01089582E38093AF
:101FB000BF0120914D0230914E02DA010E94163C81
:101FC00024E630E040E050E00E94CF3B8091C00129
:101FD0009091C101A091C201B091C301820F931FE2
:101FE000A41FB51F8093C0019093C101A093C201AB
:101FF000B093C30108958091FB029091FC02892B5C
:1020000049F08091FB029091FC0201979093FC02B1
:102010008093FB02089590E0880F991FFC01E75D13
:10202000FD4F208131816217730718F4261B370B8F
:1020300004C0AB01421B530B9A01FC01E152FE4F5D
:102040002730310518F01182108206C020813181BD
:102050002F5F3F4F31832083FC01E75DFD4F71838C
:1020600060830895CF93DF938FB7F8941092C401E3
:102070001092C5011092C6011092C7011092C001C2
:102080001092C1011092C2011092C30192E3909389
:10209000BF018FBFC9E2D2E06CA17DA18CE10E949B
:1020A0000B108E859F859093CC018093CB010E946D
:1020B000EA0D0E94B90D1092CE011092CD0160E0A0
:1020C00070E089E10E940B1060E070E08BE10E94FB
:1020D0000B1060E070E08DE1DF91CF910C940B105C
:1020E0001092DE011092DD010C9432100C947010ED
:1020F0009091010391110FC00E94AE060E947010D2
:1021000081E080930103809360000E94FA0D0E9499
:1021100032101092FF020895EF92FF920F931F93D7
:10212000CF93DF93C0912902D0912A0280912B0294
:1021300090912C028C179D0718F4C81BD90B02C074
:10214000C0E0D0E0BE0182E10E940B102091390274
:1021500030913A0280913B0290913C0200913D0205
:1021600010913E022817390720F4BC01621B730B43
:1021700002C060E070E08017910718F4081B190B8B
:1021800002C000E010E08FE10E940B10B80180E275
:102190000E940B103FE3E32E32E0F32E11E2F70131
:1021A000619171917F01812F0E940B101F5F153289
:1021B000B1F78091FF02811106C00E94530F9093E6
:1021C000FE028093FD02E090FD02F090FE0280E0AE
:1021D00090E000E010E041E050E09A01082E02C0DB
:1021E000220F331F0A94E2F72E213F21232B49F0BF
:1021F000FC01EE0FFF1FE75DFD4F26AD37AD020F6F
:10220000131F01968630910541F7B80183E10E94C2
:102210000B100115110581F00C171D0720F4CE01DC
:10222000801B910B03C0C8018C1B9D0B893B9B40FD
:1022300018F4E80113E103C012E1E12CF12CBE0116
:1022400084E10E940B10B70186E10E940B10612F00
:1022500070E085E10E940B100E94C81D882329F0C0
:1022600000912F02109130020BC00E94AA248823F3
:1022700029F000912D0210912E0202C000E010E022
:102280009801DE010E94163C20E137E240E050E078
:102290000E94CF3BB90188E10E940B10B80187E191
:1022A0000E940B100E948B0FBC0189E10E940B1051
:1022B0000E949E0FBC018AE1DF91CF911F910F9187
:1022C000FF90EF900C940B101F93CF93DF93182F78
:1022D000C82FD0E0FE01EE0FFF1FEE0FFF1FE954E5
:1022E000FD4F60817181828193812CE233E040E077
:1022F00050E00E94CF3BCC0FDD1FCD58DD4F39831E
:102300002883B901812F0E942F0EBC01812FDF91FC
:10231000CF911F910C940B104F925F926F927F920E
:102320008F929F92AF92BF92CF92DF92EF92FF92E5
:102330000F931F93CF93DF93CDB7DEB728970FB6D8
:10234000F894DEBF0FBECDBF0E94EE342091C901CC
:102350003091CA01821B930B8133954708F4AAC0C0
:102360004FB7F8942091DB013091DC01ACE2B3E08F
:102370000E94163C6B017C01F694E794D794C794B5
:102380004090D7015090D8016090D9017090DA0147
:102390006091D3017091D4018091D5019091D601C3
:1023A0000091CF011091D0012091D1013091D20143
:1023B00009831A832B833C834FBF6D837E838F8376
:1023C00098870E94B90D2091CD013091CE012F5FE9
:1023D0003F4F3093CE012093CD016D817E818F815F
:1023E0009885A70196010E94CF3B49015A01C3017C
:1023F000B201A70196010E94CF3BB90180E00E9483
:102400002F0E3C01B40181E00E942F0E8615970526
:1024100020F45301A81AB90A02C0A12CB12C809053
:10242000610290906202A814B90420F48091C8015E
:10243000811104C0B5018CE10E940B10B50168192F
:1024400079098BE10E940B1069817A818B819C81D3
:10245000A70196010E94CF3BB90187E00E942F0E91
:102460002091CB013091CC019093CC018093CB0192
:10247000821B930BBC01660F771F8DE10E940B102E
:10248000B6018EE128960FB6F894DEBF0FBECDBF21
:10249000DF91CF911F910F91FF90EF90DF90CF9040
:1024A000BF90AF909F908F907F906F905F904F9074
:1024B0000C940B1028960FB6F894DEBF0FBECDBF5C
:1024C000DF91CF911F910F91FF90EF90DF90CF9010
:1024D000BF90AF909F908F907F906F905F904F9044
:1024E0000895CF932FB7F8948091FB029091FC024E
:1024F0002FBF892B09F091C08091000381118AC000
:1025000080910103882309F47EC08091DD019091C0
:10251000DE0101969093DE018093DD018091B70288
:102520009091B802A091B902B091BA02B695A79560
:10253000979587954091D7015091D8016091D90125
:102540007091DA01840F951FA61FB71F8093D701E2
:102550009093D801A093D901B093DA018091BB0286
:102560009091BC02A091BD02B091BE02B695A79514
:10257000979587954091D3015091D4016091D501F1
:102580007091D601840F951FA61FB71F8093D301AA
:102590009093D401A093D501B093D6018091D3023A
:1025A0009091D402A091D502B091D602B695A7958C
:1025B000979587954091CF015091D0016091D101BD
:1025C0007091D201840F951FA61FB71F8093CF0172
:1025D0009093D001A093D101B093D2018091DB01FF
:1025E0009091DC0101969093DC018093DB010E94C5
:1025F0008C11C0E08C2F0E946411CF5FC131D1F7E4
:102600000E948C1007C080916000882319F085E03B
:102610000E946411CF910C949C0DCF9108950C945D
:1026200071120E94D70678940E949D060E94D809D4
:102630000E9446250E944C1E0E9476100E94420C69
:102640000E944F150E94812F0C945F3080E00E9401
:102650000E1880E00C94F01481E00E94781082E162
:102660000E94320F882351F00E948A0D882331F096
:102670000E946B0D0E9426130C94110E0E94393596
:10268000882369F3F9CF0E9411130E944C140E9411
:102690002C130E94F62D80E090E00895EF92FF92B7
:1026A0000F931F93CF938C017B0141110E94903CAB
:1026B000C5E0C15059F0C8010E94693C8E159F05C4
:1026C00039F084E690E00E940535F3CF81E001C047
:1026D00080E0CF911F910F91FF90EF900895EF92BE
:1026E000FF920F931F93CF93DF938C017C01E60E33
:1026F000F71ECFEFDFEF0E151F05A9F0C8010E94EE
:10270000613CC82788E09E01369527959C2FE901FA
:1027100090FF04C091E0C92790EAD927815099F72A
:102720000F5F1F4FE8CFCE01DF91CF911F910F9127
:10273000FF90EF900895EF92FF920F931F93CF9326
:10274000DF931F92CDB7DEB78C017B0149830E94D6
:102750006F134981BC01C8018E0D9F1D0F90DF9141
:10276000CF911F910F91FF90EF900C944E13482F33
:1027700068E870E08EE090E00C949B13482F60E2D4
:1027800073E088E990E00C949B13482F64E270E0BA
:102790008AEB93E00C949B130F931F93CF93DF93DB
:1027A000D82F182F1170412F63E678E680E090E073
:1027B0000E944E13C82F412F6CE679E682E090E02C
:1027C0000E944E138111C1E0412F61E070E184E06D
:1027D00090E00E944E138111C1E0412F66E070E04D
:1027E00086E090E00E944E138111C1E0D1FB0027EA
:1027F00000F9402F6AE070E088E090E00E944E13FC
:102800008111C260D2FB112710F9412F63E070E003
:102810008AE090E00E944E138111C460D3FBDD2753
:10282000D0F94D2F6CE070E08CE090E00E944E13E8
:102830008111C86001110E94290D80E00E94B71328
:102840008111C26011110E94E71880E00E94BE133E
:102850008111C460D1110E94681580E00E94C513E7
:102860008111C8608C2FDF91CF911F910F91089536
:10287000CF93C82F0E941530C0FDC260C1FDC46057
:10288000C2FDC8600E942F308C2F0E94CC13682F8D
:102890008C2FCF910C94333080E00E94CC1388238E
:1028A00021F00E94381480E0089581E0089580E0CE
:1028B0000E94CC1381600C943814CF930E94772F20
:1028C00084E292E090937D0380937C03C1E0C09307
:1028D0007B03109274030E94E216823011F4C093BD
:1028E00074030E94311D91E0813009F090E0892F3E
:1028F000CF91089561E081E00E949F1C80E392E007
:1029000090937D0380937C03089561E081E00E94B1
:102910009F1C8CE392E090937D0380937C03089549
:1029200060E082E00E949F1C8EE192E090937D0324
:1029300080937C0308950E941F1E88EE93E00E94FE
:10294000001E82E390E00E9419350E94321E61E071
:1029500081E00E949F1C88E192E090937D03809328
:102960007C0308951092740390E08930910598F5E6
:10297000FC01E65DFF4F0C94103C0E94E2168111B1
:1029800002C00C9485140E94E216853029F40C9440
:102990009B1481E0809374030C947A1482E192E09A
:1029A00016C00C9490140E947A1480913003909178
:1029B000310365E070E00E94BB3B70937603609347
:1029C0007503089581E08093740386E392E0909309
:1029D0007D0380937C0308950E9439200C9432106B
:1029E000CF93C82F0E94EC148C2F0E94B214C730D2
:1029F00029F0C83059F463E081E005C060915003CC
:102A0000660F615080E0CF910C944A19CF910C94DD
:102A1000311DCF93C82F0E943127882371F1C093B5
:102A200005038C2F0E94B21410920303109202032C
:102A300083E0809304030E94EA3981E00E947810C9
:102A40000E945D14882391F081E0809304030E942A
:102A50005E200E94772F10927B0385E00E94D23384
:102A6000809105030E94F0140E949F200E94110E85
:102A70000E94063ACF910C94802FCF910895DC01EB
:102A80005C96ED91FC915D97EE0FFF1FEE0FFF1F1F
:102A9000EE59FE4F6591759185919491089544E2A8
:102AA00050E06AEB73E086E093E00C94513C44E222
:102AB00050E06AEB73E086E093E00E946F3C81E0B7
:102AC0000C94C51344E250E06EE371E00C943F3C7B
:102AD00086E093E00E9462150C94571580911003D4
:102AE0009091110320911203309113032817390795
:102AF00020F490931303809312038091120390911A
:102B0000130389359B4130F088E59BE190931303D3
:102B10008093120380911403909115032091160362
:102B2000309117032817390720F4909317038093E7
:102B300016038091160390911703893E934030F05D
:102B400088EE93E0909317038093160308950895F9
:102B5000FC010994FC01859194910C94A815282FEF
:102B600081E090E03AE0215038F0AC01349FC001A0
:102B7000359F900D1124F7CF0895009719F024F494
:102B80008FEF089580E0089581E008959C0190E121
:102B900080E020FD8F5F369527959150D1F70895FD
:102BA000CF92DF92EF92FF92CF9397FF08C090955C
:102BB0008095709561957F4F8F4F9F4F07C061152E
:102BC00071058105910511F0C0E001C0C1E02AE066
:102BD000C22ED12CE12CF12C6115710581059105D6
:102BE00041F0CF5FA70196010E94F13BCA01B901F4
:102BF000F3CF8C2FCF91FF90EF90DF90CF9008957F
:102C0000BC0180E090E00C94D015CF92DF92EF925F
:102C1000FF920F931F93CF93DF937C016B01FA0117
:102C2000DC01CD91DC91CE01B8010E94BB3B009745
:102C300031F01C141D0494F4081B190B03C01C1460
:102C40001D046CF4C901801B910BC817D90720F42F
:102C5000F801EC0FFD1F0CC0F9010AC08C01C8017E
:102C60008E0F9F1F8C179D0718F4FE01E01BF10BC0
:102C7000D701ED93FC93DF91CF911F910F91FF90BE
:102C8000EF90DF90CF900895AF92BF92CF92DF92F6
:102C9000EF92FF920F931F93CF93DF93EC017B0191
:102CA0006A0159016881798180E090E00E94D01525
:102CB000823020F082500E94AF1502C081E090E087
:102CC0008C019501A601B701CE010E940516DF9186
:102CD000CF911F910F91FF90EF90DF90CF90BF9019
:102CE000AF9008952FEF3FEF40E050E00C94441672
:102CF0000E9439358111FCCF0E9439358823E1F3D8
:102D0000089520912A0330912B0395E0929FF001C2
:102D1000939FF00D1124E80FF11DEE0FFF1FEA58ED
:102D2000FE4F8591949108951F93CF93DF93182FB1
:102D3000C0912E03D0912F030E9481169C01123066
:102D400061F480912A0390912B03029731F4C730EC
:102D5000D10518F0219720EB34E02C9FC0012D9F66
:102D6000900D3C9F900D1124DF91CF911F910895FC
:102D70000F931F93CF93C82F00912E0310912F0311
:102D80000E948116C13029F480913403909135035B
:102D90000DC0C23029F4809136039091370306C0EC
:102DA000C33021F480914803909149039C01209FF6
:102DB000C001219F900D309F900D1124CF911F9144
:102DC0000F910895E0912A03F0912B03E251FE4FF9
:102DD00084910895CF93DF9300D000D0CDB7DEB7B4
:102DE000A0912C03B0912D0320914603309147030D
:102DF0000E94163C24E630E040E050E00E94CF3BC9
:102E0000293E8DEF38074105510550F429833A8357
:102E10004B835C830E94E21629813A81853021F43C
:102E200028EE3DEF40E050E0C9010F900F900F9069
:102E30000F90DF91CF910895EAE2F3E020A131A154
:102E400084819581AC01249FC001259F900D349F02
:102E5000900D1124089582E00E949416BC01809187
:102E60001803909119030E94711920911203309157
:102E700013032817390708F4C901089582E00E9456
:102E80009416BC0180911A0390911B030E94711942
:102E900020911603309117032817390708F4C90148
:102EA000089580912A0390912B030A97029750F07E
:102EB00081E00E948116BC0188E799E60E94BB3B35
:102EC000CB01089581E090E0089580912C039091CA
:102ED0002D038436910530F484E690E090932D0321
:102EE00080932C0380912C0390912D03893E9D4F5C
:102EF00030F088EE9DEF90932D0380932C0380910A
:102F00003C0390913D03893E934030F088EE93E07E
:102F100090933D0380933C030E94511720912E0310
:102F200030912F038217930720F490932F038093FF
:102F30002E0380912E0390912F03892B31F481E091
:102F400090E090932F0380932E030E942B172091E3
:102F50003003309131038217930720F490933103AB
:102F60008093300380913003909131032091380396
:102F7000309139038217930720F49093390380939B
:102F800038030E943E172091320330913303821799
:102F9000930720F4909333038093320320913203FC
:102FA0003091330380913A0390913B0328173907FE
:102FB00020F430933B0320933A03809110039091C7
:102FC000110340913003509131034817590720F401
:102FD000909331038093300340913803509139032B
:102FE0004817590720F49093390380933803809150
:102FF0001403909115032817390720F49093330395
:103000008093320320913A0330913B03281739070C
:1030100020F490933B0380933A03089528E2829F23
:10302000C0011124BC0168567F4F48E250E08AE29B
:1030300093E00E94513C0C94651728E2829FC001E6
:103040001124BC0168567F4F48E250E08AE293E0C9
:103050000E946F3C81E00C94BE130E946517EAE267
:10306000F3E0868197816AE070E00E94BB3B77873E
:10307000668708950E946517EAE2F3E080859185EE
:103080006AE070E00E94BB3B718B608B08950E94E8
:10309000651780912C0390912D03909331038093B9
:1030A000300320912A0330912B032330310541F462
:1030B00096958795969587959093310380933003E5
:1030C0000E942D1880912C0390912D03909333032F
:1030D000809332030C943A1881E00E9481169093F9
:1030E00035038093340382E00E9481169093370366
:1030F0008093360380912A0390912B03892B61F5ED
:1031000080ED97E090932D0380932C0383E090E073
:1031100090932F0380932E0388EE93E090933D03CA
:1031200080933C0310923F0310923E0380E797E1A7
:103130009093410380934003109243031092420303
:103140008EE190E0909345038093440388E790E0FC
:1031500090934703809346030E94E216811128C092
:1031600081E090E0909349038093480380912A0383
:1031700090912B03029719F48BEF9FEF02C081EF20
:103180009FEF90934B0380934A0383E090E09093EA
:103190004D0380934C0384E690E090934F0380931B
:1031A0004E0385E090E090935103809350030DC04F
:1031B00088E090E090934B0380934A0383E00E9461
:1031C000811690934903809348030C944718CF933A
:1031D00010922B0310922A030E946C18C0E08C2FCF
:1031E0000E941D18CF5FC431D1F781E0CF910C94BC
:1031F000BE13CF93C82F0E940E1880912A0390917E
:103200002B03892B21F00E94F5310E9468368091B2
:103210002A0390912B038A30910571F08B30910530
:1032200069F0892BC1F48C2F90E001960E9408363A
:103230008AE3CF910C94E13589E00AC065E0809182
:103240003003909131030E946B380E94683684E00D
:10325000CF910C94B73167E080912C0390912D03AE
:103260000E9468388FE20E94E13580912E03909190
:103270002F03CF910C94083680914403909145031D
:103280000E941D1F8AE292E090937D0380937C034D
:103290000C94311DCF93C62F91E090937B038093C4
:1032A0005203809152038C1302C010927B0380FD65
:1032B00002C083E001C080E00E94F014813079F404
:1032C00090917B03992359F0809152038F5F8093F3
:1032D00052030E94EC140E943C19813011F3CF91EB
:1032E0000895AB019C01A8EEB3E00E94163C9A0140
:1032F00040E050E00E94CF3BA8EEB3E00E942C3C9F
:1033000024E630E040E050E00E94CF3B211531053B
:1033100081E04807510520F02FEF3FEF40E050E0FB
:10332000C90108958091710390917203892B99F4DA
:103330000E94D50C882381F00E94D80C2091530361
:1033400030915403821B930B9C0181E023303105A3
:1033500018F080E0089581E00895815E0C94C00C1F
:10336000CF92DF92EF92FF921F93CF93DF93C0E053
:10337000D0E0EE24EA94FE2C1FEFCC24C394D12C91
:103380002091FD023091FE02A6018C2F0C2E02C06E
:10339000440F551F0A94E2F724233523232B39F0D9
:1033A0000E94AD198E159F0510F41C2F7C012196EB
:1033B000C630D10529F7812FDF91CF911F91FF9062
:1033C000EF90DF90CF900895CF93DF93209171031A
:1033D00030917203232B21F4DF91CF910C94AD191E
:1033E00090915703C82FD0E0992391F00E94AD1916
:1033F000CC0FDD1FFE01E85AFC4FCC59DC4F208179
:10340000318148815981241B350B820F931F06C0DF
:10341000CC0FDD1FC85ADC4F88819981DF91CF9195
:103420000895CF92DF92EF92FF920F931F93CF9365
:10343000DF9300E010E0C0E0D0E0EE24EA94FE2C40
:10344000CC24C394D12C8091FD029091FE02960170
:10345000002E02C0220F331F0A94E2F78223932327
:10346000892B59F0802F0E94E419C817D90708F456
:10347000EC018E159F0508F47C010F5F1F4F06308D
:10348000110509F7CE19DF0981E020914A03309137
:103490004B032C173D0708F080E0DF91CF911F917F
:1034A0000F91FF90EF90DF90CF900895CF93DF932F
:1034B000EC018091710390917203892B41F0209768
:1034C00031F40E94D80C9093540380935303D0930B
:1034D0007203C09371030E94E10D8091700381110A
:1034E00005C08C2FDF91CF910C94B806DF91CF915E
:1034F0000895EF92FF920F931F93CF9381E00E9464
:103500008D0684E6E82E83E0F82E08E513E0C0E09F
:103510008C2F0E94AD19F701819391937F01F801DF
:10352000819391938F01CF5FC63091F71092720310
:10353000109271031092700380E090E00E94561A7E
:1035400010925403109253038FEF80937303CF9123
:103550001F910F91FF90EF90089580E090E00E94FE
:10356000561A81E08093700308950E94AD1A80E09E
:103570000C948D06CF92DF92EF92FF921F93CF9320
:10358000DF938091730387FD20C00E94E4196C01D2
:1035900010E0EE24E394F12CC0E0D0E02091FD0295
:1035A0003091FE022E213F21232B41F0812F0E94DA
:1035B000E419C816D90610F4CE29DF29EE0CFF1C39
:1035C0001F5F163059F7CE0102C080E090E0DF9116
:1035D000CF911F91FF90EF90DF90CF900895EF92E1
:1035E000FF920F931F93CF93DF938C01C0E0D0E045
:1035F000EE24E394F12C2091FD023091FE02A7010C
:103600000C2E02C0440F551F0A94E2F724233523E1
:10361000232B31F42196C630D10569F781E008C02B
:103620008C2F815E0E94EA0C8017910798F780E04A
:10363000DF91CF911F910F91FF90EF9008956F92BE
:103640007F928F929F92AF92BF92CF92DF92EF9232
:10365000FF921F93CF93DF9386E090E00E94EF1AD2
:10366000882309F479C00E948A0D882309F474C064
:103670008091730387FF04C00E94B0198093730385
:10368000809173030E94AD196C01A0903603B09035
:10369000370388E5682E83E0782E94E6E92E93E0E0
:1036A000F92EC0E0D0E011E088248394912C809121
:1036B000FD029091FE0294010C2E02C0220F331FD6
:1036C0000A94E2F782239323892B81F08C2F0E94A6
:1036D000AD198A159B05A8F0C816D90608F410E0A4
:1036E000F30191838083F701918380832196F2E037
:1036F0006F0E711C42E0E40EF11CC630D105B9F624
:1037000001C011E0109257030E94013590935603B7
:1037100080935503112379F0DF91CF911F91FF9092
:10372000EF90DF90CF90BF90AF909F908F907F9061
:103730006F900C94AD1A0E94BA1ADF91CF911F912D
:10374000FF90EF90DF90CF90BF90AF909F908F90C1
:103750007F906F900C94561ADF91CF911F91FF903C
:10376000EF90DF90CF90BF90AF909F908F907F9021
:103770006F9008950F931F93CF93809157038111FA
:1037800010C081E08093570304E613E0C0E08C2F63
:103790000E94AD19F801819391938F01CF5FC630DC
:1037A000B1F7CF911F910F9108950E94013520919B
:1037B000550330915603821B930B0895809171033A
:1037C00090917203892B19F40E941F1B0AC00E945A
:1037D000BA1B0E94D51B409720F080E090E00E9429
:1037E000561A0E949219811106C080917003882395
:1037F00011F081E0089582E00895EF92FF920F9317
:103800001F93CF93DF938C01C0E0D0E0EE24E394CC
:10381000F12C2091FD023091FE02A7010C2E02C076
:10382000440F551F0A94E2F724233523232B31F448
:103830002196C630D10569F780E007C08C2F0E9421
:10384000E41980179107A0F381E0DF91CF911F91D8
:103850000F91FF90EF900895EF92FF920F931F93B7
:10386000CF93DF938C01C0E0D0E0EE24E394F12C01
:103870002091FD023091FE02A7010C2E02C0440FE0
:10388000551F0A94E2F724233523232B31F4219684
:10389000C630D10569F780E007C08C2F0E94E4197B
:1038A00008171907A0F381E0DF91CF911F910F91C5
:1038B000FF90EF900895CF93DF93EC010E946B0D82
:1038C000882339F0682F70E0CE010E94BB3BCB010A
:1038D00002C080E090E0DF91CF9108950E94192509
:1038E00081E00E94152280917503909176030C94DB
:1038F000E4240C9430250E948A0D882321F00E9434
:10390000BB240C94CA2208950E947B1C0E947B0D4C
:103910002091790330917A032817390740F48CEB12
:1039200099E0909303038093020380E008958091CF
:103930007703909178030E94E42482E00895CF9366
:10394000DF931F92CDB7DEB769830E94B8169093BC
:103950007A03809379036981662369F0809130034B
:10396000909131039093780380937703809138038B
:10397000909139030CC0809132039091330390935E
:1039800078038093770380913A0390913B0390935F
:103990007603809375030F90DF91CF910895809106
:1039A0007C0390917D030C94AA1580917C039091E7
:1039B0007D0302960C94AA150E94D51C0E949F209C
:1039C0000C94DF35CF93DF930E940135EC010E9408
:1039D00001358C1B9D0B853B910510F00E94110E4B
:1039E0000E943935882399F3DF91CF910C94C83325
:1039F0000E94DC1C0E94C22F86E00E94D2330C94ED
:103A0000E21C0E94DC1C0E94110E0E94C62F87E05F
:103A10000E94D2330C94E21CE0917C03F0917D0370
:103A2000349685919491FC010994CF93DF931F9272
:103A3000CDB7DEB7811103C00E94011D0DC08130DA
:103A400049F480917B03811107C089830E94F81C8F
:103A5000898103C081E001C080E00F90DF91CF91A8
:103A600008950F931F93CF93DF93109223040E9426
:103A7000CF1CD2E000E010E0C1E00E943935809315
:103A800023040E94EB2FCC2379F00E94E320D82F4F
:103A90000E94151DC82F882339F00E94D80C0817E2
:103AA000190771F4C11107C080917B03882311F0BD
:103AB000D11110C0C0E0809123048130F1F60AC01A
:103AC0000E94D80C8C010E940C1DD82F0E94151D3D
:103AD000C82FE8CF0E94D51C8D2FDF91CF911F9169
:103AE0000F9108950E94321E0C94B51A0E941F1E59
:103AF0000E94791A81E02091420330914303232BE5
:103B000009F480E080937E0380E00C9415220F93EB
:103B10001F93CF930091790310917A03C8010E94FB
:103B20005B1C0E942C1CC82F0E949219811109C095
:103B3000C11107C00E947B0DC1E00817190708F4E6
:103B4000C0E08C2FCF911F910F9108950F931F9379
:103B5000CF930E94871DC82F0E94D91D8C01809190
:103B60007E03882329F0B8018C2F0E94792201C09E
:103B70008C2F811108C0B8018C2F0E94DA230E947B
:103B8000001E82E001C081E0CF911F910F91089546
:103B900080918303089581E0209181033091820315
:103BA000232B09F480E00895809181039091820392
:103BB000089580917F039091800308950E94800D65
:103BC000009711F481E090E0BC0184EF91E00E9445
:103BD000711920911603309117032817390708F43B
:103BE000C9010895813020E4920710F080E090E44C
:103BF00090938203809381030E9424080C94EA0D21
:103C0000CF93DF93EC010E94DE1DBC01C817D907DA
:103C100008F4BE0180917F03909180038617970777
:103C200059F07093800360937F0380E10E94AB0E94
:103C3000DF91CF910C94F21DDF91CF910895809187
:103C4000830381110EC080E090E00E94F21D10926B
:103C5000800310927F0381E00E941B0881E0809323
:103C600083030895809183038823A9F080E090E086
:103C70000E94F21D1092800310927F031092830322
:103C80008AE090E00E94193580E00E941B088AE0DB
:103C900090E00C941935089581E0809383030C948F
:103CA000321E87E08093630482E0809362040E9466
:103CB000CB3383E08093840308958FEF8093630474
:103CC0000C94C833EF92FF920F931F93CF93DF931F
:103CD00082E10E94320F20912A0330912B032A5057
:103CE00031092230310520F091E0C82FC92701C0E9
:103CF000C0E00E946B0D082F80917403882369F047
:103D000080912E0311E0801301C010E0D1E0011179
:103D1000D0E0813021F4DD2311F0D0E010E00E94EA
:103D2000710D8823B9F083E10E94C00C7C0182E10F
:103D30000E94C00CE816F90628F49C012E193F09D0
:103D4000790102C0E81AF90A35EFE31631E0F3060B
:103D500008F0C1E0111102C087E001C083E0809348
:103D60006304DD2329F0809163048250809363040F
:103D7000CC2329F080916304815080936304111156
:103D800004C0D11102C0CC2331F082E00E94D233B2
:103D9000D11106C003C00E94C83304C0112311F022
:103DA000011102C0D0E001C0D1E00E942F35811185
:103DB00002C010928403D11106C0C11104C00E9438
:103DC0002F35883041F080918403823011F082E0F9
:103DD00008C081E006C0809184038F5F80938403D4
:103DE000F2CFDF91CF911F910F91FF90EF90089547
:103DF0001092890308950E9401359093880380935F
:103E0000870308950E94013520918703309188032C
:103E1000821B930B20918503309186032817390765
:103E200028F081E08093890382E00895109289034D
:103E300081E008958091890308952CE3AC01249FCB
:103E4000C001259F900D11249093860380938503D4
:103E500008950E94791A0E94192581E00C94152278
:103E60000E9430250C94B51A0F931F93CF930091A5
:103E7000790310917A03C8010E945B1C0E94FD1B0C
:103E8000C82F0E949219811109C0C11107C00E9458
:103E90007B0DC1E08017910708F4C0E08C2FCF9113
:103EA0001F910F9108950F931F93CF930E94341F7A
:103EB000C82F0E94BB248C01BC018C2F0E94792248
:103EC000811108C0B8018C2F0E94DA230E94E424DB
:103ED00082E001C081E0CF911F910F9108950F936F
:103EE0001F9360919603709197038091980390912E
:103EF000990320919B03222371F00E94F6340091D4
:103F00009603109197032091980330919903601BB9
:103F1000710B820B930B1F910F9108956091920387
:103F200070919303809194039091950328EE33E070
:103F300040E050E00E94CF3BCA01B9010895609172
:103F40008E0370918F03809190039091910328EEDE
:103F500033E040E050E00E94CF3BCA01B901089530
:103F60000F931F93CF93DF9381E00E94B816EC016B
:103F700084E00E94B8168C0184E10E94C00C8C176A
:103F80009D07B8F408171907B0F49C01201B310BEA
:103F9000CE01801B910B64E670E00E94BB3BC9011F
:103FA0000E94BB3B6436710510F063E670E0862F1B
:103FB00003C083E601C080E0DF91CF911F910F9194
:103FC0000895CF92DF92EF92FF920E94B01F9091DE
:103FD0009A03981778F580939A03C0909D03D09028
:103FE0009E03E0909F03F090A0030E946F1FC61AEB
:103FF000D70AE80AF90A0E946F1F60939D03709325
:104000009E0380939F039093A0038091A1039091BE
:10401000A203A091A303B091A4038C159D05AE0546
:10402000BF0540F4C092A103D092A203E092A30383
:10403000F092A403FF90EF90DF90CF9008950E943C
:10404000E11F80919C03811102C0A4E601C0A9E692
:10405000B0E080919A03A81BB1092091A10330918F
:10406000A2034091A3035091A4030E94373C0895FA
:1040700008950E94B01F80939A0310929D0310929E
:104080009E0310929F031092A0031092A10310921E
:10409000A2031092A3031092A40310929203109211
:1040A0009303109294031092950310928E03109232
:1040B0008F0310929003109291030895CF93DF9392
:1040C00060E971E080E00E94AB0E90938D038093D5
:1040D0008C0381E00E94B816EC01C854D44FC93754
:1040E00029E6D20710F0C8E7D9E6CE010E945307AF
:1040F000BE0180E00E94AB0E813C2FEF920710F0D2
:1041000080EC9FEF90938B0380938A030E94710D44
:1041100080939C030E94F6346093960370939703F8
:1041200080939803909399030E9439201092A503DD
:1041300081E080939B03DF91CF910C94F30C0E945C
:104140006F1F6093960370939703809398039093E7
:10415000990310929B0308950E94AD2481111DC004
:104160000E94CB1D811119C00E949219882351F120
:104170008091920390919303A0919403B091950341
:1041800080599F4FAF4FBF4F8093920390939303FB
:10419000A0939403B0939503089580918E0390911A
:1041A0008F03A0919003B091910380599F4FAF4F1F
:1041B000BF4F80938E0390938F03A0939003B0938F
:1041C0009103D2CF0895CF93DF9380919B03811108
:1041D00002C082E08BC080E00E94C90C20918A035B
:1041E00030918B038217930758F420918C03309100
:1041F0008D038217930738F40E94C81D882319F095
:1042000088E59CE00CC08091A5038130C9F3C09182
:104210009C030E94710DC81741F089E49CE09093C3
:1042200003038093020380E061C0C0917703D091C3
:104230007803C851DC4F0E94850DC817D90718F4C0
:104240008EE39CE0ECCF86E00E94C00C20911C0322
:1042500030911D038217930718F48FE29CE0DFCFA3
:1042600089E10E94C00CEC010E94EA16883E2DEF05
:10427000920731F0C817D90718F08FE19CE01BC0F6
:10428000C0913C03D0913D03C83E83E0D807C8F4F9
:1042900060918E0370918F038091900390919103B0
:1042A00020E63AEE40E050E00E94CF3B2C173D075D
:1042B00040F084E19CE0909303038093020381E04B
:1042C00015C080913E0390913F03892B09F481CF63
:1042D00087E00E94C00C20914003309141032817D1
:1042E000390708F076CF84E09CE099CFDF91CF9139
:1042F00008950E94301F0E94721D0C94B51ACF932E
:10430000DF931F92CDB7DEB78091A603882329F0F3
:10431000813031F40E94A61D0CC00E94531F09C0B9
:104320000E94DE1B823089F089830E947921898175
:104330000CC0813051F490917403992331F082E0E4
:104340008093A6030E94791A82E00F90DF91CF91AB
:104350000895CF93DF930E94791A61E083E00E9471
:104360009F1CC0917903D0917A030E946B0D81113B
:1043700006C00E947B0DC817D90740F40CC0CE01BF
:104380000E945B1C0E942C1C882329F00E94291F7C
:104390001092A6030BC060E083E00E949F1C0E9465
:1043A000761D81E080937E038093A603DF91CF91F9
:1043B00008958091A703813029F48091750390912D
:1043C0007603089580E090E008952CE0829FC0017C
:1043D00011248D549C4F0C9457258BEF93E00C9433
:1043E0005725CF93DF9300D000D0CDB7DEB782E161
:1043F0000E94C00C9A83898384E10E94C00C2981A9
:104400003A81281B390B3A83298387E10E94C00C2B
:104410009C838B83CE0101960E9457250F900F90AD
:104420000F900F90DF91CF910895AF92BF92CF92EE
:10443000DF92EF92FF920F931F93CF93DF93182F8A
:1044400081E08093A7030E947B0D2091750330913A
:1044500076034091790350917A03012FBC0183EFD9
:1044600093E00E9470258091790390917A030E94D5
:104470005B1C6C018BEAE82E83E0F82EC0E0D0E0F4
:10448000AA24A394B12C2091FD023091FE02A50133
:104490008C2F0C2E02C0440F551F0A94E2F72423E0
:1044A0003523232B61F00E94E4192091750330918C
:1044B0007603012FA601BC01C7010E947025219639
:1044C0008CE0E80EF11CC630D105E9F6109201042B
:1044D0001092AA03109200041092FF03DF91CF9173
:1044E0001F910F91FF90EF90DF90CF90BF90AF9012
:1044F00008950F931F93CF93C82F8B01809174035E
:10450000882361F1CC2349F080910104811105C019
:104510000E94AD1A81E080930104809101048823F8
:1045200011F08530D9F42091750330917603203A4B
:10453000310510F420EA30E02017310710F4109212
:1045400070030E94DE1B8093A7038130F1F40E9468
:10455000111A882319F08FEF809373030E94D921D9
:104560008017910780F0CC2371F080910104853091
:1045700051F49091AA0381E0890F8093AA0381E00E
:104580009A3020F402C01092AA0380E0CF911F91CC
:104590000F910895CF92DF92EF92FF920F931F93A6
:1045A000CF93DF937C010E947B0DA701BC0183EFB9
:1045B00093E00E942D260BEA13E0C0E0D0E0CC246B
:1045C000C394D12C2091FD023091FE02C6010C2E25
:1045D00002C0880F991F0A94E2F728233923232B5E
:1045E00041F08C2F0E94E419A701BC01C8010E9470
:1045F0002D262196045F1F4FC630D10519F7DF9194
:10460000CF911F910F91FF90EF90DF90CF90089581
:10461000AF92BF92CF92DF92EF92FF920F931F93D0
:10462000CF93DF936091790370917A0383EF93E0E6
:104630000E9495257C018091790390917A030E94D4
:104640005B1C6C010BEA13E0C0E0D0E0AA24A39449
:10465000B12C8091FD029091FE0295010C2E02C0BA
:10466000220F331F0A94E2F728233923232B61F00A
:10467000B601C8010E949525E816F90628F0B60192
:10468000C8010E9495257C012196045F1F4FC6300A
:10469000D105F9F6C701DF91CF911F910F91FF90DE
:1046A000EF90DF90CF90BF90AF9008950F931F933E
:1046B000CF93DF93EB0120917703309178038C0146
:1046C0002817390708F489010E94D9219C01801715
:1046D000910708F49801C217D307E1F04091010453
:1046E0004530D1F42C173D07B8F082179307A0F49A
:1046F00080917503909176038C179D0758F0409137
:10470000A8035091A9038091530390915403481733
:10471000590711F4CE0109C08091530390915403BD
:104720009093A9038093A803C901DF91CF911F91B2
:104730000F910895CF92DF92EF92FF920F931F9304
:10474000CF93DF937C010E947B0D9093F4038093C1
:10475000F303F092F603E092F5030BEA13E0C0E0F6
:10476000D0E0CC24C394D12C2091FD023091FE02E4
:10477000A6018C2F0C2E02C0440F551F0A94E2F79D
:1047800024233523232B39F00E94E419F801918367
:104790008083F382E2822196045F1F4FC630D105E9
:1047A00019F7DF91CF911F910F91FF90EF90DF905C
:1047B000CF9008951F93CF93DF93182FEB010E94A2
:1047C0008A0D811108C01123B1F18091FF039091EE
:1047D0000004892B81F10E94921981112CC0CE0115
:1047E0000E94CA22CE010E949A230E9408238C179D
:1047F0009D0748F1909300048093FF03BE018091D0
:10480000FF03909100040E9456239093000480932C
:10481000FF0390910104923059F1F8F4992311F1BA
:10482000913089F5112339F083E0809301041092CF
:1048300000041092FF038091FF0390910004DF9128
:10484000CF911F9108959C012C0F3D1F3695279500
:10485000309300042093FF03D1CF933061F0943064
:1048600081F011C0112339F30E94AD1A81E00CC010
:1048700010920104E0CF109200041092FF0384E034
:1048800003C01123C1F285E080930104D4CF0C94BE
:104890006E1CCF93DF930E947B1C0E947B0DEC016A
:1048A00082E00E94B8168C179D0730F48091770340
:1048B000909178030E94E4248091790390917A0387
:1048C0008C179D0718F48CEB99E03CC00E94E20C19
:1048D000029710F482E03BC080913E0390913F0329
:1048E000892B69F08DE10E94C00C20914E0330911C
:1048F0004F03281739071CF482EB99E023C00E946C
:10490000E20C20914C0330914D03220F331FC1E084
:104910008217930708F4C0E08C2F0E94E70CCC2389
:10492000C9F28091480390914903892B99F28BE158
:104930000E94C00CEC010E941C17C817D90754F63E
:1049400088EB99E0909303038093020381E0DF9169
:10495000CF91089580910604089581E02091040488
:1049600030910504232B09F480E00895809104041C
:104970009091050408958091020490910304089594
:104980000E94800D009711F481E090E0BC018091BD
:104990001803909119030E9471192091120330910C
:1049A00013032817390708F4C9010895893E2DEF2C
:1049B000920710F088EE9DEF909305048093040415
:1049C0000E946B070C94EA0DCF93DF93EC010E94D9
:1049D000C024BC01C817D90708F4BE0180910204A5
:1049E000909103046817790750F49C01261B370B3C
:1049F0002D38310568F0BC016C58710909C09B0164
:104A0000281B390B2D38310518F0BC0164577F4F36
:104A10008617970759F070930304609302048FE0A0
:104A20000E94AB0EDF91CF910C94D624DF91CF91F1
:104A3000089580910604811112C01092050410920D
:104A40000404109203041092020480E090E00E949B
:104A5000D62481E00E94740781E0809306040895C3
:104A600080910604882389F080E090E00E94D6249B
:104A70001092050410920404109203041092020490
:104A800080E00E94740710920604089510920504B5
:104A900010920404109203041092020480E090E04B
:104AA0000E94D62481E0809306040C943025FC01FA
:104AB000428153814115510589F0A081B181B7FF31
:104AC00003C0B195A195B10928EE33E00E94253CC1
:104AD0009A0140E050E00E94CF3BA901CA0108952D
:104AE0000F93FC01CB01002341F04617570708F450
:104AF000CA016417750748F407C06417750708F4FE
:104B0000CA014617570708F4BA0197838683918331
:104B10008083138212821582148233872287681B56
:104B2000790B718760870F910895FC0186819781C9
:104B3000A285B3850084F185E02D3097D9F0AB01D3
:104B400060E070E09A01AB01281B390B4109510963
:104B50000E942C3C9F01FF0F440B550B0E94F13B20
:104B60002115310581E04807510524F457FD05C0A2
:104B7000C90108958FEF9FEF089580E090E00895B8
:104B8000DF92EF92FF920F931F93CF93DF93FC017D
:104B9000228133812417350720F4DA01A21BB30BDD
:104BA00003C0D901A41BB50B848195819695879587
:104BB0008A179B0728F5808191812417350738F4DF
:104BC000EA01C21BD30B7B01E81AF90A06C07C017B
:104BD000E61AF70AE901C41BD50B8F01C7010E9431
:104BE000BD15D82EF801808591850E94BD15D8127B
:104BF00007C0F801D583C483F186E086D387C287D6
:104C0000DF91CF911F910F91FF90EF90DF9008956A
:104C10000F931F93CF93DF93EC018B019A01A8852B
:104C2000B9850E94253C2A853B8540E050E00E94E2
:104C3000F13BC801A0E0B0E082179307A407B507D5
:104C40001CF41F821E8204C0021B130B1F830E83E1
:104C5000DF91CF911F910F910895EF92FF920F93E3
:104C60001F93CF93DF93EC018B017A010E94C02543
:104C7000A701B801CE01DF91CF911F910F91FF9055
:104C8000EF900C94082610923F0310923E030E946E
:104C9000EA3982E492E00E94ED2B0E94063A1092DB
:104CA000040308951F93CF93DF93182F66E979E0EB
:104CB0008AEA99E00E94962FD0E082E10E94320FAA
:104CC000C82F8823B1F00E946B0D91E0811101C0C3
:104CD00090E0191799F0D1110CC068E879E0112320
:104CE00019F08AEA99E002C08FE999E00E94962FB4
:104CF000D1E00E943935813001F7C0E08C2FDF917F
:104D0000CF911F910895AF92BF92DF92EF92FF92E1
:104D10000F931F93CF93DF93D82EEB015A01BA0163
:104D20000E94AB0E8C01BE018D2D0E94AB0E7C014A
:104D3000B5016C0F7D1F769567958D2D0E94AB0E8A
:104D40009C01E114F104D1F08FEFE816F806C1F0F0
:104D500001151105B9F00F3F8FEF1807A9F0E01604
:104D6000F106A0F4C9010A97E816F90688F4265F4F
:104D70003F4F2017310770F480E00DC081E00BC079
:104D800082E009C083E007C084E005C085E003C07D
:104D900086E001C087E0DF91CF911F910F91FF90D6
:104DA000EF90DF90BF90AF90089540911203509123
:104DB000130360911003709111038FE00E9483260A
:104DC000882311F0865F08954091120350911303D8
:104DD000609110037091110382E00C94832640913E
:104DE000160350911703609114037091150380E12D
:104DF0000E948326882311F0865F08954091160350
:104E000050911703609114037091150383E00C9483
:104E10008326CF930E944C14C82F8823F9F048E7CB
:104E200059E668EE73E080E00E948326882321F033
:104E3000682F80E899E00FC00E94D526882321F0D2
:104E4000682F87E799E007C00E94EF26882331F09A
:104E5000682F8BE699E00E945030C0E08C2FCF91F4
:104E600008950C9409278F929F92AF92BF92CF9290
:104E7000DF92EF92FF920F931F93CF93DF93CDB703
:104E8000DEB72D970FB6F894DEBF0FBECDBF6B0116
:104E90005A0160E070E02D870E946B2A2D85211158
:104EA00009C08091260390912703892B19F48BEF79
:104EB0009FE702C08FEF9FE70E94612A81E00E9476
:104EC000C92B082F87FDBBC00E94522A982E81FF54
:104ED000B1C0002E000C110BF601E00FF11F849001
:104EE000882D0E94320F882349F30E94FA0D1092F8
:104EF0000103109260000E94202C882309F494C0C2
:104F0000F501E00FF11F049184E00E94D233882D57
:104F10000E94C00C7C010E94103A802F0E94B70CA6
:104F20009A878987FC86EB868FE1881230C089E0FA
:104F30000E94B70C9E838D8388E00E94C00C8E0D6A
:104F40009F1D98878F838AE00E94B70C9A8389837C
:104F50000F81188580E20E94C00C800F911F9C83F6
:104F60008B83AE014B5F5F4F6091070488E00E9426
:104F7000130DAE014B5F5F4F6091070489E00E9403
:104F8000130D80E20E94320F8823F9F00FC080E2F7
:104F9000881213C08AE00E94B70C9A83898389E043
:104FA0000E94C00C8E0D9F1D9C838B83AE014F5FB2
:104FB0005F4F609107048AE006C0AE01475F5F4F14
:104FC00060910704802F0E94130D97FE2AC081E094
:104FD000809301030E94FA0D0E94103A80E00E9423
:104FE000B70C9A83898381E00E94B70C29813A81AA
:104FF000281B390B3A83298383E10E94C00C9C83D0
:105000008B83AE014F5F5F4F6091070480E00E9489
:10501000130DAE014F5F5F4F6091070481E00E9466
:10502000130D81E00E94B71381E080930103809308
:10503000600044CF82FF42CF0E94202C3FCF2D96AC
:105040000FB6F894DEBF0FBECDBFDF91CF911F9199
:105050000F91FF90EF90DF90CF90BF90AF909F9017
:105060008F90089581E090E0909308048093070466
:105070000E94781081E00E945226882349F020E0A7
:1050800044E953E06BE973E08AEF92E00E94332732
:105090000C94110E81E090E0909308048093070433
:1050A00080E00E9478101092620020E043E952E014
:1050B000BA0188E992E00E94332781E08093620080
:1050C0000C94110E10920804109207040E94063AE4
:1050D00081E090E090933F0380933E0380E00E9444
:1050E000781021E04AE552E0BA018BE592E00E9497
:1050F00033270E94110E0C94EA39CF93DF9300D02E
:1051000000D0CDB7DEB7482F60910E04CE010196D6
:105110000E94F70C67E08B819C810E946B380F9096
:105120000F900F900F90DF91CF9108950E94850D01
:1051300067E00E946B3880910D040E94B70C66E016
:105140000C94DE3720910D04223011F40C94D624F7
:105150000C94F21DEF92FF920F931F93CF93DF9366
:10516000CDB7DEB728970FB6F894DEBF0FBECDBF20
:1051700010E08DE7E82E88E2F82E82E00E942E2BC8
:10518000F0921A04E092190410931F0480E00E9428
:10519000C92B182F87FD93C081E00E94781080E012
:1051A0000E945226882309F487C0412F60910E0483
:1051B000CE0105960E94F70C412F60910D04CE019F
:1051C00001960E94F70C6CE679E282EA93E00E9475
:1051D0006B2A8F81988590930C0480930B0400E0D8
:1051E0008D819E8190930A048093090481E00E943E
:1051F000C92B87FD4CC081113CC080910D048230C9
:1052000039F40E94192588E799E60E94530702C0E5
:105210000E941F1E8091090490910A040E94A228F6
:105220000E94202C8823B9F00E94FA0D80910B0473
:1052300090910C0498878F832091090430910A047F
:105240003E832D839C838B8380910D040E94B70C39
:105250009A83898301E080E090E00E94A2288091F7
:105260000D04823019F40E943025BACF0E94321EFC
:10527000B7CF823009F0B4CF0E94202C8111B0CF7B
:105280008F81988590930C0480930B04A9CF002301
:1052900099F0AE014B5F5F4F612F80910E040E9429
:1052A000130DAE014F5F5F4F612F80910D040E947F
:1052B000130D81E00E94B7130E94110E5ECF289655
:1052C0000FB6F894DEBF0FBECDBFDF91CF911F9117
:1052D0000F91FF90EF90089560910D0440910904A3
:1052E00050910A0420910B0430910C04623079F43F
:1052F000493E5D4F30F048EE5DEF50930A04409315
:10530000090429353B41A8F028E53BE10EC04130B6
:10531000504430F040E050E450930A0440930904B4
:10532000293E334030F028EE33E030930C042093D4
:105330000B048950944031F48091090490910A043F
:105340000E94A22882E10E94320F81110CC066E9FE
:1053500079E08AEA99E00E94962F80910D048330CB
:1053600011F40C94321E08958FE080930E0482E0B5
:1053700080930D040C94AA2880E180930E0483E0AE
:1053800080930D040C94AA28A0910F04B0911004EE
:10539000609113047091140440E090E0FD012EE050
:1053A000929FE00DF11D1124329625913491211523
:1053B000310579F037FF03C077FF09C03058262345
:1053C0003723232B21F0882331F081504F5F9F5FDB
:1053D000E5CF842F0895892F08950F931F93CF93BE
:1053E000DF93C82F0E94C4299EE0899F8001112469
:1053F000E0910F04F0911004E00FF11F859194915A
:105400000E942836D82F0E94AC33882319F040918F
:10541000630401C04FEF042E000C550B2C2F30E01D
:1054200042175307F1F06FE06D1BE0910F04F0910C
:105430001004E00FF11F3596C491CC2329F0862F7C
:105440008C1B0E9464366C2F80910F049091100485
:10545000800F911F0496DF91CF911F910F910C94B3
:105460002E33DF91CF911F910F9108950E94C4298F
:1054700020910F04309110049EE0899F200D311D72
:105480001124F901369685919491F901349624916D
:105490002150223030F4FC0185919591A591B49171
:1054A000CD0108950E94C429E0910F04F0911004E9
:1054B0009EE0899FE00DF11D112432968591949113
:1054C000089590931404809313048FEF0E94C429CD
:1054D00080931D0408959093100480930F0470939B
:1054E00012046093110480E00E942E2B8DEE99E24D
:1054F00090931A048093190489E89AE2909318040F
:10550000809317048FEF809363048FEF9FE70C94D1
:10551000612ADF92EF92FF920F931F93CF93DF9355
:10552000CDB7DEB762970FB6F894DEBF0FBECDBF22
:10553000182FD62E0E94362A7C01812F0E94C42962
:1055400020910F04309110049EE0899F200D311DA1
:105550001124B901685F7F4F46E050E0CE01079605
:105560000E943F3C86E0FE013796DE0111960190D5
:105570000D928A95E1F709811A814B815C812D8119
:105580003E81E2E0DE1203C06FEF7FEF02C061E018
:1055900070E00F3FFFE71F0721F4C7010E94441688
:1055A0003AC00E3F8FE7180721F4CB01FA010995A5
:1055B00032C00C3FFFE71F07B9F4F70180819181EA
:1055C000680F791F261737071CF07183608303C0AB
:1055D000F70131832083F70180819181841795073A
:1055E000D4F45183408317C00D3FFFE71F0781F4B8
:1055F000298B3A8B4F87588B6D877E870E94323577
:10560000082F10E07E856D8558894F853A89298954
:10561000C7010E940516E0911104F0911204309721
:1056200011F0C701099562960FB6F894DEBF0FBE60
:10563000CDBFDF91CF911F910F91FF90EF90DF9041
:105640000895E0911504F091160494E0899FE00D0F
:10565000F11D1124859194910C94283610921F0409
:1056600010921E0480931D0481E080931C0480939B
:105670001B040895409115045091160480E0FA012E
:1056800094E0899FE00DF11D112425913491232B85
:1056900011F08F5FF4CF089580911F048F5F809386
:1056A0001F04089580911F04882319F0815080936E
:1056B0001F04089580911D0490911F04981718F0FD
:1056C000815080931F0480911F0490911E048917BC
:1056D00010F480931E0420911E0430E02F5F3F4F92
:1056E000482F50E0241735071CF4815080931E0486
:1056F0000895CF930E945A2BC0911E0420911E043E
:10570000822F90E001964C2F50E084179507E4F02B
:105710006C2F621B80E00E94D53580911F04C81752
:1057200011F080E201C08EE30E94E13580911D04FA
:10573000C81730F4E0911904F0911A048C2F0995E0
:105740000E946B36CF5FDACF10921C04CF91089580
:10575000CF930E943935C82F0E94B139882329F090
:1057600081E080931C048FE712C0C23029F0C4305E
:1057700041F40E944C2B02C00E94522B81E0809386
:105780001C0480911C0481110E94792B8C2FCF91D5
:105790000895CF93DF93C82F81E080931C04D1E05C
:1057A0000E94A82B811102C010921B0490911B042F
:1057B000911108C0883031F481E080931B048091FE
:1057C0001F0408C0C111D0931C04813049F7911106
:1057D000E7CF8FEFDF91CF910895EF92FF920F9374
:1057E0001F93CF938C01C0E081E2E82E8BE2F82E6C
:1057F00010931604009315040E943A2B0E942E2B3E
:10580000F0921A04E0921904C0931F0480E00E94F1
:10581000C92BC82F87FD0EC02091150430911604A6
:10582000C90144E0C402800D911D112402960E941A
:10583000AA15DECFCF911F910F91FF90EF900895A1
:10584000CF93DF9380911F048093630410926204CE
:1058500081E080931C04D2E0C1E00E943935682FBA
:10586000823011F0843081F4E0911704F091180433
:1058700080911F04099580911F0480936304D09345
:105880006204C0931C0404C0813091F0883081F020
:105890000E94B8338111C0931C0480911C048111B3
:1058A0000E94792B809162048F5F80936204D5CF30
:1058B0008FEF8093630481E080931B0480931C042A
:1058C000683009F080E0DF91CF9108950C9457146F
:1058D0008AED93E00C94ED2B0F931F93CF93DF93FE
:1058E000EC010E94511701E010E09C0141E050E002
:1058F000BE018EE293E00E940516DF91CF911F91C9
:105900000F910895CF93DF9380912A0390912B03F9
:10591000892B51F10E94E216C1E0D0E002C0CC0F09
:10592000DD1F8A95E2F780913E0390913F03892B1A
:1059300011F4D05C07C00E94E216882311F0DF5BEF
:1059400001C0DB5B0E94E216811106C08091480312
:1059500090914903892B59F4809126039091270354
:10596000892B39F0D05805C0C0E0D0E402C0DE5F1A
:10597000F3CFCE01DF91CF91089523E08A329207D1
:1059800019F40E946C1813C023E08C32920719F4AA
:105990000E9447180CC023E08033920719F40E943C
:1059A0002D1805C08253934011F40E943A180E94AA
:1059B00065170E94822C0C94612A1F93CF93DF936A
:1059C000CDB7DEB7A8970FB6F894DEBF0FBECDBF38
:1059D0006DEB7CE28AEE93E00E946B2A18E20E9453
:1059E000822C0E94612A80E00E94C92B87FD1DC085
:1059F000EAE2F3E0DE011196812F01900D928A9583
:105A0000E1F70E94202C81110AC0FE013196AAE222
:105A1000B3E0812F01900D928A95E1F7E0CF84E009
:105A20000E94D2330E946517DACFA8960FB6F89479
:105A3000DEBF0FBECDBFDF91CF911F910895E091E2
:105A40002104F0912204E80FF11D649188E695E0AD
:105A50000C9440361F93CF93DF93182F0E940E189B
:105A6000CFE1DDE20E94E21620912A0330912B0360
:105A7000232B59F0833061F0823069F0882371F074
:105A8000853079F02EE735E00EC029E935E00BC00E
:105A900029E835E008C020E935E005C024E835E014
:105AA00002C02CE735E0309322042093210490E0DB
:105AB00081E0890FF901E90FF11DE491982FE93098
:105AC000B9F70E942E2BD0931A04C0931904809129
:105AD000200480931F0480E00E94C92B90911F0432
